{
  "_format": "hh-sol-artifact-1",
  "contractName": "UserContract",
  "sourceName": "contracts/user/UserContract.sol",
  "abi": [
    {
      "anonymous": false,
      "inputs": [
        {
          "indexed": true,
          "internalType": "address",
          "name": "owner",
          "type": "address"
        },
        {
          "indexed": true,
          "internalType": "address",
          "name": "approved",
          "type": "address"
        },
        {
          "indexed": true,
          "internalType": "uint256",
          "name": "tokenId",
          "type": "uint256"
        }
      ],
      "name": "Approval",
      "type": "event"
    },
    {
      "anonymous": false,
      "inputs": [
        {
          "indexed": true,
          "internalType": "address",
          "name": "owner",
          "type": "address"
        },
        {
          "indexed": true,
          "internalType": "address",
          "name": "operator",
          "type": "address"
        },
        {
          "indexed": false,
          "internalType": "bool",
          "name": "approved",
          "type": "bool"
        }
      ],
      "name": "ApprovalForAll",
      "type": "event"
    },
    {
      "anonymous": false,
      "inputs": [
        {
          "indexed": true,
          "internalType": "address",
          "name": "previousOwner",
          "type": "address"
        },
        {
          "indexed": true,
          "internalType": "address",
          "name": "newOwner",
          "type": "address"
        }
      ],
      "name": "OwnershipTransferred",
      "type": "event"
    },
    {
      "anonymous": false,
      "inputs": [
        {
          "indexed": true,
          "internalType": "address",
          "name": "from",
          "type": "address"
        },
        {
          "indexed": true,
          "internalType": "address",
          "name": "to",
          "type": "address"
        },
        {
          "indexed": true,
          "internalType": "uint256",
          "name": "tokenId",
          "type": "uint256"
        }
      ],
      "name": "Transfer",
      "type": "event"
    },
    {
      "inputs": [
        {
          "internalType": "address",
          "name": "to",
          "type": "address"
        },
        {
          "internalType": "uint256",
          "name": "tokenId",
          "type": "uint256"
        }
      ],
      "name": "approve",
      "outputs": [],
      "stateMutability": "nonpayable",
      "type": "function"
    },
    {
      "inputs": [
        {
          "internalType": "address",
          "name": "owner",
          "type": "address"
        }
      ],
      "name": "balanceOf",
      "outputs": [
        {
          "internalType": "uint256",
          "name": "",
          "type": "uint256"
        }
      ],
      "stateMutability": "view",
      "type": "function"
    },
    {
      "inputs": [
        {
          "internalType": "address",
          "name": "agent",
          "type": "address"
        },
        {
          "internalType": "string",
          "name": "vehicleRegistrationCode",
          "type": "string"
        }
      ],
      "name": "createVehicleRequest",
      "outputs": [],
      "stateMutability": "nonpayable",
      "type": "function"
    },
    {
      "inputs": [
        {
          "internalType": "string",
          "name": "driverLicenseCode",
          "type": "string"
        }
      ],
      "name": "defineDriverLicenseCode",
      "outputs": [],
      "stateMutability": "nonpayable",
      "type": "function"
    },
    {
      "inputs": [
        {
          "internalType": "address",
          "name": "user",
          "type": "address"
        }
      ],
      "name": "driverLicenseCodeOf",
      "outputs": [
        {
          "internalType": "string",
          "name": "",
          "type": "string"
        }
      ],
      "stateMutability": "view",
      "type": "function"
    },
    {
      "inputs": [
        {
          "internalType": "uint256",
          "name": "tokenId",
          "type": "uint256"
        }
      ],
      "name": "getApproved",
      "outputs": [
        {
          "internalType": "address",
          "name": "",
          "type": "address"
        }
      ],
      "stateMutability": "view",
      "type": "function"
    },
    {
      "inputs": [],
      "name": "getDriverLicenseCode",
      "outputs": [
        {
          "internalType": "string",
          "name": "driverLicenseCode",
          "type": "string"
        }
      ],
      "stateMutability": "view",
      "type": "function"
    },
    {
      "inputs": [
        {
          "internalType": "uint256",
          "name": "requestId",
          "type": "uint256"
        }
      ],
      "name": "getUserVehicleRequestById",
      "outputs": [
        {
          "components": [
            {
              "internalType": "address",
              "name": "requester",
              "type": "address"
            },
            {
              "internalType": "address",
              "name": "agent",
              "type": "address"
            },
            {
              "internalType": "string",
              "name": "vehicleRegistrationCode",
              "type": "string"
            },
            {
              "components": [
                {
                  "internalType": "string",
                  "name": "carBrand",
                  "type": "string"
                },
                {
                  "internalType": "string",
                  "name": "carModel",
                  "type": "string"
                },
                {
                  "internalType": "uint256",
                  "name": "manufacturingDate",
                  "type": "uint256"
                },
                {
                  "internalType": "uint256[]",
                  "name": "vehicleOwnershipRecordIds",
                  "type": "uint256[]"
                }
              ],
              "internalType": "struct IBaseContract.VehicleRequestData",
              "name": "vehicleData",
              "type": "tuple"
            },
            {
              "internalType": "enum IBaseContract.Status",
              "name": "status",
              "type": "uint8"
            },
            {
              "internalType": "uint256",
              "name": "createdAt",
              "type": "uint256"
            },
            {
              "internalType": "uint256",
              "name": "updatedAt",
              "type": "uint256"
            }
          ],
          "internalType": "struct IBaseContract.VehicleRequest",
          "name": "",
          "type": "tuple"
        }
      ],
      "stateMutability": "view",
      "type": "function"
    },
    {
      "inputs": [
        {
          "internalType": "address",
          "name": "owner",
          "type": "address"
        },
        {
          "internalType": "address",
          "name": "operator",
          "type": "address"
        }
      ],
      "name": "isApprovedForAll",
      "outputs": [
        {
          "internalType": "bool",
          "name": "",
          "type": "bool"
        }
      ],
      "stateMutability": "view",
      "type": "function"
    },
    {
      "inputs": [],
      "name": "listApprovalsIds",
      "outputs": [
        {
          "internalType": "uint256[]",
          "name": "",
          "type": "uint256[]"
        }
      ],
      "stateMutability": "view",
      "type": "function"
    },
    {
      "inputs": [],
      "name": "listUserVehicleRequestsIds",
      "outputs": [
        {
          "internalType": "uint256[]",
          "name": "",
          "type": "uint256[]"
        }
      ],
      "stateMutability": "view",
      "type": "function"
    },
    {
      "inputs": [],
      "name": "name",
      "outputs": [
        {
          "internalType": "string",
          "name": "",
          "type": "string"
        }
      ],
      "stateMutability": "view",
      "type": "function"
    },
    {
      "inputs": [],
      "name": "owner",
      "outputs": [
        {
          "internalType": "address",
          "name": "",
          "type": "address"
        }
      ],
      "stateMutability": "view",
      "type": "function"
    },
    {
      "inputs": [
        {
          "internalType": "uint256",
          "name": "tokenId",
          "type": "uint256"
        }
      ],
      "name": "ownerOf",
      "outputs": [
        {
          "internalType": "address",
          "name": "",
          "type": "address"
        }
      ],
      "stateMutability": "view",
      "type": "function"
    },
    {
      "inputs": [],
      "name": "renounceOwnership",
      "outputs": [],
      "stateMutability": "nonpayable",
      "type": "function"
    },
    {
      "inputs": [
        {
          "internalType": "address",
          "name": "from",
          "type": "address"
        },
        {
          "internalType": "address",
          "name": "to",
          "type": "address"
        },
        {
          "internalType": "uint256",
          "name": "tokenId",
          "type": "uint256"
        }
      ],
      "name": "safeTransferFrom",
      "outputs": [],
      "stateMutability": "nonpayable",
      "type": "function"
    },
    {
      "inputs": [
        {
          "internalType": "address",
          "name": "from",
          "type": "address"
        },
        {
          "internalType": "address",
          "name": "to",
          "type": "address"
        },
        {
          "internalType": "uint256",
          "name": "tokenId",
          "type": "uint256"
        },
        {
          "internalType": "bytes",
          "name": "data",
          "type": "bytes"
        }
      ],
      "name": "safeTransferFrom",
      "outputs": [],
      "stateMutability": "nonpayable",
      "type": "function"
    },
    {
      "inputs": [
        {
          "internalType": "address",
          "name": "operator",
          "type": "address"
        },
        {
          "internalType": "bool",
          "name": "approved",
          "type": "bool"
        }
      ],
      "name": "setApprovalForAll",
      "outputs": [],
      "stateMutability": "nonpayable",
      "type": "function"
    },
    {
      "inputs": [
        {
          "internalType": "bytes4",
          "name": "interfaceId",
          "type": "bytes4"
        }
      ],
      "name": "supportsInterface",
      "outputs": [
        {
          "internalType": "bool",
          "name": "",
          "type": "bool"
        }
      ],
      "stateMutability": "view",
      "type": "function"
    },
    {
      "inputs": [],
      "name": "symbol",
      "outputs": [
        {
          "internalType": "string",
          "name": "",
          "type": "string"
        }
      ],
      "stateMutability": "view",
      "type": "function"
    },
    {
      "inputs": [
        {
          "internalType": "uint256",
          "name": "tokenId",
          "type": "uint256"
        }
      ],
      "name": "tokenURI",
      "outputs": [
        {
          "internalType": "string",
          "name": "",
          "type": "string"
        }
      ],
      "stateMutability": "view",
      "type": "function"
    },
    {
      "inputs": [
        {
          "internalType": "address",
          "name": "from",
          "type": "address"
        },
        {
          "internalType": "address",
          "name": "to",
          "type": "address"
        },
        {
          "internalType": "uint256",
          "name": "tokenId",
          "type": "uint256"
        }
      ],
      "name": "transferFrom",
      "outputs": [],
      "stateMutability": "nonpayable",
      "type": "function"
    },
    {
      "inputs": [
        {
          "internalType": "address",
          "name": "newOwner",
          "type": "address"
        }
      ],
      "name": "transferOwnership",
      "outputs": [],
      "stateMutability": "nonpayable",
      "type": "function"
    },
    {
      "inputs": [
        {
          "internalType": "string",
          "name": "driverLicenseCode",
          "type": "string"
        }
      ],
      "name": "userRegistration",
      "outputs": [],
      "stateMutability": "nonpayable",
      "type": "function"
    }
  ],
  "bytecode": "0x6080604052346200002657620000146200002b565b60405161243462000502823961243490f35b600080fd5b6200003562000037565b565b620000356200003562000035620000356200003562000035620000356200003562000138565b634e487b7160e01b600052604160045260246000fd5b90601f01601f191681019081106001600160401b038211176200009557604052565b6200005d565b9062000035620000aa60405190565b928362000073565b6001600160401b0381116200009557602090601f01601f19160190565b90620000e5620000df83620000b2565b6200009b565b918252565b620000f66003620000cf565b6213919560ea1b602082015290565b6200010f620000ea565b90565b6200011e6004620000cf565b631593919560e21b602082015290565b6200010f62000112565b620001576200014662000105565b620001506200012e565b9062000163565b62000035601f620004d1565b6200003591829182918291829182916200017e9190620003a4565b620000353362000434565b634e487b7160e01b600052602260045260246000fd5b9060016002830492168015620001c2575b6020831014620001bc57565b62000189565b91607f1691620001b0565b9160001960089290920291821b911b5b9181191691161790565b6200010f6200010f6200010f9290565b91906200020c6200010f6200021593620001e7565b908354620001cd565b9055565b6200003591600091620001f7565b81811062000233575050565b8062000243600060019362000219565b0162000227565b9190601f81116200025a57505050565b6200026e6200003593600052602060002090565b906020601f84018190048301931062000292575b6020601f90910104019062000227565b909150819062000282565b9060001960089091021c191690565b81620002b8916200029d565b906002021790565b90620002ca815190565b906001600160401b0382116200009557620002f282620002eb85546200019f565b856200024a565b602090601f831160011462000325576200021592916000918362000319575b5050620002ac565b01519050388062000311565b601f198316916200033b85600052602060002090565b9260005b8181106200037f5750916002939185600196941062000362575b50505002019055565b62000374910151601f8416906200029d565b905538808062000359565b919360206001819287870151815501950192016200033f565b906200003591620002c0565b90620003b66200003592601862000398565b601962000398565b6200010f905b6001600160a01b031690565b6200010f9054620003be565b906001600160a01b0390620001dd565b6200010f90620003c4906001600160a01b031682565b6200010f90620003ec565b6200010f9062000402565b906200042c6200010f62000215926200040d565b8254620003dc565b62000440601e620003d0565b906200044e81601e62000418565b620004856200047e7f8be0079c531659141344cd1fd0a4f28419497f9722a3daafe3b4186f6b6457e0936200040d565b916200040d565b916200049060405190565b600090a3565b6200010f9081565b6200010f905462000496565b9060001990620001dd565b90620004c96200010f6200021592620001e7565b8254620004aa565b6200003590620004fa6000620004e86001620001e7565b920191620004f6836200049e565b0190565b90620004b556fe6080604052600436101561001257600080fd5b60003560e01c806301ffc9a71461019257806306fdde031461018d578063081812fc14610188578063095ea7b3146101835780631114cd571461017e5780631499f40b1461017957806314a5189a1461017457806315acca771461016f57806323b872dd1461016a57806342842e0e146101655780634c7525da146101605780636352211e1461015b57806370a0823114610156578063715018a61461015157806378301afd1461014c5780638da5cb5b1461014757806395d89b4114610142578063993266221461013d578063a22cb46514610138578063b88d4fde14610133578063bc6f4be61461012e578063c87b56dd14610129578063e985e9c5146101245763f2fde38b036101b45761096c565b610950565b610912565b6108fa565b6108de565b610876565b610823565b610808565b6107ed565b6107d5565b610798565b61076d565b610752565b610739565b610629565b610610565b6105c5565b610596565b61056f565b6103e4565b61035f565b6102ff565b61028c565b6101e3565b6001600160e01b03191690565b6101ad81610197565b036101b457565b600080fd5b905035906101c6826101a4565b565b906020828203126101b4576101dc916101b9565b90565b9052565b346101b4576102116101fe6101f93660046101c8565b610b9e565b6040515b91829182901515815260200190565b0390f35b60009103126101b457565b60005b8381106102335750506000910152565b8181015183820152602001610223565b61026461026d60209361027793610258815190565b80835293849260200190565b95869101610220565b601f01601f191690565b0190565b60208082526101dc92910190610243565b346101b45761029c366004610215565b6102116102a7610e25565b6040519182918261027b565b806101ad565b905035906101c6826102b3565b906020828203126101b4576101dc916102b9565b6001600160a01b031690565b6101df906102da565b6020810192916101c691906102e6565b346101b45761021161031a6103153660046102c6565b61104a565b604051918291826102ef565b6101ad816102da565b905035906101c682610326565b91906040838203126101b4576101dc90610356818561032f565b936020016102b9565b346101b45761037861037236600461033c565b90610fda565b604051005b9061039d61039661038c845190565b8084529260200190565b9260200190565b9060005b8181106103ae5750505090565b9091926103cb6103c46001928651815260200190565b9460200190565b9291016103a1565b60208082526101dc9291019061037d565b346101b4576103f4366004610215565b6102116103ff6123f4565b604051918291826103d3565b9061041a61039661038c845190565b9060005b81811061042b5750505090565b9091926104416103c46001928651815260200190565b92910161041e565b805160808084526101dc939160609161047a9161046891850190610243565b60208501518482036020860152610243565b9261048a60408201516040850152565b015190606081840391015261040b565b634e487b7160e01b600052602160045260246000fd5b600411156104ba57565b61049a565b906101c6826104b0565b6101dc906104bf565b6101df906104c9565b906101dc9060c08061053561052360e085016104ff600089015160008801906102e6565b610511602089015160208801906102e6565b60408801518682036040880152610243565b60608701518582036060870152610449565b94610548608082015160808601906104d2565b61055760a082015160a0860152565b0151910152565b60208082526101dc929101906104db565b346101b45761021161058a6105853660046102c6565b61239c565b6040519182918261055e565b346101b4576105a6366004610215565b6102116103ff6121f8565b906020828203126101b4576101dc9161032f565b346101b4576102116102a76105db3660046105b1565b611d61565b90916060828403126101b4576101dc6105f9848461032f565b93610607816020860161032f565b936040016102b9565b346101b4576103786106233660046105e0565b91611103565b346101b45761037861063c3660046105e0565b91611120565b634e487b7160e01b600052604160045260246000fd5b90601f01601f191681019081106001600160401b0382111761067957604052565b610642565b906101c661068b60405190565b9283610658565b6001600160401b03811161067957602090601f01601f19160190565b90826000939282370152565b909291926106cf6106ca82610692565b61067e565b938185526020850190828401116101b4576101c6926106ae565b9080601f830112156101b4578160206101dc933591016106ba565b9190916040818403126101b45761071b838261032f565b9260208201356001600160401b0381116101b4576101dc92016106e9565b346101b45761037861074c366004610704565b906120ef565b346101b45761021161031a6107683660046102c6565b610d00565b346101b4576102116107886107833660046105b1565b610c7d565b6040519182918290815260200190565b346101b4576107a8366004610215565b6103786109d0565b906020828203126101b45781356001600160401b0381116101b4576101dc92016106e9565b346101b4576103786107e83660046107b0565b611bfa565b346101b4576107fd366004610215565b61021161031a61098e565b346101b457610818366004610215565b6102116102a7610e2f565b346101b457610833366004610215565b6102116102a7611d3a565b8015156101ad565b905035906101c68261083e565b91906040838203126101b4576101dc9061086d818561032f565b93602001610846565b346101b457610378610889366004610853565b9061106f565b906080828203126101b4576108a4818361032f565b926108b2826020850161032f565b926040926108c2818584016102b9565b936001806060850135921b0381116101b4576101dc92016106e9565b346101b4576103786108f136600461088f565b92919091611130565b346101b45761037861090d3660046107b0565b611d00565b346101b4576102116102a76109283660046102c6565b610e9f565b91906040838203126101b4576101dc90610947818561032f565b9360200161032f565b346101b4576102116101fe61096636600461092d565b9061107a565b346101b45761037861097f3660046105b1565b610ae4565b6101dc90546102da565b6101dc601e610984565b6109a0610a2c565b6101c66109be565b6102da6101dc6101dc9290565b6101dc906109a8565b6101c66109cb60006109b5565b610b43565b6101c6610998565b156109df57565b60405162461bcd60e51b815280610a28600482016020808252818101527f4f776e61626c653a2063616c6c6572206973206e6f7420746865206f776e6572604082015260600190565b0390fd5b6101c6610a3761098e565b610a4e610a48336102da565b6102da565b916102da565b146109d8565b6101c690610a60610a2c565b610ac0565b15610a6c57565b60405162461bcd60e51b815260206004820152602660248201527f4f776e61626c653a206e6577206f776e657220697320746865207a65726f206160448201526564647265737360d01b6064820152608490fd5b6101c6906109cb610ad4610a4360006109b5565b610add836102da565b1415610a65565b6101c690610a54565b906001600160a01b03905b9181191691161790565b6101dc906102da906001600160a01b031682565b6101dc90610b02565b6101dc90610b16565b90610b386101dc610b3f92610b1f565b8254610aed565b9055565b610b4d601e610984565b90610b5981601e610b28565b610b8c610b867f8be0079c531659141344cd1fd0a4f28419497f9722a3daafe3b4186f6b6457e093610b1f565b91610b1f565b91610b9660405190565b80805b0390a3565b610bae6380ac58cd60e01b610197565b610bb782610197565b14908115610bd4575b8115610bca575090565b6101dc915061182f565b9050610be6635b5e139f60e01b610197565b610bef82610197565b1490610bc0565b15610bfd57565b60405162461bcd60e51b815260206004820152602960248201527f4552433732313a2061646472657373207a65726f206973206e6f7420612076616044820152683634b21037bbb732b960b91b6064820152608490fd5b90610c5e90610b1f565b600052602052604060002090565b6101dc9081565b6101dc9054610c6c565b610cb46101dc91610c8c600090565b50610cad610c9d610a4360006109b5565b610ca6836102da565b1415610bf6565b601b610c54565b610c73565b15610cc057565b60405162461bcd60e51b8152602060048201526018602482015277115490cdcc8c4e881a5b9d985b1a59081d1bdad95b88125160421b6044820152606490fd5b610d0d9060005b506111d0565b6101dc610d1d610a4360006109b5565b610d26836102da565b1415610cb9565b634e487b7160e01b600052602260045260246000fd5b9060016002830492168015610d63575b6020831014610d5e57565b610d2d565b91607f1691610d53565b80546000939291610d8a610d8083610d43565b8085529360200190565b9160018116908115610ddc5750600114610da357505050565b610db69192939450600052602060002090565b916000925b818410610dc85750500190565b805484840152602090930192600101610dbb565b92949550505060ff1916825215156020020190565b906101dc91610d6d565b906101c6610e1592610e0c60405190565b93848092610df1565b0383610658565b6101dc90610dfb565b6101dc6018610e1c565b6101dc6019610e1c565b6101dc6101dc6101dc9290565b90610e536106ca83610692565b918252565b6101dc6000610e46565b6101dc610e58565b610277610e8292602092610e7c815190565b94859290565b93849101610220565b610e99906101dc9392610e6a565b90610e6a565b610ea88161158f565b610eb0610f0a565b8051610ec3610ebf6000610e39565b9190565b1115610f00576101dc610ef491610edc6101dc9461179a565b90610ee660405190565b938492602084019283610e8b565b90810382520382610658565b50506101dc610e62565b6101dc610e62565b15610f1957565b60405162461bcd60e51b815260206004820152602160248201527f4552433732313a20617070726f76616c20746f2063757272656e74206f776e656044820152603960f91b6064820152608490fd5b15610f6f57565b60405162461bcd60e51b815260206004820152603d60248201527f4552433732313a20617070726f76652063616c6c6572206973206e6f7420746f60448201527f6b656e206f776e6572206f7220617070726f76656420666f7220616c6c0000006064820152608490fd5b906101c69161102a610feb83610d00565b611007610ff7826102da565b611000856102da565b1415610f12565b33611011826102da565b61101a826102da565b1491821561102f575b5050610f68565b611469565b611039925061107a565b3880611023565b90610c5e90610e39565b61106a6101dc91611059600090565b506110638161158f565b601c611040565b610984565b6101c691903361151b565b6101dc9161109561109a9261108d600090565b50601d610c54565b610c54565b5460ff1690565b156110a857565b60405162461bcd60e51b815260206004820152602d60248201527f4552433732313a2063616c6c6572206973206e6f7420746f6b656e206f776e6560448201526c1c881bdc88185c1c1c9bdd9959609a1b6064820152608490fd5b6101c692919061111b61111684336111e7565b6110a1565b611359565b90916101c69261112e610e62565b925b6101c69392919061114461111684336111e7565b6111b1565b1561115057565b6040515b62461bcd60e51b815260206004820152603260248201527f4552433732313a207472616e7366657220746f206e6f6e20455243373231526560448201527131b2b4bb32b91034b6b83632b6b2b73a32b960711b6064820152608490fd5b916101c693916111cb936111c6838383611359565b61163e565b611149565b61106a6101dc916111df600090565b50601a611040565b6111f082610d00565b916111fa836102da565b611203836102da565b14928315611234575b50821561121857505090565b61123091925061122a610a489161104a565b926102da565b1490565b611241919350829061107a565b913861120c565b1561124f57565b60405162461bcd60e51b815260206004820152602560248201527f4552433732313a207472616e736665722066726f6d20696e636f72726563742060448201526437bbb732b960d91b6064820152608490fd5b156112a957565b60405162461bcd60e51b8152602060048201526024808201527f4552433732313a207472616e7366657220746f20746865207a65726f206164646044820152637265737360e01b6064820152608490fd5b916001600160a01b0360089290920291821b911b610af8565b91906113246101dc610b3f93610b1f565b9083546112fa565b6101c691600091611313565b9060001990610af8565b906113526101dc610b3f92610e39565b8254611338565b919061137961136783610d00565b611373610a48866102da565b14611248565b6113c5600061139d61138d610a43836109b5565b611396856102da565b14156112a2565b6113b56113a985610d00565b611373610a48886102da565b6113c084601c611040565b61132c565b6114096113d26001610e39565b6113f96113ff84601b6110956113e88a83610c54565b6113f9876113f583610c73565b0390565b90611342565b9161027783610c73565b61141d8161141884601a611040565b610b28565b61145961145361144d7fddf252ad1be2c89b69c2b068fc378daa952ba7f163c4a11628f55a4df523b3ef95610b1f565b92610b1f565b92610e39565b9261146360405190565b600090a4565b906114798261141883601c611040565b61148281610d00565b9161145961145361144d7f8c5be1e5ebec7d5bd14f71427d1e84f3dd0314c0f7b2291e5b200ac8c7c3b92595610b1f565b156114ba57565b60405162461bcd60e51b815260206004820152601960248201527822a9219b99189d1030b8383937bb32903a379031b0b63632b960391b6044820152606490fd5b9060ff90610af8565b906115146101dc610b3f92151590565b82546114fb565b611537611527836102da565b611530836102da565b14156114b3565b61154f8361154a8461109585601d610c54565b611504565b610b9961158561157f7f17307eab39ab6107e8899845ad3d59bd9653f200f220920489ca2b5937696c3193610b1f565b93610b1f565b9361020260405190565b61159b6101c6916115a0565b610cb9565b6115ab906000610d07565b6115bb610a48610a4360006109b5565b141590565b905051906101c6826101a4565b906020828203126101b4576101dc916115c0565b90926116129061160b6101dc9694611601608086019760008701906102e6565b60208501906102e6565b6040830152565b6060818403910152610243565b3d156116395761162e3d610e46565b903d6000602084013e565b606090565b9190939261164a600090565b946116548161173b565b15611731579061169b600061167361166e60209695610b1f565b610b1f565b926116a663150b7a02916116843390565b9661168e60405190565b998a988997889660e01b90565b8652600486016115e1565b03925af160009181611701575b506116e557506116c161161f565b80516116d0610ebf6000610e39565b036116dd57604051611154565b805190602001fd5b9091506112306116fb630a85bd0160e11b610197565b91610197565b61172391925060203d811161172a575b61171b8183610658565b8101906115cd565b90386116b3565b503d611711565b5060019450505050565b3b611749610ebf6000610e39565b1190565b369037565b906101c661176861176284610e46565b93610692565b601f19016020840161174d565b634e487b7160e01b600052601260045260246000fd5b8115611795570490565b611775565b6117a381611842565b906117b360019261027784610e39565b91806117be84611752565b80946117c8600090565b5060200101905b6117da575b50505090565b61180e9060001901926f181899199a1a9b1b9c1cb0b131b232b360811b600a82061a8453611808600a610e39565b9061178b565b908161181d610ebf6000610e39565b1461182a579091816117cf565b6117d4565b6112306116fb6301ffc9a760e01b610197565b61184c6000610e39565b9072184f03e93ff9f4daa797ed6e38ed64bf6a1f0160401b61186d81610e39565b8210156119be575b506904ee2d6d415b85acef8160201b61188d81610e39565b82101561199c575b50662386f26fc100006118a781610e39565b82101561197a575b506305f5e1006118be81610e39565b821015611958575b506127106118d381610e39565b821015611936575b5060646118e781610e39565b821015611914575b506118fd610ebf600a610e39565b10156119065790565b6101dc906102776001610e39565b61192f9161180861192492610e39565b916102776002610e39565b90386118ef565b6119519161180861194692610e39565b916102776004610e39565b90386118db565b6119739161180861196892610e39565b916102776008610e39565b90386118c6565b6119959161180861198a92610e39565b916102776010610e39565b90386118af565b6119b7916118086119ac92610e39565b916102776020610e39565b9038611895565b6119d9916118086119ce92610e39565b916102776040610e39565b9038611875565b156101b457565b634e487b7160e01b600052603260045260246000fd5b8054821015611a2057611a17600191600052602060002090565b91020190600090565b6119e7565b80549190600160401b8310156106795782611a489160016101c6950181556119fd565b90611313565b634e487b7160e01b600052600060045260246000fd5b9160001960089290920291821b911b610af8565b9190611a896101dc610b3f93610e39565b908354611a64565b6101c691600091611a78565b818110611aa8575050565b80611ab66000600193611a91565b01611a9d565b9190601f8111611acb57505050565b611add6101c693600052602060002090565b906020601f840181900483019310611aff575b6020601f909101040190611a9d565b9091508190611af0565b9060001960089091021c191690565b81611b2291611b09565b906002021790565b90611b33815190565b906001600160401b03821161067957611b5682611b508554610d43565b85611abc565b602090601f8311600114611b8457610b3f929160009183611b79575b5050611b18565b015190503880611b72565b601f19831691611b9985600052602060002090565b9260005b818110611bd857509160029391856001969410611bbe575b50505002019055565b611bce910151601f841690611b09565b9055388080611bb5565b91936020600181928787015181550195019201611b9d565b906101c691611b2a565b6101c690611c5533611c19611c0e82611c72565b1515600114156119e0565b611c4e611c3e6004611c3984611c34611c30845490565b9390565b611a25565b610e39565b611c49836007610c54565b611342565b600a610c54565b611bf0565b6101dc916008021c6102da565b906101dc9154611c5a565b6007611c81610cb48383610c54565b600090611c90610ebf83610e39565b128015611cce575b611cc85750610a4861122a611cc261123093611cbc611c39610cb488600494610c54565b906119fd565b90611c67565b91505090565b50600454611cde610ebf83610e39565b1115611c98565b6101c690611cf1611d09565b6101c690611c5533600a610c54565b6101c690611ce5565b6101c6611d1533611c72565b6119e0565b6101dc90611d26611d09565b506101dc611d3533600a610c54565b610e1c565b6101dc6060611d1a565b906101dc91611d51610a2c565b6101dc91611d359150600a610c54565b6101dc906060611d44565b906101c691611d79611d09565b612005565b6101dc608061067e565b6101dc60e061067e565b906101df906102da565b906101df906104bf565b8054821015611a2057611a17600a91600052602060002090565b6101dc90516102da565b818110611dd5575050565b80611de36000600193611a91565b01611dca565b9091828110611df757505050565b6101c69290611e0d905b92600052602060002090565b9081019101611dca565b90600160401b81116106795781611e2f6101c6935490565b90828155611de9565b8151916001600160401b03831161067957611e62611e01600192611e5c8686611e17565b60200190565b92049160005b838110611e755750505050565b6001906020611e856101dc865190565b9401938184015501611e68565b906101c691611e38565b90611eeb606060036101c694611ec060008201611eba600088015190565b90611bf0565b611ed260018201611eba602088015190565b611ee4600282016113f9604088015190565b0192015190565b90611e92565b906101c691611e9c565b6101dc90516104bf565b906115146101dc610b3f926104c9565b6101c691906113f99060c090600990611f3781611f3187611dc0565b90610b28565b611f4a60018201611f3160208801611dc0565b611f5c60028201611eba604088015190565b611f7460038201611f6e606088015190565b90611ef1565b611f8d60078201611f8760808801611efb565b90611f05565b611ee4600882016113f960a088015190565b9190611fae576101c691611f15565b611a4e565b80549190600160401b8310156106795782611fd69160016101c695018155611da6565b90611f9f565b80549190600160401b8310156106795782611fff9160016101c6950181556119fd565b90611a78565b6120e36101dc6120b06120e86101c6956120e36101dc6120d79761202b611d15826120f9565b6120dc6000946120cf61203c606090565b91612086612048611d7e565b9361205a612054610e62565b8b870152565b61206c612065610e62565b6020870152565b61207f6120788b610e39565b6040870152565b6060850152565b33998a9361207f42936120a361209a611d88565b978d8901611d92565b6120788960208901611d92565b6120bd8860808501611d9c565b6120c88160a0850152565b60c0830152565b85549a8b9690565b611fb3565b600b610c54565b611fdc565b600c610c54565b906101c691611d6c565b6008612108610cb48383610c54565b600090612117610ebf83610e39565b128015612143575b611cc85750610a4861122a611cc261123093611cbc611c39610cb488600594610c54565b50600554612153610ebf83610e39565b111561211f565b6101dc90612166611d09565b6121e4565b9061217a611e0161038c845490565b9060005b81811061218b5750505090565b9091926121af6121a86001926121a087610c73565b815260200190565b9460010190565b92910161217e565b906101dc9161216b565b906101c6610e15926121d260405190565b938480926121b7565b6101dc906121c1565b506101dc6121f333600c610c54565b6121db565b6101dc606061215a565b61220a611d7e565b606080825260208201819052600060408301528082015290565b6101dc612202565b612234611d88565b90600082526020808080808080880160008152016060815201612255612224565b815201600081520160008152016000905250565b6101dc61222c565b906101dc9161227f826123ad565b612386565b906101c66122d86003612295611d7e565b946122a66122a282610dfb565b8752565b6122bc6122b560018301610dfb565b6020880152565b6122d26122cb60028301610c73565b6040880152565b016121c1565b6060840152565b906101c661237660096122f0611d88565b946123036122fd82610984565b87611d92565b61231b61231260018301610984565b60208801611d92565b61232a6122cb60028301610dfb565b61234061233960038301612284565b6060880152565b61235a612351600783015460ff1690565b60808801611d9c565b61237061236960088301610c73565b60a0880152565b01610c73565b60c0840152565b6101dc906122df565b6101dc9161239691506000611da6565b5061237d565b6101dc906123a8612269565b612271565b6123c76101c6916123c060009182611da6565b5001610984565b6123d3610a48336102da565b146119e0565b6101dc906123e5611d09565b506101dc6121f333600d610c54565b6101dc60606123d956fea26469706673582212202eef14f1d50e054b3e6ffa5db862e869c5bb153b46baa248c7d9bd0a7cd91d9c64736f6c63430008130033",
  "linkReferences": {},
  "deployedLinkReferences": {}
}