{
  "_format": "hh-sol-artifact-1",
  "contractName": "VehicleOwner",
  "sourceName": "contracts/vehicleOwner/VehicleOwner.sol",
  "abi": [
    {
      "anonymous": false,
      "inputs": [
        {
          "indexed": true,
          "internalType": "address",
          "name": "owner",
          "type": "address"
        },
        {
          "indexed": true,
          "internalType": "address",
          "name": "approved",
          "type": "address"
        },
        {
          "indexed": true,
          "internalType": "uint256",
          "name": "tokenId",
          "type": "uint256"
        }
      ],
      "name": "Approval",
      "type": "event"
    },
    {
      "anonymous": false,
      "inputs": [
        {
          "indexed": true,
          "internalType": "address",
          "name": "owner",
          "type": "address"
        },
        {
          "indexed": true,
          "internalType": "address",
          "name": "operator",
          "type": "address"
        },
        {
          "indexed": false,
          "internalType": "bool",
          "name": "approved",
          "type": "bool"
        }
      ],
      "name": "ApprovalForAll",
      "type": "event"
    },
    {
      "anonymous": false,
      "inputs": [
        {
          "indexed": true,
          "internalType": "address",
          "name": "previousOwner",
          "type": "address"
        },
        {
          "indexed": true,
          "internalType": "address",
          "name": "newOwner",
          "type": "address"
        }
      ],
      "name": "OwnershipTransferred",
      "type": "event"
    },
    {
      "anonymous": false,
      "inputs": [
        {
          "indexed": true,
          "internalType": "address",
          "name": "from",
          "type": "address"
        },
        {
          "indexed": true,
          "internalType": "address",
          "name": "to",
          "type": "address"
        },
        {
          "indexed": true,
          "internalType": "uint256",
          "name": "tokenId",
          "type": "uint256"
        }
      ],
      "name": "Transfer",
      "type": "event"
    },
    {
      "inputs": [
        {
          "internalType": "uint256",
          "name": "tokenId",
          "type": "uint256"
        },
        {
          "internalType": "string",
          "name": "title",
          "type": "string"
        },
        {
          "internalType": "string",
          "name": "description",
          "type": "string"
        },
        {
          "internalType": "uint256",
          "name": "price",
          "type": "uint256"
        },
        {
          "internalType": "uint256",
          "name": "date",
          "type": "uint256"
        }
      ],
      "name": "addVehicleServiceRecord",
      "outputs": [],
      "stateMutability": "nonpayable",
      "type": "function"
    },
    {
      "inputs": [
        {
          "internalType": "address",
          "name": "to",
          "type": "address"
        },
        {
          "internalType": "uint256",
          "name": "tokenId",
          "type": "uint256"
        }
      ],
      "name": "approve",
      "outputs": [],
      "stateMutability": "nonpayable",
      "type": "function"
    },
    {
      "inputs": [
        {
          "internalType": "address",
          "name": "owner",
          "type": "address"
        }
      ],
      "name": "balanceOf",
      "outputs": [
        {
          "internalType": "uint256",
          "name": "",
          "type": "uint256"
        }
      ],
      "stateMutability": "view",
      "type": "function"
    },
    {
      "inputs": [
        {
          "internalType": "uint256",
          "name": "proposalId",
          "type": "uint256"
        }
      ],
      "name": "contractVehicleInsuranceProposal",
      "outputs": [],
      "stateMutability": "payable",
      "type": "function"
    },
    {
      "inputs": [
        {
          "internalType": "uint256",
          "name": "requestId",
          "type": "uint256"
        }
      ],
      "name": "createVehicle",
      "outputs": [],
      "stateMutability": "nonpayable",
      "type": "function"
    },
    {
      "inputs": [
        {
          "internalType": "uint256",
          "name": "tokenId",
          "type": "uint256"
        },
        {
          "internalType": "address",
          "name": "insurer",
          "type": "address"
        }
      ],
      "name": "createVehicleInsuranceRequest",
      "outputs": [],
      "stateMutability": "nonpayable",
      "type": "function"
    },
    {
      "inputs": [
        {
          "internalType": "address",
          "name": "agent",
          "type": "address"
        },
        {
          "internalType": "string",
          "name": "vehicleRegistrationCode",
          "type": "string"
        }
      ],
      "name": "createVehicleRequest",
      "outputs": [],
      "stateMutability": "nonpayable",
      "type": "function"
    },
    {
      "inputs": [
        {
          "internalType": "string",
          "name": "driverLicenseCode",
          "type": "string"
        }
      ],
      "name": "defineDriverLicenseCode",
      "outputs": [],
      "stateMutability": "nonpayable",
      "type": "function"
    },
    {
      "inputs": [
        {
          "internalType": "address",
          "name": "user",
          "type": "address"
        }
      ],
      "name": "driverLicenseCodeOf",
      "outputs": [
        {
          "internalType": "string",
          "name": "",
          "type": "string"
        }
      ],
      "stateMutability": "view",
      "type": "function"
    },
    {
      "inputs": [
        {
          "internalType": "uint256",
          "name": "tokenId",
          "type": "uint256"
        }
      ],
      "name": "getApproved",
      "outputs": [
        {
          "internalType": "address",
          "name": "",
          "type": "address"
        }
      ],
      "stateMutability": "view",
      "type": "function"
    },
    {
      "inputs": [],
      "name": "getDriverLicenseCode",
      "outputs": [
        {
          "internalType": "string",
          "name": "driverLicenseCode",
          "type": "string"
        }
      ],
      "stateMutability": "view",
      "type": "function"
    },
    {
      "inputs": [],
      "name": "getTokenIdsByOwner",
      "outputs": [
        {
          "internalType": "uint256[]",
          "name": "",
          "type": "uint256[]"
        }
      ],
      "stateMutability": "view",
      "type": "function"
    },
    {
      "inputs": [
        {
          "internalType": "uint256",
          "name": "requestId",
          "type": "uint256"
        }
      ],
      "name": "getUserVehicleRequestById",
      "outputs": [
        {
          "components": [
            {
              "internalType": "address",
              "name": "requester",
              "type": "address"
            },
            {
              "internalType": "address",
              "name": "agent",
              "type": "address"
            },
            {
              "internalType": "string",
              "name": "vehicleRegistrationCode",
              "type": "string"
            },
            {
              "components": [
                {
                  "internalType": "string",
                  "name": "carBrand",
                  "type": "string"
                },
                {
                  "internalType": "string",
                  "name": "carModel",
                  "type": "string"
                },
                {
                  "internalType": "uint256",
                  "name": "manufacturingDate",
                  "type": "uint256"
                },
                {
                  "internalType": "uint256[]",
                  "name": "vehicleOwnershipRecordIds",
                  "type": "uint256[]"
                }
              ],
              "internalType": "struct IBaseContract.VehicleRequestData",
              "name": "vehicleData",
              "type": "tuple"
            },
            {
              "internalType": "enum IBaseContract.Status",
              "name": "status",
              "type": "uint8"
            },
            {
              "internalType": "uint256",
              "name": "createdAt",
              "type": "uint256"
            },
            {
              "internalType": "uint256",
              "name": "updatedAt",
              "type": "uint256"
            }
          ],
          "internalType": "struct IBaseContract.VehicleRequest",
          "name": "",
          "type": "tuple"
        }
      ],
      "stateMutability": "view",
      "type": "function"
    },
    {
      "inputs": [
        {
          "internalType": "address",
          "name": "owner",
          "type": "address"
        },
        {
          "internalType": "address",
          "name": "operator",
          "type": "address"
        }
      ],
      "name": "isApprovedForAll",
      "outputs": [
        {
          "internalType": "bool",
          "name": "",
          "type": "bool"
        }
      ],
      "stateMutability": "view",
      "type": "function"
    },
    {
      "inputs": [],
      "name": "listApprovalsIds",
      "outputs": [
        {
          "internalType": "uint256[]",
          "name": "",
          "type": "uint256[]"
        }
      ],
      "stateMutability": "view",
      "type": "function"
    },
    {
      "inputs": [],
      "name": "listUserVehicleRequestsIds",
      "outputs": [
        {
          "internalType": "uint256[]",
          "name": "",
          "type": "uint256[]"
        }
      ],
      "stateMutability": "view",
      "type": "function"
    },
    {
      "inputs": [],
      "name": "name",
      "outputs": [
        {
          "internalType": "string",
          "name": "",
          "type": "string"
        }
      ],
      "stateMutability": "view",
      "type": "function"
    },
    {
      "inputs": [],
      "name": "owner",
      "outputs": [
        {
          "internalType": "address",
          "name": "",
          "type": "address"
        }
      ],
      "stateMutability": "view",
      "type": "function"
    },
    {
      "inputs": [
        {
          "internalType": "uint256",
          "name": "tokenId",
          "type": "uint256"
        }
      ],
      "name": "ownerOf",
      "outputs": [
        {
          "internalType": "address",
          "name": "",
          "type": "address"
        }
      ],
      "stateMutability": "view",
      "type": "function"
    },
    {
      "inputs": [],
      "name": "renounceOwnership",
      "outputs": [],
      "stateMutability": "nonpayable",
      "type": "function"
    },
    {
      "inputs": [
        {
          "internalType": "address",
          "name": "from",
          "type": "address"
        },
        {
          "internalType": "address",
          "name": "to",
          "type": "address"
        },
        {
          "internalType": "uint256",
          "name": "tokenId",
          "type": "uint256"
        }
      ],
      "name": "safeTransferFrom",
      "outputs": [],
      "stateMutability": "nonpayable",
      "type": "function"
    },
    {
      "inputs": [
        {
          "internalType": "address",
          "name": "from",
          "type": "address"
        },
        {
          "internalType": "address",
          "name": "to",
          "type": "address"
        },
        {
          "internalType": "uint256",
          "name": "tokenId",
          "type": "uint256"
        },
        {
          "internalType": "bytes",
          "name": "data",
          "type": "bytes"
        }
      ],
      "name": "safeTransferFrom",
      "outputs": [],
      "stateMutability": "nonpayable",
      "type": "function"
    },
    {
      "inputs": [
        {
          "internalType": "address",
          "name": "operator",
          "type": "address"
        },
        {
          "internalType": "bool",
          "name": "approved",
          "type": "bool"
        }
      ],
      "name": "setApprovalForAll",
      "outputs": [],
      "stateMutability": "nonpayable",
      "type": "function"
    },
    {
      "inputs": [
        {
          "internalType": "bytes4",
          "name": "interfaceId",
          "type": "bytes4"
        }
      ],
      "name": "supportsInterface",
      "outputs": [
        {
          "internalType": "bool",
          "name": "",
          "type": "bool"
        }
      ],
      "stateMutability": "view",
      "type": "function"
    },
    {
      "inputs": [],
      "name": "symbol",
      "outputs": [
        {
          "internalType": "string",
          "name": "",
          "type": "string"
        }
      ],
      "stateMutability": "view",
      "type": "function"
    },
    {
      "inputs": [
        {
          "internalType": "uint256",
          "name": "tokenId",
          "type": "uint256"
        }
      ],
      "name": "tokenURI",
      "outputs": [
        {
          "internalType": "string",
          "name": "",
          "type": "string"
        }
      ],
      "stateMutability": "view",
      "type": "function"
    },
    {
      "inputs": [
        {
          "internalType": "address",
          "name": "from",
          "type": "address"
        },
        {
          "internalType": "address",
          "name": "to",
          "type": "address"
        },
        {
          "internalType": "uint256",
          "name": "tokenId",
          "type": "uint256"
        }
      ],
      "name": "transferFrom",
      "outputs": [],
      "stateMutability": "nonpayable",
      "type": "function"
    },
    {
      "inputs": [
        {
          "internalType": "address",
          "name": "newOwner",
          "type": "address"
        }
      ],
      "name": "transferOwnership",
      "outputs": [],
      "stateMutability": "nonpayable",
      "type": "function"
    },
    {
      "inputs": [
        {
          "internalType": "string",
          "name": "driverLicenseCode",
          "type": "string"
        }
      ],
      "name": "userRegistration",
      "outputs": [],
      "stateMutability": "nonpayable",
      "type": "function"
    }
  ],
  "bytecode": "0x60806040523480156200001157600080fd5b506040518060400160405280600381526020016213919560ea1b815250604051806040016040528060048152602001631593919560e21b81525081601890816200005c919062000198565b5060196200006b828262000198565b50505062000088620000826200009d60201b60201c565b620000a1565b62000097601f80546001019055565b62000264565b3390565b601e80546001600160a01b038381166001600160a01b0319831681179093556040519116919082907f8be0079c531659141344cd1fd0a4f28419497f9722a3daafe3b4186f6b6457e090600090a35050565b634e487b7160e01b600052604160045260246000fd5b600181811c908216806200011e57607f821691505b6020821081036200013f57634e487b7160e01b600052602260045260246000fd5b50919050565b601f8211156200019357600081815260208120601f850160051c810160208610156200016e5750805b601f850160051c820191505b818110156200018f578281556001016200017a565b5050505b505050565b81516001600160401b03811115620001b457620001b4620000f3565b620001cc81620001c5845462000109565b8462000145565b602080601f831160018114620002045760008415620001eb5750858301515b600019600386901b1c1916600185901b1785556200018f565b600085815260208120601f198616915b82811015620002355788860151825594840194600190910190840162000214565b5085821015620002545787850151600019600388901b60f8161c191681555b5050505050600190811b01905550565b6132ba80620002746000396000f3fe6080604052600436106101525760003560e01c8063016644861461015757806301ffc9a71461017957806306fdde03146101ae578063081812fc146101d0578063095ea7b3146102085780631114cd57146102285780631499f40b1461024a57806314a5189a1461027757806315acca771461028c57806323b872dd146102ac578063333f0040146102cc57806342842e0e146102ec5780634c7525da1461030c5780636352211e1461032c57806370a082311461034c57806370e37a641461037a578063715018a61461038f57806378301afd146103a45780638da5cb5b146103c457806395d89b41146103d957806399326622146103ee578063a22cb46514610403578063b88d4fde14610423578063bc6f4be614610443578063c87b56dd14610463578063cf6713d014610483578063d7d38508146104a3578063e985e9c5146104b6578063f2fde38b146104d6575b600080fd5b34801561016357600080fd5b506101776101723660046129d3565b6104f6565b005b34801561018557600080fd5b50610199610194366004612a15565b61052d565b60405190151581526020015b60405180910390f35b3480156101ba57600080fd5b506101c361057f565b6040516101a59190612a82565b3480156101dc57600080fd5b506101f06101eb366004612a95565b610611565b6040516001600160a01b0390911681526020016101a5565b34801561021457600080fd5b50610177610223366004612aae565b610638565b34801561023457600080fd5b5061023d610752565b6040516101a59190612b13565b34801561025657600080fd5b5061026a610265366004612a95565b6107ba565b6040516101a59190612b5e565b34801561028357600080fd5b5061023d610a9a565b34801561029857600080fd5b506101c36102a7366004612c35565b610b01565b3480156102b857600080fd5b506101776102c7366004612c50565b610bb4565b3480156102d857600080fd5b506101776102e7366004612d37565b610be5565b3480156102f857600080fd5b50610177610307366004612c50565b610c06565b34801561031857600080fd5b50610177610327366004612db5565b610c21565b34801561033857600080fd5b506101f0610347366004612a95565b610e49565b34801561035857600080fd5b5061036c610367366004612c35565b610e7d565b6040519081526020016101a5565b34801561038657600080fd5b5061023d610f03565b34801561039b57600080fd5b50610177610f12565b3480156103b057600080fd5b506101776103bf366004612e02565b610f26565b3480156103d057600080fd5b506101f0610fa3565b3480156103e557600080fd5b506101c3610fb2565b3480156103fa57600080fd5b506101c3610fc1565b34801561040f57600080fd5b5061017761041e366004612e36565b610fe5565b34801561042f57600080fd5b5061017761043e366004612e72565b610ff4565b34801561044f57600080fd5b5061017761045e366004612e02565b611026565b34801561046f57600080fd5b506101c361047e366004612a95565b611047565b34801561048f57600080fd5b5061017761049e366004612a95565b6110bb565b6101776104b1366004612a95565b611161565b3480156104c257600080fd5b506101996104d1366004612eed565b6112f5565b3480156104e257600080fd5b506101776104f1366004612c35565b611323565b816105008161139c565b600061050f42624f1a00612f17565b905061051c8484836113b9565b50610527848461140a565b50505050565b60006001600160e01b031982166380ac58cd60e01b148061055e57506001600160e01b03198216635b5e139f60e01b145b8061057957506301ffc9a760e01b6001600160e01b03198316145b92915050565b60606018805461058e90612f38565b80601f01602080910402602001604051908101604052809291908181526020018280546105ba90612f38565b80156106075780601f106105dc57610100808354040283529160200191610607565b820191906000526020600020905b8154815290600101906020018083116105ea57829003601f168201915b5050505050905090565b600061061c826115ad565b506000908152601c60205260409020546001600160a01b031690565b600061064382610e49565b9050806001600160a01b0316836001600160a01b0316036106b55760405162461bcd60e51b815260206004820152602160248201527f4552433732313a20617070726f76616c20746f2063757272656e74206f776e656044820152603960f91b60648201526084015b60405180910390fd5b336001600160a01b03821614806106d157506106d181336112f5565b6107435760405162461bcd60e51b815260206004820152603d60248201527f4552433732313a20617070726f76652063616c6c6572206973206e6f7420746f60448201527f6b656e206f776e6572206f7220617070726f76656420666f7220616c6c00000060648201526084016106ac565b61074d83836115d2565b505050565b606061075c611640565b336000908152600d60209081526040918290208054835181840281018401909452808452909183018282801561060757602002820191906000526020600020905b81548152602001906001019080831161079d575050505050905090565b6107c26128e4565b816107cc81611652565b600083815481106107df576107df612f6c565b60009182526020918290206040805160e081018252600a90930290910180546001600160a01b039081168452600182015416938301939093526002830180549293929184019161082e90612f38565b80601f016020809104026020016040519081016040528092919081815260200182805461085a90612f38565b80156108a75780601f1061087c576101008083540402835291602001916108a7565b820191906000526020600020905b81548152906001019060200180831161088a57829003601f168201915b50505050508152602001600382016040518060800160405290816000820180546108d090612f38565b80601f01602080910402602001604051908101604052809291908181526020018280546108fc90612f38565b80156109495780601f1061091e57610100808354040283529160200191610949565b820191906000526020600020905b81548152906001019060200180831161092c57829003601f168201915b5050505050815260200160018201805461096290612f38565b80601f016020809104026020016040519081016040528092919081815260200182805461098e90612f38565b80156109db5780601f106109b0576101008083540402835291602001916109db565b820191906000526020600020905b8154815290600101906020018083116109be57829003601f168201915b505050505081526020016002820154815260200160038201805480602002602001604051908101604052809291908181526020018280548015610a3d57602002820191906000526020600020905b815481526020019060010190808311610a29575b505050919092525050508152600782015460209091019060ff166003811115610a6857610a68612b26565b6003811115610a7957610a79612b26565b81526020016008820154815260200160098201548152505091505b50919050565b6060610aa4611640565b336000908152600c602090815260409182902080548351818402810184019094528084529091830182828015610607576020028201919060005260206000209081548152602001906001019080831161079d575050505050905090565b6060610b0b611693565b6001600160a01b0382166000908152600a602052604090208054610b2e90612f38565b80601f0160208091040260200160405190810160405280929190818152602001828054610b5a90612f38565b8015610ba75780601f10610b7c57610100808354040283529160200191610ba7565b820191906000526020600020905b815481529060010190602001808311610b8a57829003601f168201915b505050505090505b919050565b610bbe33826116f2565b610bda5760405162461bcd60e51b81526004016106ac90612f82565b61074d838383611750565b84610bef8161139c565b610bfd8633878787876118a2565b50505050505050565b61074d83838360405180602001604052806000815250610ff4565b610c29611640565b610c3282611a24565b610c3b57600080fd5b6040805160a08082018352600060808084018281528452845160208082018752838252808601919091528486018390526060808601819052865160e0810188523381526001600160a01b038a81169382019384529781018981528183018890529381018590524295810186905260c081019590955283546001810185558480528551600a82027f290decd9548b62a8d60345a988386fc84ba6bc95484008f6362f93160ef3e56381018054928b166001600160a01b031993841617815594517f290decd9548b62a8d60345a988386fc84ba6bc95484008f6362f93160ef3e5648201805491909b1692169190911790985592519396909594938492917f290decd9548b62a8d60345a988386fc84ba6bc95484008f6362f93160ef3e5650190610d64908261301d565b506060820151805160038301908190610d7d908261301d565b5060208201516001820190610d92908261301d565b506040820151600282015560608201518051610db891600384019160209091019061295c565b505050608082015160078201805460ff19166001836003811115610dde57610dde612b26565b021790555060a0820151600882015560c0909101516009909101556001600160a01b039096166000908152600b60209081526040808320805460018181018355918552838520018a9055338452600c8352908320805491820181558352912001959095555050505050565b600080610e5583611aa1565b90506001600160a01b0381166105795760405162461bcd60e51b81526004016106ac906130dc565b60006001600160a01b038216610ee75760405162461bcd60e51b815260206004820152602960248201527f4552433732313a2061646472657373207a65726f206973206e6f7420612076616044820152683634b21037bbb732b960b91b60648201526084016106ac565b506001600160a01b03166000908152601b602052604090205490565b6060610f0d611abc565b905090565b610f1a611693565b610f246000611b1b565b565b610f2f33611b6d565b1515600103610f3d57600080fd5b60048054600181019091557f8a35acfbc15ff81a39ae7d344fd709f28e8600b4aa8c65c6b64bfe7fe36bd19b810180546001600160a01b031916339081179091556000908152600760209081526040808320849055600a909152902061074d838261301d565b601e546001600160a01b031690565b60606019805461058e90612f38565b6060610fcb611640565b336000908152600a60205260409020805461058e90612f38565b610ff0338383611bce565b5050565b610ffe33836116f2565b61101a5760405162461bcd60e51b81526004016106ac90612f82565b61052784848484611c98565b61102e611640565b336000908152600a60205260409020610ff0828261301d565b6060611052826115ad565b600061106960408051602081019091526000815290565b9050600081511161108957604051806020016040528060008152506110b4565b8061109384611ccb565b6040516020016110a492919061310e565b6040516020818303038152906040525b9392505050565b806110c581611652565b6001600083815481106110da576110da612f6c565b600091825260209091206007600a90920201015460ff16600381111561110257611102612b26565b1461110c57600080fd5b6111163383611d5d565b60026000838154811061112b5761112b612f6c565b600091825260209091206007600a9092020101805460ff1916600183600381111561115857611158612b26565b02179055505050565b8061116b81611dcb565b6002828154811061117e5761117e612f6c565b90600052602060002090600a020160050154341461119b57600080fd5b6000600283815481106111b0576111b0612f6c565b600091825260208220600a90910201600101546040516001600160a01b039091169134919081818185875af1925050503d806000811461120c576040519150601f19603f3d011682016040523d82523d6000602084013e611211565b606091505b50509050806112625760405162461bcd60e51b815260206004820152601f60248201527f4661696c656420746f2073656e6420457468657220746f20696e73757265720060448201526064016106ac565b61126b83611e02565b6105276002848154811061128157611281612f6c565b90600052602060002090600a020160020154600285815481106112a6576112a6612f6c565b90600052602060002090600a020160010160009054906101000a90046001600160a01b0316600286815481106112de576112de612f6c565b90600052602060002090600a0201600401546113b9565b6001600160a01b039182166000908152601d6020908152604080832093909416825291909152205460ff1690565b61132b611693565b6001600160a01b0381166113905760405162461bcd60e51b815260206004820152602660248201527f4f776e61626c653a206e6577206f776e657220697320746865207a65726f206160448201526564647265737360d01b60648201526084016106ac565b61139981611b1b565b50565b336113a682610e49565b6001600160a01b03161461139957600080fd5b6001600160a01b0382166000908152601660209081526040808320868452909152812060010154156113f7576113f084848461211c565b90506110b4565b61140284848461216c565b949350505050565b611413816121e5565b61141c57600080fd5b6040805160c0810182523381526001600160a01b0383811660208301908152928201858152600060608401818152426080860181905260a08601526001805480820182558184528651600682027fb10e2d527612073b26eecdfd717e6a320cf44b4afac2b0732d9fcbe2b7fa0cf6810180549289166001600160a01b031993841617815599517fb10e2d527612073b26eecdfd717e6a320cf44b4afac2b0732d9fcbe2b7fa0cf7820180549190991692169190911790965593517fb10e2d527612073b26eecdfd717e6a320cf44b4afac2b0732d9fcbe2b7fa0cf886015590517fb10e2d527612073b26eecdfd717e6a320cf44b4afac2b0732d9fcbe2b7fa0cf9909401805492969394869493909260ff199091169083600381111561154457611544612b26565b02179055506080820151600482015560a0909101516005909101556000948552601160209081526040808720805460018181018355918952838920018490556001600160a01b039096168752600e82528620805495860181558652909420909201929092555050565b6115b681612246565b6113995760405162461bcd60e51b81526004016106ac906130dc565b6000818152601c6020526040902080546001600160a01b0319166001600160a01b038416908117909155819061160782610e49565b6001600160a01b03167f8c5be1e5ebec7d5bd14f71427d1e84f3dd0314c0f7b2291e5b200ac8c7c3b92560405160405180910390a45050565b61164933611b6d565b610f2457600080fd5b336001600160a01b03166000828154811061166f5761166f612f6c565b60009182526020909120600a90910201546001600160a01b03161461139957600080fd5b3361169c610fa3565b6001600160a01b031614610f245760405162461bcd60e51b815260206004820181905260248201527f4f776e61626c653a2063616c6c6572206973206e6f7420746865206f776e657260448201526064016106ac565b6000806116fe83610e49565b9050806001600160a01b0316846001600160a01b03161480611725575061172581856112f5565b806114025750836001600160a01b031661173e84610611565b6001600160a01b031614949350505050565b826001600160a01b031661176382610e49565b6001600160a01b0316146117895760405162461bcd60e51b81526004016106ac9061313d565b6001600160a01b0382166117eb5760405162461bcd60e51b8152602060048201526024808201527f4552433732313a207472616e7366657220746f20746865207a65726f206164646044820152637265737360e01b60648201526084016106ac565b826001600160a01b03166117fe82610e49565b6001600160a01b0316146118245760405162461bcd60e51b81526004016106ac9061313d565b6000818152601c6020908152604080832080546001600160a01b03199081169091556001600160a01b03878116808652601b8552838620805460001901905590871680865283862080546001019055868652601a909452828520805490921684179091559051849360008051602061326583398151915291a4505050565b60004282106118b057600080fd5b60006040518060e00160405280886001600160a01b0316815260200189815260200187815260200186815260200185815260200184815260200142815250905060006118fb60215490565b905061190b602180546001019055565b6024805460018101825560009190915282517f7cd332d19b93bcabe3cce7ca0c18a052f57e5fd03b4758a09f30f5ddc4b22ec4600790920291820180546001600160a01b0319166001600160a01b0390921691909117815560208401517f7cd332d19b93bcabe3cce7ca0c18a052f57e5fd03b4758a09f30f5ddc4b22ec5830155604084015184927f7cd332d19b93bcabe3cce7ca0c18a052f57e5fd03b4758a09f30f5ddc4b22ec601906119c0908261301d565b50606082015160038201906119d5908261301d565b506080820151600482015560a0820151600582015560c0909101516006909101556000898152602960209081526040822080546001810182559083529120018190559150509695505050505050565b6001600160a01b038116600090815260086020526040812054811380611a4a5750600554155b15611a5757506000919050565b6001600160a01b038216600081815260086020526040902054600580549091908110611a8557611a85612f6c565b6000918252602090912001546001600160a01b03161492915050565b6000908152601a60205260409020546001600160a01b031690565b33600090815260276020908152604091829020805483518184028101840190945280845260609392830182828015610607576020028201919060005260206000209081548152602001906001019080831161079d575050505050905090565b601e80546001600160a01b038381166001600160a01b0319831681179093556040519116919082907f8be0079c531659141344cd1fd0a4f28419497f9722a3daafe3b4186f6b6457e090600090a35050565b6001600160a01b038116600090815260076020526040812054811380611b935750600454155b15611ba057506000919050565b6001600160a01b038216600081815260076020526040902054600480549091908110611a8557611a85612f6c565b816001600160a01b0316836001600160a01b031603611c2b5760405162461bcd60e51b815260206004820152601960248201527822a9219b99189d1030b8383937bb32903a379031b0b63632b960391b60448201526064016106ac565b6001600160a01b038381166000818152601d6020908152604080832094871680845294825291829020805460ff191686151590811790915591519182527f17307eab39ab6107e8899845ad3d59bd9653f200f220920489ca2b5937696c31910160405180910390a3505050565b611ca3848484611750565b611caf84848484612263565b6105275760405162461bcd60e51b81526004016106ac90613182565b60606000611cd883612364565b60010190506000816001600160401b03811115611cf757611cf7612c8c565b6040519080825280601f01601f191660200182016040528015611d21576020820181803683370190505b5090508181016020015b600019016f181899199a1a9b1b9c1cb0b131b232b360811b600a86061a8153600a8504945084611d2b57509392505050565b6000611d68601f5490565b9050611d78601f80546001019055565b600081815260266020908152604080832080546001600160a01b03191633908117909155835260278252822080546001810182558184529190922001829055611dc1828461243a565b61052784836127a1565b336001600160a01b03166113a660028381548110611deb57611deb612f6c565b90600052602060002090600a020160020154610e49565b600060028281548110611e1757611e17612f6c565b600091825260208220600a909102019150600782015460ff166003811115611e4157611e41612b26565b14611e4b57600080fd5b6040805160008082526101408201835283546001600160a01b03908116602084019081526001860154909116938301939093526002840154606083015260068401805492939192608085019190611ea190612f38565b80601f0160208091040260200160405190810160405280929190818152602001828054611ecd90612f38565b8015611f1a5780601f10611eef57610100808354040283529160200191611f1a565b820191906000526020600020905b815481529060010190602001808311611efd57829003601f168201915b505050918352505060038086015460208084019190915260048701546040808501919091526060808501889052426080860181905260a09095019490945282546001810184556000939093528451600984027fc2575a0e9e593c00f959f8c92f12db2869c3395a3b0502d05e2516446f71f85b810180546001600160a01b039384166001600160a01b0319918216178255948801517fc2575a0e9e593c00f959f8c92f12db2869c3395a3b0502d05e2516446f71f85c8301805491909416951694909417909155908501517fc2575a0e9e593c00f959f8c92f12db2869c3395a3b0502d05e2516446f71f85d82015592840151939450909284927fc2575a0e9e593c00f959f8c92f12db2869c3395a3b0502d05e2516446f71f85e0190612041908261301d565b506080820151600482015560a0820151600582015560c0820151805161207191600684019160209091019061295c565b5060e08201516007828101919091556101009092015160089091015560028581015460008181526013602090815260408083206001808c01546001600160a01b031685526010845282852060178552838620968652958452918420815480840183559185528385209091018890558454808301865594845282842090940187905583549081018455928252902001929092558401805460ff1916909117905550504260099091015550565b6001600160a01b0382166000908152601660209081526040808320868452909152812060018101548310156121555760009150506110b4565b600181810193909355426002909101555092915050565b60004282101561217e575060006110b4565b5060408051608081018252848152602080820184815242838501818152606085019182526001600160a01b0388166000908152601685528681208a825290945294909220925183555160018084019190915592516002830155516003909101559392505050565b6001600160a01b03811660009081526009602052604081205481138061220b5750600654155b1561221857506000919050565b6001600160a01b038216600081815260096020526040902054600680549091908110611a8557611a85612f6c565b60008061225283611aa1565b6001600160a01b0316141592915050565b60006001600160a01b0384163b1561235957604051630a85bd0160e11b81526001600160a01b0385169063150b7a02906122a79033908990889088906004016131d4565b6020604051808303816000875af19250505080156122e2575060408051601f3d908101601f191682019092526122df91810190613211565b60015b61233f573d808015612310576040519150601f19603f3d011682016040523d82523d6000602084013e612315565b606091505b5080516000036123375760405162461bcd60e51b81526004016106ac90613182565b805181602001fd5b6001600160e01b031916630a85bd0160e11b149050611402565b506001949350505050565b60008072184f03e93ff9f4daa797ed6e38ed64bf6a1f0160401b83106123a35772184f03e93ff9f4daa797ed6e38ed64bf6a1f0160401b830492506040015b6904ee2d6d415b85acef8160201b83106123cd576904ee2d6d415b85acef8160201b830492506020015b662386f26fc1000083106123eb57662386f26fc10000830492506010015b6305f5e1008310612403576305f5e100830492506008015b612710831061241757612710830492506004015b60648310612429576064830492506002015b600a83106105795760010192915050565b600080828154811061244e5761244e612f6c565b90600052602060002090600a020160030160405180608001604052908160008201805461247a90612f38565b80601f01602080910402602001604051908101604052809291908181526020018280546124a690612f38565b80156124f35780601f106124c8576101008083540402835291602001916124f3565b820191906000526020600020905b8154815290600101906020018083116124d657829003601f168201915b5050505050815260200160018201805461250c90612f38565b80601f016020809104026020016040519081016040528092919081815260200182805461253890612f38565b80156125855780601f1061255a57610100808354040283529160200191612585565b820191906000526020600020905b81548152906001019060200180831161256857829003601f168201915b5050505050815260200160028201548152602001600382018054806020026020016040519081016040528092919081815260200182805480156125e757602002820191906000526020600020905b8154815260200190600101908083116125d3575b505050505081525050905060006040518060a001604052806000858154811061261257612612612f6c565b90600052602060002090600a0201600201805461262e90612f38565b80601f016020809104026020016040519081016040528092919081815260200182805461265a90612f38565b80156126a75780601f1061267c576101008083540402835291602001916126a7565b820191906000526020600020905b81548152906001019060200180831161268a57829003601f168201915b505050505081526020018360000151815260200183602001518152602001836040015181526020018360600151815250905060006126e460205490565b90506126f4602080546001019055565b6000858152602860205260408120829055602380546001810182559152825183916005027fd57b2b5166478fd4318d2acc6cc2c704584312bdd8781b32d5d06abda57f423001908190612747908261301d565b506020820151600182019061275c908261301d565b5060408201516002820190612771908261301d565b50606082015160038201556080820151805161279791600484019160209091019061295c565b5050505050505050565b610ff08282604051806020016040528060008152506127c083836127e9565b6127cd6000848484612263565b61074d5760405162461bcd60e51b81526004016106ac90613182565b6001600160a01b03821661283f5760405162461bcd60e51b815260206004820181905260248201527f4552433732313a206d696e7420746f20746865207a65726f206164647265737360448201526064016106ac565b61284881612246565b156128655760405162461bcd60e51b81526004016106ac9061322e565b61286e81612246565b1561288b5760405162461bcd60e51b81526004016106ac9061322e565b6001600160a01b0382166000818152601b6020908152604080832080546001019055848352601a90915280822080546001600160a01b031916841790555183929190600080516020613265833981519152908290a45050565b6040518060e0016040528060006001600160a01b0316815260200160006001600160a01b03168152602001606081526020016129416040518060800160405280606081526020016060815260200160008152602001606081525090565b81526020016000815260200160008152602001600081525090565b828054828255906000526020600020908101928215612997579160200282015b8281111561299757825182559160200191906001019061297c565b506129a39291506129a7565b5090565b5b808211156129a357600081556001016129a8565b80356001600160a01b0381168114610baf57600080fd5b600080604083850312156129e657600080fd5b823591506129f6602084016129bc565b90509250929050565b6001600160e01b03198116811461139957600080fd5b600060208284031215612a2757600080fd5b81356110b4816129ff565b60005b83811015612a4d578181015183820152602001612a35565b50506000910152565b60008151808452612a6e816020860160208601612a32565b601f01601f19169290920160200192915050565b6020815260006110b46020830184612a56565b600060208284031215612aa757600080fd5b5035919050565b60008060408385031215612ac157600080fd5b612aca836129bc565b946020939093013593505050565b600081518084526020808501945080840160005b83811015612b0857815187529582019590820190600101612aec565b509495945050505050565b6020815260006110b46020830184612ad8565b634e487b7160e01b600052602160045260246000fd5b60048110612b5a57634e487b7160e01b600052602160045260246000fd5b9052565b60208152600060018060a01b0380845116602084015280602085015116604084015250604083015160e06060840152612b9b610100840182612a56565b90506060840151601f19848303016080850152805160808352612bc16080840182612a56565b905060208201518382036020850152612bda8282612a56565b91505060408201516040840152606082015191508281036060840152612c008183612ad8565b925050506080840151612c1660a0850182612b3c565b5060a084015160c084015260c084015160e08401528091505092915050565b600060208284031215612c4757600080fd5b6110b4826129bc565b600080600060608486031215612c6557600080fd5b612c6e846129bc565b9250612c7c602085016129bc565b9150604084013590509250925092565b634e487b7160e01b600052604160045260246000fd5b60006001600160401b0380841115612cbc57612cbc612c8c565b604051601f8501601f19908116603f01168101908282118183101715612ce457612ce4612c8c565b81604052809350858152868686011115612cfd57600080fd5b858560208301376000602087830101525050509392505050565b600082601f830112612d2857600080fd5b6110b483833560208501612ca2565b600080600080600060a08688031215612d4f57600080fd5b8535945060208601356001600160401b0380821115612d6d57600080fd5b612d7989838a01612d17565b95506040880135915080821115612d8f57600080fd5b50612d9c88828901612d17565b9598949750949560608101359550608001359392505050565b60008060408385031215612dc857600080fd5b612dd1836129bc565b915060208301356001600160401b03811115612dec57600080fd5b612df885828601612d17565b9150509250929050565b600060208284031215612e1457600080fd5b81356001600160401b03811115612e2a57600080fd5b61140284828501612d17565b60008060408385031215612e4957600080fd5b612e52836129bc565b915060208301358015158114612e6757600080fd5b809150509250929050565b60008060008060808587031215612e8857600080fd5b612e91856129bc565b9350612e9f602086016129bc565b92506040850135915060608501356001600160401b03811115612ec157600080fd5b8501601f81018713612ed257600080fd5b612ee187823560208401612ca2565b91505092959194509250565b60008060408385031215612f0057600080fd5b612f09836129bc565b91506129f6602084016129bc565b8082018082111561057957634e487b7160e01b600052601160045260246000fd5b600181811c90821680612f4c57607f821691505b602082108103610a9457634e487b7160e01b600052602260045260246000fd5b634e487b7160e01b600052603260045260246000fd5b6020808252602d908201527f4552433732313a2063616c6c6572206973206e6f7420746f6b656e206f776e6560408201526c1c881bdc88185c1c1c9bdd9959609a1b606082015260800190565b601f82111561074d57600081815260208120601f850160051c81016020861015612ff65750805b601f850160051c820191505b8181101561301557828155600101613002565b505050505050565b81516001600160401b0381111561303657613036612c8c565b61304a816130448454612f38565b84612fcf565b602080601f83116001811461307f57600084156130675750858301515b600019600386901b1c1916600185901b178555613015565b600085815260208120601f198616915b828110156130ae5788860151825594840194600190910190840161308f565b50858210156130cc5787850151600019600388901b60f8161c191681555b5050505050600190811b01905550565b602080825260189082015277115490cdcc8c4e881a5b9d985b1a59081d1bdad95b88125160421b604082015260600190565b60008351613120818460208801612a32565b835190830190613134818360208801612a32565b01949350505050565b60208082526025908201527f4552433732313a207472616e736665722066726f6d20696e636f72726563742060408201526437bbb732b960d91b606082015260800190565b60208082526032908201527f4552433732313a207472616e7366657220746f206e6f6e20455243373231526560408201527131b2b4bb32b91034b6b83632b6b2b73a32b960711b606082015260800190565b6001600160a01b038581168252841660208201526040810183905260806060820181905260009061320790830184612a56565b9695505050505050565b60006020828403121561322357600080fd5b81516110b4816129ff565b6020808252601c908201527b115490cdcc8c4e881d1bdad95b88185b1c9958591e481b5a5b9d195960221b60408201526060019056feddf252ad1be2c89b69c2b068fc378daa952ba7f163c4a11628f55a4df523b3efa264697066735822122039e6cbe79b1de883db7613800c6604ce47e9dc0f6fda347a4cc5a5cb5c68fce364736f6c63430008130033",
  "linkReferences": {},
  "deployedLinkReferences": {}
}