{
  "_format": "hh-sol-artifact-1",
  "contractName": "VehicleSystemContract",
  "sourceName": "contracts/VehicleSystemContract.sol",
  "abi": [
    {
      "anonymous": false,
      "inputs": [
        {
          "indexed": true,
          "internalType": "address",
          "name": "owner",
          "type": "address"
        },
        {
          "indexed": true,
          "internalType": "address",
          "name": "approved",
          "type": "address"
        },
        {
          "indexed": true,
          "internalType": "uint256",
          "name": "tokenId",
          "type": "uint256"
        }
      ],
      "name": "Approval",
      "type": "event"
    },
    {
      "anonymous": false,
      "inputs": [
        {
          "indexed": true,
          "internalType": "address",
          "name": "owner",
          "type": "address"
        },
        {
          "indexed": true,
          "internalType": "address",
          "name": "operator",
          "type": "address"
        },
        {
          "indexed": false,
          "internalType": "bool",
          "name": "approved",
          "type": "bool"
        }
      ],
      "name": "ApprovalForAll",
      "type": "event"
    },
    {
      "anonymous": false,
      "inputs": [
        {
          "indexed": true,
          "internalType": "address",
          "name": "previousOwner",
          "type": "address"
        },
        {
          "indexed": true,
          "internalType": "address",
          "name": "newOwner",
          "type": "address"
        }
      ],
      "name": "OwnershipTransferred",
      "type": "event"
    },
    {
      "anonymous": false,
      "inputs": [
        {
          "indexed": true,
          "internalType": "address",
          "name": "from",
          "type": "address"
        },
        {
          "indexed": true,
          "internalType": "address",
          "name": "to",
          "type": "address"
        },
        {
          "indexed": true,
          "internalType": "uint256",
          "name": "tokenId",
          "type": "uint256"
        }
      ],
      "name": "Transfer",
      "type": "event"
    },
    {
      "inputs": [
        {
          "internalType": "uint256",
          "name": "tokenId",
          "type": "uint256"
        },
        {
          "internalType": "string",
          "name": "title",
          "type": "string"
        },
        {
          "internalType": "string",
          "name": "description",
          "type": "string"
        },
        {
          "internalType": "uint256",
          "name": "price",
          "type": "uint256"
        },
        {
          "internalType": "uint256",
          "name": "date",
          "type": "uint256"
        }
      ],
      "name": "addVehicleServiceRecord",
      "outputs": [],
      "stateMutability": "nonpayable",
      "type": "function"
    },
    {
      "inputs": [
        {
          "internalType": "address",
          "name": "agentAddress",
          "type": "address"
        }
      ],
      "name": "agentDeactivation",
      "outputs": [],
      "stateMutability": "nonpayable",
      "type": "function"
    },
    {
      "inputs": [
        {
          "internalType": "address",
          "name": "agentAddress",
          "type": "address"
        }
      ],
      "name": "agentRegistration",
      "outputs": [],
      "stateMutability": "nonpayable",
      "type": "function"
    },
    {
      "inputs": [
        {
          "internalType": "address",
          "name": "to",
          "type": "address"
        },
        {
          "internalType": "uint256",
          "name": "tokenId",
          "type": "uint256"
        }
      ],
      "name": "approve",
      "outputs": [],
      "stateMutability": "nonpayable",
      "type": "function"
    },
    {
      "inputs": [
        {
          "internalType": "uint256",
          "name": "requestId",
          "type": "uint256"
        },
        {
          "internalType": "string",
          "name": "carBrand",
          "type": "string"
        },
        {
          "internalType": "string",
          "name": "carModel",
          "type": "string"
        },
        {
          "internalType": "uint256",
          "name": "manufacturingDate",
          "type": "uint256"
        },
        {
          "components": [
            {
              "internalType": "string",
              "name": "driverLicenseCode",
              "type": "string"
            },
            {
              "internalType": "string",
              "name": "federalUnit",
              "type": "string"
            },
            {
              "internalType": "string",
              "name": "county",
              "type": "string"
            },
            {
              "internalType": "string",
              "name": "vehiclePlate",
              "type": "string"
            },
            {
              "internalType": "string",
              "name": "year",
              "type": "string"
            },
            {
              "internalType": "uint256",
              "name": "startDate",
              "type": "uint256"
            },
            {
              "internalType": "uint256",
              "name": "endDate",
              "type": "uint256"
            }
          ],
          "internalType": "struct IBaseContract.VehicleOwnershipRecord[]",
          "name": "ownershipRecords",
          "type": "tuple[]"
        }
      ],
      "name": "approveVehicleRequest",
      "outputs": [],
      "stateMutability": "nonpayable",
      "type": "function"
    },
    {
      "inputs": [
        {
          "internalType": "address",
          "name": "owner",
          "type": "address"
        }
      ],
      "name": "balanceOf",
      "outputs": [
        {
          "internalType": "uint256",
          "name": "",
          "type": "uint256"
        }
      ],
      "stateMutability": "view",
      "type": "function"
    },
    {
      "inputs": [
        {
          "internalType": "uint256",
          "name": "proposalId",
          "type": "uint256"
        }
      ],
      "name": "contractVehicleInsuranceProposal",
      "outputs": [],
      "stateMutability": "payable",
      "type": "function"
    },
    {
      "inputs": [
        {
          "internalType": "uint256",
          "name": "requestId",
          "type": "uint256"
        }
      ],
      "name": "createVehicle",
      "outputs": [],
      "stateMutability": "nonpayable",
      "type": "function"
    },
    {
      "inputs": [
        {
          "internalType": "uint256",
          "name": "requestId",
          "type": "uint256"
        },
        {
          "internalType": "uint256",
          "name": "startDate",
          "type": "uint256"
        },
        {
          "internalType": "uint256",
          "name": "endDate",
          "type": "uint256"
        },
        {
          "internalType": "uint256",
          "name": "price",
          "type": "uint256"
        },
        {
          "internalType": "string",
          "name": "contractUrl",
          "type": "string"
        }
      ],
      "name": "createVehicleInsuranceProposal",
      "outputs": [],
      "stateMutability": "nonpayable",
      "type": "function"
    },
    {
      "inputs": [
        {
          "internalType": "uint256",
          "name": "tokenId",
          "type": "uint256"
        },
        {
          "internalType": "address",
          "name": "insurer",
          "type": "address"
        }
      ],
      "name": "createVehicleInsuranceRequest",
      "outputs": [],
      "stateMutability": "nonpayable",
      "type": "function"
    },
    {
      "inputs": [
        {
          "internalType": "address",
          "name": "agent",
          "type": "address"
        },
        {
          "internalType": "string",
          "name": "vehicleRegistrationCode",
          "type": "string"
        }
      ],
      "name": "createVehicleRequest",
      "outputs": [],
      "stateMutability": "nonpayable",
      "type": "function"
    },
    {
      "inputs": [
        {
          "internalType": "string",
          "name": "driverLicenseCode",
          "type": "string"
        }
      ],
      "name": "defineDriverLicenseCode",
      "outputs": [],
      "stateMutability": "nonpayable",
      "type": "function"
    },
    {
      "inputs": [
        {
          "internalType": "address",
          "name": "user",
          "type": "address"
        }
      ],
      "name": "driverLicenseCodeOf",
      "outputs": [
        {
          "internalType": "string",
          "name": "",
          "type": "string"
        }
      ],
      "stateMutability": "view",
      "type": "function"
    },
    {
      "inputs": [
        {
          "internalType": "uint256",
          "name": "tokenId",
          "type": "uint256"
        },
        {
          "internalType": "address",
          "name": "fromAddress",
          "type": "address"
        }
      ],
      "name": "getAccessByTokenId",
      "outputs": [
        {
          "components": [
            {
              "internalType": "uint256",
              "name": "tokenId",
              "type": "uint256"
            },
            {
              "internalType": "uint256",
              "name": "expirationDate",
              "type": "uint256"
            },
            {
              "internalType": "uint256",
              "name": "updatedAt",
              "type": "uint256"
            },
            {
              "internalType": "uint256",
              "name": "createdAt",
              "type": "uint256"
            }
          ],
          "internalType": "struct IBaseContract.Access",
          "name": "",
          "type": "tuple"
        }
      ],
      "stateMutability": "view",
      "type": "function"
    },
    {
      "inputs": [
        {
          "internalType": "uint256",
          "name": "tokenId",
          "type": "uint256"
        }
      ],
      "name": "getApproved",
      "outputs": [
        {
          "internalType": "address",
          "name": "",
          "type": "address"
        }
      ],
      "stateMutability": "view",
      "type": "function"
    },
    {
      "inputs": [],
      "name": "getDriverLicenseCode",
      "outputs": [
        {
          "internalType": "string",
          "name": "driverLicenseCode",
          "type": "string"
        }
      ],
      "stateMutability": "view",
      "type": "function"
    },
    {
      "inputs": [],
      "name": "getTokenIdsByOwner",
      "outputs": [
        {
          "internalType": "uint256[]",
          "name": "",
          "type": "uint256[]"
        }
      ],
      "stateMutability": "view",
      "type": "function"
    },
    {
      "inputs": [
        {
          "internalType": "uint256",
          "name": "requestId",
          "type": "uint256"
        }
      ],
      "name": "getUserVehicleRequestById",
      "outputs": [
        {
          "components": [
            {
              "internalType": "address",
              "name": "requester",
              "type": "address"
            },
            {
              "internalType": "address",
              "name": "agent",
              "type": "address"
            },
            {
              "internalType": "string",
              "name": "vehicleRegistrationCode",
              "type": "string"
            },
            {
              "components": [
                {
                  "internalType": "string",
                  "name": "carBrand",
                  "type": "string"
                },
                {
                  "internalType": "string",
                  "name": "carModel",
                  "type": "string"
                },
                {
                  "internalType": "uint256",
                  "name": "manufacturingDate",
                  "type": "uint256"
                },
                {
                  "internalType": "uint256[]",
                  "name": "vehicleOwnershipRecordIds",
                  "type": "uint256[]"
                }
              ],
              "internalType": "struct IBaseContract.VehicleRequestData",
              "name": "vehicleData",
              "type": "tuple"
            },
            {
              "internalType": "enum IBaseContract.Status",
              "name": "status",
              "type": "uint8"
            },
            {
              "internalType": "uint256",
              "name": "createdAt",
              "type": "uint256"
            },
            {
              "internalType": "uint256",
              "name": "updatedAt",
              "type": "uint256"
            }
          ],
          "internalType": "struct IBaseContract.VehicleRequest",
          "name": "",
          "type": "tuple"
        }
      ],
      "stateMutability": "view",
      "type": "function"
    },
    {
      "inputs": [
        {
          "internalType": "uint256",
          "name": "accidentId",
          "type": "uint256"
        }
      ],
      "name": "getVehicleAccidentRecordById",
      "outputs": [
        {
          "components": [
            {
              "internalType": "address",
              "name": "vehicleOwner",
              "type": "address"
            },
            {
              "internalType": "address",
              "name": "insurer",
              "type": "address"
            },
            {
              "internalType": "uint256",
              "name": "tokenId",
              "type": "uint256"
            },
            {
              "internalType": "uint256",
              "name": "insuranceId",
              "type": "uint256"
            },
            {
              "internalType": "string",
              "name": "description",
              "type": "string"
            },
            {
              "internalType": "uint256",
              "name": "accidentDate",
              "type": "uint256"
            },
            {
              "internalType": "uint256[]",
              "name": "vehicleServicesIds",
              "type": "uint256[]"
            },
            {
              "internalType": "uint256",
              "name": "createdAt",
              "type": "uint256"
            },
            {
              "internalType": "uint256",
              "name": "updatedAt",
              "type": "uint256"
            }
          ],
          "internalType": "struct IBaseContract.VehicleAccidentRecord",
          "name": "",
          "type": "tuple"
        }
      ],
      "stateMutability": "view",
      "type": "function"
    },
    {
      "inputs": [
        {
          "internalType": "uint256",
          "name": "tokenId",
          "type": "uint256"
        }
      ],
      "name": "getVehicleAccidentRecordIdsByTokenId",
      "outputs": [
        {
          "internalType": "uint256[]",
          "name": "",
          "type": "uint256[]"
        }
      ],
      "stateMutability": "view",
      "type": "function"
    },
    {
      "inputs": [
        {
          "internalType": "uint256",
          "name": "insuranceId",
          "type": "uint256"
        }
      ],
      "name": "getVehicleInsuranceContractById",
      "outputs": [
        {
          "components": [
            {
              "internalType": "address",
              "name": "requester",
              "type": "address"
            },
            {
              "internalType": "address",
              "name": "insurer",
              "type": "address"
            },
            {
              "internalType": "uint256",
              "name": "tokenId",
              "type": "uint256"
            },
            {
              "internalType": "string",
              "name": "contractUrl",
              "type": "string"
            },
            {
              "internalType": "uint256",
              "name": "insuranceStartDate",
              "type": "uint256"
            },
            {
              "internalType": "uint256",
              "name": "insuranceEndDate",
              "type": "uint256"
            },
            {
              "internalType": "uint256[]",
              "name": "vehicleServicesIds",
              "type": "uint256[]"
            },
            {
              "internalType": "uint256",
              "name": "createdAt",
              "type": "uint256"
            },
            {
              "internalType": "uint256",
              "name": "updatedAt",
              "type": "uint256"
            }
          ],
          "internalType": "struct IBaseContract.VehicleInsuranceContract",
          "name": "",
          "type": "tuple"
        }
      ],
      "stateMutability": "view",
      "type": "function"
    },
    {
      "inputs": [],
      "name": "getVehicleInsuranceContractIdsByInsurer",
      "outputs": [
        {
          "internalType": "uint256[]",
          "name": "",
          "type": "uint256[]"
        }
      ],
      "stateMutability": "view",
      "type": "function"
    },
    {
      "inputs": [
        {
          "internalType": "uint256",
          "name": "tokenId",
          "type": "uint256"
        }
      ],
      "name": "getVehicleInsuranceContractIdsByTokenId",
      "outputs": [
        {
          "internalType": "uint256[]",
          "name": "",
          "type": "uint256[]"
        }
      ],
      "stateMutability": "view",
      "type": "function"
    },
    {
      "inputs": [
        {
          "internalType": "uint256",
          "name": "proposalId",
          "type": "uint256"
        }
      ],
      "name": "getVehicleInsuranceProposalById",
      "outputs": [
        {
          "components": [
            {
              "internalType": "address",
              "name": "requester",
              "type": "address"
            },
            {
              "internalType": "address payable",
              "name": "insurer",
              "type": "address"
            },
            {
              "internalType": "uint256",
              "name": "tokenId",
              "type": "uint256"
            },
            {
              "internalType": "uint256",
              "name": "insuranceStartDate",
              "type": "uint256"
            },
            {
              "internalType": "uint256",
              "name": "insuranceEndDate",
              "type": "uint256"
            },
            {
              "internalType": "uint256",
              "name": "price",
              "type": "uint256"
            },
            {
              "internalType": "string",
              "name": "contractUrl",
              "type": "string"
            },
            {
              "internalType": "enum IBaseContract.Status",
              "name": "status",
              "type": "uint8"
            },
            {
              "internalType": "uint256",
              "name": "createdAt",
              "type": "uint256"
            },
            {
              "internalType": "uint256",
              "name": "updatedAt",
              "type": "uint256"
            }
          ],
          "internalType": "struct IBaseContract.VehicleInsuranceProposal",
          "name": "",
          "type": "tuple"
        }
      ],
      "stateMutability": "view",
      "type": "function"
    },
    {
      "inputs": [],
      "name": "getVehicleInsuranceProposalIdsByInsurer",
      "outputs": [
        {
          "internalType": "uint256[]",
          "name": "",
          "type": "uint256[]"
        }
      ],
      "stateMutability": "view",
      "type": "function"
    },
    {
      "inputs": [
        {
          "internalType": "uint256",
          "name": "tokenId",
          "type": "uint256"
        }
      ],
      "name": "getVehicleInsuranceProposalIdsByTokenId",
      "outputs": [
        {
          "internalType": "uint256[]",
          "name": "",
          "type": "uint256[]"
        }
      ],
      "stateMutability": "view",
      "type": "function"
    },
    {
      "inputs": [
        {
          "internalType": "uint256",
          "name": "requestId",
          "type": "uint256"
        }
      ],
      "name": "getVehicleInsuranceRequestById",
      "outputs": [
        {
          "components": [
            {
              "internalType": "address",
              "name": "requester",
              "type": "address"
            },
            {
              "internalType": "address",
              "name": "insurer",
              "type": "address"
            },
            {
              "internalType": "uint256",
              "name": "tokenId",
              "type": "uint256"
            },
            {
              "internalType": "enum IBaseContract.Status",
              "name": "status",
              "type": "uint8"
            },
            {
              "internalType": "uint256",
              "name": "createdAt",
              "type": "uint256"
            },
            {
              "internalType": "uint256",
              "name": "updatedAt",
              "type": "uint256"
            }
          ],
          "internalType": "struct IBaseContract.VehicleInsuranceRequest",
          "name": "",
          "type": "tuple"
        }
      ],
      "stateMutability": "view",
      "type": "function"
    },
    {
      "inputs": [],
      "name": "getVehicleInsuranceRequestIdsByInsurer",
      "outputs": [
        {
          "internalType": "uint256[]",
          "name": "",
          "type": "uint256[]"
        }
      ],
      "stateMutability": "view",
      "type": "function"
    },
    {
      "inputs": [
        {
          "internalType": "uint256",
          "name": "tokenId",
          "type": "uint256"
        }
      ],
      "name": "getVehicleInsuranceRequestIdsByTokenId",
      "outputs": [
        {
          "internalType": "uint256[]",
          "name": "",
          "type": "uint256[]"
        }
      ],
      "stateMutability": "view",
      "type": "function"
    },
    {
      "inputs": [
        {
          "internalType": "uint256",
          "name": "tokenId",
          "type": "uint256"
        }
      ],
      "name": "getVehicleNFTMetadataByTokenId",
      "outputs": [
        {
          "components": [
            {
              "internalType": "string",
              "name": "vehicleRegistrationCode",
              "type": "string"
            },
            {
              "internalType": "string",
              "name": "carBrand",
              "type": "string"
            },
            {
              "internalType": "string",
              "name": "carModel",
              "type": "string"
            },
            {
              "internalType": "uint256",
              "name": "manufacturingDate",
              "type": "uint256"
            },
            {
              "internalType": "uint256[]",
              "name": "vehicleOwnershipRecordIds",
              "type": "uint256[]"
            }
          ],
          "internalType": "struct INFT.MetadataVehicleNFT",
          "name": "",
          "type": "tuple"
        }
      ],
      "stateMutability": "view",
      "type": "function"
    },
    {
      "inputs": [
        {
          "internalType": "uint256",
          "name": "tokenId",
          "type": "uint256"
        },
        {
          "internalType": "uint256",
          "name": "ownershipId",
          "type": "uint256"
        }
      ],
      "name": "getVehicleOwnershipRecordById",
      "outputs": [
        {
          "components": [
            {
              "internalType": "string",
              "name": "driverLicenseCode",
              "type": "string"
            },
            {
              "internalType": "string",
              "name": "federalUnit",
              "type": "string"
            },
            {
              "internalType": "string",
              "name": "county",
              "type": "string"
            },
            {
              "internalType": "string",
              "name": "vehiclePlate",
              "type": "string"
            },
            {
              "internalType": "string",
              "name": "year",
              "type": "string"
            },
            {
              "internalType": "uint256",
              "name": "startDate",
              "type": "uint256"
            },
            {
              "internalType": "uint256",
              "name": "endDate",
              "type": "uint256"
            }
          ],
          "internalType": "struct IBaseContract.VehicleOwnershipRecord",
          "name": "",
          "type": "tuple"
        }
      ],
      "stateMutability": "view",
      "type": "function"
    },
    {
      "inputs": [
        {
          "internalType": "uint256",
          "name": "requestId",
          "type": "uint256"
        }
      ],
      "name": "getVehicleRequestById",
      "outputs": [
        {
          "components": [
            {
              "internalType": "address",
              "name": "requester",
              "type": "address"
            },
            {
              "internalType": "address",
              "name": "agent",
              "type": "address"
            },
            {
              "internalType": "string",
              "name": "vehicleRegistrationCode",
              "type": "string"
            },
            {
              "components": [
                {
                  "internalType": "string",
                  "name": "carBrand",
                  "type": "string"
                },
                {
                  "internalType": "string",
                  "name": "carModel",
                  "type": "string"
                },
                {
                  "internalType": "uint256",
                  "name": "manufacturingDate",
                  "type": "uint256"
                },
                {
                  "internalType": "uint256[]",
                  "name": "vehicleOwnershipRecordIds",
                  "type": "uint256[]"
                }
              ],
              "internalType": "struct IBaseContract.VehicleRequestData",
              "name": "vehicleData",
              "type": "tuple"
            },
            {
              "internalType": "enum IBaseContract.Status",
              "name": "status",
              "type": "uint8"
            },
            {
              "internalType": "uint256",
              "name": "createdAt",
              "type": "uint256"
            },
            {
              "internalType": "uint256",
              "name": "updatedAt",
              "type": "uint256"
            }
          ],
          "internalType": "struct IBaseContract.VehicleRequest",
          "name": "",
          "type": "tuple"
        }
      ],
      "stateMutability": "view",
      "type": "function"
    },
    {
      "inputs": [
        {
          "internalType": "uint256",
          "name": "serviceId",
          "type": "uint256"
        }
      ],
      "name": "getVehicleServiceRecordById",
      "outputs": [
        {
          "components": [
            {
              "internalType": "address",
              "name": "requester",
              "type": "address"
            },
            {
              "internalType": "uint256",
              "name": "tokenId",
              "type": "uint256"
            },
            {
              "internalType": "string",
              "name": "title",
              "type": "string"
            },
            {
              "internalType": "string",
              "name": "description",
              "type": "string"
            },
            {
              "internalType": "uint256",
              "name": "price",
              "type": "uint256"
            },
            {
              "internalType": "uint256",
              "name": "date",
              "type": "uint256"
            },
            {
              "internalType": "uint256",
              "name": "createdAt",
              "type": "uint256"
            }
          ],
          "internalType": "struct IBaseContract.VehicleServiceRecord",
          "name": "",
          "type": "tuple"
        }
      ],
      "stateMutability": "view",
      "type": "function"
    },
    {
      "inputs": [
        {
          "internalType": "uint256",
          "name": "tokenId",
          "type": "uint256"
        }
      ],
      "name": "getVehicleServiceRecordIdsByTokenId",
      "outputs": [
        {
          "internalType": "uint256[]",
          "name": "",
          "type": "uint256[]"
        }
      ],
      "stateMutability": "view",
      "type": "function"
    },
    {
      "inputs": [
        {
          "internalType": "uint256",
          "name": "tokenId",
          "type": "uint256"
        },
        {
          "internalType": "address",
          "name": "toAddress",
          "type": "address"
        },
        {
          "internalType": "uint256",
          "name": "expirationDate",
          "type": "uint256"
        }
      ],
      "name": "giveVehicleAccessByTokenId",
      "outputs": [],
      "stateMutability": "nonpayable",
      "type": "function"
    },
    {
      "inputs": [
        {
          "internalType": "uint256",
          "name": "tokenId",
          "type": "uint256"
        },
        {
          "internalType": "uint256",
          "name": "insuranceId",
          "type": "uint256"
        },
        {
          "internalType": "uint256",
          "name": "accidentId",
          "type": "uint256"
        },
        {
          "internalType": "string",
          "name": "title",
          "type": "string"
        },
        {
          "internalType": "string",
          "name": "description",
          "type": "string"
        },
        {
          "internalType": "uint256",
          "name": "price",
          "type": "uint256"
        },
        {
          "internalType": "uint256",
          "name": "date",
          "type": "uint256"
        }
      ],
      "name": "insurerAddVehicleServiceRecord",
      "outputs": [],
      "stateMutability": "nonpayable",
      "type": "function"
    },
    {
      "inputs": [
        {
          "internalType": "address",
          "name": "insurerAddress",
          "type": "address"
        }
      ],
      "name": "insurerDeactivation",
      "outputs": [],
      "stateMutability": "nonpayable",
      "type": "function"
    },
    {
      "inputs": [
        {
          "internalType": "address",
          "name": "insurerAddress",
          "type": "address"
        }
      ],
      "name": "insurerRegistration",
      "outputs": [],
      "stateMutability": "nonpayable",
      "type": "function"
    },
    {
      "inputs": [
        {
          "internalType": "address",
          "name": "owner",
          "type": "address"
        },
        {
          "internalType": "address",
          "name": "operator",
          "type": "address"
        }
      ],
      "name": "isApprovedForAll",
      "outputs": [
        {
          "internalType": "bool",
          "name": "",
          "type": "bool"
        }
      ],
      "stateMutability": "view",
      "type": "function"
    },
    {
      "inputs": [
        {
          "internalType": "uint256",
          "name": "tokenId",
          "type": "uint256"
        }
      ],
      "name": "listAccessByTokenId",
      "outputs": [
        {
          "internalType": "address[]",
          "name": "",
          "type": "address[]"
        }
      ],
      "stateMutability": "view",
      "type": "function"
    },
    {
      "inputs": [],
      "name": "listAgents",
      "outputs": [
        {
          "internalType": "address[]",
          "name": "",
          "type": "address[]"
        }
      ],
      "stateMutability": "view",
      "type": "function"
    },
    {
      "inputs": [],
      "name": "listApprovalsIds",
      "outputs": [
        {
          "internalType": "uint256[]",
          "name": "",
          "type": "uint256[]"
        }
      ],
      "stateMutability": "view",
      "type": "function"
    },
    {
      "inputs": [],
      "name": "listInsurers",
      "outputs": [
        {
          "internalType": "address[]",
          "name": "",
          "type": "address[]"
        }
      ],
      "stateMutability": "view",
      "type": "function"
    },
    {
      "inputs": [],
      "name": "listUserVehicleRequestsIds",
      "outputs": [
        {
          "internalType": "uint256[]",
          "name": "",
          "type": "uint256[]"
        }
      ],
      "stateMutability": "view",
      "type": "function"
    },
    {
      "inputs": [],
      "name": "listVehicleRequestsIds",
      "outputs": [
        {
          "internalType": "uint256[]",
          "name": "",
          "type": "uint256[]"
        }
      ],
      "stateMutability": "view",
      "type": "function"
    },
    {
      "inputs": [],
      "name": "name",
      "outputs": [
        {
          "internalType": "string",
          "name": "",
          "type": "string"
        }
      ],
      "stateMutability": "view",
      "type": "function"
    },
    {
      "inputs": [],
      "name": "owner",
      "outputs": [
        {
          "internalType": "address",
          "name": "",
          "type": "address"
        }
      ],
      "stateMutability": "view",
      "type": "function"
    },
    {
      "inputs": [
        {
          "internalType": "uint256",
          "name": "tokenId",
          "type": "uint256"
        }
      ],
      "name": "ownerOf",
      "outputs": [
        {
          "internalType": "address",
          "name": "",
          "type": "address"
        }
      ],
      "stateMutability": "view",
      "type": "function"
    },
    {
      "inputs": [
        {
          "internalType": "uint256",
          "name": "tokenId",
          "type": "uint256"
        },
        {
          "internalType": "uint256",
          "name": "insuranceId",
          "type": "uint256"
        },
        {
          "internalType": "string",
          "name": "description",
          "type": "string"
        },
        {
          "internalType": "uint256",
          "name": "accidentDate",
          "type": "uint256"
        }
      ],
      "name": "registerVehicleAccidentRecord",
      "outputs": [],
      "stateMutability": "nonpayable",
      "type": "function"
    },
    {
      "inputs": [],
      "name": "renounceOwnership",
      "outputs": [],
      "stateMutability": "nonpayable",
      "type": "function"
    },
    {
      "inputs": [
        {
          "internalType": "uint256",
          "name": "tokenId",
          "type": "uint256"
        },
        {
          "internalType": "address",
          "name": "toAddress",
          "type": "address"
        }
      ],
      "name": "revokeVehicleAccessByTokenId",
      "outputs": [],
      "stateMutability": "nonpayable",
      "type": "function"
    },
    {
      "inputs": [
        {
          "internalType": "address",
          "name": "from",
          "type": "address"
        },
        {
          "internalType": "address",
          "name": "to",
          "type": "address"
        },
        {
          "internalType": "uint256",
          "name": "tokenId",
          "type": "uint256"
        }
      ],
      "name": "safeTransferFrom",
      "outputs": [],
      "stateMutability": "nonpayable",
      "type": "function"
    },
    {
      "inputs": [
        {
          "internalType": "address",
          "name": "from",
          "type": "address"
        },
        {
          "internalType": "address",
          "name": "to",
          "type": "address"
        },
        {
          "internalType": "uint256",
          "name": "tokenId",
          "type": "uint256"
        },
        {
          "internalType": "bytes",
          "name": "data",
          "type": "bytes"
        }
      ],
      "name": "safeTransferFrom",
      "outputs": [],
      "stateMutability": "nonpayable",
      "type": "function"
    },
    {
      "inputs": [
        {
          "internalType": "address",
          "name": "operator",
          "type": "address"
        },
        {
          "internalType": "bool",
          "name": "approved",
          "type": "bool"
        }
      ],
      "name": "setApprovalForAll",
      "outputs": [],
      "stateMutability": "nonpayable",
      "type": "function"
    },
    {
      "inputs": [
        {
          "internalType": "bytes4",
          "name": "interfaceId",
          "type": "bytes4"
        }
      ],
      "name": "supportsInterface",
      "outputs": [
        {
          "internalType": "bool",
          "name": "",
          "type": "bool"
        }
      ],
      "stateMutability": "view",
      "type": "function"
    },
    {
      "inputs": [],
      "name": "symbol",
      "outputs": [
        {
          "internalType": "string",
          "name": "",
          "type": "string"
        }
      ],
      "stateMutability": "view",
      "type": "function"
    },
    {
      "inputs": [
        {
          "internalType": "uint256",
          "name": "tokenId",
          "type": "uint256"
        }
      ],
      "name": "tokenURI",
      "outputs": [
        {
          "internalType": "string",
          "name": "",
          "type": "string"
        }
      ],
      "stateMutability": "view",
      "type": "function"
    },
    {
      "inputs": [
        {
          "internalType": "address",
          "name": "from",
          "type": "address"
        },
        {
          "internalType": "address",
          "name": "to",
          "type": "address"
        },
        {
          "internalType": "uint256",
          "name": "tokenId",
          "type": "uint256"
        }
      ],
      "name": "transferFrom",
      "outputs": [],
      "stateMutability": "nonpayable",
      "type": "function"
    },
    {
      "inputs": [
        {
          "internalType": "address",
          "name": "newOwner",
          "type": "address"
        }
      ],
      "name": "transferOwnership",
      "outputs": [],
      "stateMutability": "nonpayable",
      "type": "function"
    },
    {
      "inputs": [
        {
          "internalType": "string",
          "name": "driverLicenseCode",
          "type": "string"
        }
      ],
      "name": "userRegistration",
      "outputs": [],
      "stateMutability": "nonpayable",
      "type": "function"
    }
  ],
  "bytecode": "0x6080604052346200002657620000146200002b565b60405161549d62000542823961549d90f35b600080fd5b6200003562000037565b565b62000035620000356200003562000035620000356200003562000035620000356200003562000035620000356200003562000035620000356200003562000035620000356200003562000035620000356200003562000035620000356200003562000178565b634e487b7160e01b600052604160045260246000fd5b90601f01601f191681019081106001600160401b03821117620000d557604052565b6200009d565b9062000035620000ea60405190565b9283620000b3565b6001600160401b038111620000d557602090601f01601f19160190565b90620001256200011f83620000f2565b620000db565b918252565b6200013660036200010f565b6213919560ea1b602082015290565b6200014f6200012a565b90565b6200015e60046200010f565b631593919560e21b602082015290565b6200014f62000152565b620001976200018662000145565b620001906200016e565b90620001a3565b62000035602062000511565b620000359182918291829182918291620001be9190620003e4565b620000353362000474565b634e487b7160e01b600052602260045260246000fd5b906001600283049216801562000202575b6020831014620001fc57565b620001c9565b91607f1691620001f0565b9160001960089290920291821b911b5b9181191691161790565b6200014f6200014f6200014f9290565b91906200024c6200014f620002559362000227565b9083546200020d565b9055565b620000359160009162000237565b81811062000273575050565b8062000283600060019362000259565b0162000267565b9190601f81116200029a57505050565b620002ae6200003593600052602060002090565b906020601f840181900483019310620002d2575b6020601f90910104019062000267565b9091508190620002c2565b9060001960089091021c191690565b81620002f891620002dd565b906002021790565b906200030a815190565b906001600160401b038211620000d55762000332826200032b8554620001df565b856200028a565b602090601f831160011462000365576200025592916000918362000359575b5050620002ec565b01519050388062000351565b601f198316916200037b85600052602060002090565b9260005b818110620003bf57509160029391856001969410620003a2575b50505002019055565b620003b4910151601f841690620002dd565b905538808062000399565b919360206001819287870151815501950192016200037f565b90620000359162000300565b90620003f662000035926019620003d8565b601a620003d8565b6200014f905b6001600160a01b031690565b6200014f9054620003fe565b906001600160a01b03906200021d565b6200014f9062000404906001600160a01b031682565b6200014f906200042c565b6200014f9062000442565b906200046c6200014f62000255926200044d565b82546200041c565b62000480601f62000410565b906200048e81601f62000458565b620004c5620004be7f8be0079c531659141344cd1fd0a4f28419497f9722a3daafe3b4186f6b6457e0936200044d565b916200044d565b91620004d060405190565b600090a3565b6200014f9081565b6200014f9054620004d6565b90600019906200021d565b90620005096200014f620002559262000227565b8254620004ea565b62000035906200053a600062000528600162000227565b9201916200053683620004de565b0190565b90620004f556fe6080604052600436101561001257600080fd5b60003560e01c806301664486146103d257806301ffc9a7146103cd57806306fdde03146103c8578063081812fc146103c3578063095ea7b3146103be5780631114cd57146103b95780631499f40b146103b457806314a5189a146103af57806315acca77146103aa5780631a971303146103a557806323b872dd146103a05780632b6c64be1461039b5780632e5d81fb1461039657806331a3e0c914610391578063333f00401461038c57806342842e0e14610387578063492af106146103825780634c7525da1461037d57806355855ddc14610378578063558df3d3146103735780635bfe19b51461036e5780636352211e1461036957806363d1b1b91461036457806368684d081461035f5780636f04401d1461035a57806370a082311461035557806370e37a6414610350578063715018a61461034b57806371f46bbb1461034657806372ea011c1461034157806378301afd1461033c5780637ae3cae3146103375780637d6acdf4146103325780637db3b2ff1461032d578063845c9cbb146103285780638b523d0b146103235780638da5cb5b1461031e5780638f60d40b1461031957806395d89b411461031457806396678e9e1461030f5780639776f17e1461030a57806399326622146103055780639d51b26f14610300578063a130d9fc146102fb578063a16c03be146102f6578063a22cb465146102f1578063a563efb4146102ec578063b88d4fde146102e7578063baf0438f146102e2578063bc6f4be6146102dd578063c69b400a146102d8578063c6c1b356146102d3578063c87b56dd146102ce578063cf6713d0146102c9578063d6cd4a02146102c4578063d7d38508146102bf578063e125e202146102ba578063e985e9c5146102b5578063f2fde38b146102b05763f4f297a7036103e0576117fe565b6117e6565b6117ca565b611789565b6116fc565b6116e1565b6116c9565b6116ae565b611693565b61166c565b61159c565b611581565b611565565b6114fb565b6114e2565b61148f565b611474565b61144d565b6113c6565b61139e565b611347565b61132c565b61130d565b611269565b611251565b611236565b61121b565b611202565b6111da565b611124565b6110d8565b61105a565b611042565b611027565b610ffc565b610fe4565b610fbd565b610f49565b610f2e565b610f13565b610efa565b610eba565b610e28565b610ddb565b610dc2565b610da6565b610d1a565b610afd565b610a78565b6109b5565b610969565b61083d565b61080e565b6107e7565b61065c565b6105dc565b610592565b61053e565b610499565b61043c565b805b036103e057565b600080fd5b905035906103f2826103d7565b565b6001600160a01b031690565b90565b6103d9816103f4565b905035906103f282610403565b91906040838203126103e0576104009061043381856103e5565b9360200161040c565b346103e05761045561044f366004610419565b90614ff1565b604051005b0390f35b6001600160e01b03191690565b6103d98161045e565b905035906103f28261046b565b906020828203126103e05761040091610474565b9052565b346103e05761045a6104b46104af366004610481565b611a33565b6040515b91829182901515815260200190565b60009103126103e057565b60005b8381106104e55750506000910152565b81810151838201526020016104d5565b61051661051f6020936105299361050a815190565b80835293849260200190565b958691016104d2565b601f01601f191690565b0190565b6020808252610400929101906104f5565b346103e05761054e3660046104c7565b61045a610559611cba565b6040519182918261052d565b906020828203126103e057610400916103e5565b610495906103f4565b6020810192916103f29190610579565b346103e05761045a6105ad6105a8366004610565565b611edf565b60405191829182610582565b91906040838203126103e057610400906105d3818561040c565b936020016103e5565b346103e0576104556105ef3660046105b9565b90611e6f565b9061061561060e610604845190565b8084529260200190565b9260200190565b9060005b8181106106265750505090565b90919261064361063c6001928651815260200190565b9460200190565b929101610619565b6020808252610400929101906105f5565b346103e05761066c3660046104c7565b61045a61067761408e565b6040519182918261064b565b9061069261060e610604845190565b9060005b8181106106a35750505090565b9091926106b961063c6001928651815260200190565b929101610696565b8051608080845261040093916060916106f2916106e0918501906104f5565b602085015184820360208601526104f5565b9261070260408201516040850152565b0151906060818403910152610683565b634e487b7160e01b600052602160045260246000fd5b6004111561073257565b610712565b906103f282610728565b61040090610737565b61049590610741565b906104009060c0806107ad61079b60e0850161077760008901516000880190610579565b61078960208901516020880190610579565b604088015186820360408801526104f5565b606087015185820360608701526106c1565b946107c06080820151608086019061074a565b6107cf60a082015160a0860152565b0151910152565b602080825261040092910190610753565b346103e05761045a6108026107fd366004610565565b61404f565b604051918291826107d6565b346103e05761081e3660046104c7565b61045a610677614037565b906020828203126103e0576104009161040c565b346103e05761045a610559610853366004610829565b613e0d565b634e487b7160e01b600052604160045260246000fd5b90601f01601f191681019081106001600160401b0382111761088f57604052565b610858565b906103f26108a160405190565b928361086e565b6001600160401b03811161088f57602090601f01601f19160190565b90826000939282370152565b909291926108e56108e0826108a8565b610894565b938185526020850190828401116103e0576103f2926108c4565b9080601f830112156103e057816020610400933591016108d0565b6080818303126103e05761092e82826103e5565b9261093c83602084016103e5565b926040830135906001600160401b0382116103e057610960816104009386016108ff565b936060016103e5565b346103e05761045561097c36600461091a565b9291909161378a565b90916060828403126103e05761040061099e848461040c565b936109ac816020860161040c565b936040016103e5565b346103e0576104556109c8366004610985565b91611f98565b906104009061010080610a57610a3661012085016109f460008901516000880190610579565b610a0660208901516020880190610579565b610a1560408901516040880152565b610a2460608901516060880152565b608088015186820360808801526104f5565b610a4560a088015160a0870152565b60c087015185820360c0870152610683565b946107cf60e082015160e0860152565b6020808252610400929101906109ce565b346103e05761045a610a93610a8e366004610565565b614b58565b60405191829182610a67565b919060a0838203126103e057610ab581846103e5565b92610ac382602083016103e5565b92604091610ad3848483016103e5565b93610ae181606084016103e5565b936001806080850135921b0381116103e05761040092016108ff565b346103e057610455610b10366004610a9f565b939290926134db565b6001600160401b03811161088f5760208091020190565b91909160e0818403126103e057610b4760e0610894565b9281356001600160401b0381116103e05781610b649184016108ff565b845260208201356001600160401b0381116103e05781610b859184016108ff565b602085015260408201356001600160401b0381116103e05781610ba99184016108ff565b604085015260608201356001600160401b0381116103e05781610bcd9184016108ff565b60608501526080820135906001600160401b0382116103e057610bf581610c169385016108ff565b608086015260a0610c08828286016103e5565b9086015260c08093016103e5565b90830152565b929190610c2b6108e082610b19565b93818552602080860192028101918383116103e05781905b838210610c51575050505050565b81356001600160401b0381116103e057602091610c718784938701610b30565b815201910190610c43565b9080601f830112156103e05781602061040093359101610c1c565b91909160a0818403126103e057610cae83826103e5565b9260208201356001600160401b0381116103e05781610cce9184016108ff565b9260408301356001600160401b0381116103e05782610cee9185016108ff565b92610cfc83606083016103e5565b9260808201356001600160401b0381116103e0576104009201610c7c565b346103e057610455610d2d366004610c97565b9392909261313e565b919060a0838203126103e057610d4c81846103e5565b9260208101356001600160401b0381116103e05782610d6c9183016108ff565b9260408201356001600160401b0381116103e057610d8f846104009285016108ff565b93610d9d81606086016103e5565b936080016103e5565b346103e057610455610db9366004610d36565b93929092614fab565b346103e057610455610dd5366004610985565b91611fb5565b346103e057610455610dee366004610829565b61342f565b9190916040818403126103e057610e0a838261040c565b9260208201356001600160401b0381116103e05761040092016108ff565b346103e057610455610e3b366004610df3565b90614012565b906104009061010080610a57610e9a6101208501610e6760008901516000880190610579565b610e7960208901516020880190610579565b610e8860408901516040880152565b606088015186820360608801526104f5565b610a3660808801516080870152565b602080825261040092910190610e41565b346103e05761045a610ed5610ed0366004610565565b614bfd565b60405191829182610ea9565b90916060828403126103e05761040061099e84846103e5565b346103e057610455610f0d366004610ee1565b916140b5565b346103e05761045a610677610f29366004610565565b614a84565b346103e05761045a6105ad610f44366004610565565b611b95565b346103e05761045a610677610f5f366004610565565b614b9d565b9061052981602093610579565b90610f8061060e610604845190565b9060005b818110610f915750505090565b909192610fa461063c6001928651610f64565b929101610f84565b602080825261040092910190610f71565b346103e057610fcd3660046104c7565b61045a610fd8613438565b60405191829182610fac565b346103e057610455610ff7366004610829565b6129b4565b346103e05761045a611017611012366004610829565b611b12565b6040519182918290815260200190565b346103e0576110373660046104c7565b61045a610677614f6b565b346103e0576110523660046104c7565b610455611865565b346103e05761045561106d366004610829565b613345565b906104009060c0806110b76110a560e0850161109660008901516000880190610579565b61078960208901516020880152565b606087015185820360608701526104f5565b946107c060808201516080860152565b602080825261040092910190611072565b346103e05761045a6110f36110ee366004610565565b614a3a565b604051918291826110c7565b906020828203126103e05781356001600160401b0381116103e05761040092016108ff565b346103e0576104556111373660046110ff565b613cf3565b91906040838203126103e057610400906105d381856103e5565b906104009060c0806111b96111a7610e8861119561118360e0880160008b015189820360008b01526104f5565b60208a015188820360208a01526104f5565b604089015187820360408901526104f5565b608087015185820360808701526104f5565b946107cf60a082015160a0860152565b602080825261040092910190611156565b346103e05761045a6111f66111f036600461113c565b90614948565b604051918291826111c9565b346103e057610455611215366004610419565b90614200565b346103e05761122b3660046104c7565b61045a610677612ae0565b346103e0576112463660046104c7565b61045a61067761348e565b346103e057610455611264366004610829565b612881565b346103e0576112793660046104c7565b61045a6105ad611823565b9160e0838303126103e05761129982846103e5565b926112a783602083016103e5565b926040916112b7828483016103e5565b936060820135600180861b0381116103e057836112d59184016108ff565b936001806080850135921b0381116103e0576112f6846104009285016108ff565b936113048160a086016103e5565b9360c0016103e5565b346103e057610455611320366004611284565b9594909493919361392e565b346103e05761133c3660046104c7565b61045a610559611cc4565b346103e05761045a610fd861135d366004610565565b61433d565b805182526103f29190606090819061137f60208201516020860152565b6107cf60408201516040860152565b6080810192916103f29190611362565b346103e05761045a6113ba6113b4366004610419565b906143a1565b6040519182918261138e565b346103e0576113d63660046104c7565b61045a610559613de6565b9060a0806103f2936113fb60008201516000860190610579565b61140d60208201516020860190610579565b61141c60408201516040860152565b61142e6060820151606086019061074a565b6107cf60808201516080860152565b60c0810192916103f291906113e1565b346103e05761045a611468611463366004610565565b614524565b6040519182918261143d565b346103e05761045a61067761148a366004610565565b6145ab565b346103e05761045a6106776114a5366004610565565b614447565b8015156103d9565b905035906103f2826114aa565b91906040838203126103e057610400906114d9818561040c565b936020016114b2565b346103e0576104556114f53660046114bf565b90611f04565b346103e05761045a610677611511366004610565565b614978565b906080828203126103e05761152b818361040c565b92611539826020850161040c565b92604092611549818584016103e5565b936001806060850135921b0381116103e05761040092016108ff565b346103e057610455611578366004611516565b92919091611fc5565b346103e0576115913660046104c7565b61045a6106776134b3565b346103e0576104556115af3660046110ff565b613db1565b90610400906101208061163761014084016115d760008801516000870190610579565b6115e960208801516020870190610579565b6115f860408801516040870152565b61160760608801516060870152565b61161660808801516080870152565b61162560a088015160a0870152565b60c087015185820360c08701526104f5565b9461164a60e082015160e086019061074a565b6107cf610100820151610100860152565b6020808252610400929101906115b4565b346103e05761045a611687611682366004610565565b6146dc565b6040519182918261165b565b346103e0576116a33660046104c7565b61045a61067761345d565b346103e05761045a6105596116c4366004610565565b611d34565b346103e0576104556116dc366004610565565b614cae565b346103e0576116f13660046104c7565b61045a610fd8612a3f565b61045561170a366004610565565b61521e565b61040091608061175861174661173460a08501600087015186820360008801526104f5565b602086015185820360208701526104f5565b604085015184820360408601526104f5565b9261176860608201516060850152565b0151906080818403910152610683565b60208082526104009291019061170f565b346103e05761045a6117a461179f366004610565565b61481c565b60405191829182611778565b91906040838203126103e05761040090610433818561040c565b346103e05761045a6104b46117e03660046117b0565b90611f0f565b346103e0576104556117f9366004610829565b611979565b346103e05761045a610802611814366004610565565b612ce9565b61040090546103f4565b610400601f611819565b6118356118c1565b6103f2611853565b6103f46104006104009290565b6104009061183d565b6103f2611860600061184a565b6119d8565b6103f261182d565b1561187457565b60405162461bcd60e51b8152806118bd600482016020808252818101527f4f776e61626c653a2063616c6c6572206973206e6f7420746865206f776e6572604082015260600190565b0390fd5b6103f26118cc611823565b6118e36118dd336103f4565b6103f4565b916103f4565b1461186d565b6103f2906118f56118c1565b611955565b1561190157565b60405162461bcd60e51b815260206004820152602660248201527f4f776e61626c653a206e6577206f776e657220697320746865207a65726f206160448201526564647265737360d01b6064820152608490fd5b6103f2906118606119696118d8600061184a565b611972836103f4565b14156118fa565b6103f2906118e9565b906001600160a01b03905b9181191691161790565b610400906103f4906001600160a01b031682565b61040090611997565b610400906119ab565b906119cd6104006119d4926119b4565b8254611982565b9055565b6119e2601f611819565b906119ee81601f6119bd565b611a21611a1b7f8be0079c531659141344cd1fd0a4f28419497f9722a3daafe3b4186f6b6457e0936119b4565b916119b4565b91611a2b60405190565b80805b0390a3565b611a436380ac58cd60e01b61045e565b611a4c8261045e565b14908115611a69575b8115611a5f575090565b61040091506126bb565b9050611a7b635b5e139f60e01b61045e565b611a848261045e565b1490611a55565b15611a9257565b60405162461bcd60e51b815260206004820152602960248201527f4552433732313a2061646472657373207a65726f206973206e6f7420612076616044820152683634b21037bbb732b960b91b6064820152608490fd5b90611af3906119b4565b600052602052604060002090565b6104009081565b6104009054611b01565b611b4961040091611b21600090565b50611b42611b326118d8600061184a565b611b3b836103f4565b1415611a8b565b601c611ae9565b611b08565b15611b5557565b60405162461bcd60e51b8152602060048201526018602482015277115490cdcc8c4e881a5b9d985b1a59081d1bdad95b88125160421b6044820152606490fd5b611ba29060005b50612065565b610400611bb26118d8600061184a565b611bbb836103f4565b1415611b4e565b634e487b7160e01b600052602260045260246000fd5b9060016002830492168015611bf8575b6020831014611bf357565b611bc2565b91607f1691611be8565b80546000939291611c1f611c1583611bd8565b8085529360200190565b9160018116908115611c715750600114611c3857505050565b611c4b9192939450600052602060002090565b916000925b818410611c5d5750500190565b805484840152602090930192600101611c50565b92949550505060ff1916825215156020020190565b9061040091611c02565b906103f2611caa92611ca160405190565b93848092611c86565b038361086e565b61040090611c90565b6104006019611cb1565b610400601a611cb1565b6104006104006104009290565b90611ce86108e0836108a8565b918252565b6104006000611cdb565b610400611ced565b610529611d1792602092611d11815190565b94859290565b938491016104d2565b611d2e906104009392611cff565b90611cff565b611d3d81612424565b611d45611d9f565b8051611d58611d546000611cce565b9190565b1115611d9557610400611d8991611d716104009461262f565b90611d7b60405190565b938492602084019283611d20565b9081038252038261086e565b5050610400611cf7565b610400611cf7565b15611dae57565b60405162461bcd60e51b815260206004820152602160248201527f4552433732313a20617070726f76616c20746f2063757272656e74206f776e656044820152603960f91b6064820152608490fd5b15611e0457565b60405162461bcd60e51b815260206004820152603d60248201527f4552433732313a20617070726f76652063616c6c6572206973206e6f7420746f60448201527f6b656e206f776e6572206f7220617070726f76656420666f7220616c6c0000006064820152608490fd5b906103f291611ebf611e8083611b95565b611e9c611e8c826103f4565b611e95856103f4565b1415611da7565b33611ea6826103f4565b611eaf826103f4565b14918215611ec4575b5050611dfd565b6122fe565b611ece9250611f0f565b3880611eb8565b90611af390611cce565b611eff61040091611eee600090565b50611ef881612424565b601d611ed5565b611819565b6103f29190336123b0565b61040091611f2a611f2f92611f22600090565b50601e611ae9565b611ae9565b5460ff1690565b15611f3d57565b60405162461bcd60e51b815260206004820152602d60248201527f4552433732313a2063616c6c6572206973206e6f7420746f6b656e206f776e6560448201526c1c881bdc88185c1c1c9bdd9959609a1b6064820152608490fd5b6103f2929190611fb0611fab843361207c565b611f36565b6121ee565b90916103f292611fc3611cf7565b925b6103f293929190611fd9611fab843361207c565b612046565b15611fe557565b6040515b62461bcd60e51b815260206004820152603260248201527f4552433732313a207472616e7366657220746f206e6f6e20455243373231526560448201527131b2b4bb32b91034b6b83632b6b2b73a32b960711b6064820152608490fd5b916103f293916120609361205b8383836121ee565b6124d3565b611fde565b611eff61040091612074600090565b50601b611ed5565b61208582611b95565b9161208f836103f4565b612098836103f4565b149283156120c9575b5082156120ad57505090565b6120c59192506120bf6118dd91611edf565b926103f4565b1490565b6120d69193508290611f0f565b91386120a1565b156120e457565b60405162461bcd60e51b815260206004820152602560248201527f4552433732313a207472616e736665722066726f6d20696e636f72726563742060448201526437bbb732b960d91b6064820152608490fd5b1561213e57565b60405162461bcd60e51b8152602060048201526024808201527f4552433732313a207472616e7366657220746f20746865207a65726f206164646044820152637265737360e01b6064820152608490fd5b916001600160a01b0360089290920291821b911b61198d565b91906121b96104006119d4936119b4565b90835461218f565b6103f2916000916121a8565b906000199061198d565b906121e76104006119d492611cce565b82546121cd565b919061220e6121fc83611b95565b6122086118dd866103f4565b146120dd565b61225a60006122326122226118d88361184a565b61222b856103f4565b1415612137565b61224a61223e85611b95565b6122086118dd886103f4565b61225584601d611ed5565b6121c1565b61229e6122676001611cce565b61228e61229484601c611f2a61227d8a83611ae9565b61228e8761228a83611b08565b0390565b906121d7565b9161052983611b08565b6122b2816122ad84601b611ed5565b6119bd565b6122ee6122e86122e27fddf252ad1be2c89b69c2b068fc378daa952ba7f163c4a11628f55a4df523b3ef956119b4565b926119b4565b92611cce565b926122f860405190565b600090a4565b9061230e826122ad83601d611ed5565b61231781611b95565b916122ee6122e86122e27f8c5be1e5ebec7d5bd14f71427d1e84f3dd0314c0f7b2291e5b200ac8c7c3b925956119b4565b1561234f57565b60405162461bcd60e51b815260206004820152601960248201527822a9219b99189d1030b8383937bb32903a379031b0b63632b960391b6044820152606490fd5b9060ff9061198d565b906123a96104006119d492151590565b8254612390565b6123cc6123bc836103f4565b6123c5836103f4565b1415612348565b6123e4836123df84611f2a85601e611ae9565b612399565b611a2e61241a6124147f17307eab39ab6107e8899845ad3d59bd9653f200f220920489ca2b5937696c31936119b4565b936119b4565b936104b860405190565b6124306103f291612435565b611b4e565b612440906000611b9c565b6124506118dd6118d8600061184a565b141590565b905051906103f28261046b565b906020828203126103e05761040091612455565b90926124a7906124a0610400969461249660808601976000870190610579565b6020850190610579565b6040830152565b60608184039101526104f5565b3d156124ce576124c33d611cdb565b903d6000602084013e565b606090565b919093926124df600090565b946124e9816125d0565b156125c657906125306000612508612503602096956119b4565b6119b4565b9261253b63150b7a02916125193390565b9661252360405190565b998a988997889660e01b90565b865260048601612476565b03925af160009181612596575b5061257a57506125566124b4565b8051612565611d546000611cce565b0361257257604051611fe9565b805190602001fd5b9091506120c5612590630a85bd0160e11b61045e565b9161045e565b6125b891925060203d81116125bf575b6125b0818361086e565b810190612462565b9038612548565b503d6125a6565b5060019450505050565b3b6125de611d546000611cce565b1190565b369037565b906103f26125fd6125f784611cdb565b936108a8565b601f1901602084016125e2565b634e487b7160e01b600052601260045260246000fd5b811561262a570490565b61260a565b612638816126ce565b9061264860019261052984611cce565b9180612653846125e7565b936020018401905b612666575b50505090565b61269a9060001901926f181899199a1a9b1b9c1cb0b131b232b360811b600a82061a8453612694600a611cce565b90612620565b90816126a9611d546000611cce565b146126b65790918161265b565b612660565b6120c56125906301ffc9a760e01b61045e565b6126d86000611cce565b9072184f03e93ff9f4daa797ed6e38ed64bf6a1f0160401b6126f981611cce565b82101561284a575b506904ee2d6d415b85acef8160201b61271981611cce565b821015612828575b50662386f26fc1000061273381611cce565b821015612806575b506305f5e10061274a81611cce565b8210156127e4575b5061271061275f81611cce565b8210156127c2575b50606461277381611cce565b8210156127a0575b50612789611d54600a611cce565b10156127925790565b610400906105296001611cce565b6127bb916126946127b092611cce565b916105296002611cce565b903861277b565b6127dd916126946127d292611cce565b916105296004611cce565b9038612767565b6127ff916126946127f492611cce565b916105296008611cce565b9038612752565b6128219161269461281692611cce565b916105296010611cce565b903861273b565b6128439161269461283892611cce565b916105296020611cce565b9038612721565b6128659161269461285a92611cce565b916105296040611cce565b9038612701565b6103f2906128786118c1565b6103f2906128f8565b6103f29061286c565b156103e057565b634e487b7160e01b600052603260045260246000fd5b80548210156128ca576128c1600191600052602060002090565b91020190600090565b612891565b80549190600160401b83101561088f57826128f29160016103f2950181556128a7565b906121a8565b6103f29061291b612908826131c7565b61291460015b91151590565b141561288a565b612948612940600561293b84612936612932845490565b9390565b6128cf565b611cce565b916008611ae9565b6121d7565b6103f2906129596118c1565b6103f2906129486008916129ae612973611b498386611ae9565b61298c600091612985611d5484611cce565b121561288a565b6129a861299f61293b611b498689611ae9565b60055b9061329b565b19611cce565b92611ae9565b6103f29061294d565b906129d86129cc610604845490565b92600052602060002090565b9060005b8181106129e95750505090565b909192612a0a612a036001926129fe87611819565b610f64565b9460010190565b9291016129dc565b90610400916129bd565b906103f2611caa92612a2d60405190565b93848092612a12565b61040090612a1c565b6104006005612a36565b61040090612a55612aea565b612acc565b90612a696129cc610604845490565b9060005b818110612a7a5750505090565b909192612a97612a03600192612a8f87611b08565b815260200190565b929101612a6d565b9061040091612a5a565b906103f2611caa92612aba60405190565b93848092612a9f565b61040090612aa9565b50610400612adb33600b611ae9565b612ac3565b6104006060612a49565b6103f2612af6336131c7565b61288a565b61040060e0610894565b6104006080610894565b612b17612b05565b90606082526020808080850160605b81520160008152016060905250565b610400612b0f565b612b45612afb565b90600082526020808080808080880160008152016060815201612b66612b35565b81520160005b81520160008152016000905250565b610400612b3d565b9061040091612b90612aea565b9061040091612b9e82612cfa565b612cd3565b80548210156128ca576128c1600a91600052602060002090565b90610495906103f4565b906103f2612c1b6003612bd8612b05565b94612be9612be582611c90565b8752565b612bff612bf860018301611c90565b6020880152565b612c15612c0e60028301611b08565b6040880152565b01612aa9565b6060840152565b9061049590610737565b906103f2612cc36009612c3d612afb565b94612c50612c4a82611819565b87612bbd565b612c68612c5f60018301611819565b60208801612bbd565b612c77612c0e60028301611c90565b612c8d612c8660038301612bc7565b6060880152565b612ca7612c9e600783015460ff1690565b60808801612c22565b612cbd612cb660088301611b08565b60a0880152565b01611b08565b60c0840152565b61040090612c2c565b61040091612ce391506000612ba3565b50612cca565b61040090612cf5612b7b565b612b83565b612d146001612d0d6103f2936000612ba3565b5001611819565b612d206118dd336103f4565b1461288a565b906103f294939291612d36612aea565b906103f294939291612d478161317f565b906103f294939291612d5881612cfa565b613015565b634e487b7160e01b600052600060045260246000fd5b9160001960089290920291821b911b61198d565b9190612d986104006119d493611cce565b908354612d73565b6103f291600091612d87565b818110612db7575050565b80612dc56000600193612da0565b01612dac565b9190601f8111612dda57505050565b612dec6103f293600052602060002090565b906020601f840181900483019310612e0e575b6020601f909101040190612dac565b9091508190612dff565b9060001960089091021c191690565b81612e3191612e18565b906002021790565b90612e42815190565b906001600160401b03821161088f57612e6582612e5f8554611bd8565b85612dcb565b602090601f8311600114612e93576119d4929160009183612e88575b5050612e27565b015190503880612e81565b601f19831691612ea885600052602060002090565b9260005b818110612ee757509160029391856001969410612ecd575b50505002019055565b612edd910151601f841690612e18565b9055388080612ec4565b91936020600181928787015181550195019201612eac565b906103f291612e39565b634e487b7160e01b600052601160045260246000fd5b6000198114612f2e5760010190565b612f09565b90612f3c825190565b8110156128ca576020809102010190565b9061228e60c060066103f294612f7160008201612f6b600088015190565b90612eff565b612f8360018201612f6b602088015190565b612f9560028201612f6b604088015190565b612fa760038201612f6b606088015190565b612fb960048201612f6b608088015190565b612fcb6005820161228e60a088015190565b0192015190565b906103f291612f4d565b80549190600160401b83101561088f5782612fff9160016103f2950181556128a7565b90612d87565b906123a96104006119d492610741565b9092939491429161302e6130268490565b875b1061288a565b61306f6000966002613047613043858b612ba3565b5090565b946130696003870191613060600384019b8d8501612eff565b60018301612eff565b016121d7565b61307886611cce565b613083610400895190565b81101561310157806130bc89613028611d5461040060c06130b0876130b660a06130b06130fc9c8a612f33565b51015190565b96612f33565b6130f760156130d36130cd8261314b565b91613160565b6130f16130e0848d612f33565b516130ec836016611ed5565b612fd2565b88612fdc565b612f1f565b613078565b5060099396506131309192945061312b6104006103f297613125600d918701611819565b90611ae9565b612fdc565b613069600160078301613005565b906103f294939291612d26565b600061040091613159600090565b5001611b08565b6103f29061228e60006131736001611cce565b92019161052983611b08565b6103f290612d206131a96131a3600761319a60009586612ba3565b50015460ff1690565b92610737565b91610737565b610400916008021c6103f4565b9061040091546131af565b60086131d6611b498383611ae9565b6000906131e5611d5483611cce565b128015613223575b61321d57506118dd6120bf6132176120c59361321161293b611b4988600594611ae9565b906128a7565b906131bc565b91505090565b50600554613233611d5483611cce565b11156131ed565b9190613245565b9290565b8203918211612f2e57565b91908201809211612f2e57565b634e487b7160e01b600052603160045260246000fd5b8054801561329657600019019061329361328d83836128a7565b906121c1565b55565b61325d565b6132af6132a9610400845490565b82613028565b81546132c96104006001926132c384611cce565b9061323a565b82101561330457906130f76132f56132176132ef6132e96132ff96611cce565b85613250565b866128a7565b6128f283866128a7565b6132af565b50506103f290613273565b6103f29061331b6118c1565b6103f290613328816131c7565b613332600161290e565b1461334e57613340816128f8565b61334e565b6103f29061330f565b6103f29061335e6129088261337d565b612948613375600661293b84612936612932845490565b916009611ae9565b600961338c611b498383611ae9565b60009061339b611d5483611cce565b1280156133c7575b61321d57506118dd6120bf6132176120c59361321161293b611b4988600694611ae9565b506006546133d7611d5483611cce565b11156133a3565b6103f2906133ea6118c1565b6103f2906134046133fa8261337d565b612d20600161290e565b61294860099161342461341d61293b611b498487611ae9565b60066129a2565b6129ae600019611cce565b6103f2906133de565b6104006006612a36565b6104009061344e613467565b50610400612adb33600e611ae9565b6104006060613442565b6103f2612af63361337d565b6104009061347f613467565b50610400612adb33600f611ae9565b6104006060613473565b610400906134a4613467565b50610400612adb336010611ae9565b6104006060613498565b906103f2949392916134ce81613750565b906103f29493929161361a565b906103f2949392916134bd565b80548210156128ca576128c1600691600052602060002090565b610400610140610894565b61040090516103f4565b6104009051610737565b6103f2919061228e90610120906009906135448161353e8761350d565b906119bd565b6135576001820161353e6020880161350d565b6135696002820161228e604088015190565b61357b6003820161228e606088015190565b61358d6004820161228e608088015190565b61359f6005820161228e60a088015190565b6135b160068201612f6b60c088015190565b6135ca600782016135c460e08801613517565b90613005565b612fcb6008820161228e61010088015190565b91906135ec576103f291613521565b612d5d565b80549190600160401b83101561088f57826136149160016103f295018155612ba3565b906135dd565b909391906136299060016134e8565b5092600384019261363b845460ff1690565b9060009161364883610737565b9061365290610737565b1461365c9061288a565b61366784881061288a565b613672868301611819565b92339461367e866119b4565b9861368b60028a01611b08565b429a613695613502565b976136a290888a01612bbd565b6136af9060208901612bbd565b60408701526060860152608085015260a084015260c08301526136d59060e08301612c22565b6136e185610100830152565b6136ed85610120830152565b6002916136f8835490565b8281936137028690565b9061370c916135f1565b6040015161371b906012611ed5565b9061372591612fdc565b61373090600f611ae9565b9061373a91612fdc565b61374391613005565b600501906103f2916121d7565b612d146103f291612d0d600191826134e8565b906103f293929161377382613868565b6103f293929161378282611b95565b903392613c43565b906103f2939291613763565b80548210156128ca576128c1600991600052602060002090565b610400610120610894565b906103f261385760086137cc6137b0565b946137d9612c4a82611819565b6137e8612c5f60018301611819565b6137f7612c0e60028301611b08565b613806612c8660038301611c90565b61381c61381560048301611b08565b6080880152565b61382b612cb660058301611b08565b61384161383a60068301612aa9565b60c0880152565b612cbd61385060078301611b08565b60e0880152565b610100840152565b610400906137bb565b61387f6138796103f2926003613796565b5061385f565b61388e612d146020830161350d565b6080810151429081101591826138a6575b505061288a565b6138ba91925061324160a0611d5492015190565b1015388061389f565b906103f29695949392916138d682613868565b9261390e6103f2976008978897613924946139066130436138fe6130436130699b6026613796565b986003613796565b9833906139f3565b61391b8160068501612fdc565b60068501612fdc565b42948591016121d7565b906103f29695949392916138c3565b80548210156128ca576128c1600791600052602060002090565b6103f2919061228e9060c0906006906139738161353e8761350d565b6139856001820161228e602088015190565b61399760028201612f6b604088015190565b6139a960038201612f6b606088015190565b612fb96004820161228e608088015190565b91906135ec576103f291613957565b80549190600160401b83101561088f57826139ed9160016103f29501815561393d565b906139bb565b9390949192613a00600090565b504293613a0e85851061288a565b613a16612afb565b96613a219088612bbd565b613a2c866020890152565b60408701526060860152608085015260a084015260c0830152602290613a518261314b565b92613a5c8493613160565b613a679060256139ca565b613a7290602a611ed5565b9061040091612fdc565b90611ce86108e083610b19565b906103f26125fd613a9984613a7c565b93610b19565b818110613aaa575050565b80613ab86000600193612da0565b01613a9f565b9091828110613acc57505050565b6103f29290613ada906129cc565b9081019101613a9f565b90600160401b811161088f5781613afc6103f2935490565b90828155613abe565b8151916001600160401b03831161088f57613b2f6129cc600192613b298686613ae4565b60200190565b92049160005b838110613b425750505050565b6001906020613b52610400865190565b9401938184015501613b35565b906103f291613b05565b6103f2919061228e9061010090600890613b868161353e8761350d565b613b996001820161353e6020880161350d565b613bab6002820161228e604088015190565b613bbd6003820161228e606088015190565b613bcf60048201612f6b608088015190565b613be16005820161228e60a088015190565b613bf960068201613bf360c088015190565b90613b5f565b612fcb6007820161228e60e088015190565b91906135ec576103f291613b69565b80549190600160401b83101561088f5782613c3d9160016103f295018155613796565b90613c0b565b92949293429391613c5585841061288a565b600096613c6188611cce565b613c6a90613a89565b94613c736137b0565b98890190613c8091612bbd565b613c8d9060208901612bbd565b613c98866040890152565b6060870152608086015260a085015260c0840152613cb78160e0850152565b610100830152602391613cc98361314b565b92613cd390613160565b613cde906026613c1a565b613ce990602b611ed5565b906103f291612fdc565b6103f290613d3033613d0761290882613d35565b613d29613d1e600461293b84612936612932845490565b612948836007611ae9565b600a611ae9565b612eff565b6007613d44611b498383611ae9565b600090613d53611d5483611cce565b128015613d7f575b61321d57506118dd6120bf6132176120c59361321161293b611b4988600494611ae9565b50600454613d8f611d5483611cce565b1115613d5b565b6103f290613da2613dba565b6103f290613d3033600a611ae9565b6103f290613d96565b6103f2612af633613d35565b61040090613dd2613dba565b50610400613de133600a611ae9565b611cb1565b6104006060613dc6565b9061040091613dfd6118c1565b61040091613de19150600a611ae9565b610400906060613df0565b906103f291613e25613dba565b613f2c565b90613bf3606060036103f294613e4860008201612f6b600088015190565b613e5a60018201612f6b602088015190565b612fcb6002820161228e604088015190565b906103f291613e2a565b6103f2919061228e9060c090600990613e928161353e8761350d565b613ea56001820161353e6020880161350d565b613eb760028201612f6b604088015190565b613ecf60038201613ec9606088015190565b90613e6c565b613ee2600782016135c460808801613517565b612fcb6008820161228e60a088015190565b91906135ec576103f291613e76565b80549190600160401b83101561088f5782613f269160016103f295018155612ba3565b90613ef4565b61312b610400613fd761400b6103f29561312b610400613fff97613f52612af6826131c7565b614004600094613ff6613f63606090565b91613fad613f6f612b05565b93613f81613f7b611cf7565b8b870152565b613f93613f8c611cf7565b6020870152565b613fa6613f9f8b611cce565b6040870152565b6060850152565b33998a93613fa64293613fca613fc1612afb565b978d8901612bbd565b613f9f8960208901612bbd565b613fe48860808501612c22565b613fef8160a0850152565b60c0830152565b85545b9a8b9690565b613f03565b600b611ae9565b600c611ae9565b906103f291613e18565b61040090614028613dba565b50610400612adb33600c611ae9565b610400606061401c565b9061040091612b9e82614060565b6104009061405b612b7b565b614041565b612d146103f291612d0d60009182612ba3565b6104009061407f613dba565b50610400612adb33600d611ae9565b6104006060614073565b906103f292916140a781614f7c565b91612af6916103f2936140c0565b906103f29291614098565b91906140db6001612cbd856140d6856017611ae9565b611ed5565b6140e8611d546000611cce565b116140f65761040092614134565b610400926141a6565b6103f2919061228e906060906003906141188185875190565b613e5a6001820161228e602088015190565b906103f2916140ff565b91429081811061419d57614198936141916104009261417d6129369561416b61415b612b05565b93614164878652565b6020850152565b614176816040850152565b6060830152565b61418c836140d6886017611ae9565b61412a565b6014611ed5565b600190565b50505050600090565b429182841061419d576141c1916140d6610400926017611ae9565b9160018301926141d361040085611b08565b821061419d57613069600292614198956121d7565b906103f2916141f681614f7c565b906103f29161420a565b906103f2916141e8565b6103f29161306960179261423d61422a6001612cbd846140d6888a611ae9565b614237611d546000611cce565b1161288a565b6142468361337d565b614265575b6140d6429361425f6001956132c387611cce565b95611ae9565b614279612af6614275858461427e565b1590565b61424b565b612adb906140d661429993614291600090565b506018611ae9565b6000906142a582611cce565b6142b0610400835190565b811015614320576142d661387960036142d06142cc8587612f33565b5190565b90613796565b608081015142908110159182614303575b50506142fb576142f690612f1f565b6142a5565b505050600190565b61431791925061324160a0611d5492015190565b101538806142e7565b505090565b906104009161433382614f7c565b5061040090614348565b610400906060614325565b61435f61040091614357606090565b506014611ed5565b612a36565b61436c612b05565b9060008252602080808085016000612b6c565b610400614364565b90610400929161439682614f7c565b5061040091906143f8565b90610400916143ae61437f565b614387565b906103f2612c1b60036143c4612b05565b946143d1612be582611b08565b6143e0612bf860018301611b08565b612cbd612c0e60028301611b08565b610400906143b3565b614424906140d66104009361440b61437f565b506017611f2a61422a6001612cbd876140d68787611ae9565b6143ef565b906104009161443782614f7c565b61040091612adb91506011611ed5565b610400906060614429565b61040060c0610894565b614464614452565b906000825260208080808080870160008152016000612b66565b61040061445c565b906104009161449482614535565b61450e565b906103f26144fe60056144aa614452565b946144b7612c4a82611819565b6144c6612c5f60018301611819565b6144d5612c0e60028301611b08565b6144ef6144e6600383015460ff1690565b60608801612c22565b612cbd61381560048301611b08565b60a0840152565b61040090614499565b6104009161451e915060016134e8565b50614505565b6104009061453061447e565b614486565b6103f290600161454d610f44600261315985856134e8565b90339161455c6118dd846103f4565b1492831561456d575b50505061288a565b61458492935081612d0d6120bf926118dd946134e8565b14388080614565565b906104009161459b82614f7c565b61040091612adb91506012611ed5565b61040090606061458d565b6145be613502565b906000825260208080808080808080808b01600081520160008152016000815201600081520160005b8152016060612b66565b6104006145b6565b9061040091614607826146ed565b6146c6565b906103f26146b5600961461d613502565b9461462a612c4a82611819565b614639612c5f60018301611819565b614648612c0e60028301611b08565b614657612c8660038301611b08565b61466661381560048301611b08565b614675612cb660058301611b08565b61468461383a60068301611c90565b61469e614695600783015460ff1690565b60e08801612c22565b612cbd6146ad60088301611b08565b610100880152565b610120840152565b6104009061460c565b610400916146d691506002612ba3565b506146bd565b610400906146e86145f1565b6145f9565b6103f290600290614705610f44836131598482612ba3565b9033916147146118dd846103f4565b149283156147245750505061288a565b6145849293506001612d0d611a1b936120bf93612ba3565b61040060a0610894565b61474e61473c565b9060608252602080808080860160608152016060612b26565b610400614746565b906104009161477d8261482d565b6147f7565b80548210156128ca576128c1600591600052602060002090565b906103f26147e760046147ad61473c565b946147ba612be582611c90565b6147c9612bf860018301611c90565b6147d8612c0e60028301611c90565b612c15612c8660038301611b08565b6080840152565b6104009061479c565b610400916148169150614810611b496024926029611ed5565b90614782565b506147ee565b61040090614828614767565b61476f565b612af66103f2915b61483e81611b95565b90339161484d6118dd846103f4565b1491821561485a57505090565b61487092506001916140d6612cbd926017611ae9565b42111590565b61487e612afb565b9060608252602080808080808088016060815201606081520160605b8152016060612b6c565b610400614876565b9061040092916148bb8261482d565b614932565b906103f2612cc360066148d1612afb565b946148de612be582611c90565b6148ed612bf860018301611c90565b6148fc612c0e60028301611c90565b61490b612c8660038301611c90565b61491a61381560048301611c90565b612cbd612cb660058301611b08565b610400906148c0565b506104009161494391506016611ed5565b614929565b90610400916149556148a4565b6148ac565b90610400916149688261482d565b61040091612adb9150602a611ed5565b61040090606061495a565b61498b612afb565b906000825260208080808080808801600081520160606145e7565b610400614983565b90610400916149bc82614a4b565b614a24565b906103f2612cc360066149d2612afb565b946149df612c4a82611819565b6149ee612bf860018301611b08565b6149fd612c0e60028301611c90565b614a0c612c8660038301611c90565b61491a61381560048301611b08565b610400906149c1565b61040091614a349150602561393d565b50614a1b565b61040090614a466149a6565b6149ae565b612af6614a6160016131596103f294602561393d565b614835565b9061040091614a748261482d565b61040091612adb9150602b611ed5565b610400906060614a66565b614a976137b0565b9060008252602080808080808080808a0160008152016000815201600081520160605b815201600061489a565b610400614a8f565b9061040091614ada82614b69565b614b42565b906103f26138576008614af06137b0565b94614afd612c4a82611819565b614b0c612c5f60018301611819565b614b1b612c0e60028301611b08565b614b2a612c8660038301611b08565b61381c61381560048301611c90565b61040090614adf565b61040091614b5291506026613796565b50614b39565b61040090614b64614ac4565b614acc565b612af6614a6160026131596103f2946026613796565b9061040091614b8d82614f7c565b61040091612adb91506013611ed5565b610400906060614b7f565b614bb06137b0565b9060008252602080808080808080808a016000815201600081520160608152016000614aba565b610400614ba8565b9061040091614bed82614c0e565b6104009161387991506003613796565b61040090614c09614bd7565b614bdf565b6103f290600390614c27610f4460026131598486613796565b903391614c366118dd846103f4565b14928315614c465750505061288a565b6145849293506001612d0d6118dd936120bf93613796565b6103f290614c6b81614060565b6103f2906007614ca7600092614c95614c888461319a8488612ba3565b612d206131a96001610737565b614c9f8133614cb7565b600293612ba3565b5001613005565b6103f290614c5e565b6103f29190614cfb602092614cd4614cce8561314b565b94613160565b614cf58461312b61040033614cee816122ad866027611ed5565b6028611ae9565b83614eb9565b6103f291614d07611cf7565b612060916103f293614d198282614dbe565b61205b600061184a565b15614d2a57565b60405162461bcd60e51b8152806118bd600482016020808252818101527f4552433732313a206d696e7420746f20746865207a65726f2061646472657373604082015260600190565b15614d7a57565b60405162461bcd60e51b815260206004820152601c60248201527b115490cdcc8c4e881d1bdad95b88185b1c9958591e481b5a5b9d195960221b6044820152606490fd5b90614dc9600061184a565b91614de6614dd6846103f4565b614ddf836103f4565b1415614d23565b614dfa614df561427584612435565b614d73565b614e09614df561427584612435565b61229e614e166001611cce565b61228e61229484601c611ae9565b61040090612bc7565b90613bf3608060046103f294614e4b60008201612f6b600088015190565b614e5d60018201612f6b602088015190565b614e6f60028201612f6b604088015190565b612fcb6003820161228e606088015190565b91906135ec576103f291614e2d565b80549190600160401b83101561088f5782614eb39160016103f295018155614782565b90614e81565b90614f646103f292614f456000614f3e6002614eeb614ee46003614edd8a87612ba3565b5001614e24565b9784612ba3565b500195614f3783820151614f30602084015191614f296060614f0e604088015190565b96015197614f23614f1d61473c565b9d611cb1565b908d0152565b60208b0152565b6040890152565b6060870152565b6080850152565b612948602191614f5d614f578461314b565b93613160565b6029611ed5565b6024614e90565b610400610400612adb336028611ae9565b612d146103f291611b95565b906103f294939291614f9981614f7c565b90614fa89493929133906139f3565b50565b906103f294939291614f88565b906103f291614fc681614f7c565b906103f291614feb614fe442614fde624f1a00611cce565b90613250565b83836140c0565b50615099565b906103f291614fb8565b6103f2919061228e9060a0906005906150178161353e8761350d565b61502a6001820161353e6020880161350d565b61503c6002820161228e604088015190565b61504f600382016135c460608801613517565b612fcb6004820161228e608088015190565b91906135ec576103f291614ffb565b80549190600160401b83101561088f57826150939160016103f2950181556134e8565b90615061565b61312b6104006103f293615121615115946150b6612af68461337d565b61312b61040060009261510733946150f542916150dd6150d4614452565b98828a01612bbd565b6150ea8a60208a01612bbd565b6144e68560408a0152565b615100816080880152565b60a0860152565b61511a600194613ff9865490565b615070565b6011611ed5565b600e611ae9565b6103f29061513581615451565b615186565b1561514157565b60405162461bcd60e51b815260206004820152601f60248201527f4661696c656420746f2073656e6420457468657220746f20696e7375726572006044820152606490fd5b614fa8906002906151e0600080346151af6151a96104006005613159898b612ba3565b82612d20565b6151c16125036001612d0d888a612ba3565b906151cb60405190565b90818003925af16151da6124b4565b5061513a565b6151e9816152c5565b6152186122e26004613159615202866131598782612ba3565b946152126001612d0d838a612ba3565b96612ba3565b906140c0565b6103f290615128565b6103f2919061228e90610100906008906152448161353e8761350d565b6152576001820161353e6020880161350d565b6152696002820161228e604088015190565b61527b60038201612f6b606088015190565b613bcf6004820161228e608088015190565b91906135ec576103f291615227565b80549190600160401b83101561088f57826152bf9160016103f295018155613796565b9061528d565b6002906152d29082612ba3565b5060078101805460ff16926000936152e985610737565b906152f390610737565b146152fd9061288a565b61530684611cce565b61530f90613a89565b61531a848601611819565b946001850161532881611819565b928487019361533685611b08565b6006890161534660038b01611b08565b9161535360048c01611b08565b93429c61535e6137b0565b9889019061536b91612bbd565b615374906119b4565b6153819060208901612bbd565b604087015261538f90611cb1565b6060860152608085015260a084015260c08301526153ae8760e0840152565b6153ba87610100840152565b600380549384938492906153cd9161529c565b60136153d882611b08565b6153e191611ed5565b9060106153ed85611819565b6153f691611ae9565b9360189061540390611819565b61540c91611ae9565b9061541690611b08565b61541f91611ed5565b9461542991612fdc565b61543291612fdc565b61543b91612fdc565b61544491613005565b600901906103f2916121d7565b612d14610f446103f29261315960029182612ba356fea264697066735822122093d78c3e9eee380b10beba634b4fb2f1761412cc16091c8ee283d822b2ec488f64736f6c63430008130033",
  "linkReferences": {},
  "deployedLinkReferences": {}
}