{
  "_format": "hh-sol-artifact-1",
  "contractName": "VehicleSystemContract",
  "sourceName": "contracts/VehicleSystemContract.sol",
  "abi": [
    {
      "anonymous": false,
      "inputs": [
        {
          "indexed": true,
          "internalType": "address",
          "name": "owner",
          "type": "address"
        },
        {
          "indexed": true,
          "internalType": "address",
          "name": "approved",
          "type": "address"
        },
        {
          "indexed": true,
          "internalType": "uint256",
          "name": "tokenId",
          "type": "uint256"
        }
      ],
      "name": "Approval",
      "type": "event"
    },
    {
      "anonymous": false,
      "inputs": [
        {
          "indexed": true,
          "internalType": "address",
          "name": "owner",
          "type": "address"
        },
        {
          "indexed": true,
          "internalType": "address",
          "name": "operator",
          "type": "address"
        },
        {
          "indexed": false,
          "internalType": "bool",
          "name": "approved",
          "type": "bool"
        }
      ],
      "name": "ApprovalForAll",
      "type": "event"
    },
    {
      "anonymous": false,
      "inputs": [
        {
          "indexed": true,
          "internalType": "address",
          "name": "previousOwner",
          "type": "address"
        },
        {
          "indexed": true,
          "internalType": "address",
          "name": "newOwner",
          "type": "address"
        }
      ],
      "name": "OwnershipTransferred",
      "type": "event"
    },
    {
      "anonymous": false,
      "inputs": [
        {
          "indexed": true,
          "internalType": "address",
          "name": "from",
          "type": "address"
        },
        {
          "indexed": true,
          "internalType": "address",
          "name": "to",
          "type": "address"
        },
        {
          "indexed": true,
          "internalType": "uint256",
          "name": "tokenId",
          "type": "uint256"
        }
      ],
      "name": "Transfer",
      "type": "event"
    },
    {
      "inputs": [
        {
          "internalType": "uint256",
          "name": "tokenId",
          "type": "uint256"
        },
        {
          "internalType": "string",
          "name": "title",
          "type": "string"
        },
        {
          "internalType": "string",
          "name": "description",
          "type": "string"
        },
        {
          "internalType": "uint256",
          "name": "price",
          "type": "uint256"
        },
        {
          "internalType": "uint256",
          "name": "date",
          "type": "uint256"
        }
      ],
      "name": "addVehicleServiceRecord",
      "outputs": [],
      "stateMutability": "nonpayable",
      "type": "function"
    },
    {
      "inputs": [
        {
          "internalType": "address",
          "name": "agentAddress",
          "type": "address"
        }
      ],
      "name": "agentDeactivation",
      "outputs": [],
      "stateMutability": "nonpayable",
      "type": "function"
    },
    {
      "inputs": [
        {
          "internalType": "address",
          "name": "agentAddress",
          "type": "address"
        }
      ],
      "name": "agentRegistration",
      "outputs": [],
      "stateMutability": "nonpayable",
      "type": "function"
    },
    {
      "inputs": [
        {
          "internalType": "address",
          "name": "to",
          "type": "address"
        },
        {
          "internalType": "uint256",
          "name": "tokenId",
          "type": "uint256"
        }
      ],
      "name": "approve",
      "outputs": [],
      "stateMutability": "nonpayable",
      "type": "function"
    },
    {
      "inputs": [
        {
          "internalType": "uint256",
          "name": "requestId",
          "type": "uint256"
        },
        {
          "internalType": "string",
          "name": "carBrand",
          "type": "string"
        },
        {
          "internalType": "string",
          "name": "carModel",
          "type": "string"
        },
        {
          "internalType": "uint256",
          "name": "manufacturingDate",
          "type": "uint256"
        },
        {
          "components": [
            {
              "internalType": "string",
              "name": "driverLicenseCode",
              "type": "string"
            },
            {
              "internalType": "string",
              "name": "federalUnit",
              "type": "string"
            },
            {
              "internalType": "string",
              "name": "county",
              "type": "string"
            },
            {
              "internalType": "string",
              "name": "vehiclePlate",
              "type": "string"
            },
            {
              "internalType": "string",
              "name": "year",
              "type": "string"
            },
            {
              "internalType": "uint256",
              "name": "startDate",
              "type": "uint256"
            },
            {
              "internalType": "uint256",
              "name": "endDate",
              "type": "uint256"
            }
          ],
          "internalType": "struct IBaseContract.VehicleOwnershipRecord[]",
          "name": "ownershipRecords",
          "type": "tuple[]"
        }
      ],
      "name": "approveVehicleRequest",
      "outputs": [],
      "stateMutability": "nonpayable",
      "type": "function"
    },
    {
      "inputs": [
        {
          "internalType": "address",
          "name": "owner",
          "type": "address"
        }
      ],
      "name": "balanceOf",
      "outputs": [
        {
          "internalType": "uint256",
          "name": "",
          "type": "uint256"
        }
      ],
      "stateMutability": "view",
      "type": "function"
    },
    {
      "inputs": [
        {
          "internalType": "uint256",
          "name": "proposalId",
          "type": "uint256"
        }
      ],
      "name": "contractVehicleInsuranceProposal",
      "outputs": [],
      "stateMutability": "payable",
      "type": "function"
    },
    {
      "inputs": [
        {
          "internalType": "uint256",
          "name": "requestId",
          "type": "uint256"
        }
      ],
      "name": "createVehicle",
      "outputs": [],
      "stateMutability": "nonpayable",
      "type": "function"
    },
    {
      "inputs": [
        {
          "internalType": "uint256",
          "name": "requestId",
          "type": "uint256"
        },
        {
          "internalType": "uint256",
          "name": "startDate",
          "type": "uint256"
        },
        {
          "internalType": "uint256",
          "name": "endDate",
          "type": "uint256"
        },
        {
          "internalType": "uint256",
          "name": "price",
          "type": "uint256"
        },
        {
          "internalType": "string",
          "name": "contractUrl",
          "type": "string"
        }
      ],
      "name": "createVehicleInsuranceProposal",
      "outputs": [],
      "stateMutability": "nonpayable",
      "type": "function"
    },
    {
      "inputs": [
        {
          "internalType": "uint256",
          "name": "tokenId",
          "type": "uint256"
        },
        {
          "internalType": "address",
          "name": "insurer",
          "type": "address"
        }
      ],
      "name": "createVehicleInsuranceRequest",
      "outputs": [],
      "stateMutability": "nonpayable",
      "type": "function"
    },
    {
      "inputs": [
        {
          "internalType": "address",
          "name": "agent",
          "type": "address"
        },
        {
          "internalType": "string",
          "name": "vehicleRegistrationCode",
          "type": "string"
        }
      ],
      "name": "createVehicleRequest",
      "outputs": [],
      "stateMutability": "nonpayable",
      "type": "function"
    },
    {
      "inputs": [
        {
          "internalType": "string",
          "name": "driverLicenseCode",
          "type": "string"
        }
      ],
      "name": "defineDriverLicenseCode",
      "outputs": [],
      "stateMutability": "nonpayable",
      "type": "function"
    },
    {
      "inputs": [
        {
          "internalType": "address",
          "name": "user",
          "type": "address"
        }
      ],
      "name": "driverLicenseCodeOf",
      "outputs": [
        {
          "internalType": "string",
          "name": "",
          "type": "string"
        }
      ],
      "stateMutability": "view",
      "type": "function"
    },
    {
      "inputs": [
        {
          "internalType": "uint256",
          "name": "tokenId",
          "type": "uint256"
        }
      ],
      "name": "getApproved",
      "outputs": [
        {
          "internalType": "address",
          "name": "",
          "type": "address"
        }
      ],
      "stateMutability": "view",
      "type": "function"
    },
    {
      "inputs": [],
      "name": "getDriverLicenseCode",
      "outputs": [
        {
          "internalType": "string",
          "name": "driverLicenseCode",
          "type": "string"
        }
      ],
      "stateMutability": "view",
      "type": "function"
    },
    {
      "inputs": [],
      "name": "getTokenIdsByOwner",
      "outputs": [
        {
          "internalType": "uint256[]",
          "name": "",
          "type": "uint256[]"
        }
      ],
      "stateMutability": "view",
      "type": "function"
    },
    {
      "inputs": [
        {
          "internalType": "uint256",
          "name": "requestId",
          "type": "uint256"
        }
      ],
      "name": "getUserVehicleRequestById",
      "outputs": [
        {
          "components": [
            {
              "internalType": "address",
              "name": "requester",
              "type": "address"
            },
            {
              "internalType": "address",
              "name": "agent",
              "type": "address"
            },
            {
              "internalType": "string",
              "name": "vehicleRegistrationCode",
              "type": "string"
            },
            {
              "components": [
                {
                  "internalType": "string",
                  "name": "carBrand",
                  "type": "string"
                },
                {
                  "internalType": "string",
                  "name": "carModel",
                  "type": "string"
                },
                {
                  "internalType": "uint256",
                  "name": "manufacturingDate",
                  "type": "uint256"
                },
                {
                  "internalType": "uint256[]",
                  "name": "vehicleOwnershipRecordIds",
                  "type": "uint256[]"
                }
              ],
              "internalType": "struct IBaseContract.VehicleRequestData",
              "name": "vehicleData",
              "type": "tuple"
            },
            {
              "internalType": "enum IBaseContract.Status",
              "name": "status",
              "type": "uint8"
            },
            {
              "internalType": "uint256",
              "name": "createdAt",
              "type": "uint256"
            },
            {
              "internalType": "uint256",
              "name": "updatedAt",
              "type": "uint256"
            }
          ],
          "internalType": "struct IBaseContract.VehicleRequest",
          "name": "",
          "type": "tuple"
        }
      ],
      "stateMutability": "view",
      "type": "function"
    },
    {
      "inputs": [
        {
          "internalType": "uint256",
          "name": "accidentId",
          "type": "uint256"
        }
      ],
      "name": "getVehicleAccidentRecordById",
      "outputs": [
        {
          "components": [
            {
              "internalType": "address",
              "name": "vehicleOwner",
              "type": "address"
            },
            {
              "internalType": "address",
              "name": "insurer",
              "type": "address"
            },
            {
              "internalType": "uint256",
              "name": "tokenId",
              "type": "uint256"
            },
            {
              "internalType": "uint256",
              "name": "insuranceId",
              "type": "uint256"
            },
            {
              "internalType": "string",
              "name": "description",
              "type": "string"
            },
            {
              "internalType": "uint256",
              "name": "accidentDate",
              "type": "uint256"
            },
            {
              "internalType": "uint256[]",
              "name": "vehicleServicesIds",
              "type": "uint256[]"
            },
            {
              "internalType": "uint256",
              "name": "createdAt",
              "type": "uint256"
            },
            {
              "internalType": "uint256",
              "name": "updatedAt",
              "type": "uint256"
            }
          ],
          "internalType": "struct IBaseContract.VehicleAccidentRecord",
          "name": "",
          "type": "tuple"
        }
      ],
      "stateMutability": "view",
      "type": "function"
    },
    {
      "inputs": [
        {
          "internalType": "uint256",
          "name": "tokenId",
          "type": "uint256"
        }
      ],
      "name": "getVehicleAccidentRecordIdsByTokenId",
      "outputs": [
        {
          "internalType": "uint256[]",
          "name": "",
          "type": "uint256[]"
        }
      ],
      "stateMutability": "view",
      "type": "function"
    },
    {
      "inputs": [
        {
          "internalType": "uint256",
          "name": "insuranceId",
          "type": "uint256"
        }
      ],
      "name": "getVehicleInsuranceContractById",
      "outputs": [
        {
          "components": [
            {
              "internalType": "address",
              "name": "requester",
              "type": "address"
            },
            {
              "internalType": "address",
              "name": "insurer",
              "type": "address"
            },
            {
              "internalType": "uint256",
              "name": "tokenId",
              "type": "uint256"
            },
            {
              "internalType": "string",
              "name": "contractUrl",
              "type": "string"
            },
            {
              "internalType": "uint256",
              "name": "insuranceStartDate",
              "type": "uint256"
            },
            {
              "internalType": "uint256",
              "name": "insuranceEndDate",
              "type": "uint256"
            },
            {
              "internalType": "uint256[]",
              "name": "vehicleServicesIds",
              "type": "uint256[]"
            },
            {
              "internalType": "uint256",
              "name": "createdAt",
              "type": "uint256"
            },
            {
              "internalType": "uint256",
              "name": "updatedAt",
              "type": "uint256"
            }
          ],
          "internalType": "struct IBaseContract.VehicleInsuranceContract",
          "name": "",
          "type": "tuple"
        }
      ],
      "stateMutability": "view",
      "type": "function"
    },
    {
      "inputs": [],
      "name": "getVehicleInsuranceContractIdsByInsurer",
      "outputs": [
        {
          "internalType": "uint256[]",
          "name": "",
          "type": "uint256[]"
        }
      ],
      "stateMutability": "view",
      "type": "function"
    },
    {
      "inputs": [
        {
          "internalType": "uint256",
          "name": "tokenId",
          "type": "uint256"
        }
      ],
      "name": "getVehicleInsuranceContractIdsByTokenId",
      "outputs": [
        {
          "internalType": "uint256[]",
          "name": "",
          "type": "uint256[]"
        }
      ],
      "stateMutability": "view",
      "type": "function"
    },
    {
      "inputs": [
        {
          "internalType": "uint256",
          "name": "proposalId",
          "type": "uint256"
        }
      ],
      "name": "getVehicleInsuranceProposalById",
      "outputs": [
        {
          "components": [
            {
              "internalType": "address",
              "name": "requester",
              "type": "address"
            },
            {
              "internalType": "address payable",
              "name": "insurer",
              "type": "address"
            },
            {
              "internalType": "uint256",
              "name": "tokenId",
              "type": "uint256"
            },
            {
              "internalType": "uint256",
              "name": "insuranceStartDate",
              "type": "uint256"
            },
            {
              "internalType": "uint256",
              "name": "insuranceEndDate",
              "type": "uint256"
            },
            {
              "internalType": "uint256",
              "name": "price",
              "type": "uint256"
            },
            {
              "internalType": "string",
              "name": "contractUrl",
              "type": "string"
            },
            {
              "internalType": "enum IBaseContract.Status",
              "name": "status",
              "type": "uint8"
            },
            {
              "internalType": "uint256",
              "name": "createdAt",
              "type": "uint256"
            },
            {
              "internalType": "uint256",
              "name": "updatedAt",
              "type": "uint256"
            }
          ],
          "internalType": "struct IBaseContract.VehicleInsuranceProposal",
          "name": "",
          "type": "tuple"
        }
      ],
      "stateMutability": "view",
      "type": "function"
    },
    {
      "inputs": [
        {
          "internalType": "uint256",
          "name": "tokenId",
          "type": "uint256"
        }
      ],
      "name": "getVehicleInsuranceProposalIdsByTokenId",
      "outputs": [
        {
          "internalType": "uint256[]",
          "name": "",
          "type": "uint256[]"
        }
      ],
      "stateMutability": "view",
      "type": "function"
    },
    {
      "inputs": [
        {
          "internalType": "uint256",
          "name": "requestId",
          "type": "uint256"
        }
      ],
      "name": "getVehicleInsuranceRequestById",
      "outputs": [
        {
          "components": [
            {
              "internalType": "address",
              "name": "requester",
              "type": "address"
            },
            {
              "internalType": "address",
              "name": "insurer",
              "type": "address"
            },
            {
              "internalType": "uint256",
              "name": "tokenId",
              "type": "uint256"
            },
            {
              "internalType": "enum IBaseContract.Status",
              "name": "status",
              "type": "uint8"
            },
            {
              "internalType": "uint256",
              "name": "createdAt",
              "type": "uint256"
            },
            {
              "internalType": "uint256",
              "name": "updatedAt",
              "type": "uint256"
            }
          ],
          "internalType": "struct IBaseContract.VehicleInsuranceRequest",
          "name": "",
          "type": "tuple"
        }
      ],
      "stateMutability": "view",
      "type": "function"
    },
    {
      "inputs": [],
      "name": "getVehicleInsuranceRequestIdsByInsurer",
      "outputs": [
        {
          "internalType": "uint256[]",
          "name": "",
          "type": "uint256[]"
        }
      ],
      "stateMutability": "view",
      "type": "function"
    },
    {
      "inputs": [
        {
          "internalType": "uint256",
          "name": "tokenId",
          "type": "uint256"
        }
      ],
      "name": "getVehicleInsuranceRequestIdsByTokenId",
      "outputs": [
        {
          "internalType": "uint256[]",
          "name": "",
          "type": "uint256[]"
        }
      ],
      "stateMutability": "view",
      "type": "function"
    },
    {
      "inputs": [
        {
          "internalType": "uint256",
          "name": "tokenId",
          "type": "uint256"
        }
      ],
      "name": "getVehicleNFTMetadataByTokenId",
      "outputs": [
        {
          "components": [
            {
              "internalType": "string",
              "name": "vehicleRegistrationCode",
              "type": "string"
            },
            {
              "internalType": "string",
              "name": "carBrand",
              "type": "string"
            },
            {
              "internalType": "string",
              "name": "carModel",
              "type": "string"
            },
            {
              "internalType": "uint256",
              "name": "manufacturingDate",
              "type": "uint256"
            },
            {
              "internalType": "uint256[]",
              "name": "vehicleOwnershipRecordIds",
              "type": "uint256[]"
            }
          ],
          "internalType": "struct INFT.MetadataVehicleNFT",
          "name": "",
          "type": "tuple"
        }
      ],
      "stateMutability": "view",
      "type": "function"
    },
    {
      "inputs": [
        {
          "internalType": "uint256",
          "name": "requestId",
          "type": "uint256"
        }
      ],
      "name": "getVehicleRequestById",
      "outputs": [
        {
          "components": [
            {
              "internalType": "address",
              "name": "requester",
              "type": "address"
            },
            {
              "internalType": "address",
              "name": "agent",
              "type": "address"
            },
            {
              "internalType": "string",
              "name": "vehicleRegistrationCode",
              "type": "string"
            },
            {
              "components": [
                {
                  "internalType": "string",
                  "name": "carBrand",
                  "type": "string"
                },
                {
                  "internalType": "string",
                  "name": "carModel",
                  "type": "string"
                },
                {
                  "internalType": "uint256",
                  "name": "manufacturingDate",
                  "type": "uint256"
                },
                {
                  "internalType": "uint256[]",
                  "name": "vehicleOwnershipRecordIds",
                  "type": "uint256[]"
                }
              ],
              "internalType": "struct IBaseContract.VehicleRequestData",
              "name": "vehicleData",
              "type": "tuple"
            },
            {
              "internalType": "enum IBaseContract.Status",
              "name": "status",
              "type": "uint8"
            },
            {
              "internalType": "uint256",
              "name": "createdAt",
              "type": "uint256"
            },
            {
              "internalType": "uint256",
              "name": "updatedAt",
              "type": "uint256"
            }
          ],
          "internalType": "struct IBaseContract.VehicleRequest",
          "name": "",
          "type": "tuple"
        }
      ],
      "stateMutability": "view",
      "type": "function"
    },
    {
      "inputs": [
        {
          "internalType": "uint256",
          "name": "serviceId",
          "type": "uint256"
        }
      ],
      "name": "getVehicleServiceRecordById",
      "outputs": [
        {
          "components": [
            {
              "internalType": "address",
              "name": "requester",
              "type": "address"
            },
            {
              "internalType": "uint256",
              "name": "tokenId",
              "type": "uint256"
            },
            {
              "internalType": "string",
              "name": "title",
              "type": "string"
            },
            {
              "internalType": "string",
              "name": "description",
              "type": "string"
            },
            {
              "internalType": "uint256",
              "name": "price",
              "type": "uint256"
            },
            {
              "internalType": "uint256",
              "name": "date",
              "type": "uint256"
            },
            {
              "internalType": "uint256",
              "name": "createdAt",
              "type": "uint256"
            }
          ],
          "internalType": "struct IBaseContract.VehicleServiceRecord",
          "name": "",
          "type": "tuple"
        }
      ],
      "stateMutability": "view",
      "type": "function"
    },
    {
      "inputs": [
        {
          "internalType": "uint256",
          "name": "tokenId",
          "type": "uint256"
        }
      ],
      "name": "getVehicleServiceRecordIdsByTokenId",
      "outputs": [
        {
          "internalType": "uint256[]",
          "name": "",
          "type": "uint256[]"
        }
      ],
      "stateMutability": "view",
      "type": "function"
    },
    {
      "inputs": [
        {
          "internalType": "uint256",
          "name": "tokenId",
          "type": "uint256"
        },
        {
          "internalType": "address",
          "name": "toAddress",
          "type": "address"
        },
        {
          "internalType": "uint256",
          "name": "expirationDate",
          "type": "uint256"
        }
      ],
      "name": "giveVehicleAccessByTokenId",
      "outputs": [],
      "stateMutability": "nonpayable",
      "type": "function"
    },
    {
      "inputs": [
        {
          "internalType": "uint256",
          "name": "tokenId",
          "type": "uint256"
        },
        {
          "internalType": "uint256",
          "name": "insuranceId",
          "type": "uint256"
        },
        {
          "internalType": "uint256",
          "name": "accidentId",
          "type": "uint256"
        },
        {
          "internalType": "string",
          "name": "title",
          "type": "string"
        },
        {
          "internalType": "string",
          "name": "description",
          "type": "string"
        },
        {
          "internalType": "uint256",
          "name": "price",
          "type": "uint256"
        },
        {
          "internalType": "uint256",
          "name": "date",
          "type": "uint256"
        }
      ],
      "name": "insurerAddVehicleServiceRecord",
      "outputs": [],
      "stateMutability": "nonpayable",
      "type": "function"
    },
    {
      "inputs": [
        {
          "internalType": "address",
          "name": "insurerAddress",
          "type": "address"
        }
      ],
      "name": "insurerDeactivation",
      "outputs": [],
      "stateMutability": "nonpayable",
      "type": "function"
    },
    {
      "inputs": [
        {
          "internalType": "address",
          "name": "insurerAddress",
          "type": "address"
        }
      ],
      "name": "insurerRegistration",
      "outputs": [],
      "stateMutability": "nonpayable",
      "type": "function"
    },
    {
      "inputs": [
        {
          "internalType": "address",
          "name": "owner",
          "type": "address"
        },
        {
          "internalType": "address",
          "name": "operator",
          "type": "address"
        }
      ],
      "name": "isApprovedForAll",
      "outputs": [
        {
          "internalType": "bool",
          "name": "",
          "type": "bool"
        }
      ],
      "stateMutability": "view",
      "type": "function"
    },
    {
      "inputs": [],
      "name": "listAgents",
      "outputs": [
        {
          "internalType": "address[]",
          "name": "",
          "type": "address[]"
        }
      ],
      "stateMutability": "view",
      "type": "function"
    },
    {
      "inputs": [],
      "name": "listApprovalsIds",
      "outputs": [
        {
          "internalType": "uint256[]",
          "name": "",
          "type": "uint256[]"
        }
      ],
      "stateMutability": "view",
      "type": "function"
    },
    {
      "inputs": [],
      "name": "listInsurers",
      "outputs": [
        {
          "internalType": "address[]",
          "name": "",
          "type": "address[]"
        }
      ],
      "stateMutability": "view",
      "type": "function"
    },
    {
      "inputs": [],
      "name": "listUserVehicleRequestsIds",
      "outputs": [
        {
          "internalType": "uint256[]",
          "name": "",
          "type": "uint256[]"
        }
      ],
      "stateMutability": "view",
      "type": "function"
    },
    {
      "inputs": [],
      "name": "listVehicleRequestsIds",
      "outputs": [
        {
          "internalType": "uint256[]",
          "name": "",
          "type": "uint256[]"
        }
      ],
      "stateMutability": "view",
      "type": "function"
    },
    {
      "inputs": [],
      "name": "name",
      "outputs": [
        {
          "internalType": "string",
          "name": "",
          "type": "string"
        }
      ],
      "stateMutability": "view",
      "type": "function"
    },
    {
      "inputs": [],
      "name": "owner",
      "outputs": [
        {
          "internalType": "address",
          "name": "",
          "type": "address"
        }
      ],
      "stateMutability": "view",
      "type": "function"
    },
    {
      "inputs": [
        {
          "internalType": "uint256",
          "name": "tokenId",
          "type": "uint256"
        }
      ],
      "name": "ownerOf",
      "outputs": [
        {
          "internalType": "address",
          "name": "",
          "type": "address"
        }
      ],
      "stateMutability": "view",
      "type": "function"
    },
    {
      "inputs": [
        {
          "internalType": "uint256",
          "name": "tokenId",
          "type": "uint256"
        },
        {
          "internalType": "uint256",
          "name": "insuranceId",
          "type": "uint256"
        },
        {
          "internalType": "string",
          "name": "description",
          "type": "string"
        },
        {
          "internalType": "uint256",
          "name": "accidentDate",
          "type": "uint256"
        }
      ],
      "name": "registerVehicleAccidentRecord",
      "outputs": [],
      "stateMutability": "nonpayable",
      "type": "function"
    },
    {
      "inputs": [],
      "name": "renounceOwnership",
      "outputs": [],
      "stateMutability": "nonpayable",
      "type": "function"
    },
    {
      "inputs": [
        {
          "internalType": "uint256",
          "name": "tokenId",
          "type": "uint256"
        },
        {
          "internalType": "address",
          "name": "toAddress",
          "type": "address"
        }
      ],
      "name": "revokeVehicleAccessByTokenId",
      "outputs": [],
      "stateMutability": "nonpayable",
      "type": "function"
    },
    {
      "inputs": [
        {
          "internalType": "address",
          "name": "from",
          "type": "address"
        },
        {
          "internalType": "address",
          "name": "to",
          "type": "address"
        },
        {
          "internalType": "uint256",
          "name": "tokenId",
          "type": "uint256"
        }
      ],
      "name": "safeTransferFrom",
      "outputs": [],
      "stateMutability": "nonpayable",
      "type": "function"
    },
    {
      "inputs": [
        {
          "internalType": "address",
          "name": "from",
          "type": "address"
        },
        {
          "internalType": "address",
          "name": "to",
          "type": "address"
        },
        {
          "internalType": "uint256",
          "name": "tokenId",
          "type": "uint256"
        },
        {
          "internalType": "bytes",
          "name": "data",
          "type": "bytes"
        }
      ],
      "name": "safeTransferFrom",
      "outputs": [],
      "stateMutability": "nonpayable",
      "type": "function"
    },
    {
      "inputs": [
        {
          "internalType": "address",
          "name": "operator",
          "type": "address"
        },
        {
          "internalType": "bool",
          "name": "approved",
          "type": "bool"
        }
      ],
      "name": "setApprovalForAll",
      "outputs": [],
      "stateMutability": "nonpayable",
      "type": "function"
    },
    {
      "inputs": [
        {
          "internalType": "bytes4",
          "name": "interfaceId",
          "type": "bytes4"
        }
      ],
      "name": "supportsInterface",
      "outputs": [
        {
          "internalType": "bool",
          "name": "",
          "type": "bool"
        }
      ],
      "stateMutability": "view",
      "type": "function"
    },
    {
      "inputs": [],
      "name": "symbol",
      "outputs": [
        {
          "internalType": "string",
          "name": "",
          "type": "string"
        }
      ],
      "stateMutability": "view",
      "type": "function"
    },
    {
      "inputs": [
        {
          "internalType": "uint256",
          "name": "tokenId",
          "type": "uint256"
        }
      ],
      "name": "tokenURI",
      "outputs": [
        {
          "internalType": "string",
          "name": "",
          "type": "string"
        }
      ],
      "stateMutability": "view",
      "type": "function"
    },
    {
      "inputs": [
        {
          "internalType": "address",
          "name": "from",
          "type": "address"
        },
        {
          "internalType": "address",
          "name": "to",
          "type": "address"
        },
        {
          "internalType": "uint256",
          "name": "tokenId",
          "type": "uint256"
        }
      ],
      "name": "transferFrom",
      "outputs": [],
      "stateMutability": "nonpayable",
      "type": "function"
    },
    {
      "inputs": [
        {
          "internalType": "address",
          "name": "newOwner",
          "type": "address"
        }
      ],
      "name": "transferOwnership",
      "outputs": [],
      "stateMutability": "nonpayable",
      "type": "function"
    },
    {
      "inputs": [
        {
          "internalType": "string",
          "name": "driverLicenseCode",
          "type": "string"
        }
      ],
      "name": "userRegistration",
      "outputs": [],
      "stateMutability": "nonpayable",
      "type": "function"
    }
  ],
  "bytecode": "0x60806040523480156200001157600080fd5b506040518060400160405280600381526020016213919560ea1b815250604051806040016040528060048152602001631593919560e21b81525081601890816200005c919062000198565b5060196200006b828262000198565b50505062000088620000826200009d60201b60201c565b620000a1565b62000097601f80546001019055565b62000264565b3390565b601e80546001600160a01b038381166001600160a01b0319831681179093556040519116919082907f8be0079c531659141344cd1fd0a4f28419497f9722a3daafe3b4186f6b6457e090600090a35050565b634e487b7160e01b600052604160045260246000fd5b600181811c908216806200011e57607f821691505b6020821081036200013f57634e487b7160e01b600052602260045260246000fd5b50919050565b601f8211156200019357600081815260208120601f850160051c810160208610156200016e5750805b601f850160051c820191505b818110156200018f578281556001016200017a565b5050505b505050565b81516001600160401b03811115620001b457620001b4620000f3565b620001cc81620001c5845462000109565b8462000145565b602080601f831160018114620002045760008415620001eb5750858301515b600019600386901b1c1916600185901b1785556200018f565b600085815260208120601f198616915b82811015620002355788860151825594840194600190910190840162000214565b5085821015620002545787850151600019600388901b60f8161c191681555b5050505050600190811b01905550565b615fa180620002746000396000f3fe60806040526004361061027b5760003560e01c8063016644861461028057806301ffc9a7146102a257806306fdde03146102d7578063081812fc146102f9578063095ea7b3146103315780631114cd57146103515780631499f40b1461037357806314a5189a146103a057806315acca77146103b55780631a971303146103d557806323b872dd146103f55780632b6c64be146104155780632e5d81fb1461044257806331a3e0c914610462578063333f00401461048257806342842e0e146104a2578063492af106146104c25780634c7525da146104e257806355855ddc14610502578063558df3d31461052f5780635bfe19b51461054f5780636352211e1461056f57806363d1b1b91461058f57806368684d08146105af5780636f04401d146105d157806370a08231146105f157806370e37a641461061f578063715018a61461063457806371f46bbb1461064957806372ea011c1461066957806378301afd146106965780637d6acdf4146106b65780637db3b2ff146106d65780638b523d0b146106eb5780638da5cb5b1461070b5780638f60d40b1461072057806395d89b411461074057806399326622146107555780639d51b26f1461076a578063a130d9fc14610797578063a16c03be146107b7578063a22cb465146107d7578063a563efb4146107f7578063b88d4fde14610817578063baf0438f14610837578063bc6f4be61461084c578063c69b400a1461086c578063c6c1b35614610899578063c87b56dd146108ae578063cf6713d0146108ce578063d6cd4a02146108ee578063d7d3850814610903578063e125e20214610916578063e985e9c514610943578063f2fde38b14610963578063f4f297a714610983575b600080fd5b34801561028c57600080fd5b506102a061029b366004614f3b565b6109a3565b005b3480156102ae57600080fd5b506102c26102bd366004614f7d565b6109da565b60405190151581526020015b60405180910390f35b3480156102e357600080fd5b506102ec610a2c565b6040516102ce9190614fea565b34801561030557600080fd5b50610319610314366004614ffd565b610abe565b6040516001600160a01b0390911681526020016102ce565b34801561033d57600080fd5b506102a061034c366004615023565b610ae5565b34801561035d57600080fd5b50610366610bff565b6040516102ce9190615088565b34801561037f57600080fd5b5061039361038e366004614ffd565b610c67565b6040516102ce91906150d3565b3480156103ac57600080fd5b50610366610f47565b3480156103c157600080fd5b506102ec6103d03660046151aa565b610fae565b3480156103e157600080fd5b506102a06103f03660046152aa565b611061565b34801561040157600080fd5b506102a0610410366004615301565b611088565b34801561042157600080fd5b50610435610430366004614ffd565b6110b9565b6040516102ce919061533d565b34801561044e57600080fd5b506102a061045d3660046153db565b61129c565b34801561046e57600080fd5b506102a061047d36600461543e565b6112bb565b34801561048e57600080fd5b506102a061049d36600461565a565b6114c0565b3480156104ae57600080fd5b506102a06104bd366004615301565b6114e1565b3480156104ce57600080fd5b506102a06104dd3660046151aa565b6114fc565b3480156104ee57600080fd5b506102a06104fd3660046156d8565b61155d565b34801561050e57600080fd5b5061052261051d366004614ffd565b611785565b6040516102ce9190615725565b34801561053b57600080fd5b506102a061054a3660046157a3565b611966565b34801561055b57600080fd5b5061036661056a366004614ffd565b611989565b34801561057b57600080fd5b5061031961058a366004614ffd565b6119f6565b34801561059b57600080fd5b506103666105aa366004614ffd565b611a2a565b3480156105bb57600080fd5b506105c4611a95565b6040516102ce91906157c8565b3480156105dd57600080fd5b506102a06105ec3660046151aa565b611af6565b3480156105fd57600080fd5b5061061161060c3660046151aa565b611b64565b6040519081526020016102ce565b34801561062b57600080fd5b50610366611bea565b34801561064057600080fd5b506102a0611bf9565b34801561065557600080fd5b506102a06106643660046151aa565b611c0d565b34801561067557600080fd5b50610689610684366004614ffd565b611c3c565b6040516102ce9190615815565b3480156106a257600080fd5b506102a06106b1366004615896565b611e3e565b3480156106c257600080fd5b506102a06106d1366004614f3b565b611ebb565b3480156106e257600080fd5b50610366611ecf565b3480156106f757600080fd5b506102a06107063660046151aa565b611f36565b34801561071757600080fd5b50610319611f47565b34801561072c57600080fd5b506102a061073b3660046158ca565b611f56565b34801561074c57600080fd5b506102ec611fff565b34801561076157600080fd5b506102ec61200e565b34801561077657600080fd5b5061078a610785366004614ffd565b612032565b6040516102ce919061595d565b3480156107a357600080fd5b506103666107b2366004614ffd565b6120ec565b3480156107c357600080fd5b506103666107d2366004614ffd565b612157565b3480156107e357600080fd5b506102a06107f23660046159b5565b6121c2565b34801561080357600080fd5b50610366610812366004614ffd565b6121d1565b34801561082357600080fd5b506102a06108323660046159f1565b61223c565b34801561084357600080fd5b5061036661226e565b34801561085857600080fd5b506102a0610867366004615896565b6122d5565b34801561087857600080fd5b5061088c610887366004614ffd565b6122f6565b6040516102ce9190615a6c565b3480156108a557600080fd5b50610366612434565b3480156108ba57600080fd5b506102ec6108c9366004614ffd565b61249b565b3480156108da57600080fd5b506102a06108e9366004614ffd565b61250f565b3480156108fa57600080fd5b506105c46125b5565b6102a0610911366004614ffd565b612615565b34801561092257600080fd5b50610936610931366004614ffd565b6127a9565b6040516102ce9190615b0a565b34801561094f57600080fd5b506102c261095e366004615b92565b612a42565b34801561096f57600080fd5b506102a061097e3660046151aa565b612a70565b34801561098f57600080fd5b5061039361099e366004614ffd565b612ae6565b816109ad81612b00565b60006109bc42624f1a00615bd2565b90506109c9848483612b1d565b506109d48484612b6e565b50505050565b60006001600160e01b031982166380ac58cd60e01b1480610a0b57506001600160e01b03198216635b5e139f60e01b145b80610a2657506301ffc9a760e01b6001600160e01b03198316145b92915050565b606060188054610a3b90615be5565b80601f0160208091040260200160405190810160405280929190818152602001828054610a6790615be5565b8015610ab45780601f10610a8957610100808354040283529160200191610ab4565b820191906000526020600020905b815481529060010190602001808311610a9757829003601f168201915b5050505050905090565b6000610ac982612d11565b506000908152601c60205260409020546001600160a01b031690565b6000610af0826119f6565b9050806001600160a01b0316836001600160a01b031603610b625760405162461bcd60e51b815260206004820152602160248201527f4552433732313a20617070726f76616c20746f2063757272656e74206f776e656044820152603960f91b60648201526084015b60405180910390fd5b336001600160a01b0382161480610b7e5750610b7e8133612a42565b610bf05760405162461bcd60e51b815260206004820152603d60248201527f4552433732313a20617070726f76652063616c6c6572206973206e6f7420746f60448201527f6b656e206f776e6572206f7220617070726f76656420666f7220616c6c0000006064820152608401610b59565b610bfa8383612d36565b505050565b6060610c09612da4565b336000908152600d602090815260409182902080548351818402810184019094528084529091830182828015610ab457602002820191906000526020600020905b815481526020019060010190808311610c4a575050505050905090565b610c6f614dc2565b81610c7981612db6565b60008381548110610c8c57610c8c615c19565b60009182526020918290206040805160e081018252600a90930290910180546001600160a01b0390811684526001820154169383019390935260028301805492939291840191610cdb90615be5565b80601f0160208091040260200160405190810160405280929190818152602001828054610d0790615be5565b8015610d545780601f10610d2957610100808354040283529160200191610d54565b820191906000526020600020905b815481529060010190602001808311610d3757829003601f168201915b5050505050815260200160038201604051806080016040529081600082018054610d7d90615be5565b80601f0160208091040260200160405190810160405280929190818152602001828054610da990615be5565b8015610df65780601f10610dcb57610100808354040283529160200191610df6565b820191906000526020600020905b815481529060010190602001808311610dd957829003601f168201915b50505050508152602001600182018054610e0f90615be5565b80601f0160208091040260200160405190810160405280929190818152602001828054610e3b90615be5565b8015610e885780601f10610e5d57610100808354040283529160200191610e88565b820191906000526020600020905b815481529060010190602001808311610e6b57829003601f168201915b505050505081526020016002820154815260200160038201805480602002602001604051908101604052809291908181526020018280548015610eea57602002820191906000526020600020905b815481526020019060010190808311610ed6575b505050919092525050508152600782015460209091019060ff166003811115610f1557610f1561509b565b6003811115610f2657610f2661509b565b81526020016008820154815260200160098201548152505091505b50919050565b6060610f51612da4565b336000908152600c602090815260409182902080548351818402810184019094528084529091830182828015610ab45760200282019190600052602060002090815481526020019060010190808311610c4a575050505050905090565b6060610fb8612df7565b6001600160a01b0382166000908152600a602052604090208054610fdb90615be5565b80601f016020809104026020016040519081016040528092919081815260200182805461100790615be5565b80156110545780601f1061102957610100808354040283529160200191611054565b820191906000526020600020905b81548152906001019060200180831161103757829003601f168201915b505050505090505b919050565b8261106b81612e56565b6110818585611079886119f6565b33878761300d565b5050505050565b6110923382613218565b6110ae5760405162461bcd60e51b8152600401610b5990615c2f565b610bfa838383613276565b61111a60405180610120016040528060006001600160a01b0316815260200160006001600160a01b03168152602001600081526020016000815260200160608152602001600081526020016060815260200160008152602001600081525090565b81611124816133c8565b6025838154811061113757611137615c19565b60009182526020918290206040805161012081018252600990930290910180546001600160a01b039081168452600182015416938301939093526002830154908201526003820154606082015260048201805491929160808401919061119c90615be5565b80601f01602080910402602001604051908101604052809291908181526020018280546111c890615be5565b80156112155780601f106111ea57610100808354040283529160200191611215565b820191906000526020600020905b8154815290600101906020018083116111f857829003601f168201915b50505050508152602001600582015481526020016006820180548060200260200160405190810160405280929190818152602001828054801561127757602002820191906000526020600020905b815481526020019060010190808311611263575b5050505050815260200160078201548152602001600882015481525050915050919050565b846112a6816133fa565b6112b3868686868661343e565b505050505050565b6112c36136da565b846112cd816136e3565b856112d781613729565b4284106112e357600080fd5b60008088815481106112f7576112f7615c19565b60009182526020909120600a90910201905060038101600682018161131c8a82615cc2565b506001820161132b8982615cc2565b506002820187905560005b865181101561146b5786818151811061135157611351615c19565b602002602001015160c0015187828151811061136f5761136f615c19565b602002602001015160a001511061138557600080fd5b600061139060145490565b90506113a0601480546001019055565b8782815181106113b2576113b2615c19565b602090810291909101810151600083815260159092526040909120815181906113db9082615cc2565b50602082015160018201906113f09082615cc2565b50604082015160028201906114059082615cc2565b506060820151600382019061141a9082615cc2565b506080820151600482019061142f9082615cc2565b5060a0820151600582015560c090910151600690910155825460018101845560008481526020902001558061146381615d81565b915050611336565b505081546001600160a01b03166000908152600d6020908152604082208054600180820183559184529190922001999099555060078101805460ff191690981790975550504260099095019490945550505050565b846114ca81612b00565b6114d886338787878761376d565b50505050505050565b610bfa8383836040518060200160405280600081525061223c565b611504612df7565b61150d816138ef565b151560011461151b57600080fd5b6001600160a01b03811660009081526009602052604090205461153f90600661396c565b6001600160a01b031660009081526009602052604090206000199055565b611565612da4565b61156e82613a4e565b61157757600080fd5b6040805160a08082018352600060808084018281528452845160208082018752838252808601919091528486018390526060808601819052865160e0810188523381526001600160a01b038a81169382019384529781018981528183018890529381018590524295810186905260c081019590955283546001810185558480528551600a82027f290decd9548b62a8d60345a988386fc84ba6bc95484008f6362f93160ef3e56381018054928b166001600160a01b031993841617815594517f290decd9548b62a8d60345a988386fc84ba6bc95484008f6362f93160ef3e5648201805491909b1692169190911790985592519396909594938492917f290decd9548b62a8d60345a988386fc84ba6bc95484008f6362f93160ef3e56501906116a09082615cc2565b5060608201518051600383019081906116b99082615cc2565b50602082015160018201906116ce9082615cc2565b5060408201516002820155606082015180516116f4916003840191602090910190614e3b565b505050608082015160078201805460ff1916600183600381111561171a5761171a61509b565b021790555060a0820151600882015560c0909101516009909101556001600160a01b039096166000908152600b60209081526040808320805460018181018355918552838520018a9055338452600c8352908320805491820181558352912001959095555050505050565b6117e660405180610120016040528060006001600160a01b0316815260200160006001600160a01b03168152602001600081526020016060815260200160008152602001600081526020016060815260200160008152602001600081525090565b816117f081613aaf565b6003838154811061180357611803615c19565b60009182526020918290206040805161012081018252600990930290910180546001600160a01b0390811684526001820154169383019390935260028301549082015260038201805491929160608401919061185e90615be5565b80601f016020809104026020016040519081016040528092919081815260200182805461188a90615be5565b80156118d75780601f106118ac576101008083540402835291602001916118d7565b820191906000526020600020905b8154815290600101906020018083116118ba57829003601f168201915b505050505081526020016004820154815260200160058201548152602001600682018054806020026020016040519081016040528092919081815260200182805480156112775760200282019190600052602060002090815481526020019060010190808311611263575050505050815260200160078201548152602001600882015481525050915050919050565b8261197081612b00565b600061197d858585612b1d565b90508061108157600080fd5b60608161199581613b3b565b6000838152602a6020908152604091829020805483518184028101840190945280845290918301828280156119e957602002820191906000526020600020905b8154815260200190600101908083116119d5575b5050505050915050919050565b600080611a0283613b44565b90506001600160a01b038116610a265760405162461bcd60e51b8152600401610b5990615d9a565b606081611a3681612b00565b600083815260136020908152604091829020805483518184028101840190945280845290918301828280156119e957602002820191906000526020600020908154815260200190600101908083116119d5575050505050915050919050565b60606006805480602002602001604051908101604052809291908181526020018280548015610ab457602002820191906000526020600020905b81546001600160a01b03168152600190910190602001808311611acf575050505050905090565b611afe612df7565b6001600160a01b0381166000908152600860205260408120541215611b2257600080fd5b6001600160a01b038116600090815260086020526040902054611b4690600561396c565b6001600160a01b031660009081526008602052604090206000199055565b60006001600160a01b038216611bce5760405162461bcd60e51b815260206004820152602960248201527f4552433732313a2061646472657373207a65726f206973206e6f7420612076616044820152683634b21037bbb732b960b91b6064820152608401610b59565b506001600160a01b03166000908152601b602052604090205490565b6060611bf4613b5f565b905090565b611c01612df7565b611c0b6000613bbe565b565b611c15612df7565b611c1e81613a4e565b1515600114611c3057611c3081613c10565b611c3981613c84565b50565b611c856040518060e0016040528060006001600160a01b031681526020016000815260200160608152602001606081526020016000815260200160008152602001600081525090565b81611c8f81613cf8565b60248381548110611ca257611ca2615c19565b90600052602060002090600702016040518060e00160405290816000820160009054906101000a90046001600160a01b03166001600160a01b03166001600160a01b0316815260200160018201548152602001600282018054611d0490615be5565b80601f0160208091040260200160405190810160405280929190818152602001828054611d3090615be5565b8015611d7d5780601f10611d5257610100808354040283529160200191611d7d565b820191906000526020600020905b815481529060010190602001808311611d6057829003601f168201915b50505050508152602001600382018054611d9690615be5565b80601f0160208091040260200160405190810160405280929190818152602001828054611dc290615be5565b8015611e0f5780601f10611de457610100808354040283529160200191611e0f565b820191906000526020600020905b815481529060010190602001808311611df257829003601f168201915b505050505081526020016004820154815260200160058201548152602001600682015481525050915050919050565b611e4733613d2a565b1515600103611e5557600080fd5b60048054600181019091557f8a35acfbc15ff81a39ae7d344fd709f28e8600b4aa8c65c6b64bfe7fe36bd19b810180546001600160a01b031916339081179091556000908152600760209081526040808320849055600a9091529020610bfa8382615cc2565b81611ec581612b00565b610bfa8383613d8b565b6060611ed96136da565b336000908152600b602090815260409182902080548351818402810184019094528084529091830182828015610ab45760200282019190600052602060002090815481526020019060010190808311610c4a575050505050905090565b611f3e612df7565b611c3981613c10565b601e546001600160a01b031690565b85611f6081612e56565b600060258781548110611f7557611f75615c19565b90600052602060002090600902019050600060038981548110611f9a57611f9a615c19565b906000526020600020906009020190506000611fba8b338a8a8a8a61376d565b60068085018054600181810183556000928352602080842090920185905592860180549384018155825290200155504260089283018190559101555050505050505050565b606060198054610a3b90615be5565b6060612018612da4565b336000908152600a602052604090208054610a3b90615be5565b61203a614e86565b8161204481613e14565b6001838154811061205757612057615c19565b60009182526020918290206040805160c081018252600690930290910180546001600160a01b03908116845260018201541693830193909352600283015490820152600380830154919291606084019160ff909116908111156120bc576120bc61509b565b60038111156120cd576120cd61509b565b8152600482015460208201526005909101546040909101529392505050565b6060816120f881612b00565b600083815260126020908152604091829020805483518184028101840190945280845290918301828280156119e957602002820191906000526020600020908154815260200190600101908083116119d5575050505050915050919050565b60608161216381612b00565b600083815260116020908152604091829020805483518184028101840190945280845290918301828280156119e957602002820191906000526020600020908154815260200190600101908083116119d5575050505050915050919050565b6121cd338383613e78565b5050565b6060816121dd81613b3b565b600083815260296020908152604091829020805483518184028101840190945280845290918301828280156119e957602002820191906000526020600020908154815260200190600101908083116119d5575050505050915050919050565b6122463383613218565b6122625760405162461bcd60e51b8152600401610b5990615c2f565b6109d484848484613f42565b6060612278613f75565b3360009081526010602090815260409182902080548351818402810184019094528084529091830182828015610ab45760200282019190600052602060002090815481526020019060010190808311610c4a575050505050905090565b6122dd612da4565b336000908152600a602052604090206121cd8282615cc2565b6122fe614ead565b8161230881613f7e565b6002838154811061231b5761231b615c19565b60009182526020918290206040805161014081018252600a90930290910180546001600160a01b039081168452600182015416938301939093526002830154908201526003820154606082015260048201546080820152600582015460a082015260068201805491929160c08401919061239490615be5565b80601f01602080910402602001604051908101604052809291908181526020018280546123c090615be5565b801561240d5780601f106123e25761010080835404028352916020019161240d565b820191906000526020600020905b8154815290600101906020018083116123f057829003601f168201915b5050509183525050600782015460209091019060ff166003811115610f1557610f1561509b565b606061243e613f75565b336000908152600e602090815260409182902080548351818402810184019094528084529091830182828015610ab45760200282019190600052602060002090815481526020019060010190808311610c4a575050505050905090565b60606124a682612d11565b60006124bd60408051602081019091526000815290565b905060008151116124dd5760405180602001604052806000815250612508565b806124e784613fb5565b6040516020016124f8929190615dcc565b6040516020818303038152906040525b9392505050565b8061251981612db6565b60016000838154811061252e5761252e615c19565b600091825260209091206007600a90920201015460ff1660038111156125565761255661509b565b1461256057600080fd5b61256a3383614047565b60026000838154811061257f5761257f615c19565b600091825260209091206007600a9092020101805460ff191660018360038111156125ac576125ac61509b565b02179055505050565b60606005805480602002602001604051908101604052809291908181526020018280548015610ab4576020028201919060005260206000209081546001600160a01b03168152600190910190602001808311611acf575050505050905090565b8061261f81613f7e565b6002828154811061263257612632615c19565b90600052602060002090600a020160050154341461264f57600080fd5b60006002838154811061266457612664615c19565b600091825260208220600a90910201600101546040516001600160a01b039091169134919081818185875af1925050503d80600081146126c0576040519150601f19603f3d011682016040523d82523d6000602084013e6126c5565b606091505b50509050806127165760405162461bcd60e51b815260206004820152601f60248201527f4661696c656420746f2073656e6420457468657220746f20696e7375726572006044820152606401610b59565b61271f836140b5565b6109d46002848154811061273557612735615c19565b90600052602060002090600a0201600201546002858154811061275a5761275a615c19565b90600052602060002090600a020160010160009054906101000a90046001600160a01b03166002868154811061279257612792615c19565b90600052602060002090600a020160040154612b1d565b6127db6040518060a0016040528060608152602001606081526020016060815260200160008152602001606081525090565b816127e581613b3b565b60008381526028602052604090205460238054909190811061280957612809615c19565b90600052602060002090600502016040518060a001604052908160008201805461283290615be5565b80601f016020809104026020016040519081016040528092919081815260200182805461285e90615be5565b80156128ab5780601f10612880576101008083540402835291602001916128ab565b820191906000526020600020905b81548152906001019060200180831161288e57829003601f168201915b505050505081526020016001820180546128c490615be5565b80601f01602080910402602001604051908101604052809291908181526020018280546128f090615be5565b801561293d5780601f106129125761010080835404028352916020019161293d565b820191906000526020600020905b81548152906001019060200180831161292057829003601f168201915b5050505050815260200160028201805461295690615be5565b80601f016020809104026020016040519081016040528092919081815260200182805461298290615be5565b80156129cf5780601f106129a4576101008083540402835291602001916129cf565b820191906000526020600020905b8154815290600101906020018083116129b257829003601f168201915b505050505081526020016003820154815260200160048201805480602002602001604051908101604052809291908181526020018280548015612a3157602002820191906000526020600020905b815481526020019060010190808311612a1d575b505050505081525050915050919050565b6001600160a01b039182166000908152601d6020908152604080832093909416825291909152205460ff1690565b612a78612df7565b6001600160a01b038116612add5760405162461bcd60e51b815260206004820152602660248201527f4f776e61626c653a206e6577206f776e657220697320746865207a65726f206160448201526564647265737360d01b6064820152608401610b59565b611c3981613bbe565b612aee614dc2565b612af66136da565b81610c7981613729565b33612b0a826119f6565b6001600160a01b031614611c3957600080fd5b6001600160a01b038216600090815260166020908152604080832086845290915281206001015415612b5b57612b548484846143cf565b9050612508565b612b6684848461441f565b949350505050565b612b77816138ef565b612b8057600080fd5b6040805160c0810182523381526001600160a01b0383811660208301908152928201858152600060608401818152426080860181905260a08601526001805480820182558184528651600682027fb10e2d527612073b26eecdfd717e6a320cf44b4afac2b0732d9fcbe2b7fa0cf6810180549289166001600160a01b031993841617815599517fb10e2d527612073b26eecdfd717e6a320cf44b4afac2b0732d9fcbe2b7fa0cf7820180549190991692169190911790965593517fb10e2d527612073b26eecdfd717e6a320cf44b4afac2b0732d9fcbe2b7fa0cf886015590517fb10e2d527612073b26eecdfd717e6a320cf44b4afac2b0732d9fcbe2b7fa0cf9909401805492969394869493909260ff1990911690836003811115612ca857612ca861509b565b02179055506080820151600482015560a0909101516005909101556000948552601160209081526040808720805460018181018355918952838920018490556001600160a01b039096168752600e82528620805495860181558652909420909201929092555050565b612d1a81614498565b611c395760405162461bcd60e51b8152600401610b5990615d9a565b6000818152601c6020526040902080546001600160a01b0319166001600160a01b0384169081179091558190612d6b826119f6565b6001600160a01b03167f8c5be1e5ebec7d5bd14f71427d1e84f3dd0314c0f7b2291e5b200ac8c7c3b92560405160405180910390a45050565b612dad33613d2a565b611c0b57600080fd5b336001600160a01b031660008281548110612dd357612dd3615c19565b60009182526020909120600a90910201546001600160a01b031614611c3957600080fd5b33612e00611f47565b6001600160a01b031614611c0b5760405162461bcd60e51b815260206004820181905260248201527f4f776e61626c653a2063616c6c6572206973206e6f7420746865206f776e65726044820152606401610b59565b600060038281548110612e6b57612e6b615c19565b60009182526020918290206040805161012081018252600990930290910180546001600160a01b03908116845260018201541693830193909352600283015490820152600382018054919291606084019190612ec690615be5565b80601f0160208091040260200160405190810160405280929190818152602001828054612ef290615be5565b8015612f3f5780601f10612f1457610100808354040283529160200191612f3f565b820191906000526020600020905b815481529060010190602001808311612f2257829003601f168201915b50505050508152602001600482015481526020016005820154815260200160068201805480602002602001604051908101604052809291908181526020018280548015612fab57602002820191906000526020600020905b815481526020019060010190808311612f97575b50505050508152602001600782015481526020016008820154815250509050336001600160a01b031681602001516001600160a01b031614612fec57600080fd5b428160800151111580156130045750428160a0015110155b6121cd57600080fd5b42811061301957600080fd5b6040805160008082526020820190925290506000604051806101200160405280876001600160a01b03168152602001866001600160a01b03168152602001898152602001888152602001858152602001848152602001838152602001428152602001428152509050600061308c60225490565b905061309c602280546001019055565b60258054600181018255600091909152825160099091027f401968ff42a154441da5f6c4c935ac46b8671f0e062baaa62a7545ba53bb6e4c810180546001600160a01b039384166001600160a01b031991821617825560208601517f401968ff42a154441da5f6c4c935ac46b8671f0e062baaa62a7545ba53bb6e4d840180549190951691161790925560408401517f401968ff42a154441da5f6c4c935ac46b8671f0e062baaa62a7545ba53bb6e4e82015560608401517f401968ff42a154441da5f6c4c935ac46b8671f0e062baaa62a7545ba53bb6e4f82015560808401518492917f401968ff42a154441da5f6c4c935ac46b8671f0e062baaa62a7545ba53bb6e5001906131ad9082615cc2565b5060a0820151600582015560c082015180516131d3916006840191602090910190614e3b565b5060e08201516007820155610100909101516008909101556000988952602a602090815260408a208054600181018255908b5299209098019790975550505050505050565b600080613224836119f6565b9050806001600160a01b0316846001600160a01b0316148061324b575061324b8185612a42565b80612b665750836001600160a01b031661326484610abe565b6001600160a01b031614949350505050565b826001600160a01b0316613289826119f6565b6001600160a01b0316146132af5760405162461bcd60e51b8152600401610b5990615dfb565b6001600160a01b0382166133115760405162461bcd60e51b8152602060048201526024808201527f4552433732313a207472616e7366657220746f20746865207a65726f206164646044820152637265737360e01b6064820152608401610b59565b826001600160a01b0316613324826119f6565b6001600160a01b03161461334a5760405162461bcd60e51b8152600401610b5990615dfb565b6000818152601c6020908152604080832080546001600160a01b03199081169091556001600160a01b03878116808652601b8552838620805460001901905590871680865283862080546001019055868652601a9094528285208054909216841790915590518493600080516020615f4c83398151915291a4505050565b6000602582815481106133dd576133dd615c19565b9060005260206000209060090201600201549050613004816144b5565b336001600160a01b03166001828154811061341757613417615c19565b60009182526020909120600160069092020101546001600160a01b031614611c3957600080fd5b60006001868154811061345357613453615c19565b600091825260208220600690910201915060038083015460ff169081111561347d5761347d61509b565b1461348757600080fd5b83851061349357600080fd5b604080516101408101825282546001600160a01b0390811682523360208301908152600280860154948401948552606084018a8152608085018a815260a086018a815260c087018a8152600060e08901819052426101008a018190526101208a015285546001810187559590528751600a86027f405787fa12a823e0f2b7631cc41b3ba8828b3321ca811111fa75cd3aa3bb5ace81018054928a166001600160a01b031993841617815597517f405787fa12a823e0f2b7631cc41b3ba8828b3321ca811111fa75cd3aa3bb5acf8201805491909a1692169190911790975597517f405787fa12a823e0f2b7631cc41b3ba8828b3321ca811111fa75cd3aa3bb5ad087015591517f405787fa12a823e0f2b7631cc41b3ba8828b3321ca811111fa75cd3aa3bb5ad1860155517f405787fa12a823e0f2b7631cc41b3ba8828b3321ca811111fa75cd3aa3bb5ad2850155517f405787fa12a823e0f2b7631cc41b3ba8828b3321ca811111fa75cd3aa3bb5ad3840155935192939284927f405787fa12a823e0f2b7631cc41b3ba8828b3321ca811111fa75cd3aa3bb5ad4019061363b9082615cc2565b5060e082015160078201805460ff1916600183600381111561365f5761365f61509b565b021790555061010082015160088201556101209091015160099091015560409182015160009081526012602090815283822080546001808201835591845282842001849055338352600f825293822080549485018155825290209091015560038101805460ff19166002179055426005909101555050505050565b612dad33613a4e565b60008082815481106136f7576136f7615c19565b600091825260209091206007600a90920201015460ff16600381111561371f5761371f61509b565b14611c3957600080fd5b336001600160a01b03166000828154811061374657613746615c19565b600091825260209091206001600a9092020101546001600160a01b031614611c3957600080fd5b600042821061377b57600080fd5b60006040518060e00160405280886001600160a01b0316815260200189815260200187815260200186815260200185815260200184815260200142815250905060006137c660215490565b90506137d6602180546001019055565b6024805460018101825560009190915282517f7cd332d19b93bcabe3cce7ca0c18a052f57e5fd03b4758a09f30f5ddc4b22ec4600790920291820180546001600160a01b0319166001600160a01b0390921691909117815560208401517f7cd332d19b93bcabe3cce7ca0c18a052f57e5fd03b4758a09f30f5ddc4b22ec5830155604084015184927f7cd332d19b93bcabe3cce7ca0c18a052f57e5fd03b4758a09f30f5ddc4b22ec6019061388b9082615cc2565b50606082015160038201906138a09082615cc2565b506080820151600482015560a0820151600582015560c0909101516006909101556000898152602960209081526040822080546001810182559083529120018190559150509695505050505050565b6001600160a01b0381166000908152600960205260408120548113806139155750600654155b1561392257506000919050565b6001600160a01b03821660008181526009602052604090205460068054909190811061395057613950615c19565b6000918252602090912001546001600160a01b03161492915050565b8054821061397957600080fd5b815b815461398990600190615e40565b811015613a17578161399c826001615bd2565b815481106139ac576139ac615c19565b9060005260206000200160009054906101000a90046001600160a01b03168282815481106139dc576139dc615c19565b600091825260209091200180546001600160a01b0319166001600160a01b039290921691909117905580613a0f81615d81565b91505061397b565b5080805480613a2857613a28615e53565b600082815260209020810160001990810180546001600160a01b03191690550190555050565b6001600160a01b038116600090815260086020526040812054811380613a745750600554155b15613a8157506000919050565b6001600160a01b03821660008181526008602052604090205460058054909190811061395057613950615c19565b336001600160a01b0316613ae660038381548110613acf57613acf615c19565b9060005260206000209060090201600201546119f6565b6001600160a01b03161480613b325750336001600160a01b031660038281548110613b1357613b13615c19565b60009182526020909120600160099092020101546001600160a01b0316145b611c3957600080fd5b613b32816144b5565b6000908152601a60205260409020546001600160a01b031690565b33600090815260276020908152604091829020805483518184028101840190945280845260609392830182828015610ab45760200282019190600052602060002090815481526020019060010190808311610c4a575050505050905090565b601e80546001600160a01b038381166001600160a01b0319831681179093556040519116919082907f8be0079c531659141344cd1fd0a4f28419497f9722a3daafe3b4186f6b6457e090600090a35050565b613c1981613a4e565b1515600103613c2757600080fd5b60058054600181019091557f036b6384b5eca791c62761152d0c79bb0604c104a5fb6f4eb0703f3154bb3db0810180546001600160a01b039093166001600160a01b03199093168317905560009182526008602052604090912055565b613c8d816138ef565b1515600103613c9b57600080fd5b60068054600181019091557ff652222313e28459528d920b65115c16c04f3efc82aaedc97be59f3f377c0d3f810180546001600160a01b039093166001600160a01b03199093168317905560009182526009602052604090912055565b600060248281548110613d0d57613d0d615c19565b9060005260206000209060070201600101549050613004816144b5565b6001600160a01b038116600090815260076020526040812054811380613d505750600454155b15613d5d57506000919050565b6001600160a01b03821660008181526007602052604090205460048054909190811061395057613950615c19565b6001600160a01b0381166000908152601660209081526040808320858452909152902060010154613dbb57600080fd5b613dc4816138ef565b15613ddd57613dd382826144f5565b15613ddd57600080fd5b613de8600142615e40565b6001600160a01b0390911660009081526016602090815260408083209483529390529190912060010155565b336001600160a01b0316613e4b60018381548110613e3457613e34615c19565b9060005260206000209060060201600201546119f6565b6001600160a01b03161480613b325750336001600160a01b03166001828154811061341757613417615c19565b816001600160a01b0316836001600160a01b031603613ed55760405162461bcd60e51b815260206004820152601960248201527822a9219b99189d1030b8383937bb32903a379031b0b63632b960391b6044820152606401610b59565b6001600160a01b038381166000818152601d6020908152604080832094871680845294825291829020805460ff191686151590811790915591519182527f17307eab39ab6107e8899845ad3d59bd9653f200f220920489ca2b5937696c31910160405180910390a3505050565b613f4d848484613276565b613f5984848484614741565b6109d45760405162461bcd60e51b8152600401610b5990615e69565b612dad336138ef565b336001600160a01b0316612b0a60028381548110613f9e57613f9e615c19565b90600052602060002090600a0201600201546119f6565b60606000613fc283614842565b60010190506000816001600160401b03811115613fe157613fe16151c5565b6040519080825280601f01601f19166020018201604052801561400b576020820181803683370190505b5090508181016020015b600019016f181899199a1a9b1b9c1cb0b131b232b360811b600a86061a8153600a850494508461401557509392505050565b6000614052601f5490565b9050614062601f80546001019055565b600081815260266020908152604080832080546001600160a01b031916339081179091558352602782528220805460018101825581845291909220018290556140ab8284614918565b6109d48483614c7f565b6000600282815481106140ca576140ca615c19565b600091825260208220600a909102019150600782015460ff1660038111156140f4576140f461509b565b146140fe57600080fd5b6040805160008082526101408201835283546001600160a01b0390811660208401908152600186015490911693830193909352600284015460608301526006840180549293919260808501919061415490615be5565b80601f016020809104026020016040519081016040528092919081815260200182805461418090615be5565b80156141cd5780601f106141a2576101008083540402835291602001916141cd565b820191906000526020600020905b8154815290600101906020018083116141b057829003601f168201915b505050918352505060038086015460208084019190915260048701546040808501919091526060808501889052426080860181905260a09095019490945282546001810184556000939093528451600984027fc2575a0e9e593c00f959f8c92f12db2869c3395a3b0502d05e2516446f71f85b810180546001600160a01b039384166001600160a01b0319918216178255948801517fc2575a0e9e593c00f959f8c92f12db2869c3395a3b0502d05e2516446f71f85c8301805491909416951694909417909155908501517fc2575a0e9e593c00f959f8c92f12db2869c3395a3b0502d05e2516446f71f85d82015592840151939450909284927fc2575a0e9e593c00f959f8c92f12db2869c3395a3b0502d05e2516446f71f85e01906142f49082615cc2565b506080820151600482015560a0820151600582015560c08201518051614324916006840191602090910190614e3b565b5060e08201516007828101919091556101009092015160089091015560028581015460008181526013602090815260408083206001808c01546001600160a01b031685526010845282852060178552838620968652958452918420815480840183559185528385209091018890558454808301865594845282842090940187905583549081018455928252902001929092558401805460ff1916909117905550504260099091015550565b6001600160a01b038216600090815260166020908152604080832086845290915281206001810154831015614408576000915050612508565b600181810193909355426002909101555092915050565b60004282101561443157506000612508565b5060408051608081018252848152602080820184815242838501818152606085019182526001600160a01b0388166000908152601685528681208a825290945294909220925183555160018084019190915592516002830155516003909101559392505050565b6000806144a483613b44565b6001600160a01b0316141592915050565b6000336144c1836119f6565b6001600160a01b03161480610a26575050336000908152601660209081526040808320938352929052206001015442111590565b6001600160a01b038116600090815260176020908152604080832085845282528083208054825181850281018501909352808352849383018282801561455a57602002820191906000526020600020905b815481526020019060010190808311614546575b5050505050905060005b8151811015614736576000600383838151811061458357614583615c19565b60200260200101518154811061459b5761459b615c19565b60009182526020918290206040805161012081018252600990930290910180546001600160a01b039081168452600182015416938301939093526002830154908201526003820180549192916060840191906145f690615be5565b80601f016020809104026020016040519081016040528092919081815260200182805461462290615be5565b801561466f5780601f106146445761010080835404028352916020019161466f565b820191906000526020600020905b81548152906001019060200180831161465257829003601f168201915b505050505081526020016004820154815260200160058201548152602001600682018054806020026020016040519081016040528092919081815260200182805480156146db57602002820191906000526020600020905b8154815260200190600101908083116146c7575b50505050508152602001600782015481526020016008820154815250509050428160800151111580156147125750428160a0015110155b156147235760019350505050610a26565b508061472e81615d81565b915050614564565b506000949350505050565b60006001600160a01b0384163b1561483757604051630a85bd0160e11b81526001600160a01b0385169063150b7a0290614785903390899088908890600401615ebb565b6020604051808303816000875af19250505080156147c0575060408051601f3d908101601f191682019092526147bd91810190615ef8565b60015b61481d573d8080156147ee576040519150601f19603f3d011682016040523d82523d6000602084013e6147f3565b606091505b5080516000036148155760405162461bcd60e51b8152600401610b5990615e69565b805181602001fd5b6001600160e01b031916630a85bd0160e11b149050612b66565b506001949350505050565b60008072184f03e93ff9f4daa797ed6e38ed64bf6a1f0160401b83106148815772184f03e93ff9f4daa797ed6e38ed64bf6a1f0160401b830492506040015b6904ee2d6d415b85acef8160201b83106148ab576904ee2d6d415b85acef8160201b830492506020015b662386f26fc1000083106148c957662386f26fc10000830492506010015b6305f5e10083106148e1576305f5e100830492506008015b61271083106148f557612710830492506004015b60648310614907576064830492506002015b600a8310610a265760010192915050565b600080828154811061492c5761492c615c19565b90600052602060002090600a020160030160405180608001604052908160008201805461495890615be5565b80601f016020809104026020016040519081016040528092919081815260200182805461498490615be5565b80156149d15780601f106149a6576101008083540402835291602001916149d1565b820191906000526020600020905b8154815290600101906020018083116149b457829003601f168201915b505050505081526020016001820180546149ea90615be5565b80601f0160208091040260200160405190810160405280929190818152602001828054614a1690615be5565b8015614a635780601f10614a3857610100808354040283529160200191614a63565b820191906000526020600020905b815481529060010190602001808311614a4657829003601f168201915b505050505081526020016002820154815260200160038201805480602002602001604051908101604052809291908181526020018280548015614ac557602002820191906000526020600020905b815481526020019060010190808311614ab1575b505050505081525050905060006040518060a0016040528060008581548110614af057614af0615c19565b90600052602060002090600a02016002018054614b0c90615be5565b80601f0160208091040260200160405190810160405280929190818152602001828054614b3890615be5565b8015614b855780601f10614b5a57610100808354040283529160200191614b85565b820191906000526020600020905b815481529060010190602001808311614b6857829003601f168201915b50505050508152602001836000015181526020018360200151815260200183604001518152602001836060015181525090506000614bc260205490565b9050614bd2602080546001019055565b6000858152602860205260408120829055602380546001810182559152825183916005027fd57b2b5166478fd4318d2acc6cc2c704584312bdd8781b32d5d06abda57f423001908190614c259082615cc2565b5060208201516001820190614c3a9082615cc2565b5060408201516002820190614c4f9082615cc2565b506060820151600382015560808201518051614c75916004840191602090910190614e3b565b5050505050505050565b6121cd828260405180602001604052806000815250614c9e8383614cc7565b614cab6000848484614741565b610bfa5760405162461bcd60e51b8152600401610b5990615e69565b6001600160a01b038216614d1d5760405162461bcd60e51b815260206004820181905260248201527f4552433732313a206d696e7420746f20746865207a65726f20616464726573736044820152606401610b59565b614d2681614498565b15614d435760405162461bcd60e51b8152600401610b5990615f15565b614d4c81614498565b15614d695760405162461bcd60e51b8152600401610b5990615f15565b6001600160a01b0382166000818152601b6020908152604080832080546001019055848352601a90915280822080546001600160a01b031916841790555183929190600080516020615f4c833981519152908290a45050565b6040518060e0016040528060006001600160a01b0316815260200160006001600160a01b0316815260200160608152602001614e1f6040518060800160405280606081526020016060815260200160008152602001606081525090565b815260200160005b815260200160008152602001600081525090565b828054828255906000526020600020908101928215614e76579160200282015b82811115614e76578251825591602001919060010190614e5b565b50614e82929150614f0f565b5090565b6040805160c081018252600080825260208201819052918101829052906060820190614e27565b60405180610140016040528060006001600160a01b0316815260200160006001600160a01b03168152602001600081526020016000815260200160008152602001600081526020016060815260200160006003811115614e2757614e2761509b565b5b80821115614e825760008155600101614f10565b80356001600160a01b038116811461105c57600080fd5b60008060408385031215614f4e57600080fd5b82359150614f5e60208401614f24565b90509250929050565b6001600160e01b031981168114611c3957600080fd5b600060208284031215614f8f57600080fd5b813561250881614f67565b60005b83811015614fb5578181015183820152602001614f9d565b50506000910152565b60008151808452614fd6816020860160208601614f9a565b601f01601f19169290920160200192915050565b6020815260006125086020830184614fbe565b60006020828403121561500f57600080fd5b5035919050565b6001600160a01b03169052565b6000806040838503121561503657600080fd5b61503f83614f24565b946020939093013593505050565b600081518084526020808501945080840160005b8381101561507d57815187529582019590820190600101615061565b509495945050505050565b602081526000612508602083018461504d565b634e487b7160e01b600052602160045260246000fd5b600481106150cf57634e487b7160e01b600052602160045260246000fd5b9052565b60208152600060018060a01b0380845116602084015280602085015116604084015250604083015160e06060840152615110610100840182614fbe565b90506060840151601f198483030160808501528051608083526151366080840182614fbe565b90506020820151838203602085015261514f8282614fbe565b91505060408201516040840152606082015191508281036060840152615175818361504d565b92505050608084015161518b60a08501826150b1565b5060a084015160c084015260c084015160e08401528091505092915050565b6000602082840312156151bc57600080fd5b61250882614f24565b634e487b7160e01b600052604160045260246000fd5b60405160e081016001600160401b03811182821017156151fd576151fd6151c5565b60405290565b604051601f8201601f191681016001600160401b038111828210171561522b5761522b6151c5565b604052919050565b60006001600160401b0383111561524c5761524c6151c5565b61525f601f8401601f1916602001615203565b905082815283838301111561527357600080fd5b828260208301376000602084830101529392505050565b600082601f83011261529b57600080fd5b61250883833560208501615233565b600080600080608085870312156152c057600080fd5b843593506020850135925060408501356001600160401b038111156152e457600080fd5b6152f08782880161528a565b949793965093946060013593505050565b60008060006060848603121561531657600080fd5b61531f84614f24565b925061532d60208501614f24565b9150604084013590509250925092565b6020815261534f602082018351615016565b600060208301516153636040840182615016565b50604083015160608301526060830151608083015260808301516101208060a0850152615394610140850183614fbe565b915060a085015160c085015260c0850151601f198584030160e08601526153bb838261504d565b60e087015161010087810191909152909601519190940152509192915050565b600080600080600060a086880312156153f357600080fd5b8535945060208601359350604086013592506060860135915060808601356001600160401b0381111561542557600080fd5b6154318882890161528a565b9150509295509295909350565b600080600080600060a0868803121561545657600080fd5b853594506001600160401b03602087013581101561547357600080fd5b615483886020890135890161528a565b9450806040880135111561549657600080fd5b6154a6886040890135890161528a565b93506060870135925080608088013511156154c057600080fd5b6080870135870188601f8201126154d657600080fd5b81813511156154e7576154e76151c5565b6154f76020823560051b01615203565b81358082526020808301929160051b8401018b101561551557600080fd5b602083015b6020843560051b85010181101561564857848135111561553957600080fd5b8035840160e0818e03601f1901121561555157600080fd5b6155596151db565b866020830135111561556a57600080fd5b61557c8e60208085013585010161528a565b8152866040830135111561558f57600080fd5b6155a28e6020604085013585010161528a565b602082015286606083013511156155b857600080fd5b6155cb8e6020606085013585010161528a565b604082015286608083013511156155e157600080fd5b6155f48e6020608085013585010161528a565b60608201528660a0830135111561560a57600080fd5b61561d8e602060a085013585010161528a565b608082015260c08281013560a083015260e0909201359181019190915283526020928301920161551a565b50809450505050509295509295909350565b600080600080600060a0868803121561567257600080fd5b8535945060208601356001600160401b038082111561569057600080fd5b61569c89838a0161528a565b955060408801359150808211156156b257600080fd5b506156bf8882890161528a565b9598949750949560608101359550608001359392505050565b600080604083850312156156eb57600080fd5b6156f483614f24565b915060208301356001600160401b0381111561570f57600080fd5b61571b8582860161528a565b9150509250929050565b60208152615737602082018351615016565b6000602083015161574b6040840182615016565b50604083015160608301526060830151610120806080850152615772610140850183614fbe565b9150608085015160a085015260a085015160c085015260c0850151601f198584030160e08601526153bb838261504d565b6000806000606084860312156157b857600080fd5b8335925061532d60208501614f24565b6020808252825182820181905260009190848201906040850190845b818110156158095783516001600160a01b0316835292840192918401916001016157e4565b50909695505050505050565b6020815260018060a01b038251166020820152602082015160408201526000604083015160e0606084015261584e610100840182614fbe565b90506060840151601f1984830301608085015261586b8282614fbe565b915050608084015160a084015260a084015160c084015260c084015160e08401528091505092915050565b6000602082840312156158a857600080fd5b81356001600160401b038111156158be57600080fd5b612b668482850161528a565b600080600080600080600060e0888a0312156158e557600080fd5b87359650602088013595506040880135945060608801356001600160401b038082111561591157600080fd5b61591d8b838c0161528a565b955060808a013591508082111561593357600080fd5b506159408a828b0161528a565b93505060a0880135915060c0880135905092959891949750929550565b81516001600160a01b039081168252602080840151909116908201526040808301519082015260608083015160c083019161599a908401826150b1565b506080830151608083015260a083015160a083015292915050565b600080604083850312156159c857600080fd5b6159d183614f24565b9150602083013580151581146159e657600080fd5b809150509250929050565b60008060008060808587031215615a0757600080fd5b615a1085614f24565b9350615a1e60208601614f24565b92506040850135915060608501356001600160401b03811115615a4057600080fd5b8501601f81018713615a5157600080fd5b615a6087823560208401615233565b91505092959194509250565b60208152615a7e602082018351615016565b60006020830151615a926040840182615016565b506040830151606083015260608301516080830152608083015160a083015260a083015160c083015260c08301516101408060e0850152615ad7610160850183614fbe565b915060e0850151610100615aed818701836150b1565b860151610120868101919091529095015193019290925250919050565b602081526000825160a06020840152615b2660c0840182614fbe565b90506020840151601f1980858403016040860152615b448383614fbe565b92506040860151915080858403016060860152615b618383614fbe565b92506060860151608086015260808601519150808584030160a086015250615b89828261504d565b95945050505050565b60008060408385031215615ba557600080fd5b615bae83614f24565b9150614f5e60208401614f24565b634e487b7160e01b600052601160045260246000fd5b80820180821115610a2657610a26615bbc565b600181811c90821680615bf957607f821691505b602082108103610f4157634e487b7160e01b600052602260045260246000fd5b634e487b7160e01b600052603260045260246000fd5b6020808252602d908201527f4552433732313a2063616c6c6572206973206e6f7420746f6b656e206f776e6560408201526c1c881bdc88185c1c1c9bdd9959609a1b606082015260800190565b601f821115610bfa57600081815260208120601f850160051c81016020861015615ca35750805b601f850160051c820191505b818110156112b357828155600101615caf565b81516001600160401b03811115615cdb57615cdb6151c5565b615cef81615ce98454615be5565b84615c7c565b602080601f831160018114615d245760008415615d0c5750858301515b600019600386901b1c1916600185901b1785556112b3565b600085815260208120601f198616915b82811015615d5357888601518255948401946001909101908401615d34565b5085821015615d715787850151600019600388901b60f8161c191681555b5050505050600190811b01905550565b600060018201615d9357615d93615bbc565b5060010190565b602080825260189082015277115490cdcc8c4e881a5b9d985b1a59081d1bdad95b88125160421b604082015260600190565b60008351615dde818460208801614f9a565b835190830190615df2818360208801614f9a565b01949350505050565b60208082526025908201527f4552433732313a207472616e736665722066726f6d20696e636f72726563742060408201526437bbb732b960d91b606082015260800190565b81810381811115610a2657610a26615bbc565b634e487b7160e01b600052603160045260246000fd5b60208082526032908201527f4552433732313a207472616e7366657220746f206e6f6e20455243373231526560408201527131b2b4bb32b91034b6b83632b6b2b73a32b960711b606082015260800190565b6001600160a01b0385811682528416602082015260408101839052608060608201819052600090615eee90830184614fbe565b9695505050505050565b600060208284031215615f0a57600080fd5b815161250881614f67565b6020808252601c908201527b115490cdcc8c4e881d1bdad95b88185b1c9958591e481b5a5b9d195960221b60408201526060019056feddf252ad1be2c89b69c2b068fc378daa952ba7f163c4a11628f55a4df523b3efa26469706673582212203ac4ec5a419e994d0a592a79681c92be4c331d7eada3cf843a16a24f2e1e09ad64736f6c63430008130033",
  "linkReferences": {},
  "deployedLinkReferences": {}
}