{
  "_format": "hh-sol-artifact-1",
  "contractName": "VehicleSystemContract",
  "sourceName": "contracts/VehicleSystemContract.sol",
  "abi": [
    {
      "anonymous": false,
      "inputs": [
        {
          "indexed": true,
          "internalType": "address",
          "name": "owner",
          "type": "address"
        },
        {
          "indexed": true,
          "internalType": "address",
          "name": "approved",
          "type": "address"
        },
        {
          "indexed": true,
          "internalType": "uint256",
          "name": "tokenId",
          "type": "uint256"
        }
      ],
      "name": "Approval",
      "type": "event"
    },
    {
      "anonymous": false,
      "inputs": [
        {
          "indexed": true,
          "internalType": "address",
          "name": "owner",
          "type": "address"
        },
        {
          "indexed": true,
          "internalType": "address",
          "name": "operator",
          "type": "address"
        },
        {
          "indexed": false,
          "internalType": "bool",
          "name": "approved",
          "type": "bool"
        }
      ],
      "name": "ApprovalForAll",
      "type": "event"
    },
    {
      "anonymous": false,
      "inputs": [
        {
          "indexed": true,
          "internalType": "address",
          "name": "previousOwner",
          "type": "address"
        },
        {
          "indexed": true,
          "internalType": "address",
          "name": "newOwner",
          "type": "address"
        }
      ],
      "name": "OwnershipTransferred",
      "type": "event"
    },
    {
      "anonymous": false,
      "inputs": [
        {
          "indexed": true,
          "internalType": "address",
          "name": "from",
          "type": "address"
        },
        {
          "indexed": true,
          "internalType": "address",
          "name": "to",
          "type": "address"
        },
        {
          "indexed": true,
          "internalType": "uint256",
          "name": "tokenId",
          "type": "uint256"
        }
      ],
      "name": "Transfer",
      "type": "event"
    },
    {
      "inputs": [
        {
          "internalType": "uint256",
          "name": "tokenId",
          "type": "uint256"
        },
        {
          "internalType": "string",
          "name": "title",
          "type": "string"
        },
        {
          "internalType": "string",
          "name": "description",
          "type": "string"
        },
        {
          "internalType": "uint256",
          "name": "price",
          "type": "uint256"
        },
        {
          "internalType": "uint256",
          "name": "date",
          "type": "uint256"
        }
      ],
      "name": "addVehicleServiceRecord",
      "outputs": [],
      "stateMutability": "nonpayable",
      "type": "function"
    },
    {
      "inputs": [
        {
          "internalType": "address",
          "name": "agentAddress",
          "type": "address"
        }
      ],
      "name": "agentDeactivation",
      "outputs": [],
      "stateMutability": "nonpayable",
      "type": "function"
    },
    {
      "inputs": [
        {
          "internalType": "address",
          "name": "agentAddress",
          "type": "address"
        }
      ],
      "name": "agentRegistration",
      "outputs": [],
      "stateMutability": "nonpayable",
      "type": "function"
    },
    {
      "inputs": [
        {
          "internalType": "address",
          "name": "to",
          "type": "address"
        },
        {
          "internalType": "uint256",
          "name": "tokenId",
          "type": "uint256"
        }
      ],
      "name": "approve",
      "outputs": [],
      "stateMutability": "nonpayable",
      "type": "function"
    },
    {
      "inputs": [
        {
          "internalType": "uint256",
          "name": "requestId",
          "type": "uint256"
        },
        {
          "internalType": "string",
          "name": "carBrand",
          "type": "string"
        },
        {
          "internalType": "string",
          "name": "carModel",
          "type": "string"
        },
        {
          "internalType": "uint256",
          "name": "manufacturingDate",
          "type": "uint256"
        },
        {
          "components": [
            {
              "internalType": "string",
              "name": "driverLicenseCode",
              "type": "string"
            },
            {
              "internalType": "string",
              "name": "federalUnit",
              "type": "string"
            },
            {
              "internalType": "string",
              "name": "county",
              "type": "string"
            },
            {
              "internalType": "string",
              "name": "vehiclePlate",
              "type": "string"
            },
            {
              "internalType": "string",
              "name": "year",
              "type": "string"
            },
            {
              "internalType": "uint256",
              "name": "startDate",
              "type": "uint256"
            },
            {
              "internalType": "uint256",
              "name": "endDate",
              "type": "uint256"
            }
          ],
          "internalType": "struct IBaseContract.VehicleOwnershipRecord[]",
          "name": "ownershipRecords",
          "type": "tuple[]"
        }
      ],
      "name": "approveVehicleRequest",
      "outputs": [],
      "stateMutability": "nonpayable",
      "type": "function"
    },
    {
      "inputs": [
        {
          "internalType": "address",
          "name": "owner",
          "type": "address"
        }
      ],
      "name": "balanceOf",
      "outputs": [
        {
          "internalType": "uint256",
          "name": "",
          "type": "uint256"
        }
      ],
      "stateMutability": "view",
      "type": "function"
    },
    {
      "inputs": [
        {
          "internalType": "uint256",
          "name": "proposalId",
          "type": "uint256"
        }
      ],
      "name": "contractVehicleInsuranceProposal",
      "outputs": [],
      "stateMutability": "payable",
      "type": "function"
    },
    {
      "inputs": [
        {
          "internalType": "uint256",
          "name": "requestId",
          "type": "uint256"
        }
      ],
      "name": "createVehicle",
      "outputs": [],
      "stateMutability": "nonpayable",
      "type": "function"
    },
    {
      "inputs": [
        {
          "internalType": "uint256",
          "name": "requestId",
          "type": "uint256"
        },
        {
          "internalType": "uint256",
          "name": "startDate",
          "type": "uint256"
        },
        {
          "internalType": "uint256",
          "name": "endDate",
          "type": "uint256"
        },
        {
          "internalType": "uint256",
          "name": "price",
          "type": "uint256"
        },
        {
          "internalType": "string",
          "name": "contractUrl",
          "type": "string"
        }
      ],
      "name": "createVehicleInsuranceProposal",
      "outputs": [],
      "stateMutability": "nonpayable",
      "type": "function"
    },
    {
      "inputs": [
        {
          "internalType": "uint256",
          "name": "tokenId",
          "type": "uint256"
        },
        {
          "internalType": "address",
          "name": "insurer",
          "type": "address"
        }
      ],
      "name": "createVehicleInsuranceRequest",
      "outputs": [],
      "stateMutability": "nonpayable",
      "type": "function"
    },
    {
      "inputs": [
        {
          "internalType": "address",
          "name": "agent",
          "type": "address"
        },
        {
          "internalType": "string",
          "name": "vehicleRegistrationCode",
          "type": "string"
        }
      ],
      "name": "createVehicleRequest",
      "outputs": [],
      "stateMutability": "nonpayable",
      "type": "function"
    },
    {
      "inputs": [
        {
          "internalType": "string",
          "name": "driverLicenseCode",
          "type": "string"
        }
      ],
      "name": "defineDriverLicenseCode",
      "outputs": [],
      "stateMutability": "nonpayable",
      "type": "function"
    },
    {
      "inputs": [
        {
          "internalType": "address",
          "name": "user",
          "type": "address"
        }
      ],
      "name": "driverLicenseCodeOf",
      "outputs": [
        {
          "internalType": "string",
          "name": "",
          "type": "string"
        }
      ],
      "stateMutability": "view",
      "type": "function"
    },
    {
      "inputs": [
        {
          "internalType": "uint256",
          "name": "tokenId",
          "type": "uint256"
        },
        {
          "internalType": "address",
          "name": "fromAddress",
          "type": "address"
        }
      ],
      "name": "getAccessByTokenId",
      "outputs": [
        {
          "components": [
            {
              "internalType": "uint256",
              "name": "tokenId",
              "type": "uint256"
            },
            {
              "internalType": "uint256",
              "name": "expirationDate",
              "type": "uint256"
            },
            {
              "internalType": "uint256",
              "name": "updatedAt",
              "type": "uint256"
            },
            {
              "internalType": "uint256",
              "name": "createdAt",
              "type": "uint256"
            }
          ],
          "internalType": "struct IBaseContract.Access",
          "name": "",
          "type": "tuple"
        }
      ],
      "stateMutability": "view",
      "type": "function"
    },
    {
      "inputs": [
        {
          "internalType": "uint256",
          "name": "tokenId",
          "type": "uint256"
        }
      ],
      "name": "getApproved",
      "outputs": [
        {
          "internalType": "address",
          "name": "",
          "type": "address"
        }
      ],
      "stateMutability": "view",
      "type": "function"
    },
    {
      "inputs": [],
      "name": "getDriverLicenseCode",
      "outputs": [
        {
          "internalType": "string",
          "name": "driverLicenseCode",
          "type": "string"
        }
      ],
      "stateMutability": "view",
      "type": "function"
    },
    {
      "inputs": [],
      "name": "getTokenIdsByOwner",
      "outputs": [
        {
          "internalType": "uint256[]",
          "name": "",
          "type": "uint256[]"
        }
      ],
      "stateMutability": "view",
      "type": "function"
    },
    {
      "inputs": [
        {
          "internalType": "uint256",
          "name": "requestId",
          "type": "uint256"
        }
      ],
      "name": "getUserVehicleRequestById",
      "outputs": [
        {
          "components": [
            {
              "internalType": "address",
              "name": "requester",
              "type": "address"
            },
            {
              "internalType": "address",
              "name": "agent",
              "type": "address"
            },
            {
              "internalType": "string",
              "name": "vehicleRegistrationCode",
              "type": "string"
            },
            {
              "components": [
                {
                  "internalType": "string",
                  "name": "carBrand",
                  "type": "string"
                },
                {
                  "internalType": "string",
                  "name": "carModel",
                  "type": "string"
                },
                {
                  "internalType": "uint256",
                  "name": "manufacturingDate",
                  "type": "uint256"
                },
                {
                  "internalType": "uint256[]",
                  "name": "vehicleOwnershipRecordIds",
                  "type": "uint256[]"
                }
              ],
              "internalType": "struct IBaseContract.VehicleRequestData",
              "name": "vehicleData",
              "type": "tuple"
            },
            {
              "internalType": "enum IBaseContract.Status",
              "name": "status",
              "type": "uint8"
            },
            {
              "internalType": "uint256",
              "name": "createdAt",
              "type": "uint256"
            },
            {
              "internalType": "uint256",
              "name": "updatedAt",
              "type": "uint256"
            }
          ],
          "internalType": "struct IBaseContract.VehicleRequest",
          "name": "",
          "type": "tuple"
        }
      ],
      "stateMutability": "view",
      "type": "function"
    },
    {
      "inputs": [
        {
          "internalType": "uint256",
          "name": "accidentId",
          "type": "uint256"
        }
      ],
      "name": "getVehicleAccidentRecordById",
      "outputs": [
        {
          "components": [
            {
              "internalType": "address",
              "name": "vehicleOwner",
              "type": "address"
            },
            {
              "internalType": "address",
              "name": "insurer",
              "type": "address"
            },
            {
              "internalType": "uint256",
              "name": "tokenId",
              "type": "uint256"
            },
            {
              "internalType": "uint256",
              "name": "insuranceId",
              "type": "uint256"
            },
            {
              "internalType": "string",
              "name": "description",
              "type": "string"
            },
            {
              "internalType": "uint256",
              "name": "accidentDate",
              "type": "uint256"
            },
            {
              "internalType": "uint256[]",
              "name": "vehicleServicesIds",
              "type": "uint256[]"
            },
            {
              "internalType": "uint256",
              "name": "createdAt",
              "type": "uint256"
            },
            {
              "internalType": "uint256",
              "name": "updatedAt",
              "type": "uint256"
            }
          ],
          "internalType": "struct IBaseContract.VehicleAccidentRecord",
          "name": "",
          "type": "tuple"
        }
      ],
      "stateMutability": "view",
      "type": "function"
    },
    {
      "inputs": [
        {
          "internalType": "uint256",
          "name": "tokenId",
          "type": "uint256"
        }
      ],
      "name": "getVehicleAccidentRecordIdsByTokenId",
      "outputs": [
        {
          "internalType": "uint256[]",
          "name": "",
          "type": "uint256[]"
        }
      ],
      "stateMutability": "view",
      "type": "function"
    },
    {
      "inputs": [
        {
          "internalType": "uint256",
          "name": "insuranceId",
          "type": "uint256"
        }
      ],
      "name": "getVehicleInsuranceContractById",
      "outputs": [
        {
          "components": [
            {
              "internalType": "address",
              "name": "requester",
              "type": "address"
            },
            {
              "internalType": "address",
              "name": "insurer",
              "type": "address"
            },
            {
              "internalType": "uint256",
              "name": "tokenId",
              "type": "uint256"
            },
            {
              "internalType": "string",
              "name": "contractUrl",
              "type": "string"
            },
            {
              "internalType": "uint256",
              "name": "insuranceStartDate",
              "type": "uint256"
            },
            {
              "internalType": "uint256",
              "name": "insuranceEndDate",
              "type": "uint256"
            },
            {
              "internalType": "uint256[]",
              "name": "vehicleServicesIds",
              "type": "uint256[]"
            },
            {
              "internalType": "uint256",
              "name": "createdAt",
              "type": "uint256"
            },
            {
              "internalType": "uint256",
              "name": "updatedAt",
              "type": "uint256"
            }
          ],
          "internalType": "struct IBaseContract.VehicleInsuranceContract",
          "name": "",
          "type": "tuple"
        }
      ],
      "stateMutability": "view",
      "type": "function"
    },
    {
      "inputs": [],
      "name": "getVehicleInsuranceContractIdsByInsurer",
      "outputs": [
        {
          "internalType": "uint256[]",
          "name": "",
          "type": "uint256[]"
        }
      ],
      "stateMutability": "view",
      "type": "function"
    },
    {
      "inputs": [
        {
          "internalType": "uint256",
          "name": "tokenId",
          "type": "uint256"
        }
      ],
      "name": "getVehicleInsuranceContractIdsByInsurerAndTokenId",
      "outputs": [
        {
          "internalType": "uint256[]",
          "name": "",
          "type": "uint256[]"
        }
      ],
      "stateMutability": "view",
      "type": "function"
    },
    {
      "inputs": [
        {
          "internalType": "uint256",
          "name": "tokenId",
          "type": "uint256"
        }
      ],
      "name": "getVehicleInsuranceContractIdsByTokenId",
      "outputs": [
        {
          "internalType": "uint256[]",
          "name": "",
          "type": "uint256[]"
        }
      ],
      "stateMutability": "view",
      "type": "function"
    },
    {
      "inputs": [
        {
          "internalType": "uint256",
          "name": "proposalId",
          "type": "uint256"
        }
      ],
      "name": "getVehicleInsuranceProposalById",
      "outputs": [
        {
          "components": [
            {
              "internalType": "address",
              "name": "requester",
              "type": "address"
            },
            {
              "internalType": "address payable",
              "name": "insurer",
              "type": "address"
            },
            {
              "internalType": "uint256",
              "name": "tokenId",
              "type": "uint256"
            },
            {
              "internalType": "uint256",
              "name": "insuranceStartDate",
              "type": "uint256"
            },
            {
              "internalType": "uint256",
              "name": "insuranceEndDate",
              "type": "uint256"
            },
            {
              "internalType": "uint256",
              "name": "price",
              "type": "uint256"
            },
            {
              "internalType": "string",
              "name": "contractUrl",
              "type": "string"
            },
            {
              "internalType": "enum IBaseContract.Status",
              "name": "status",
              "type": "uint8"
            },
            {
              "internalType": "uint256",
              "name": "createdAt",
              "type": "uint256"
            },
            {
              "internalType": "uint256",
              "name": "updatedAt",
              "type": "uint256"
            }
          ],
          "internalType": "struct IBaseContract.VehicleInsuranceProposal",
          "name": "",
          "type": "tuple"
        }
      ],
      "stateMutability": "view",
      "type": "function"
    },
    {
      "inputs": [],
      "name": "getVehicleInsuranceProposalIdsByInsurer",
      "outputs": [
        {
          "internalType": "uint256[]",
          "name": "",
          "type": "uint256[]"
        }
      ],
      "stateMutability": "view",
      "type": "function"
    },
    {
      "inputs": [
        {
          "internalType": "uint256",
          "name": "tokenId",
          "type": "uint256"
        }
      ],
      "name": "getVehicleInsuranceProposalIdsByTokenId",
      "outputs": [
        {
          "internalType": "uint256[]",
          "name": "",
          "type": "uint256[]"
        }
      ],
      "stateMutability": "view",
      "type": "function"
    },
    {
      "inputs": [
        {
          "internalType": "uint256",
          "name": "requestId",
          "type": "uint256"
        }
      ],
      "name": "getVehicleInsuranceRequestById",
      "outputs": [
        {
          "components": [
            {
              "internalType": "address",
              "name": "requester",
              "type": "address"
            },
            {
              "internalType": "address",
              "name": "insurer",
              "type": "address"
            },
            {
              "internalType": "uint256",
              "name": "tokenId",
              "type": "uint256"
            },
            {
              "internalType": "enum IBaseContract.Status",
              "name": "status",
              "type": "uint8"
            },
            {
              "internalType": "uint256",
              "name": "createdAt",
              "type": "uint256"
            },
            {
              "internalType": "uint256",
              "name": "updatedAt",
              "type": "uint256"
            }
          ],
          "internalType": "struct IBaseContract.VehicleInsuranceRequest",
          "name": "",
          "type": "tuple"
        }
      ],
      "stateMutability": "view",
      "type": "function"
    },
    {
      "inputs": [],
      "name": "getVehicleInsuranceRequestIdsByInsurer",
      "outputs": [
        {
          "internalType": "uint256[]",
          "name": "",
          "type": "uint256[]"
        }
      ],
      "stateMutability": "view",
      "type": "function"
    },
    {
      "inputs": [
        {
          "internalType": "uint256",
          "name": "tokenId",
          "type": "uint256"
        }
      ],
      "name": "getVehicleInsuranceRequestIdsByTokenId",
      "outputs": [
        {
          "internalType": "uint256[]",
          "name": "",
          "type": "uint256[]"
        }
      ],
      "stateMutability": "view",
      "type": "function"
    },
    {
      "inputs": [
        {
          "internalType": "uint256",
          "name": "tokenId",
          "type": "uint256"
        }
      ],
      "name": "getVehicleNFTMetadataByTokenId",
      "outputs": [
        {
          "components": [
            {
              "internalType": "string",
              "name": "vehicleRegistrationCode",
              "type": "string"
            },
            {
              "internalType": "string",
              "name": "carBrand",
              "type": "string"
            },
            {
              "internalType": "string",
              "name": "carModel",
              "type": "string"
            },
            {
              "internalType": "uint256",
              "name": "manufacturingDate",
              "type": "uint256"
            },
            {
              "internalType": "uint256[]",
              "name": "vehicleOwnershipRecordIds",
              "type": "uint256[]"
            }
          ],
          "internalType": "struct INFT.MetadataVehicleNFT",
          "name": "",
          "type": "tuple"
        }
      ],
      "stateMutability": "view",
      "type": "function"
    },
    {
      "inputs": [
        {
          "internalType": "uint256",
          "name": "tokenId",
          "type": "uint256"
        },
        {
          "internalType": "uint256",
          "name": "ownershipId",
          "type": "uint256"
        }
      ],
      "name": "getVehicleOwnershipRecordById",
      "outputs": [
        {
          "components": [
            {
              "internalType": "string",
              "name": "driverLicenseCode",
              "type": "string"
            },
            {
              "internalType": "string",
              "name": "federalUnit",
              "type": "string"
            },
            {
              "internalType": "string",
              "name": "county",
              "type": "string"
            },
            {
              "internalType": "string",
              "name": "vehiclePlate",
              "type": "string"
            },
            {
              "internalType": "string",
              "name": "year",
              "type": "string"
            },
            {
              "internalType": "uint256",
              "name": "startDate",
              "type": "uint256"
            },
            {
              "internalType": "uint256",
              "name": "endDate",
              "type": "uint256"
            }
          ],
          "internalType": "struct IBaseContract.VehicleOwnershipRecord",
          "name": "",
          "type": "tuple"
        }
      ],
      "stateMutability": "view",
      "type": "function"
    },
    {
      "inputs": [
        {
          "internalType": "uint256",
          "name": "requestId",
          "type": "uint256"
        }
      ],
      "name": "getVehicleRequestById",
      "outputs": [
        {
          "components": [
            {
              "internalType": "address",
              "name": "requester",
              "type": "address"
            },
            {
              "internalType": "address",
              "name": "agent",
              "type": "address"
            },
            {
              "internalType": "string",
              "name": "vehicleRegistrationCode",
              "type": "string"
            },
            {
              "components": [
                {
                  "internalType": "string",
                  "name": "carBrand",
                  "type": "string"
                },
                {
                  "internalType": "string",
                  "name": "carModel",
                  "type": "string"
                },
                {
                  "internalType": "uint256",
                  "name": "manufacturingDate",
                  "type": "uint256"
                },
                {
                  "internalType": "uint256[]",
                  "name": "vehicleOwnershipRecordIds",
                  "type": "uint256[]"
                }
              ],
              "internalType": "struct IBaseContract.VehicleRequestData",
              "name": "vehicleData",
              "type": "tuple"
            },
            {
              "internalType": "enum IBaseContract.Status",
              "name": "status",
              "type": "uint8"
            },
            {
              "internalType": "uint256",
              "name": "createdAt",
              "type": "uint256"
            },
            {
              "internalType": "uint256",
              "name": "updatedAt",
              "type": "uint256"
            }
          ],
          "internalType": "struct IBaseContract.VehicleRequest",
          "name": "",
          "type": "tuple"
        }
      ],
      "stateMutability": "view",
      "type": "function"
    },
    {
      "inputs": [
        {
          "internalType": "uint256",
          "name": "serviceId",
          "type": "uint256"
        }
      ],
      "name": "getVehicleServiceRecordById",
      "outputs": [
        {
          "components": [
            {
              "internalType": "address",
              "name": "requester",
              "type": "address"
            },
            {
              "internalType": "uint256",
              "name": "tokenId",
              "type": "uint256"
            },
            {
              "internalType": "string",
              "name": "title",
              "type": "string"
            },
            {
              "internalType": "string",
              "name": "description",
              "type": "string"
            },
            {
              "internalType": "uint256",
              "name": "price",
              "type": "uint256"
            },
            {
              "internalType": "uint256",
              "name": "date",
              "type": "uint256"
            },
            {
              "internalType": "uint256",
              "name": "createdAt",
              "type": "uint256"
            }
          ],
          "internalType": "struct IBaseContract.VehicleServiceRecord",
          "name": "",
          "type": "tuple"
        }
      ],
      "stateMutability": "view",
      "type": "function"
    },
    {
      "inputs": [
        {
          "internalType": "uint256",
          "name": "tokenId",
          "type": "uint256"
        }
      ],
      "name": "getVehicleServiceRecordIdsByTokenId",
      "outputs": [
        {
          "internalType": "uint256[]",
          "name": "",
          "type": "uint256[]"
        }
      ],
      "stateMutability": "view",
      "type": "function"
    },
    {
      "inputs": [
        {
          "internalType": "uint256",
          "name": "tokenId",
          "type": "uint256"
        },
        {
          "internalType": "address",
          "name": "toAddress",
          "type": "address"
        },
        {
          "internalType": "uint256",
          "name": "expirationDate",
          "type": "uint256"
        }
      ],
      "name": "giveVehicleAccessByTokenId",
      "outputs": [],
      "stateMutability": "nonpayable",
      "type": "function"
    },
    {
      "inputs": [
        {
          "internalType": "uint256",
          "name": "tokenId",
          "type": "uint256"
        },
        {
          "internalType": "uint256",
          "name": "insuranceId",
          "type": "uint256"
        },
        {
          "internalType": "uint256",
          "name": "accidentId",
          "type": "uint256"
        },
        {
          "internalType": "string",
          "name": "title",
          "type": "string"
        },
        {
          "internalType": "string",
          "name": "description",
          "type": "string"
        },
        {
          "internalType": "uint256",
          "name": "price",
          "type": "uint256"
        },
        {
          "internalType": "uint256",
          "name": "date",
          "type": "uint256"
        }
      ],
      "name": "insurerAddVehicleServiceRecord",
      "outputs": [],
      "stateMutability": "nonpayable",
      "type": "function"
    },
    {
      "inputs": [
        {
          "internalType": "address",
          "name": "insurerAddress",
          "type": "address"
        }
      ],
      "name": "insurerDeactivation",
      "outputs": [],
      "stateMutability": "nonpayable",
      "type": "function"
    },
    {
      "inputs": [
        {
          "internalType": "address",
          "name": "insurerAddress",
          "type": "address"
        }
      ],
      "name": "insurerRegistration",
      "outputs": [],
      "stateMutability": "nonpayable",
      "type": "function"
    },
    {
      "inputs": [
        {
          "internalType": "address",
          "name": "owner",
          "type": "address"
        },
        {
          "internalType": "address",
          "name": "operator",
          "type": "address"
        }
      ],
      "name": "isApprovedForAll",
      "outputs": [
        {
          "internalType": "bool",
          "name": "",
          "type": "bool"
        }
      ],
      "stateMutability": "view",
      "type": "function"
    },
    {
      "inputs": [
        {
          "internalType": "uint256",
          "name": "tokenId",
          "type": "uint256"
        }
      ],
      "name": "listAccessByTokenId",
      "outputs": [
        {
          "internalType": "address[]",
          "name": "",
          "type": "address[]"
        }
      ],
      "stateMutability": "view",
      "type": "function"
    },
    {
      "inputs": [],
      "name": "listAgents",
      "outputs": [
        {
          "internalType": "address[]",
          "name": "",
          "type": "address[]"
        }
      ],
      "stateMutability": "view",
      "type": "function"
    },
    {
      "inputs": [],
      "name": "listApprovalsIds",
      "outputs": [
        {
          "internalType": "uint256[]",
          "name": "",
          "type": "uint256[]"
        }
      ],
      "stateMutability": "view",
      "type": "function"
    },
    {
      "inputs": [],
      "name": "listInsurers",
      "outputs": [
        {
          "internalType": "address[]",
          "name": "",
          "type": "address[]"
        }
      ],
      "stateMutability": "view",
      "type": "function"
    },
    {
      "inputs": [],
      "name": "listUserVehicleRequestsIds",
      "outputs": [
        {
          "internalType": "uint256[]",
          "name": "",
          "type": "uint256[]"
        }
      ],
      "stateMutability": "view",
      "type": "function"
    },
    {
      "inputs": [],
      "name": "listVehicleRequestsIds",
      "outputs": [
        {
          "internalType": "uint256[]",
          "name": "",
          "type": "uint256[]"
        }
      ],
      "stateMutability": "view",
      "type": "function"
    },
    {
      "inputs": [],
      "name": "name",
      "outputs": [
        {
          "internalType": "string",
          "name": "",
          "type": "string"
        }
      ],
      "stateMutability": "view",
      "type": "function"
    },
    {
      "inputs": [],
      "name": "owner",
      "outputs": [
        {
          "internalType": "address",
          "name": "",
          "type": "address"
        }
      ],
      "stateMutability": "view",
      "type": "function"
    },
    {
      "inputs": [
        {
          "internalType": "uint256",
          "name": "tokenId",
          "type": "uint256"
        }
      ],
      "name": "ownerOf",
      "outputs": [
        {
          "internalType": "address",
          "name": "",
          "type": "address"
        }
      ],
      "stateMutability": "view",
      "type": "function"
    },
    {
      "inputs": [
        {
          "internalType": "uint256",
          "name": "tokenId",
          "type": "uint256"
        },
        {
          "internalType": "uint256",
          "name": "insuranceId",
          "type": "uint256"
        },
        {
          "internalType": "string",
          "name": "description",
          "type": "string"
        },
        {
          "internalType": "uint256",
          "name": "accidentDate",
          "type": "uint256"
        }
      ],
      "name": "registerVehicleAccidentRecord",
      "outputs": [],
      "stateMutability": "nonpayable",
      "type": "function"
    },
    {
      "inputs": [],
      "name": "renounceOwnership",
      "outputs": [],
      "stateMutability": "nonpayable",
      "type": "function"
    },
    {
      "inputs": [
        {
          "internalType": "uint256",
          "name": "tokenId",
          "type": "uint256"
        },
        {
          "internalType": "address",
          "name": "toAddress",
          "type": "address"
        }
      ],
      "name": "revokeVehicleAccessByTokenId",
      "outputs": [],
      "stateMutability": "nonpayable",
      "type": "function"
    },
    {
      "inputs": [
        {
          "internalType": "address",
          "name": "from",
          "type": "address"
        },
        {
          "internalType": "address",
          "name": "to",
          "type": "address"
        },
        {
          "internalType": "uint256",
          "name": "tokenId",
          "type": "uint256"
        }
      ],
      "name": "safeTransferFrom",
      "outputs": [],
      "stateMutability": "nonpayable",
      "type": "function"
    },
    {
      "inputs": [
        {
          "internalType": "address",
          "name": "from",
          "type": "address"
        },
        {
          "internalType": "address",
          "name": "to",
          "type": "address"
        },
        {
          "internalType": "uint256",
          "name": "tokenId",
          "type": "uint256"
        },
        {
          "internalType": "bytes",
          "name": "data",
          "type": "bytes"
        }
      ],
      "name": "safeTransferFrom",
      "outputs": [],
      "stateMutability": "nonpayable",
      "type": "function"
    },
    {
      "inputs": [
        {
          "internalType": "address",
          "name": "operator",
          "type": "address"
        },
        {
          "internalType": "bool",
          "name": "approved",
          "type": "bool"
        }
      ],
      "name": "setApprovalForAll",
      "outputs": [],
      "stateMutability": "nonpayable",
      "type": "function"
    },
    {
      "inputs": [
        {
          "internalType": "bytes4",
          "name": "interfaceId",
          "type": "bytes4"
        }
      ],
      "name": "supportsInterface",
      "outputs": [
        {
          "internalType": "bool",
          "name": "",
          "type": "bool"
        }
      ],
      "stateMutability": "view",
      "type": "function"
    },
    {
      "inputs": [],
      "name": "symbol",
      "outputs": [
        {
          "internalType": "string",
          "name": "",
          "type": "string"
        }
      ],
      "stateMutability": "view",
      "type": "function"
    },
    {
      "inputs": [
        {
          "internalType": "uint256",
          "name": "tokenId",
          "type": "uint256"
        }
      ],
      "name": "tokenURI",
      "outputs": [
        {
          "internalType": "string",
          "name": "",
          "type": "string"
        }
      ],
      "stateMutability": "view",
      "type": "function"
    },
    {
      "inputs": [
        {
          "internalType": "address",
          "name": "from",
          "type": "address"
        },
        {
          "internalType": "address",
          "name": "to",
          "type": "address"
        },
        {
          "internalType": "uint256",
          "name": "tokenId",
          "type": "uint256"
        }
      ],
      "name": "transferFrom",
      "outputs": [],
      "stateMutability": "nonpayable",
      "type": "function"
    },
    {
      "inputs": [
        {
          "internalType": "address",
          "name": "newOwner",
          "type": "address"
        }
      ],
      "name": "transferOwnership",
      "outputs": [],
      "stateMutability": "nonpayable",
      "type": "function"
    },
    {
      "inputs": [
        {
          "internalType": "string",
          "name": "driverLicenseCode",
          "type": "string"
        }
      ],
      "name": "userRegistration",
      "outputs": [],
      "stateMutability": "nonpayable",
      "type": "function"
    }
  ],
  "bytecode": "0x6080604052346200002657620000146200002b565b6040516154f46200054282396154f490f35b600080fd5b6200003562000037565b565b62000035620000356200003562000035620000356200003562000035620000356200003562000035620000356200003562000035620000356200003562000035620000356200003562000035620000356200003562000035620000356200003562000178565b634e487b7160e01b600052604160045260246000fd5b90601f01601f191681019081106001600160401b03821117620000d557604052565b6200009d565b9062000035620000ea60405190565b9283620000b3565b6001600160401b038111620000d557602090601f01601f19160190565b90620001256200011f83620000f2565b620000db565b918252565b6200013660036200010f565b6213919560ea1b602082015290565b6200014f6200012a565b90565b6200015e60046200010f565b631593919560e21b602082015290565b6200014f62000152565b620001976200018662000145565b620001906200016e565b90620001a3565b62000035602062000511565b620000359182918291829182918291620001be9190620003e4565b620000353362000474565b634e487b7160e01b600052602260045260246000fd5b906001600283049216801562000202575b6020831014620001fc57565b620001c9565b91607f1691620001f0565b9160001960089290920291821b911b5b9181191691161790565b6200014f6200014f6200014f9290565b91906200024c6200014f620002559362000227565b9083546200020d565b9055565b620000359160009162000237565b81811062000273575050565b8062000283600060019362000259565b0162000267565b9190601f81116200029a57505050565b620002ae6200003593600052602060002090565b906020601f840181900483019310620002d2575b6020601f90910104019062000267565b9091508190620002c2565b9060001960089091021c191690565b81620002f891620002dd565b906002021790565b906200030a815190565b906001600160401b038211620000d55762000332826200032b8554620001df565b856200028a565b602090601f831160011462000365576200025592916000918362000359575b5050620002ec565b01519050388062000351565b601f198316916200037b85600052602060002090565b9260005b818110620003bf57509160029391856001969410620003a2575b50505002019055565b620003b4910151601f841690620002dd565b905538808062000399565b919360206001819287870151815501950192016200037f565b90620000359162000300565b90620003f662000035926019620003d8565b601a620003d8565b6200014f905b6001600160a01b031690565b6200014f9054620003fe565b906001600160a01b03906200021d565b6200014f9062000404906001600160a01b031682565b6200014f906200042c565b6200014f9062000442565b906200046c6200014f62000255926200044d565b82546200041c565b62000480601f62000410565b906200048e81601f62000458565b620004c5620004be7f8be0079c531659141344cd1fd0a4f28419497f9722a3daafe3b4186f6b6457e0936200044d565b916200044d565b91620004d060405190565b600090a3565b6200014f9081565b6200014f9054620004d6565b90600019906200021d565b90620005096200014f620002559262000227565b8254620004ea565b62000035906200053a600062000528600162000227565b9201916200053683620004de565b0190565b90620004f556fe6080604052600436101561001257600080fd5b60003560e01c806301664486146103e257806301ffc9a7146103dd57806306fdde03146103d8578063081812fc146103d3578063095ea7b3146103ce5780631114cd57146103c95780631499f40b146103c457806314a5189a146103bf57806315acca77146103ba5780631a971303146103b557806323b872dd146103b05780632b6c64be146103ab5780632e5d81fb146103a657806331a3e0c9146103a1578063333f00401461039c57806342842e0e14610397578063492af106146103925780634c7525da1461038d57806355855ddc14610388578063558df3d3146103835780635bfe19b51461037e5780636352211e1461037957806363d1b1b91461037457806366a473fe1461036f57806368684d081461036a5780636f04401d1461036557806370a082311461036057806370e37a641461035b578063715018a61461035657806371f46bbb1461035157806372ea011c1461034c57806378301afd146103475780637ae3cae3146103425780637d6acdf41461033d5780637db3b2ff14610338578063845c9cbb146103335780638b523d0b1461032e5780638da5cb5b146103295780638f60d40b1461032457806395d89b411461031f57806396678e9e1461031a5780639776f17e1461031557806399326622146103105780639d51b26f1461030b578063a130d9fc14610306578063a16c03be14610301578063a22cb465146102fc578063a563efb4146102f7578063b88d4fde146102f2578063baf0438f146102ed578063bc6f4be6146102e8578063c69b400a146102e3578063c6c1b356146102de578063c87b56dd146102d9578063cf6713d0146102d4578063d6cd4a02146102cf578063d7d38508146102ca578063e125e202146102c5578063e985e9c5146102c0578063f2fde38b146102bb5763f4f297a7036103f057611829565b611811565b6117f5565b6117b4565b611727565b61170c565b6116f4565b6116d9565b6116be565b611697565b6115c7565b6115ac565b611590565b611526565b61150d565b6114ba565b61149f565b611478565b6113f1565b6113c9565b611372565b611357565b611338565b611294565b61127c565b611261565b611246565b61122d565b611205565b61114f565b611103565b611085565b61106d565b611052565b611027565b61100f565b610fe8565b610f74565b610f59565b610f3e565b610f23565b610f0a565b610eca565b610e38565b610deb565b610dd2565b610db6565b610d2a565b610b0d565b610a88565b6109c5565b610979565b61084d565b61081e565b6107f7565b61066c565b6105ec565b6105a2565b61054e565b6104a9565b61044c565b805b036103f057565b600080fd5b90503590610402826103e7565b565b6001600160a01b031690565b90565b6103e981610404565b9050359061040282610413565b91906040838203126103f0576104109061044381856103f5565b9360200161041c565b346103f05761046561045f366004610429565b90615048565b604051005b0390f35b6001600160e01b03191690565b6103e98161046e565b905035906104028261047b565b906020828203126103f05761041091610484565b9052565b346103f05761046a6104c46104bf366004610491565b611a5e565b6040515b91829182901515815260200190565b60009103126103f057565b60005b8381106104f55750506000910152565b81810151838201526020016104e5565b61052661052f6020936105399361051a815190565b80835293849260200190565b958691016104e2565b601f01601f191690565b0190565b602080825261041092910190610505565b346103f05761055e3660046104d7565b61046a610569611ce5565b6040519182918261053d565b906020828203126103f057610410916103f5565b6104a590610404565b6020810192916104029190610589565b346103f05761046a6105bd6105b8366004610575565b611f0a565b60405191829182610592565b91906040838203126103f057610410906105e3818561041c565b936020016103f5565b346103f0576104656105ff3660046105c9565b90611e9a565b9061062561061e610614845190565b8084529260200190565b9260200190565b9060005b8181106106365750505090565b90919261065361064c6001928651815260200190565b9460200190565b929101610629565b602080825261041092910190610605565b346103f05761067c3660046104d7565b61046a6106876140ea565b6040519182918261065b565b906106a261061e610614845190565b9060005b8181106106b35750505090565b9091926106c961064c6001928651815260200190565b9291016106a6565b805160808084526104109391606091610702916106f091850190610505565b60208501518482036020860152610505565b9261071260408201516040850152565b0151906060818403910152610693565b634e487b7160e01b600052602160045260246000fd5b6004111561074257565b610722565b9061040282610738565b61041090610747565b6104a590610751565b906104109060c0806107bd6107ab60e0850161078760008901516000880190610589565b61079960208901516020880190610589565b60408801518682036040880152610505565b606087015185820360608701526106d1565b946107d06080820151608086019061075a565b6107df60a082015160a0860152565b0151910152565b602080825261041092910190610763565b346103f05761046a61081261080d366004610575565b6140ab565b604051918291826107e6565b346103f05761082e3660046104d7565b61046a610687614093565b906020828203126103f0576104109161041c565b346103f05761046a610569610863366004610839565b613e69565b634e487b7160e01b600052604160045260246000fd5b90601f01601f191681019081106001600160401b0382111761089f57604052565b610868565b906104026108b160405190565b928361087e565b6001600160401b03811161089f57602090601f01601f19160190565b90826000939282370152565b909291926108f56108f0826108b8565b6108a4565b938185526020850190828401116103f057610402926108d4565b9080601f830112156103f057816020610410933591016108e0565b6080818303126103f05761093e82826103f5565b9261094c83602084016103f5565b926040830135906001600160401b0382116103f0576109708161041093860161090f565b936060016103f5565b346103f05761046561098c36600461092a565b929190916137e6565b90916060828403126103f0576104106109ae848461041c565b936109bc816020860161041c565b936040016103f5565b346103f0576104656109d8366004610995565b91611fc3565b906104109061010080610a67610a466101208501610a0460008901516000880190610589565b610a1660208901516020880190610589565b610a2560408901516040880152565b610a3460608901516060880152565b60808801518682036080880152610505565b610a5560a088015160a0870152565b60c087015185820360c0870152610693565b946107df60e082015160e0860152565b6020808252610410929101906109de565b346103f05761046a610aa3610a9e366004610575565b614baf565b60405191829182610a77565b919060a0838203126103f057610ac581846103f5565b92610ad382602083016103f5565b92604091610ae3848483016103f5565b93610af181606084016103f5565b936001806080850135921b0381116103f057610410920161090f565b346103f057610465610b20366004610aaf565b93929092613537565b6001600160401b03811161089f5760208091020190565b91909160e0818403126103f057610b5760e06108a4565b9281356001600160401b0381116103f05781610b7491840161090f565b845260208201356001600160401b0381116103f05781610b9591840161090f565b602085015260408201356001600160401b0381116103f05781610bb991840161090f565b604085015260608201356001600160401b0381116103f05781610bdd91840161090f565b60608501526080820135906001600160401b0382116103f057610c0581610c2693850161090f565b608086015260a0610c18828286016103f5565b9086015260c08093016103f5565b90830152565b929190610c3b6108f082610b29565b93818552602080860192028101918383116103f05781905b838210610c61575050505050565b81356001600160401b0381116103f057602091610c818784938701610b40565b815201910190610c53565b9080601f830112156103f05781602061041093359101610c2c565b91909160a0818403126103f057610cbe83826103f5565b9260208201356001600160401b0381116103f05781610cde91840161090f565b9260408301356001600160401b0381116103f05782610cfe91850161090f565b92610d0c83606083016103f5565b9260808201356001600160401b0381116103f0576104109201610c8c565b346103f057610465610d3d366004610ca7565b93929092613169565b919060a0838203126103f057610d5c81846103f5565b9260208101356001600160401b0381116103f05782610d7c91830161090f565b9260408201356001600160401b0381116103f057610d9f8461041092850161090f565b93610dad81606086016103f5565b936080016103f5565b346103f057610465610dc9366004610d46565b93929092615002565b346103f057610465610de5366004610995565b91611fe0565b346103f057610465610dfe366004610839565b61345a565b9190916040818403126103f057610e1a838261041c565b9260208201356001600160401b0381116103f057610410920161090f565b346103f057610465610e4b366004610e03565b9061406e565b906104109061010080610a67610eaa6101208501610e7760008901516000880190610589565b610e8960208901516020880190610589565b610e9860408901516040880152565b60608801518682036060880152610505565b610a4660808801516080870152565b602080825261041092910190610e51565b346103f05761046a610ee5610ee0366004610575565b614c54565b60405191829182610eb9565b90916060828403126103f0576104106109ae84846103f5565b346103f057610465610f1d366004610ef1565b91614111565b346103f05761046a610687610f39366004610575565b614adb565b346103f05761046a6105bd610f54366004610575565b611bc0565b346103f05761046a610687610f6f366004610575565b614bf4565b346103f05761046a610687610f8a366004610575565b61350e565b9061053981602093610589565b90610fab61061e610614845190565b9060005b818110610fbc5750505090565b909192610fcf61064c6001928651610f8f565b929101610faf565b602080825261041092910190610f9c565b346103f057610ff83660046104d7565b61046a611003613463565b60405191829182610fd7565b346103f057610465611022366004610839565b6129df565b346103f05761046a61104261103d366004610839565b611b3d565b6040519182918290815260200190565b346103f0576110623660046104d7565b61046a610687614fc2565b346103f05761107d3660046104d7565b610465611890565b346103f057610465611098366004610839565b613370565b906104109060c0806110e26110d060e085016110c160008901516000880190610589565b61079960208901516020880152565b60608701518582036060870152610505565b946107d060808201516080860152565b60208082526104109291019061109d565b346103f05761046a61111e611119366004610575565b614a91565b604051918291826110f2565b906020828203126103f05781356001600160401b0381116103f057610410920161090f565b346103f05761046561116236600461112a565b613d4f565b91906040838203126103f057610410906105e381856103f5565b906104109060c0806111e46111d2610e986111c06111ae60e0880160008b015189820360008b0152610505565b60208a015188820360208a0152610505565b60408901518782036040890152610505565b60808701518582036080870152610505565b946107df60a082015160a0860152565b602080825261041092910190611181565b346103f05761046a61122161121b366004611167565b9061499f565b604051918291826111f4565b346103f057610465611240366004610429565b90614257565b346103f0576112563660046104d7565b61046a610687612b0b565b346103f0576112713660046104d7565b61046a6106876134b9565b346103f05761046561128f366004610839565b6128ac565b346103f0576112a43660046104d7565b61046a6105bd61184e565b9160e0838303126103f0576112c482846103f5565b926112d283602083016103f5565b926040916112e2828483016103f5565b936060820135600180861b0381116103f0578361130091840161090f565b936001806080850135921b0381116103f0576113218461041092850161090f565b9361132f8160a086016103f5565b9360c0016103f5565b346103f05761046561134b3660046112af565b9594909493919361398a565b346103f0576113673660046104d7565b61046a610569611cef565b346103f05761046a611003611388366004610575565b614394565b80518252610402919060609081906113aa60208201516020860152565b6107df60408201516040860152565b608081019291610402919061138d565b346103f05761046a6113e56113df366004610429565b906143f8565b604051918291826113b9565b346103f0576114013660046104d7565b61046a610569613e42565b9060a0806104029361142660008201516000860190610589565b61143860208201516020860190610589565b61144760408201516040860152565b6114596060820151606086019061075a565b6107df60808201516080860152565b60c081019291610402919061140c565b346103f05761046a61149361148e366004610575565b61457b565b60405191829182611468565b346103f05761046a6106876114b5366004610575565b614602565b346103f05761046a6106876114d0366004610575565b61449e565b8015156103e9565b90503590610402826114d5565b91906040838203126103f05761041090611504818561041c565b936020016114dd565b346103f0576104656115203660046114ea565b90611f2f565b346103f05761046a61068761153c366004610575565b6149cf565b906080828203126103f057611556818361041c565b92611564826020850161041c565b92604092611574818584016103f5565b936001806060850135921b0381116103f057610410920161090f565b346103f0576104656115a3366004611541565b92919091611ff0565b346103f0576115bc3660046104d7565b61046a6106876134de565b346103f0576104656115da36600461112a565b613e0d565b906104109061012080611662610140840161160260008801516000870190610589565b61161460208801516020870190610589565b61162360408801516040870152565b61163260608801516060870152565b61164160808801516080870152565b61165060a088015160a0870152565b60c087015185820360c0870152610505565b9461167560e082015160e086019061075a565b6107df610100820151610100860152565b6020808252610410929101906115df565b346103f05761046a6116b26116ad366004610575565b614733565b60405191829182611686565b346103f0576116ce3660046104d7565b61046a610687613488565b346103f05761046a6105696116ef366004610575565b611d5f565b346103f057610465611707366004610575565b614d05565b346103f05761171c3660046104d7565b61046a611003612a6a565b610465611735366004610575565b615275565b61041091608061178361177161175f60a0850160008701518682036000880152610505565b60208601518582036020870152610505565b60408501518482036040860152610505565b9261179360608201516060850152565b0151906080818403910152610693565b60208082526104109291019061173a565b346103f05761046a6117cf6117ca366004610575565b614873565b604051918291826117a3565b91906040838203126103f05761041090610443818561041c565b346103f05761046a6104c461180b3660046117db565b90611f3a565b346103f057610465611824366004610839565b6119a4565b346103f05761046a61081261183f366004610575565b612d14565b6104109054610404565b610410601f611844565b6118606118ec565b61040261187e565b6104046104106104109290565b61041090611868565b61040261188b6000611875565b611a03565b610402611858565b1561189f57565b60405162461bcd60e51b8152806118e8600482016020808252818101527f4f776e61626c653a2063616c6c6572206973206e6f7420746865206f776e6572604082015260600190565b0390fd5b6104026118f761184e565b61190e61190833610404565b610404565b91610404565b14611898565b610402906119206118ec565b611980565b1561192c57565b60405162461bcd60e51b815260206004820152602660248201527f4f776e61626c653a206e6577206f776e657220697320746865207a65726f206160448201526564647265737360d01b6064820152608490fd5b6104029061188b6119946119036000611875565b61199d83610404565b1415611925565b61040290611914565b906001600160a01b03905b9181191691161790565b61041090610404906001600160a01b031682565b610410906119c2565b610410906119d6565b906119f86104106119ff926119df565b82546119ad565b9055565b611a0d601f611844565b90611a1981601f6119e8565b611a4c611a467f8be0079c531659141344cd1fd0a4f28419497f9722a3daafe3b4186f6b6457e0936119df565b916119df565b91611a5660405190565b80805b0390a3565b611a6e6380ac58cd60e01b61046e565b611a778261046e565b14908115611a94575b8115611a8a575090565b61041091506126e6565b9050611aa6635b5e139f60e01b61046e565b611aaf8261046e565b1490611a80565b15611abd57565b60405162461bcd60e51b815260206004820152602960248201527f4552433732313a2061646472657373207a65726f206973206e6f7420612076616044820152683634b21037bbb732b960b91b6064820152608490fd5b90611b1e906119df565b600052602052604060002090565b6104109081565b6104109054611b2c565b611b7461041091611b4c600090565b50611b6d611b5d6119036000611875565b611b6683610404565b1415611ab6565b601c611b14565b611b33565b15611b8057565b60405162461bcd60e51b8152602060048201526018602482015277115490cdcc8c4e881a5b9d985b1a59081d1bdad95b88125160421b6044820152606490fd5b611bcd9060005b50612090565b610410611bdd6119036000611875565b611be683610404565b1415611b79565b634e487b7160e01b600052602260045260246000fd5b9060016002830492168015611c23575b6020831014611c1e57565b611bed565b91607f1691611c13565b80546000939291611c4a611c4083611c03565b8085529360200190565b9160018116908115611c9c5750600114611c6357505050565b611c769192939450600052602060002090565b916000925b818410611c885750500190565b805484840152602090930192600101611c7b565b92949550505060ff1916825215156020020190565b9061041091611c2d565b90610402611cd592611ccc60405190565b93848092611cb1565b038361087e565b61041090611cbb565b6104106019611cdc565b610410601a611cdc565b6104106104106104109290565b90611d136108f0836108b8565b918252565b6104106000611d06565b610410611d18565b610539611d4292602092611d3c815190565b94859290565b938491016104e2565b611d59906104109392611d2a565b90611d2a565b611d688161244f565b611d70611dca565b8051611d83611d7f6000611cf9565b9190565b1115611dc057610410611db491611d9c6104109461265a565b90611da660405190565b938492602084019283611d4b565b9081038252038261087e565b5050610410611d22565b610410611d22565b15611dd957565b60405162461bcd60e51b815260206004820152602160248201527f4552433732313a20617070726f76616c20746f2063757272656e74206f776e656044820152603960f91b6064820152608490fd5b15611e2f57565b60405162461bcd60e51b815260206004820152603d60248201527f4552433732313a20617070726f76652063616c6c6572206973206e6f7420746f60448201527f6b656e206f776e6572206f7220617070726f76656420666f7220616c6c0000006064820152608490fd5b9061040291611eea611eab83611bc0565b611ec7611eb782610404565b611ec085610404565b1415611dd2565b33611ed182610404565b611eda82610404565b14918215611eef575b5050611e28565b612329565b611ef99250611f3a565b3880611ee3565b90611b1e90611cf9565b611f2a61041091611f19600090565b50611f238161244f565b601d611f00565b611844565b6104029190336123db565b61041091611f55611f5a92611f4d600090565b50601e611b14565b611b14565b5460ff1690565b15611f6857565b60405162461bcd60e51b815260206004820152602d60248201527f4552433732313a2063616c6c6572206973206e6f7420746f6b656e206f776e6560448201526c1c881bdc88185c1c1c9bdd9959609a1b6064820152608490fd5b610402929190611fdb611fd684336120a7565b611f61565b612219565b909161040292611fee611d22565b925b61040293929190612004611fd684336120a7565b612071565b1561201057565b6040515b62461bcd60e51b815260206004820152603260248201527f4552433732313a207472616e7366657220746f206e6f6e20455243373231526560448201527131b2b4bb32b91034b6b83632b6b2b73a32b960711b6064820152608490fd5b91610402939161208b93612086838383612219565b6124fe565b612009565b611f2a6104109161209f600090565b50601b611f00565b6120b082611bc0565b916120ba83610404565b6120c383610404565b149283156120f4575b5082156120d857505090565b6120f09192506120ea61190891611f0a565b92610404565b1490565b6121019193508290611f3a565b91386120cc565b1561210f57565b60405162461bcd60e51b815260206004820152602560248201527f4552433732313a207472616e736665722066726f6d20696e636f72726563742060448201526437bbb732b960d91b6064820152608490fd5b1561216957565b60405162461bcd60e51b8152602060048201526024808201527f4552433732313a207472616e7366657220746f20746865207a65726f206164646044820152637265737360e01b6064820152608490fd5b916001600160a01b0360089290920291821b911b6119b8565b91906121e46104106119ff936119df565b9083546121ba565b610402916000916121d3565b90600019906119b8565b906122126104106119ff92611cf9565b82546121f8565b919061223961222783611bc0565b61223361190886610404565b14612108565b612285600061225d61224d61190383611875565b61225685610404565b1415612162565b61227561226985611bc0565b61223361190888610404565b61228084601d611f00565b6121ec565b6122c96122926001611cf9565b6122b96122bf84601c611f556122a88a83611b14565b6122b9876122b583611b33565b0390565b90612202565b9161053983611b33565b6122dd816122d884601b611f00565b6119e8565b61231961231361230d7fddf252ad1be2c89b69c2b068fc378daa952ba7f163c4a11628f55a4df523b3ef956119df565b926119df565b92611cf9565b9261232360405190565b600090a4565b90612339826122d883601d611f00565b61234281611bc0565b9161231961231361230d7f8c5be1e5ebec7d5bd14f71427d1e84f3dd0314c0f7b2291e5b200ac8c7c3b925956119df565b1561237a57565b60405162461bcd60e51b815260206004820152601960248201527822a9219b99189d1030b8383937bb32903a379031b0b63632b960391b6044820152606490fd5b9060ff906119b8565b906123d46104106119ff92151590565b82546123bb565b6123f76123e783610404565b6123f083610404565b1415612373565b61240f8361240a84611f5585601e611b14565b6123c4565b611a5961244561243f7f17307eab39ab6107e8899845ad3d59bd9653f200f220920489ca2b5937696c31936119df565b936119df565b936104c860405190565b61245b61040291612460565b611b79565b61246b906000611bc7565b61247b6119086119036000611875565b141590565b905051906104028261047b565b906020828203126103f05761041091612480565b90926124d2906124cb61041096946124c160808601976000870190610589565b6020850190610589565b6040830152565b6060818403910152610505565b3d156124f9576124ee3d611d06565b903d6000602084013e565b606090565b9190939261250a600090565b94612514816125fb565b156125f1579061255b600061253361252e602096956119df565b6119df565b9261256663150b7a02916125443390565b9661254e60405190565b998a988997889660e01b90565b8652600486016124a1565b03925af1600091816125c1575b506125a557506125816124df565b8051612590611d7f6000611cf9565b0361259d57604051612014565b805190602001fd5b9091506120f06125bb630a85bd0160e11b61046e565b9161046e565b6125e391925060203d81116125ea575b6125db818361087e565b81019061248d565b9038612573565b503d6125d1565b5060019450505050565b3b612609611d7f6000611cf9565b1190565b369037565b9061040261262861262284611d06565b936108b8565b601f19016020840161260d565b634e487b7160e01b600052601260045260246000fd5b8115612655570490565b612635565b612663816126f9565b9061267360019261053984611cf9565b918061267e84612612565b936020018401905b612691575b50505090565b6126c59060001901926f181899199a1a9b1b9c1cb0b131b232b360811b600a82061a84536126bf600a611cf9565b9061264b565b90816126d4611d7f6000611cf9565b146126e157909181612686565b61268b565b6120f06125bb6301ffc9a760e01b61046e565b6127036000611cf9565b9072184f03e93ff9f4daa797ed6e38ed64bf6a1f0160401b61272481611cf9565b821015612875575b506904ee2d6d415b85acef8160201b61274481611cf9565b821015612853575b50662386f26fc1000061275e81611cf9565b821015612831575b506305f5e10061277581611cf9565b82101561280f575b5061271061278a81611cf9565b8210156127ed575b50606461279e81611cf9565b8210156127cb575b506127b4611d7f600a611cf9565b10156127bd5790565b610410906105396001611cf9565b6127e6916126bf6127db92611cf9565b916105396002611cf9565b90386127a6565b612808916126bf6127fd92611cf9565b916105396004611cf9565b9038612792565b61282a916126bf61281f92611cf9565b916105396008611cf9565b903861277d565b61284c916126bf61284192611cf9565b916105396010611cf9565b9038612766565b61286e916126bf61286392611cf9565b916105396020611cf9565b903861274c565b612890916126bf61288592611cf9565b916105396040611cf9565b903861272c565b610402906128a36118ec565b61040290612923565b61040290612897565b156103f057565b634e487b7160e01b600052603260045260246000fd5b80548210156128f5576128ec600191600052602060002090565b91020190600090565b6128bc565b80549190600160401b83101561089f578261291d916001610402950181556128d2565b906121d3565b61040290612946612933826131f2565b61293f60015b91151590565b14156128b5565b61297361296b60056129668461296161295d845490565b9390565b6128fa565b611cf9565b916008611b14565b612202565b610402906129846118ec565b610402906129736008916129d961299e611b748386611b14565b6129b76000916129b0611d7f84611cf9565b12156128b5565b6129d36129ca612966611b748689611b14565b60055b906132c6565b19611cf9565b92611b14565b61040290612978565b90612a036129f7610614845490565b92600052602060002090565b9060005b818110612a145750505090565b909192612a35612a2e600192612a2987611844565b610f8f565b9460010190565b929101612a07565b90610410916129e8565b90610402611cd592612a5860405190565b93848092612a3d565b61041090612a47565b6104106005612a61565b61041090612a80612b15565b612af7565b90612a946129f7610614845490565b9060005b818110612aa55750505090565b909192612ac2612a2e600192612aba87611b33565b815260200190565b929101612a98565b9061041091612a85565b90610402611cd592612ae560405190565b93848092612aca565b61041090612ad4565b50610410612b0633600b611b14565b612aee565b6104106060612a74565b610402612b21336131f2565b6128b5565b61041060e06108a4565b61041060806108a4565b612b42612b30565b90606082526020808080850160605b81520160008152016060905250565b610410612b3a565b612b70612b26565b90600082526020808080808080880160008152016060815201612b91612b60565b81520160005b81520160008152016000905250565b610410612b68565b9061041091612bbb612b15565b9061041091612bc982612d25565b612cfe565b80548210156128f5576128ec600a91600052602060002090565b906104a590610404565b90610402612c466003612c03612b30565b94612c14612c1082611cbb565b8752565b612c2a612c2360018301611cbb565b6020880152565b612c40612c3960028301611b33565b6040880152565b01612ad4565b6060840152565b906104a590610747565b90610402612cee6009612c68612b26565b94612c7b612c7582611844565b87612be8565b612c93612c8a60018301611844565b60208801612be8565b612ca2612c3960028301611cbb565b612cb8612cb160038301612bf2565b6060880152565b612cd2612cc9600783015460ff1690565b60808801612c4d565b612ce8612ce160088301611b33565b60a0880152565b01611b33565b60c0840152565b61041090612c57565b61041091612d0e91506000612bce565b50612cf5565b61041090612d20612ba6565b612bae565b612d3f6001612d38610402936000612bce565b5001611844565b612d4b61190833610404565b146128b5565b9061040294939291612d61612b15565b9061040294939291612d72816131aa565b9061040294939291612d8381612d25565b613040565b634e487b7160e01b600052600060045260246000fd5b9160001960089290920291821b911b6119b8565b9190612dc36104106119ff93611cf9565b908354612d9e565b61040291600091612db2565b818110612de2575050565b80612df06000600193612dcb565b01612dd7565b9190601f8111612e0557505050565b612e1761040293600052602060002090565b906020601f840181900483019310612e39575b6020601f909101040190612dd7565b9091508190612e2a565b9060001960089091021c191690565b81612e5c91612e43565b906002021790565b90612e6d815190565b906001600160401b03821161089f57612e9082612e8a8554611c03565b85612df6565b602090601f8311600114612ebe576119ff929160009183612eb3575b5050612e52565b015190503880612eac565b601f19831691612ed385600052602060002090565b9260005b818110612f1257509160029391856001969410612ef8575b50505002019055565b612f08910151601f841690612e43565b9055388080612eef565b91936020600181928787015181550195019201612ed7565b9061040291612e64565b634e487b7160e01b600052601160045260246000fd5b6000198114612f595760010190565b612f34565b90612f67825190565b8110156128f5576020809102010190565b906122b960c0600661040294612f9c60008201612f96600088015190565b90612f2a565b612fae60018201612f96602088015190565b612fc060028201612f96604088015190565b612fd260038201612f96606088015190565b612fe460048201612f96608088015190565b612ff6600582016122b960a088015190565b0192015190565b9061040291612f78565b80549190600160401b83101561089f578261302a916001610402950181556128d2565b90612db2565b906123d46104106119ff92610751565b909293949142916130596130518490565b875b106128b5565b61309a600096600261307261306e858b612bce565b5090565b94613094600387019161308b600384019b8d8501612f2a565b60018301612f2a565b01612202565b6130a386611cf9565b6130ae610410895190565b81101561312c57806130e789613053611d7f61041060c06130db876130e160a06130db6131279c8a612f5e565b51015190565b96612f5e565b61312260156130fe6130f882613176565b9161318b565b61311c61310b848d612f5e565b51613117836016611f00565b612ffd565b88613007565b612f4a565b6130a3565b50600993965061315b9192945061315661041061040297613150600d918701611844565b90611b14565b613007565b613094600160078301613030565b9061040294939291612d51565b600061041091613184600090565b5001611b33565b610402906122b9600061319e6001611cf9565b92019161053983611b33565b61040290612d4b6131d46131ce60076131c560009586612bce565b50015460ff1690565b92610747565b91610747565b610410916008021c610404565b9061041091546131da565b6008613201611b748383611b14565b600090613210611d7f83611cf9565b12801561324e575b61324857506119086120ea6132426120f09361323c612966611b7488600594611b14565b906128d2565b906131e7565b91505090565b5060055461325e611d7f83611cf9565b1115613218565b9190613270565b9290565b8203918211612f5957565b91908201809211612f5957565b634e487b7160e01b600052603160045260246000fd5b805480156132c15760001901906132be6132b883836128d2565b906121ec565b55565b613288565b6132da6132d4610410845490565b82613053565b81546132f46104106001926132ee84611cf9565b90613265565b82101561332f579061312261332061324261331a61331461332a96611cf9565b8561327b565b866128d2565b61291d83866128d2565b6132da565b50506104029061329e565b610402906133466118ec565b61040290613353816131f2565b61335d6001612939565b146133795761336b81612923565b613379565b6104029061333a565b61040290613389612933826133a8565b6129736133a060066129668461296161295d845490565b916009611b14565b60096133b7611b748383611b14565b6000906133c6611d7f83611cf9565b1280156133f2575b61324857506119086120ea6132426120f09361323c612966611b7488600694611b14565b50600654613402611d7f83611cf9565b11156133ce565b610402906134156118ec565b6104029061342f613425826133a8565b612d4b6001612939565b61297360099161344f613448612966611b748487611b14565b60066129cd565b6129d9600019611cf9565b61040290613409565b6104106006612a61565b61041090613479613492565b50610410612b0633600e611b14565b610410606061346d565b610402612b21336133a8565b610410906134aa613492565b50610410612b0633600f611b14565b610410606061349e565b610410906134cf613492565b50610410612b06336010611b14565b61041060606134c3565b90610410916134f5613492565b5061041090612b0690613509336018611b14565b611f00565b6104109060606134e8565b906104029493929161352a816137ac565b9061040294939291613676565b9061040294939291613519565b80548210156128f5576128ec600691600052602060002090565b6104106101406108a4565b6104109051610404565b6104109051610747565b61040291906122b990610120906009906135a08161359a87613569565b906119e8565b6135b36001820161359a60208801613569565b6135c5600282016122b9604088015190565b6135d7600382016122b9606088015190565b6135e9600482016122b9608088015190565b6135fb600582016122b960a088015190565b61360d60068201612f9660c088015190565b6136266007820161362060e08801613573565b90613030565b612ff6600882016122b961010088015190565b9190613648576104029161357d565b612d88565b80549190600160401b83101561089f578261367091600161040295018155612bce565b90613639565b90939190613685906001613544565b50926003840192613697845460ff1690565b906000916136a483610747565b906136ae90610747565b146136b8906128b5565b6136c38488106128b5565b6136ce868301611844565b9233946136da866119df565b986136e760028a01611b33565b429a6136f161355e565b976136fe90888a01612be8565b61370b9060208901612be8565b60408701526060860152608085015260a084015260c08301526137319060e08301612c4d565b61373d85610100830152565b61374985610120830152565b600291613754835490565b82819361375e8690565b906137689161364d565b60400151613777906012611f00565b9061378191613007565b61378c90600f611b14565b9061379691613007565b61379f91613030565b6005019061040291612202565b612d3f61040291612d3860019182613544565b906104029392916137cf826138c4565b6104029392916137de82611bc0565b903392613c9f565b906104029392916137bf565b80548210156128f5576128ec600991600052602060002090565b6104106101206108a4565b906104026138b3600861382861380c565b94613835612c7582611844565b613844612c8a60018301611844565b613853612c3960028301611b33565b613862612cb160038301611cbb565b61387861387160048301611b33565b6080880152565b613887612ce160058301611b33565b61389d61389660068301612ad4565b60c0880152565b612ce86138ac60078301611b33565b60e0880152565b610100840152565b61041090613817565b6138db6138d56104029260036137f2565b506138bb565b6138ea612d3f60208301613569565b608081015142908110159182613902575b50506128b5565b61391691925061326c60a0611d7f92015190565b101538806138fb565b90610402969594939291613932826138c4565b9261396a6104029760089788976139809461396261306e61395a61306e6130949b60266137f2565b9860036137f2565b983390613a4f565b6139778160068501613007565b60068501613007565b4294859101612202565b9061040296959493929161391f565b80548210156128f5576128ec600791600052602060002090565b61040291906122b99060c0906006906139cf8161359a87613569565b6139e1600182016122b9602088015190565b6139f360028201612f96604088015190565b613a0560038201612f96606088015190565b612fe4600482016122b9608088015190565b919061364857610402916139b3565b80549190600160401b83101561089f5782613a4991600161040295018155613999565b90613a17565b9390949192613a5c600090565b504293613a6a8585106128b5565b613a72612b26565b96613a7d9088612be8565b613a88866020890152565b60408701526060860152608085015260a084015260c0830152602290613aad82613176565b92613ab8849361318b565b613ac3906025613a26565b613ace90602a611f00565b9061041091613007565b90611d136108f083610b29565b90610402612628613af584613ad8565b93610b29565b818110613b06575050565b80613b146000600193612dcb565b01613afb565b9091828110613b2857505050565b6104029290613b36906129f7565b9081019101613afb565b90600160401b811161089f5781613b58610402935490565b90828155613b1a565b8151916001600160401b03831161089f57613b8b6129f7600192613b858686613b40565b60200190565b92049160005b838110613b9e5750505050565b6001906020613bae610410865190565b9401938184015501613b91565b9061040291613b61565b61040291906122b99061010090600890613be28161359a87613569565b613bf56001820161359a60208801613569565b613c07600282016122b9604088015190565b613c19600382016122b9606088015190565b613c2b60048201612f96608088015190565b613c3d600582016122b960a088015190565b613c5560068201613c4f60c088015190565b90613bbb565b612ff6600782016122b960e088015190565b91906136485761040291613bc5565b80549190600160401b83101561089f5782613c99916001610402950181556137f2565b90613c67565b92949293429391613cb18584106128b5565b600096613cbd88611cf9565b613cc690613ae5565b94613ccf61380c565b98890190613cdc91612be8565b613ce99060208901612be8565b613cf4866040890152565b6060870152608086015260a085015260c0840152613d138160e0850152565b610100830152602391613d2583613176565b92613d2f9061318b565b613d3a906026613c76565b613d4590602b611f00565b9061040291613007565b61040290613d8c33613d6361293382613d91565b613d85613d7a60046129668461296161295d845490565b612973836007611b14565b600a611b14565b612f2a565b6007613da0611b748383611b14565b600090613daf611d7f83611cf9565b128015613ddb575b61324857506119086120ea6132426120f09361323c612966611b7488600494611b14565b50600454613deb611d7f83611cf9565b1115613db7565b61040290613dfe613e16565b61040290613d8c33600a611b14565b61040290613df2565b610402612b2133613d91565b61041090613e2e613e16565b50610410613e3d33600a611b14565b611cdc565b6104106060613e22565b9061041091613e596118ec565b61041091613e3d9150600a611b14565b610410906060613e4c565b9061040291613e81613e16565b613f88565b90613c4f6060600361040294613ea460008201612f96600088015190565b613eb660018201612f96602088015190565b612ff6600282016122b9604088015190565b9061040291613e86565b61040291906122b99060c090600990613eee8161359a87613569565b613f016001820161359a60208801613569565b613f1360028201612f96604088015190565b613f2b60038201613f25606088015190565b90613ec8565b613f3e6007820161362060808801613573565b612ff6600882016122b960a088015190565b91906136485761040291613ed2565b80549190600160401b83101561089f5782613f8291600161040295018155612bce565b90613f50565b6131566104106140336140676104029561315661041061405b97613fae612b21826131f2565b614060600094614052613fbf606090565b91614009613fcb612b30565b93613fdd613fd7611d22565b8b870152565b613fef613fe8611d22565b6020870152565b614002613ffb8b611cf9565b6040870152565b6060850152565b33998a93614002429361402661401d612b26565b978d8901612be8565b613ffb8960208901612be8565b6140408860808501612c4d565b61404b8160a0850152565b60c0830152565b85545b9a8b9690565b613f5f565b600b611b14565b600c611b14565b9061040291613e74565b61041090614084613e16565b50610410612b0633600c611b14565b6104106060614078565b9061041091612bc9826140bc565b610410906140b7612ba6565b61409d565b612d3f61040291612d3860009182612bce565b610410906140db613e16565b50610410612b0633600d611b14565b61041060606140cf565b90610402929161410381614fd3565b91612b21916104029361411c565b9061040292916140f4565b91906141326001612ce885613509856017611b14565b61413f611d7f6000611cf9565b1161414d576104109261418b565b610410926141fd565b61040291906122b99060609060039061416f8185875190565b613eb6600182016122b9602088015190565b9061040291614156565b9142908181106141f4576141ef936141e8610410926141d4612961956141c26141b2612b30565b936141bb878652565b6020850152565b6141cd816040850152565b6060830152565b6141e383613509886017611b14565b614181565b6014611f00565b600190565b50505050600090565b42918284106141f45761421891613509610410926017611b14565b91600183019261422a61041085611b33565b82106141f4576130946002926141ef95612202565b906104029161424d81614fd3565b9061040291614261565b906104029161423f565b610402916130946017926142946142816001612ce884613509888a611b14565b61428e611d7f6000611cf9565b116128b5565b61429d836133a8565b6142bc575b61350942936142b66001956132ee87611cf9565b95611b14565b6142d0612b216142cc85846142d5565b1590565b6142a2565b612b06906135096142f0936142e8600090565b506018611b14565b6000906142fc82611cf9565b614307610410835190565b8110156143775761432d6138d560036143276143238587612f5e565b5190565b906137f2565b60808101514290811015918261435a575b50506143525761434d90612f4a565b6142fc565b505050600190565b61436e91925061326c60a0611d7f92015190565b1015388061433e565b505090565b906104109161438a82614fd3565b506104109061439f565b61041090606061437c565b6143b6610410916143ae606090565b506014611f00565b612a61565b6143c3612b30565b9060008252602080808085016000612b97565b6104106143bb565b9061041092916143ed82614fd3565b50610410919061444f565b90610410916144056143d6565b6143de565b90610402612c46600361441b612b30565b94614428612c1082611b33565b614437612c2360018301611b33565b612ce8612c3960028301611b33565b6104109061440a565b61447b90613509610410936144626143d6565b506017611f556142816001612ce8876135098787611b14565b614446565b906104109161448e82614fd3565b61041091612b0691506011611f00565b610410906060614480565b61041060c06108a4565b6144bb6144a9565b906000825260208080808080870160008152016000612b91565b6104106144b3565b90610410916144eb8261458c565b614565565b9061040261455560056145016144a9565b9461450e612c7582611844565b61451d612c8a60018301611844565b61452c612c3960028301611b33565b61454661453d600383015460ff1690565b60608801612c4d565b612ce861387160048301611b33565b60a0840152565b610410906144f0565b6104109161457591506001613544565b5061455c565b610410906145876144d5565b6144dd565b6104029060016145a4610f5460026131848585613544565b9033916145b361190884610404565b149283156145c4575b5050506128b5565b6145db92935081612d386120ea9261190894613544565b143880806145bc565b90610410916145f282614fd3565b61041091612b0691506012611f00565b6104109060606145e4565b61461561355e565b906000825260208080808080808080808b01600081520160008152016000815201600081520160005b8152016060612b91565b61041061460d565b906104109161465e82614744565b61471d565b9061040261470c600961467461355e565b94614681612c7582611844565b614690612c8a60018301611844565b61469f612c3960028301611b33565b6146ae612cb160038301611b33565b6146bd61387160048301611b33565b6146cc612ce160058301611b33565b6146db61389660068301611cbb565b6146f56146ec600783015460ff1690565b60e08801612c4d565b612ce861470460088301611b33565b610100880152565b610120840152565b61041090614663565b6104109161472d91506002612bce565b50614714565b6104109061473f614648565b614650565b6104029060029061475c610f54836131848482612bce565b90339161476b61190884610404565b1492831561477b575050506128b5565b6145db9293506001612d38611a46936120ea93612bce565b61041060a06108a4565b6147a5614793565b9060608252602080808080860160608152016060612b51565b61041061479d565b90610410916147d482614884565b61484e565b80548210156128f5576128ec600591600052602060002090565b9061040261483e6004614804614793565b94614811612c1082611cbb565b614820612c2360018301611cbb565b61482f612c3960028301611cbb565b612c40612cb160038301611b33565b6080840152565b610410906147f3565b6104109161486d9150614867611b746024926029611f00565b906147d9565b50614845565b6104109061487f6147be565b6147c6565b612b21610402915b61489581611bc0565b9033916148a461190884610404565b149182156148b157505090565b6148c79250600191613509612ce8926017611b14565b42111590565b6148d5612b26565b9060608252602080808080808088016060815201606081520160605b8152016060612b97565b6104106148cd565b90610410929161491282614884565b614989565b90610402612cee6006614928612b26565b94614935612c1082611cbb565b614944612c2360018301611cbb565b614953612c3960028301611cbb565b614962612cb160038301611cbb565b61497161387160048301611cbb565b612ce8612ce160058301611b33565b61041090614917565b506104109161499a91506016611f00565b614980565b90610410916149ac6148fb565b614903565b90610410916149bf82614884565b61041091612b069150602a611f00565b6104109060606149b1565b6149e2612b26565b9060008252602080808080808088016000815201606061463e565b6104106149da565b9061041091614a1382614aa2565b614a7b565b90610402612cee6006614a29612b26565b94614a36612c7582611844565b614a45612c2360018301611b33565b614a54612c3960028301611cbb565b614a63612cb160038301611cbb565b61497161387160048301611b33565b61041090614a18565b61041091614a8b91506025613999565b50614a72565b61041090614a9d6149fd565b614a05565b612b21614ab86001613184610402946025613999565b61488c565b9061041091614acb82614884565b61041091612b069150602b611f00565b610410906060614abd565b614aee61380c565b9060008252602080808080808080808a0160008152016000815201600081520160605b81520160006148f1565b610410614ae6565b9061041091614b3182614bc0565b614b99565b906104026138b36008614b4761380c565b94614b54612c7582611844565b614b63612c8a60018301611844565b614b72612c3960028301611b33565b614b81612cb160038301611b33565b61387861387160048301611cbb565b61041090614b36565b61041091614ba9915060266137f2565b50614b90565b61041090614bbb614b1b565b614b23565b612b21614ab860026131846104029460266137f2565b9061041091614be482614fd3565b61041091612b0691506013611f00565b610410906060614bd6565b614c0761380c565b9060008252602080808080808080808a016000815201600081520160608152016000614b11565b610410614bff565b9061041091614c4482614c65565b610410916138d5915060036137f2565b61041090614c60614c2e565b614c36565b61040290600390614c7e610f54600261318484866137f2565b903391614c8d61190884610404565b14928315614c9d575050506128b5565b6145db9293506001612d38611908936120ea936137f2565b61040290614cc2816140bc565b610402906007614cfe600092614cec614cdf846131c58488612bce565b612d4b6131d46001610747565b614cf68133614d0e565b600293612bce565b5001613030565b61040290614cb5565b6104029190614d52602092614d2b614d2585613176565b9461318b565b614d4c8461315661041033614d45816122d8866027611f00565b6028611b14565b83614f10565b61040291614d5e611d22565b61208b9161040293614d708282614e15565b6120866000611875565b15614d8157565b60405162461bcd60e51b8152806118e8600482016020808252818101527f4552433732313a206d696e7420746f20746865207a65726f2061646472657373604082015260600190565b15614dd157565b60405162461bcd60e51b815260206004820152601c60248201527b115490cdcc8c4e881d1bdad95b88185b1c9958591e481b5a5b9d195960221b6044820152606490fd5b90614e206000611875565b91614e3d614e2d84610404565b614e3683610404565b1415614d7a565b614e51614e4c6142cc84612460565b614dca565b614e60614e4c6142cc84612460565b6122c9614e6d6001611cf9565b6122b96122bf84601c611b14565b61041090612bf2565b90613c4f6080600461040294614ea260008201612f96600088015190565b614eb460018201612f96602088015190565b614ec660028201612f96604088015190565b612ff6600382016122b9606088015190565b91906136485761040291614e84565b80549190600160401b83101561089f5782614f0a916001610402950181556147d9565b90614ed8565b90614fbb61040292614f9c6000614f956002614f42614f3b6003614f348a87612bce565b5001614e7b565b9784612bce565b500195614f8e83820151614f87602084015191614f806060614f65604088015190565b96015197614f7a614f74614793565b9d611cdc565b908d0152565b60208b0152565b6040890152565b6060870152565b6080850152565b612973602191614fb4614fae84613176565b9361318b565b6029611f00565b6024614ee7565b610410610410612b06336028611b14565b612d3f61040291611bc0565b9061040294939291614ff081614fd3565b90614fff949392913390613a4f565b50565b9061040294939291614fdf565b906104029161501d81614fd3565b906104029161504261503b42615035624f1a00611cf9565b9061327b565b838361411c565b506150f0565b906104029161500f565b61040291906122b99060a09060059061506e8161359a87613569565b6150816001820161359a60208801613569565b615093600282016122b9604088015190565b6150a66003820161362060608801613573565b612ff6600482016122b9608088015190565b91906136485761040291615052565b80549190600160401b83101561089f57826150ea91600161040295018155613544565b906150b8565b6131566104106104029361517861516c9461510d612b21846133a8565b61315661041060009261515e339461514c429161513461512b6144a9565b98828a01612be8565b6151418a60208a01612be8565b61453d8560408a0152565b615157816080880152565b60a0860152565b615171600194614055865490565b6150c7565b6011611f00565b600e611b14565b6104029061518c816154a8565b6151dd565b1561519857565b60405162461bcd60e51b815260206004820152601f60248201527f4661696c656420746f2073656e6420457468657220746f20696e7375726572006044820152606490fd5b614fff90600290615237600080346152066152006104106005613184898b612bce565b82612d4b565b61521861252e6001612d38888a612bce565b9061522260405190565b90818003925af16152316124df565b50615191565b6152408161531c565b61526f61230d6004613184615259866131848782612bce565b946152696001612d38838a612bce565b96612bce565b9061411c565b6104029061517f565b61040291906122b9906101009060089061529b8161359a87613569565b6152ae6001820161359a60208801613569565b6152c0600282016122b9604088015190565b6152d260038201612f96606088015190565b613c2b600482016122b9608088015190565b9190613648576104029161527e565b80549190600160401b83101561089f5782615316916001610402950181556137f2565b906152e4565b6002906153299082612bce565b5060078101805460ff169260009361534085610747565b9061534a90610747565b14615354906128b5565b61535d84611cf9565b61536690613ae5565b615371848601611844565b946001850161537f81611844565b928487019361538d85611b33565b6006890161539d60038b01611b33565b916153aa60048c01611b33565b93429c6153b561380c565b988901906153c291612be8565b6153cb906119df565b6153d89060208901612be8565b60408701526153e690611cdc565b6060860152608085015260a084015260c08301526154058760e0840152565b61541187610100840152565b60038054938493849290615424916152f3565b601361542f82611b33565b61543891611f00565b90601061544485611844565b61544d91611b14565b9360189061545a90611844565b61546391611b14565b9061546d90611b33565b61547691611f00565b9461548091613007565b61548991613007565b61549291613007565b61549b91613030565b6009019061040291612202565b612d3f610f546104029261318460029182612bce56fea2646970667358221220375d49bd2f2d6a42c122472916adfbef408885eebf2a7ca16779aeb1574c6f8f64736f6c63430008130033",
  "linkReferences": {},
  "deployedLinkReferences": {}
}