{
  "_format": "hh-sol-artifact-1",
  "contractName": "InsurerContract",
  "sourceName": "contracts/insurer/InsurerContract.sol",
  "abi": [
    {
      "anonymous": false,
      "inputs": [
        {
          "indexed": true,
          "internalType": "address",
          "name": "owner",
          "type": "address"
        },
        {
          "indexed": true,
          "internalType": "address",
          "name": "approved",
          "type": "address"
        },
        {
          "indexed": true,
          "internalType": "uint256",
          "name": "tokenId",
          "type": "uint256"
        }
      ],
      "name": "Approval",
      "type": "event"
    },
    {
      "anonymous": false,
      "inputs": [
        {
          "indexed": true,
          "internalType": "address",
          "name": "owner",
          "type": "address"
        },
        {
          "indexed": true,
          "internalType": "address",
          "name": "operator",
          "type": "address"
        },
        {
          "indexed": false,
          "internalType": "bool",
          "name": "approved",
          "type": "bool"
        }
      ],
      "name": "ApprovalForAll",
      "type": "event"
    },
    {
      "anonymous": false,
      "inputs": [
        {
          "indexed": true,
          "internalType": "address",
          "name": "previousOwner",
          "type": "address"
        },
        {
          "indexed": true,
          "internalType": "address",
          "name": "newOwner",
          "type": "address"
        }
      ],
      "name": "OwnershipTransferred",
      "type": "event"
    },
    {
      "anonymous": false,
      "inputs": [
        {
          "indexed": true,
          "internalType": "address",
          "name": "from",
          "type": "address"
        },
        {
          "indexed": true,
          "internalType": "address",
          "name": "to",
          "type": "address"
        },
        {
          "indexed": true,
          "internalType": "uint256",
          "name": "tokenId",
          "type": "uint256"
        }
      ],
      "name": "Transfer",
      "type": "event"
    },
    {
      "inputs": [
        {
          "internalType": "address",
          "name": "agentAddress",
          "type": "address"
        }
      ],
      "name": "agentDeactivation",
      "outputs": [],
      "stateMutability": "nonpayable",
      "type": "function"
    },
    {
      "inputs": [
        {
          "internalType": "address",
          "name": "agentAddress",
          "type": "address"
        }
      ],
      "name": "agentRegistration",
      "outputs": [],
      "stateMutability": "nonpayable",
      "type": "function"
    },
    {
      "inputs": [
        {
          "internalType": "address",
          "name": "to",
          "type": "address"
        },
        {
          "internalType": "uint256",
          "name": "tokenId",
          "type": "uint256"
        }
      ],
      "name": "approve",
      "outputs": [],
      "stateMutability": "nonpayable",
      "type": "function"
    },
    {
      "inputs": [
        {
          "internalType": "uint256",
          "name": "requestId",
          "type": "uint256"
        },
        {
          "internalType": "string",
          "name": "carBrand",
          "type": "string"
        },
        {
          "internalType": "string",
          "name": "carModel",
          "type": "string"
        },
        {
          "internalType": "uint256",
          "name": "manufacturingDate",
          "type": "uint256"
        },
        {
          "components": [
            {
              "internalType": "string",
              "name": "driverLicenseCode",
              "type": "string"
            },
            {
              "internalType": "string",
              "name": "federalUnit",
              "type": "string"
            },
            {
              "internalType": "string",
              "name": "county",
              "type": "string"
            },
            {
              "internalType": "string",
              "name": "vehiclePlate",
              "type": "string"
            },
            {
              "internalType": "string",
              "name": "year",
              "type": "string"
            },
            {
              "internalType": "uint256",
              "name": "startDate",
              "type": "uint256"
            },
            {
              "internalType": "uint256",
              "name": "endDate",
              "type": "uint256"
            }
          ],
          "internalType": "struct IBaseContract.VehicleOwnershipRecord[]",
          "name": "ownershipRecords",
          "type": "tuple[]"
        }
      ],
      "name": "approveVehicleRequest",
      "outputs": [],
      "stateMutability": "nonpayable",
      "type": "function"
    },
    {
      "inputs": [
        {
          "internalType": "address",
          "name": "owner",
          "type": "address"
        }
      ],
      "name": "balanceOf",
      "outputs": [
        {
          "internalType": "uint256",
          "name": "",
          "type": "uint256"
        }
      ],
      "stateMutability": "view",
      "type": "function"
    },
    {
      "inputs": [
        {
          "internalType": "uint256",
          "name": "requestId",
          "type": "uint256"
        },
        {
          "internalType": "uint256",
          "name": "startDate",
          "type": "uint256"
        },
        {
          "internalType": "uint256",
          "name": "endDate",
          "type": "uint256"
        },
        {
          "internalType": "uint256",
          "name": "price",
          "type": "uint256"
        },
        {
          "internalType": "string",
          "name": "contractUrl",
          "type": "string"
        }
      ],
      "name": "createVehicleInsuranceProposal",
      "outputs": [],
      "stateMutability": "nonpayable",
      "type": "function"
    },
    {
      "inputs": [
        {
          "internalType": "uint256",
          "name": "tokenId",
          "type": "uint256"
        }
      ],
      "name": "getApproved",
      "outputs": [
        {
          "internalType": "address",
          "name": "",
          "type": "address"
        }
      ],
      "stateMutability": "view",
      "type": "function"
    },
    {
      "inputs": [],
      "name": "getVehicleInsuranceContractIdsByInsurer",
      "outputs": [
        {
          "internalType": "uint256[]",
          "name": "",
          "type": "uint256[]"
        }
      ],
      "stateMutability": "view",
      "type": "function"
    },
    {
      "inputs": [
        {
          "internalType": "uint256",
          "name": "tokenId",
          "type": "uint256"
        }
      ],
      "name": "getVehicleInsuranceContractIdsByInsurerAndTokenId",
      "outputs": [
        {
          "internalType": "uint256[]",
          "name": "",
          "type": "uint256[]"
        }
      ],
      "stateMutability": "view",
      "type": "function"
    },
    {
      "inputs": [],
      "name": "getVehicleInsuranceProposalIdsByInsurer",
      "outputs": [
        {
          "internalType": "uint256[]",
          "name": "",
          "type": "uint256[]"
        }
      ],
      "stateMutability": "view",
      "type": "function"
    },
    {
      "inputs": [],
      "name": "getVehicleInsuranceRequestIdsByInsurer",
      "outputs": [
        {
          "internalType": "uint256[]",
          "name": "",
          "type": "uint256[]"
        }
      ],
      "stateMutability": "view",
      "type": "function"
    },
    {
      "inputs": [
        {
          "internalType": "uint256",
          "name": "requestId",
          "type": "uint256"
        }
      ],
      "name": "getVehicleRequestById",
      "outputs": [
        {
          "components": [
            {
              "internalType": "address",
              "name": "requester",
              "type": "address"
            },
            {
              "internalType": "address",
              "name": "agent",
              "type": "address"
            },
            {
              "internalType": "string",
              "name": "vehicleRegistrationCode",
              "type": "string"
            },
            {
              "components": [
                {
                  "internalType": "string",
                  "name": "carBrand",
                  "type": "string"
                },
                {
                  "internalType": "string",
                  "name": "carModel",
                  "type": "string"
                },
                {
                  "internalType": "uint256",
                  "name": "manufacturingDate",
                  "type": "uint256"
                },
                {
                  "internalType": "uint256[]",
                  "name": "vehicleOwnershipRecordIds",
                  "type": "uint256[]"
                }
              ],
              "internalType": "struct IBaseContract.VehicleRequestData",
              "name": "vehicleData",
              "type": "tuple"
            },
            {
              "internalType": "enum IBaseContract.Status",
              "name": "status",
              "type": "uint8"
            },
            {
              "internalType": "uint256",
              "name": "createdAt",
              "type": "uint256"
            },
            {
              "internalType": "uint256",
              "name": "updatedAt",
              "type": "uint256"
            }
          ],
          "internalType": "struct IBaseContract.VehicleRequest",
          "name": "",
          "type": "tuple"
        }
      ],
      "stateMutability": "view",
      "type": "function"
    },
    {
      "inputs": [
        {
          "internalType": "uint256",
          "name": "tokenId",
          "type": "uint256"
        },
        {
          "internalType": "uint256",
          "name": "insuranceId",
          "type": "uint256"
        },
        {
          "internalType": "uint256",
          "name": "accidentId",
          "type": "uint256"
        },
        {
          "internalType": "string",
          "name": "title",
          "type": "string"
        },
        {
          "internalType": "string",
          "name": "description",
          "type": "string"
        },
        {
          "internalType": "uint256",
          "name": "price",
          "type": "uint256"
        },
        {
          "internalType": "uint256",
          "name": "date",
          "type": "uint256"
        }
      ],
      "name": "insurerAddVehicleServiceRecord",
      "outputs": [],
      "stateMutability": "nonpayable",
      "type": "function"
    },
    {
      "inputs": [
        {
          "internalType": "address",
          "name": "insurerAddress",
          "type": "address"
        }
      ],
      "name": "insurerDeactivation",
      "outputs": [],
      "stateMutability": "nonpayable",
      "type": "function"
    },
    {
      "inputs": [
        {
          "internalType": "address",
          "name": "insurerAddress",
          "type": "address"
        }
      ],
      "name": "insurerRegistration",
      "outputs": [],
      "stateMutability": "nonpayable",
      "type": "function"
    },
    {
      "inputs": [
        {
          "internalType": "address",
          "name": "owner",
          "type": "address"
        },
        {
          "internalType": "address",
          "name": "operator",
          "type": "address"
        }
      ],
      "name": "isApprovedForAll",
      "outputs": [
        {
          "internalType": "bool",
          "name": "",
          "type": "bool"
        }
      ],
      "stateMutability": "view",
      "type": "function"
    },
    {
      "inputs": [],
      "name": "listAgents",
      "outputs": [
        {
          "internalType": "address[]",
          "name": "",
          "type": "address[]"
        }
      ],
      "stateMutability": "view",
      "type": "function"
    },
    {
      "inputs": [],
      "name": "listInsurers",
      "outputs": [
        {
          "internalType": "address[]",
          "name": "",
          "type": "address[]"
        }
      ],
      "stateMutability": "view",
      "type": "function"
    },
    {
      "inputs": [],
      "name": "listVehicleRequestsIds",
      "outputs": [
        {
          "internalType": "uint256[]",
          "name": "",
          "type": "uint256[]"
        }
      ],
      "stateMutability": "view",
      "type": "function"
    },
    {
      "inputs": [],
      "name": "name",
      "outputs": [
        {
          "internalType": "string",
          "name": "",
          "type": "string"
        }
      ],
      "stateMutability": "view",
      "type": "function"
    },
    {
      "inputs": [],
      "name": "owner",
      "outputs": [
        {
          "internalType": "address",
          "name": "",
          "type": "address"
        }
      ],
      "stateMutability": "view",
      "type": "function"
    },
    {
      "inputs": [
        {
          "internalType": "uint256",
          "name": "tokenId",
          "type": "uint256"
        }
      ],
      "name": "ownerOf",
      "outputs": [
        {
          "internalType": "address",
          "name": "",
          "type": "address"
        }
      ],
      "stateMutability": "view",
      "type": "function"
    },
    {
      "inputs": [
        {
          "internalType": "uint256",
          "name": "tokenId",
          "type": "uint256"
        },
        {
          "internalType": "uint256",
          "name": "insuranceId",
          "type": "uint256"
        },
        {
          "internalType": "string",
          "name": "description",
          "type": "string"
        },
        {
          "internalType": "uint256",
          "name": "accidentDate",
          "type": "uint256"
        }
      ],
      "name": "registerVehicleAccidentRecord",
      "outputs": [],
      "stateMutability": "nonpayable",
      "type": "function"
    },
    {
      "inputs": [],
      "name": "renounceOwnership",
      "outputs": [],
      "stateMutability": "nonpayable",
      "type": "function"
    },
    {
      "inputs": [
        {
          "internalType": "address",
          "name": "from",
          "type": "address"
        },
        {
          "internalType": "address",
          "name": "to",
          "type": "address"
        },
        {
          "internalType": "uint256",
          "name": "tokenId",
          "type": "uint256"
        }
      ],
      "name": "safeTransferFrom",
      "outputs": [],
      "stateMutability": "nonpayable",
      "type": "function"
    },
    {
      "inputs": [
        {
          "internalType": "address",
          "name": "from",
          "type": "address"
        },
        {
          "internalType": "address",
          "name": "to",
          "type": "address"
        },
        {
          "internalType": "uint256",
          "name": "tokenId",
          "type": "uint256"
        },
        {
          "internalType": "bytes",
          "name": "data",
          "type": "bytes"
        }
      ],
      "name": "safeTransferFrom",
      "outputs": [],
      "stateMutability": "nonpayable",
      "type": "function"
    },
    {
      "inputs": [
        {
          "internalType": "address",
          "name": "operator",
          "type": "address"
        },
        {
          "internalType": "bool",
          "name": "approved",
          "type": "bool"
        }
      ],
      "name": "setApprovalForAll",
      "outputs": [],
      "stateMutability": "nonpayable",
      "type": "function"
    },
    {
      "inputs": [
        {
          "internalType": "bytes4",
          "name": "interfaceId",
          "type": "bytes4"
        }
      ],
      "name": "supportsInterface",
      "outputs": [
        {
          "internalType": "bool",
          "name": "",
          "type": "bool"
        }
      ],
      "stateMutability": "view",
      "type": "function"
    },
    {
      "inputs": [],
      "name": "symbol",
      "outputs": [
        {
          "internalType": "string",
          "name": "",
          "type": "string"
        }
      ],
      "stateMutability": "view",
      "type": "function"
    },
    {
      "inputs": [
        {
          "internalType": "uint256",
          "name": "tokenId",
          "type": "uint256"
        }
      ],
      "name": "tokenURI",
      "outputs": [
        {
          "internalType": "string",
          "name": "",
          "type": "string"
        }
      ],
      "stateMutability": "view",
      "type": "function"
    },
    {
      "inputs": [
        {
          "internalType": "address",
          "name": "from",
          "type": "address"
        },
        {
          "internalType": "address",
          "name": "to",
          "type": "address"
        },
        {
          "internalType": "uint256",
          "name": "tokenId",
          "type": "uint256"
        }
      ],
      "name": "transferFrom",
      "outputs": [],
      "stateMutability": "nonpayable",
      "type": "function"
    },
    {
      "inputs": [
        {
          "internalType": "address",
          "name": "newOwner",
          "type": "address"
        }
      ],
      "name": "transferOwnership",
      "outputs": [],
      "stateMutability": "nonpayable",
      "type": "function"
    }
  ],
  "bytecode": "0x6080604052346200002657620000146200002b565b6040516133666200050e823961336690f35b600080fd5b6200003562000037565b565b620000356200003562000035620000356200003562000035620000356200003562000035620000356200003562000144565b634e487b7160e01b600052604160045260246000fd5b90601f01601f191681019081106001600160401b03821117620000a157604052565b62000069565b9062000035620000b660405190565b92836200007f565b6001600160401b038111620000a157602090601f01601f19160190565b90620000f1620000eb83620000be565b620000a7565b918252565b620001026003620000db565b6213919560ea1b602082015290565b6200011b620000f6565b90565b6200012a6004620000db565b631593919560e21b602082015290565b6200011b6200011e565b620001636200015262000111565b6200015c6200013a565b906200016f565b620000356020620004dd565b6200003591829182918291829182916200018a9190620003b0565b620000353362000440565b634e487b7160e01b600052602260045260246000fd5b9060016002830492168015620001ce575b6020831014620001c857565b62000195565b91607f1691620001bc565b9160001960089290920291821b911b5b9181191691161790565b6200011b6200011b6200011b9290565b9190620002186200011b6200022193620001f3565b908354620001d9565b9055565b620000359160009162000203565b8181106200023f575050565b806200024f600060019362000225565b0162000233565b9190601f81116200026657505050565b6200027a6200003593600052602060002090565b906020601f8401819004830193106200029e575b6020601f90910104019062000233565b90915081906200028e565b9060001960089091021c191690565b81620002c491620002a9565b906002021790565b90620002d6815190565b906001600160401b038211620000a157620002fe82620002f78554620001ab565b8562000256565b602090601f831160011462000331576200022192916000918362000325575b5050620002b8565b0151905038806200031d565b601f198316916200034785600052602060002090565b9260005b8181106200038b575091600293918560019694106200036e575b50505002019055565b62000380910151601f841690620002a9565b905538808062000365565b919360206001819287870151815501950192016200034b565b906200003591620002cc565b90620003c262000035926019620003a4565b601a620003a4565b6200011b905b6001600160a01b031690565b6200011b9054620003ca565b906001600160a01b0390620001e9565b6200011b90620003d0906001600160a01b031682565b6200011b90620003f8565b6200011b906200040e565b90620004386200011b620002219262000419565b8254620003e8565b6200044c601f620003dc565b906200045a81601f62000424565b620004916200048a7f8be0079c531659141344cd1fd0a4f28419497f9722a3daafe3b4186f6b6457e09362000419565b9162000419565b916200049c60405190565b600090a3565b6200011b9081565b6200011b9054620004a2565b9060001990620001e9565b90620004d56200011b6200022192620001f3565b8254620004b6565b6200003590620005066000620004f46001620001f3565b9201916200050283620004aa565b0190565b90620004c156fe6080604052600436101561001257600080fd5b60003560e01c806301ffc9a71461021257806306fdde031461020d578063081812fc14610208578063095ea7b3146102035780631a971303146101fe57806323b872dd146101f95780632e5d81fb146101f457806331a3e0c9146101ef57806342842e0e146101ea578063492af106146101e55780636352211e146101e057806366a473fe146101db57806368684d08146101d65780636f04401d146101d157806370a08231146101cc578063715018a6146101c757806371f46bbb146101c25780637db3b2ff146101bd578063845c9cbb146101b85780638b523d0b146101b35780638da5cb5b146101ae5780638f60d40b146101a957806395d89b41146101a4578063a22cb4651461019f578063b88d4fde1461019a578063baf0438f14610195578063c6c1b35614610190578063c87b56dd1461018b578063d6cd4a0214610186578063e985e9c514610181578063f2fde38b1461017c5763f4f297a70361023457610dfa565b610c7e565b610c62565b610c24565b610c09565b610bee565b610bd3565b610bb7565b610b4f565b610afc565b610add565b610a39565b610a21565b610a06565b6109eb565b6109d3565b6109bb565b610990565b610978565b610951565b6108d1565b61084f565b610837565b61080a565b6107ee565b6105d1565b61055a565b61050e565b6103df565b61037f565b61030c565b610263565b6001600160e01b03191690565b61022d81610217565b0361023457565b600080fd5b9050359061024682610224565b565b906020828203126102345761025c91610239565b90565b9052565b346102345761029161027e610279366004610248565b61103b565b6040515b91829182901515815260200190565b0390f35b600091031261023457565b60005b8381106102b35750506000910152565b81810151838201526020016102a3565b6102e46102ed6020936102f7936102d8815190565b80835293849260200190565b958691016102a0565b601f01601f191690565b0190565b602080825261025c929101906102c3565b346102345761031c366004610295565b6102916103276112c2565b604051918291826102fb565b8061022d565b9050359061024682610333565b906020828203126102345761025c91610339565b6001600160a01b031690565b61025f9061035a565b6020810192916102469190610366565b346102345761029161039a610395366004610346565b6114e7565b6040519182918261036f565b61022d8161035a565b90503590610246826103a6565b91906040838203126102345761025c906103d681856103af565b93602001610339565b34610234576103f86103f23660046103bc565b90611477565b604051005b634e487b7160e01b600052604160045260246000fd5b90601f01601f191681019081106001600160401b0382111761043457604052565b6103fd565b9061024661044660405190565b9283610413565b6001600160401b03811161043457602090601f01601f19160190565b90826000939282370152565b9092919261048a6104858261044d565b610439565b938185526020850190828401116102345761024692610469565b9080601f830112156102345781602061025c93359101610475565b608081830312610234576104d38282610339565b926104e18360208401610339565b926040830135906001600160401b038211610234576105058161025c9386016104a4565b93606001610339565b34610234576103f86105213660046104bf565b92919091612dc7565b90916060828403126102345761025c61054384846103af565b9361055181602086016103af565b93604001610339565b34610234576103f861056d36600461052a565b916115a0565b919060a083820312610234576105898184610339565b926105978260208301610339565b926040916105a784848301610339565b936105b58160608401610339565b936001806080850135921b0381116102345761025c92016104a4565b34610234576103f86105e4366004610573565b93929092612b18565b6001600160401b0381116104345760208091020190565b91909160e0818403126102345761061b60e0610439565b9281356001600160401b03811161023457816106389184016104a4565b845260208201356001600160401b03811161023457816106599184016104a4565b602085015260408201356001600160401b038111610234578161067d9184016104a4565b604085015260608201356001600160401b03811161023457816106a19184016104a4565b60608501526080820135906001600160401b038211610234576106c9816106ea9385016104a4565b608086015260a06106dc82828601610339565b9086015260c0809301610339565b90830152565b9291906106ff610485826105ed565b93818552602080860192028101918383116102345781905b838210610725575050505050565b81356001600160401b038111610234576020916107458784938701610604565b815201910190610717565b9080601f830112156102345781602061025c933591016106f0565b91909160a081840312610234576107828382610339565b9260208201356001600160401b03811161023457816107a29184016104a4565b9260408301356001600160401b03811161023457826107c29185016104a4565b926107d08360608301610339565b9260808201356001600160401b0381116102345761025c9201610750565b34610234576103f861080136600461076b565b9392909261274a565b34610234576103f861081d36600461052a565b916115bd565b906020828203126102345761025c916103af565b34610234576103f861084a366004610823565b612a3b565b346102345761029161039a610865366004610346565b61119d565b9061088a610883610879845190565b8084529260200190565b9260200190565b9060005b81811061089b5750505090565b9091926108b86108b16001928651815260200190565b9460200190565b92910161088e565b602080825261025c9291019061086a565b34610234576102916108ec6108e7366004610346565b612aef565b604051918291826108c0565b906102f781602093610366565b90610914610883610879845190565b9060005b8181106109255750505090565b9091926109386108b160019286516108f8565b929101610918565b602080825261025c92910190610905565b3461023457610961366004610295565b61029161096c612a44565b60405191829182610940565b34610234576103f861098b366004610823565b611fc5565b34610234576102916109ab6109a6366004610823565b61111a565b6040519182918290815260200190565b34610234576109cb366004610295565b6103f8610e6d565b34610234576103f86109e6366004610823565b612951565b34610234576109fb366004610295565b6102916108ec6120f1565b3461023457610a16366004610295565b6102916108ec612a9a565b34610234576103f8610a34366004610823565b611e92565b3461023457610a49366004610295565b61029161039a610e2b565b9160e08383031261023457610a698284610339565b92610a778360208301610339565b92604091610a8782848301610339565b936060820135600180861b0381116102345783610aa59184016104a4565b936001806080850135921b03811161023457610ac68461025c9285016104a4565b93610ad48160a08601610339565b9360c001610339565b34610234576103f8610af0366004610a54565b95949094939193612f6b565b3461023457610b0c366004610295565b6102916103276112cc565b80151561022d565b9050359061024682610b17565b91906040838203126102345761025c90610b4681856103af565b93602001610b1f565b34610234576103f8610b62366004610b2c565b9061150c565b9060808282031261023457610b7d81836103af565b92610b8b82602085016103af565b92604092610b9b81858401610339565b936001806060850135921b0381116102345761025c92016104a4565b34610234576103f8610bca366004610b68565b929190916115cd565b3461023457610be3366004610295565b6102916108ec612abf565b3461023457610bfe366004610295565b6102916108ec612a69565b3461023457610291610327610c1f366004610346565b61133c565b3461023457610c34366004610295565b61029161096c612050565b91906040838203126102345761025c90610c5981856103af565b936020016103af565b346102345761029161027e610c78366004610c3f565b90611517565b34610234576103f8610c91366004610823565b610f81565b90610ca5610883610879845190565b9060005b818110610cb65750505090565b909192610ccc6108b16001928651815260200190565b929101610ca9565b8051608080845261025c9391606091610d0591610cf3918501906102c3565b602085015184820360208601526102c3565b92610d1560408201516040850152565b0151906060818403910152610c96565b634e487b7160e01b600052602160045260246000fd5b60041115610d4557565b610d25565b9061024682610d3b565b61025c90610d4a565b61025f90610d54565b9061025c9060c080610dc0610dae60e08501610d8a60008901516000880190610366565b610d9c60208901516020880190610366565b604088015186820360408801526102c3565b60608701518582036060870152610cd4565b94610dd360808201516080860190610d5d565b610de260a082015160a0860152565b0151910152565b602080825261025c92910190610d66565b3461023457610291610e15610e10366004610346565b6122f5565b60405191829182610de9565b61025c905461035a565b61025c601f610e21565b610e3d610ec9565b610246610e5b565b61035a61025c61025c9290565b61025c90610e45565b610246610e686000610e52565b610fe0565b610246610e35565b15610e7c57565b60405162461bcd60e51b815280610ec5600482016020808252818101527f4f776e61626c653a2063616c6c6572206973206e6f7420746865206f776e6572604082015260600190565b0390fd5b610246610ed4610e2b565b610eeb610ee53361035a565b61035a565b9161035a565b14610e75565b61024690610efd610ec9565b610f5d565b15610f0957565b60405162461bcd60e51b815260206004820152602660248201527f4f776e61626c653a206e6577206f776e657220697320746865207a65726f206160448201526564647265737360d01b6064820152608490fd5b61024690610e68610f71610ee06000610e52565b610f7a8361035a565b1415610f02565b61024690610ef1565b906001600160a01b03905b9181191691161790565b61025c9061035a906001600160a01b031682565b61025c90610f9f565b61025c90610fb3565b90610fd561025c610fdc92610fbc565b8254610f8a565b9055565b610fea601f610e21565b90610ff681601f610fc5565b6110296110237f8be0079c531659141344cd1fd0a4f28419497f9722a3daafe3b4186f6b6457e093610fbc565b91610fbc565b9161103360405190565b80805b0390a3565b61104b6380ac58cd60e01b610217565b61105482610217565b14908115611071575b8115611067575090565b61025c9150611ccc565b9050611083635b5e139f60e01b610217565b61108c82610217565b149061105d565b1561109a57565b60405162461bcd60e51b815260206004820152602960248201527f4552433732313a2061646472657373207a65726f206973206e6f7420612076616044820152683634b21037bbb732b960b91b6064820152608490fd5b906110fb90610fbc565b600052602052604060002090565b61025c9081565b61025c9054611109565b61115161025c91611129600090565b5061114a61113a610ee06000610e52565b6111438361035a565b1415611093565b601c6110f1565b611110565b1561115d57565b60405162461bcd60e51b8152602060048201526018602482015277115490cdcc8c4e881a5b9d985b1a59081d1bdad95b88125160421b6044820152606490fd5b6111aa9060005b5061166d565b61025c6111ba610ee06000610e52565b6111c38361035a565b1415611156565b634e487b7160e01b600052602260045260246000fd5b9060016002830492168015611200575b60208310146111fb57565b6111ca565b91607f16916111f0565b8054600093929161122761121d836111e0565b8085529360200190565b9160018116908115611279575060011461124057505050565b6112539192939450600052602060002090565b916000925b8184106112655750500190565b805484840152602090930192600101611258565b92949550505060ff1916825215156020020190565b9061025c9161120a565b906102466112b2926112a960405190565b9384809261128e565b0383610413565b61025c90611298565b61025c60196112b9565b61025c601a6112b9565b61025c61025c61025c9290565b906112f06104858361044d565b918252565b61025c60006112e3565b61025c6112f5565b6102f761131f92602092611319815190565b94859290565b938491016102a0565b6113369061025c9392611307565b90611307565b61134581611a2c565b61134d6113a7565b805161136061135c60006112d6565b9190565b111561139d5761025c6113919161137961025c94611c37565b9061138360405190565b938492602084019283611328565b90810382520382610413565b505061025c6112ff565b61025c6112ff565b156113b657565b60405162461bcd60e51b815260206004820152602160248201527f4552433732313a20617070726f76616c20746f2063757272656e74206f776e656044820152603960f91b6064820152608490fd5b1561140c57565b60405162461bcd60e51b815260206004820152603d60248201527f4552433732313a20617070726f76652063616c6c6572206973206e6f7420746f60448201527f6b656e206f776e6572206f7220617070726f76656420666f7220616c6c0000006064820152608490fd5b90610246916114c76114888361119d565b6114a46114948261035a565b61149d8561035a565b14156113af565b336114ae8261035a565b6114b78261035a565b149182156114cc575b5050611405565b611906565b6114d69250611517565b38806114c0565b906110fb906112d6565b61150761025c916114f6600090565b5061150081611a2c565b601d6114dd565b610e21565b6102469190336119b8565b61025c916115326115379261152a600090565b50601e6110f1565b6110f1565b5460ff1690565b1561154557565b60405162461bcd60e51b815260206004820152602d60248201527f4552433732313a2063616c6c6572206973206e6f7420746f6b656e206f776e6560448201526c1c881bdc88185c1c1c9bdd9959609a1b6064820152608490fd5b6102469291906115b86115b38433611684565b61153e565b6117f6565b9091610246926115cb6112ff565b925b610246939291906115e16115b38433611684565b61164e565b156115ed57565b6040515b62461bcd60e51b815260206004820152603260248201527f4552433732313a207472616e7366657220746f206e6f6e20455243373231526560448201527131b2b4bb32b91034b6b83632b6b2b73a32b960711b6064820152608490fd5b916102469391611668936116638383836117f6565b611adb565b6115e6565b61150761025c9161167c600090565b50601b6114dd565b61168d8261119d565b916116978361035a565b6116a08361035a565b149283156116d1575b5082156116b557505090565b6116cd9192506116c7610ee5916114e7565b9261035a565b1490565b6116de9193508290611517565b91386116a9565b156116ec57565b60405162461bcd60e51b815260206004820152602560248201527f4552433732313a207472616e736665722066726f6d20696e636f72726563742060448201526437bbb732b960d91b6064820152608490fd5b1561174657565b60405162461bcd60e51b8152602060048201526024808201527f4552433732313a207472616e7366657220746f20746865207a65726f206164646044820152637265737360e01b6064820152608490fd5b916001600160a01b0360089290920291821b911b610f95565b91906117c161025c610fdc93610fbc565b908354611797565b610246916000916117b0565b9060001990610f95565b906117ef61025c610fdc926112d6565b82546117d5565b91906118166118048361119d565b611810610ee58661035a565b146116e5565b611862600061183a61182a610ee083610e52565b6118338561035a565b141561173f565b6118526118468561119d565b611810610ee58861035a565b61185d84601d6114dd565b6117c9565b6118a661186f60016112d6565b61189661189c84601c6115326118858a836110f1565b6118968761189283611110565b0390565b906117df565b916102f783611110565b6118ba816118b584601b6114dd565b610fc5565b6118f66118f06118ea7fddf252ad1be2c89b69c2b068fc378daa952ba7f163c4a11628f55a4df523b3ef95610fbc565b92610fbc565b926112d6565b9261190060405190565b600090a4565b90611916826118b583601d6114dd565b61191f8161119d565b916118f66118f06118ea7f8c5be1e5ebec7d5bd14f71427d1e84f3dd0314c0f7b2291e5b200ac8c7c3b92595610fbc565b1561195757565b60405162461bcd60e51b815260206004820152601960248201527822a9219b99189d1030b8383937bb32903a379031b0b63632b960391b6044820152606490fd5b9060ff90610f95565b906119b161025c610fdc92151590565b8254611998565b6119d46119c48361035a565b6119cd8361035a565b1415611950565b6119ec836119e78461153285601e6110f1565b6119a1565b611036611a22611a1c7f17307eab39ab6107e8899845ad3d59bd9653f200f220920489ca2b5937696c3193610fbc565b93610fbc565b9361028260405190565b611a3861024691611a3d565b611156565b611a489060006111a4565b611a58610ee5610ee06000610e52565b141590565b9050519061024682610224565b906020828203126102345761025c91611a5d565b9092611aaf90611aa861025c9694611a9e60808601976000870190610366565b6020850190610366565b6040830152565b60608184039101526102c3565b3d15611ad657611acb3d6112e3565b903d6000602084013e565b606090565b91909392611ae7600090565b94611af181611bd8565b15611bce5790611b386000611b10611b0b60209695610fbc565b610fbc565b92611b4363150b7a0291611b213390565b96611b2b60405190565b998a988997889660e01b90565b865260048601611a7e565b03925af160009181611b9e575b50611b825750611b5e611abc565b8051611b6d61135c60006112d6565b03611b7a576040516115f1565b805190602001fd5b9091506116cd611b98630a85bd0160e11b610217565b91610217565b611bc091925060203d8111611bc7575b611bb88183610413565b810190611a6a565b9038611b50565b503d611bae565b5060019450505050565b3b611be661135c60006112d6565b1190565b369037565b90610246611c05611bff846112e3565b9361044d565b601f190160208401611bea565b634e487b7160e01b600052601260045260246000fd5b8115611c32570490565b611c12565b611c4081611cdf565b90611c506001926102f7846112d6565b9180611c5b84611bef565b8094611c65600090565b5060200101905b611c77575b50505090565b611cab9060001901926f181899199a1a9b1b9c1cb0b131b232b360811b600a82061a8453611ca5600a6112d6565b90611c28565b9081611cba61135c60006112d6565b14611cc757909181611c6c565b611c71565b6116cd611b986301ffc9a760e01b610217565b611ce960006112d6565b9072184f03e93ff9f4daa797ed6e38ed64bf6a1f0160401b611d0a816112d6565b821015611e5b575b506904ee2d6d415b85acef8160201b611d2a816112d6565b821015611e39575b50662386f26fc10000611d44816112d6565b821015611e17575b506305f5e100611d5b816112d6565b821015611df5575b50612710611d70816112d6565b821015611dd3575b506064611d84816112d6565b821015611db1575b50611d9a61135c600a6112d6565b1015611da35790565b61025c906102f760016112d6565b611dcc91611ca5611dc1926112d6565b916102f760026112d6565b9038611d8c565b611dee91611ca5611de3926112d6565b916102f760046112d6565b9038611d78565b611e1091611ca5611e05926112d6565b916102f760086112d6565b9038611d63565b611e3291611ca5611e27926112d6565b916102f760106112d6565b9038611d4c565b611e5491611ca5611e49926112d6565b916102f760206112d6565b9038611d32565b611e7691611ca5611e6b926112d6565b916102f760406112d6565b9038611d12565b61024690611e89610ec9565b61024690611f09565b61024690611e7d565b1561023457565b634e487b7160e01b600052603260045260246000fd5b8054821015611edb57611ed2600191600052602060002090565b91020190600090565b611ea2565b80549190600160401b8310156104345782611f0391600161024695018155611eb8565b906117b0565b61024690611f2c611f19826127d3565b611f2560015b91151590565b1415611e9b565b611f59611f516005611f4c84611f47611f43845490565b9390565b611ee0565b6112d6565b9160086110f1565b6117df565b61024690611f6a610ec9565b61024690611f59600891611fbf611f8461115183866110f1565b611f9d600091611f9661135c846112d6565b1215611e9b565b611fb9611fb0611f4c61115186896110f1565b60055b906128a7565b196112d6565b926110f1565b61024690611f5e565b90611fe9611fdd610879845490565b92600052602060002090565b9060005b818110611ffa5750505090565b90919261201b61201460019261200f87610e21565b6108f8565b9460010190565b929101611fed565b9061025c91611fce565b906102466112b29261203e60405190565b93848092612023565b61025c9061202d565b61025c6005612047565b61025c906120666120fb565b6120dd565b9061207a611fdd610879845490565b9060005b81811061208b5750505090565b9091926120a86120146001926120a087611110565b815260200190565b92910161207e565b9061025c9161206b565b906102466112b2926120cb60405190565b938480926120b0565b61025c906120ba565b5061025c6120ec33600b6110f1565b6120d4565b61025c606061205a565b610246612107336127d3565b611e9b565b61025c60e0610439565b61025c6080610439565b612128612116565b606080825260208201819052600060408301528082015290565b61025c612120565b61215261210c565b90600082526020808080808080880160008152016060815201612173612142565b815201600081520160008152016000905250565b61025c61214a565b9061025c9161219c6120fb565b9061025c916121aa82612306565b6122df565b8054821015611edb57611ed2600a91600052602060002090565b9061025f9061035a565b9061024661222760036121e4612116565b946121f56121f182611298565b8752565b61220b61220460018301611298565b6020880152565b61222161221a60028301611110565b6040880152565b016120ba565b6060840152565b9061025f90610d4a565b906102466122cf600961224961210c565b9461225c61225682610e21565b876121c9565b61227461226b60018301610e21565b602088016121c9565b61228361221a60028301611298565b612299612292600383016121d3565b6060880152565b6122b36122aa600783015460ff1690565b6080880161222e565b6122c96122c260088301611110565b60a0880152565b01611110565b60c0840152565b61025c90612238565b61025c916122ef915060006121af565b506122d6565b61025c90612301612187565b61218f565b61232060016123196102469360006121af565b5001610e21565b61232c610ee53361035a565b14611e9b565b90610246949392916123426120fb565b90610246949392916123538161278b565b906102469493929161236481612306565b612621565b634e487b7160e01b600052600060045260246000fd5b9160001960089290920291821b911b610f95565b91906123a461025c610fdc936112d6565b90835461237f565b61024691600091612393565b8181106123c3575050565b806123d160006001936123ac565b016123b8565b9190601f81116123e657505050565b6123f861024693600052602060002090565b906020601f84018190048301931061241a575b6020601f9091010401906123b8565b909150819061240b565b9060001960089091021c191690565b8161243d91612424565b906002021790565b9061244e815190565b906001600160401b038211610434576124718261246b85546111e0565b856123d7565b602090601f831160011461249f57610fdc929160009183612494575b5050612433565b01519050388061248d565b601f198316916124b485600052602060002090565b9260005b8181106124f3575091600293918560019694106124d9575b50505002019055565b6124e9910151601f841690612424565b90553880806124d0565b919360206001819287870151815501950192016124b8565b9061024691612445565b634e487b7160e01b600052601160045260246000fd5b600019811461253a5760010190565b612515565b90612548825190565b811015611edb576020809102010190565b9061189660c060066102469461257d60008201612577600088015190565b9061250b565b61258f60018201612577602088015190565b6125a160028201612577604088015190565b6125b360038201612577606088015190565b6125c560048201612577608088015190565b6125d76005820161189660a088015190565b0192015190565b9061024691612559565b80549190600160401b831015610434578261260b91600161024695018155611eb8565b90612393565b906119b161025c610fdc92610d54565b9092939491429161263a6126328490565b875b10611e9b565b61267b600096600261265361264f858b6121af565b5090565b94612675600387019161266c600384019b8d850161250b565b6001830161250b565b016117df565b612684866112d6565b61268f61025c895190565b81101561270d57806126c88961263461135c61025c60c06126bc876126c260a06126bc6127089c8a61253f565b51015190565b9661253f565b61270360156126df6126d982612757565b9161276c565b6126fd6126ec848d61253f565b516126f88360166114dd565b6125de565b886125e8565b61252b565b612684565b50600993965061273c9192945061273761025c61024697612731600d918701610e21565b906110f1565b6125e8565b612675600160078301612611565b9061024694939291612332565b600061025c91612765600090565b5001611110565b61024690611896600061277f60016112d6565b9201916102f783611110565b6102469061232c6127b56127af60076127a6600095866121af565b50015460ff1690565b92610d4a565b91610d4a565b61025c916008021c61035a565b9061025c91546127bb565b60086127e261115183836110f1565b6000906127f161135c836112d6565b12801561282f575b6128295750610ee56116c76128236116cd9361281d611f4c611151886005946110f1565b90611eb8565b906127c8565b91505090565b5060055461283f61135c836112d6565b11156127f9565b9190612851565b9290565b820391821161253a57565b9190820180921161253a57565b634e487b7160e01b600052603160045260246000fd5b805480156128a257600019019061289f6128998383611eb8565b906117c9565b55565b612869565b6128bb6128b561025c845490565b82612634565b81546128d561025c6001926128cf846112d6565b90612846565b82101561291057906127036129016128236128fb6128f561290b966112d6565b8561285c565b86611eb8565b611f038386611eb8565b6128bb565b50506102469061287f565b61024690612927610ec9565b61024690612934816127d3565b61293e6001611f1f565b1461295a5761294c81611f09565b61295a565b6102469061291b565b6102469061296a611f1982612989565b611f596129816006611f4c84611f47611f43845490565b9160096110f1565b600961299861115183836110f1565b6000906129a761135c836112d6565b1280156129d3575b6128295750610ee56116c76128236116cd9361281d611f4c611151886006946110f1565b506006546129e361135c836112d6565b11156129af565b610246906129f6610ec9565b61024690612a10612a0682612989565b61232c6001611f1f565b611f59600991612a30612a29611f4c61115184876110f1565b6006611fb3565b611fbf6000196112d6565b610246906129ea565b61025c6006612047565b61025c90612a5a612a73565b5061025c6120ec33600e6110f1565b61025c6060612a4e565b61024661210733612989565b61025c90612a8b612a73565b5061025c6120ec33600f6110f1565b61025c6060612a7f565b61025c90612ab0612a73565b5061025c6120ec3360106110f1565b61025c6060612aa4565b9061025c91612ad6612a73565b5061025c906120ec90612aea3360186110f1565b6114dd565b61025c906060612ac9565b9061024694939291612b0b81612d8d565b9061024694939291612c57565b9061024694939291612afa565b8054821015611edb57611ed2600691600052602060002090565b61025c610140610439565b61025c905161035a565b61025c9051610d4a565b61024691906118969061012090600990612b8181612b7b87612b4a565b90610fc5565b612b9460018201612b7b60208801612b4a565b612ba660028201611896604088015190565b612bb860038201611896606088015190565b612bca60048201611896608088015190565b612bdc6005820161189660a088015190565b612bee6006820161257760c088015190565b612c0760078201612c0160e08801612b54565b90612611565b6125d76008820161189661010088015190565b9190612c295761024691612b5e565b612369565b80549190600160401b8310156104345782612c51916001610246950181556121af565b90612c1a565b90939190612c66906001612b25565b50926003840192612c78845460ff1690565b90600091612c8583610d4a565b90612c8f90610d4a565b14612c9990611e9b565b612ca4848810611e9b565b612caf868301610e21565b923394612cbb86610fbc565b98612cc860028a01611110565b429a612cd2612b3f565b97612cdf90888a016121c9565b612cec90602089016121c9565b60408701526060860152608085015260a084015260c0830152612d129060e0830161222e565b612d1e85610100830152565b612d2a85610120830152565b600291612d35835490565b828193612d3f8690565b90612d4991612c2e565b60400151612d589060126114dd565b90612d62916125e8565b612d6d90600f6110f1565b90612d77916125e8565b612d8091612611565b60050190610246916117df565b6123206102469161231960019182612b25565b90610246939291612db082612ea5565b610246939291612dbf8261119d565b903392613280565b90610246939291612da0565b8054821015611edb57611ed2600991600052602060002090565b61025c610120610439565b90610246612e946008612e09612ded565b94612e1661225682610e21565b612e2561226b60018301610e21565b612e3461221a60028301611110565b612e4361229260038301611298565b612e59612e5260048301611110565b6080880152565b612e686122c260058301611110565b612e7e612e77600683016120ba565b60c0880152565b6122c9612e8d60078301611110565b60e0880152565b610100840152565b61025c90612df8565b612ebc612eb6610246926003612dd3565b50612e9c565b612ecb61232060208301612b4a565b608081015142908110159182612ee3575b5050611e9b565b612ef791925061284d60a061135c92015190565b10153880612edc565b90610246969594939291612f1382612ea5565b92612f4b610246976008978897612f6194612f4361264f612f3b61264f6126759b6026612dd3565b986003612dd3565b983390613030565b612f5881600685016125e8565b600685016125e8565b42948591016117df565b90610246969594939291612f00565b8054821015611edb57611ed2600791600052602060002090565b61024691906118969060c090600690612fb081612b7b87612b4a565b612fc260018201611896602088015190565b612fd460028201612577604088015190565b612fe660038201612577606088015190565b6125c560048201611896608088015190565b9190612c295761024691612f94565b80549190600160401b831015610434578261302a91600161024695018155612f7a565b90612ff8565b939094919261303d600090565b50429361304b858510611e9b565b61305361210c565b9661305e90886121c9565b613069866020890152565b60408701526060860152608085015260a084015260c083015260229061308e82612757565b92613099849361276c565b6130a4906025613007565b6130af90602a6114dd565b9061025c916125e8565b906112f0610485836105ed565b90610246611c056130d6846130b9565b936105ed565b8181106130e7575050565b806130f560006001936123ac565b016130dc565b909182811061310957505050565b610246929061311790611fdd565b90810191016130dc565b90600160401b81116104345781613139610246935490565b908281556130fb565b8151916001600160401b0383116104345761316c611fdd6001926131668686613121565b60200190565b92049160005b83811061317f5750505050565b600190602061318f61025c865190565b9401938184015501613172565b9061024691613142565b610246919061189690610100906008906131c381612b7b87612b4a565b6131d660018201612b7b60208801612b4a565b6131e860028201611896604088015190565b6131fa60038201611896606088015190565b61320c60048201612577608088015190565b61321e6005820161189660a088015190565b6132366006820161323060c088015190565b9061319c565b6125d76007820161189660e088015190565b9190612c2957610246916131a6565b80549190600160401b831015610434578261327a91600161024695018155612dd3565b90613248565b92949293429391613292858410611e9b565b60009661329e886112d6565b6132a7906130c6565b946132b0612ded565b988901906132bd916121c9565b6132ca90602089016121c9565b6132d5866040890152565b6060870152608086015260a085015260c08401526132f48160e0850152565b61010083015260239161330683612757565b926133109061276c565b61331b906026613257565b61332690602b6114dd565b90610246916125e856fea2646970667358221220456cd73139af5ec672846b66072f7871537abe62b6035bbeee076782fc30440a64736f6c63430008130033",
  "linkReferences": {},
  "deployedLinkReferences": {}
}