{
  "_format": "hh-sol-artifact-1",
  "contractName": "VehicleAccess",
  "sourceName": "contracts/vehicleAccess/VehicleAccess.sol",
  "abi": [
    {
      "anonymous": false,
      "inputs": [
        {
          "indexed": true,
          "internalType": "address",
          "name": "owner",
          "type": "address"
        },
        {
          "indexed": true,
          "internalType": "address",
          "name": "approved",
          "type": "address"
        },
        {
          "indexed": true,
          "internalType": "uint256",
          "name": "tokenId",
          "type": "uint256"
        }
      ],
      "name": "Approval",
      "type": "event"
    },
    {
      "anonymous": false,
      "inputs": [
        {
          "indexed": true,
          "internalType": "address",
          "name": "owner",
          "type": "address"
        },
        {
          "indexed": true,
          "internalType": "address",
          "name": "operator",
          "type": "address"
        },
        {
          "indexed": false,
          "internalType": "bool",
          "name": "approved",
          "type": "bool"
        }
      ],
      "name": "ApprovalForAll",
      "type": "event"
    },
    {
      "anonymous": false,
      "inputs": [
        {
          "indexed": true,
          "internalType": "address",
          "name": "previousOwner",
          "type": "address"
        },
        {
          "indexed": true,
          "internalType": "address",
          "name": "newOwner",
          "type": "address"
        }
      ],
      "name": "OwnershipTransferred",
      "type": "event"
    },
    {
      "anonymous": false,
      "inputs": [
        {
          "indexed": true,
          "internalType": "address",
          "name": "from",
          "type": "address"
        },
        {
          "indexed": true,
          "internalType": "address",
          "name": "to",
          "type": "address"
        },
        {
          "indexed": true,
          "internalType": "uint256",
          "name": "tokenId",
          "type": "uint256"
        }
      ],
      "name": "Transfer",
      "type": "event"
    },
    {
      "inputs": [
        {
          "internalType": "uint256",
          "name": "tokenId",
          "type": "uint256"
        },
        {
          "internalType": "string",
          "name": "title",
          "type": "string"
        },
        {
          "internalType": "string",
          "name": "description",
          "type": "string"
        },
        {
          "internalType": "uint256",
          "name": "price",
          "type": "uint256"
        },
        {
          "internalType": "uint256",
          "name": "date",
          "type": "uint256"
        }
      ],
      "name": "addVehicleServiceRecord",
      "outputs": [],
      "stateMutability": "nonpayable",
      "type": "function"
    },
    {
      "inputs": [
        {
          "internalType": "address",
          "name": "agentAddress",
          "type": "address"
        }
      ],
      "name": "agentDeactivation",
      "outputs": [],
      "stateMutability": "nonpayable",
      "type": "function"
    },
    {
      "inputs": [
        {
          "internalType": "address",
          "name": "agentAddress",
          "type": "address"
        }
      ],
      "name": "agentRegistration",
      "outputs": [],
      "stateMutability": "nonpayable",
      "type": "function"
    },
    {
      "inputs": [
        {
          "internalType": "address",
          "name": "to",
          "type": "address"
        },
        {
          "internalType": "uint256",
          "name": "tokenId",
          "type": "uint256"
        }
      ],
      "name": "approve",
      "outputs": [],
      "stateMutability": "nonpayable",
      "type": "function"
    },
    {
      "inputs": [
        {
          "internalType": "uint256",
          "name": "requestId",
          "type": "uint256"
        },
        {
          "internalType": "string",
          "name": "carBrand",
          "type": "string"
        },
        {
          "internalType": "string",
          "name": "carModel",
          "type": "string"
        },
        {
          "internalType": "uint256",
          "name": "manufacturingDate",
          "type": "uint256"
        },
        {
          "components": [
            {
              "internalType": "string",
              "name": "driverLicenseCode",
              "type": "string"
            },
            {
              "internalType": "string",
              "name": "federalUnit",
              "type": "string"
            },
            {
              "internalType": "string",
              "name": "county",
              "type": "string"
            },
            {
              "internalType": "string",
              "name": "vehiclePlate",
              "type": "string"
            },
            {
              "internalType": "string",
              "name": "year",
              "type": "string"
            },
            {
              "internalType": "uint256",
              "name": "startDate",
              "type": "uint256"
            },
            {
              "internalType": "uint256",
              "name": "endDate",
              "type": "uint256"
            }
          ],
          "internalType": "struct IBaseContract.VehicleOwnershipRecord[]",
          "name": "ownershipRecords",
          "type": "tuple[]"
        }
      ],
      "name": "approveVehicleRequest",
      "outputs": [],
      "stateMutability": "nonpayable",
      "type": "function"
    },
    {
      "inputs": [
        {
          "internalType": "address",
          "name": "owner",
          "type": "address"
        }
      ],
      "name": "balanceOf",
      "outputs": [
        {
          "internalType": "uint256",
          "name": "",
          "type": "uint256"
        }
      ],
      "stateMutability": "view",
      "type": "function"
    },
    {
      "inputs": [
        {
          "internalType": "uint256",
          "name": "proposalId",
          "type": "uint256"
        }
      ],
      "name": "contractVehicleInsuranceProposal",
      "outputs": [],
      "stateMutability": "payable",
      "type": "function"
    },
    {
      "inputs": [
        {
          "internalType": "uint256",
          "name": "requestId",
          "type": "uint256"
        }
      ],
      "name": "createVehicle",
      "outputs": [],
      "stateMutability": "nonpayable",
      "type": "function"
    },
    {
      "inputs": [
        {
          "internalType": "uint256",
          "name": "requestId",
          "type": "uint256"
        },
        {
          "internalType": "uint256",
          "name": "startDate",
          "type": "uint256"
        },
        {
          "internalType": "uint256",
          "name": "endDate",
          "type": "uint256"
        },
        {
          "internalType": "uint256",
          "name": "price",
          "type": "uint256"
        },
        {
          "internalType": "string",
          "name": "contractUrl",
          "type": "string"
        }
      ],
      "name": "createVehicleInsuranceProposal",
      "outputs": [],
      "stateMutability": "nonpayable",
      "type": "function"
    },
    {
      "inputs": [
        {
          "internalType": "uint256",
          "name": "tokenId",
          "type": "uint256"
        },
        {
          "internalType": "address",
          "name": "insurer",
          "type": "address"
        }
      ],
      "name": "createVehicleInsuranceRequest",
      "outputs": [],
      "stateMutability": "nonpayable",
      "type": "function"
    },
    {
      "inputs": [
        {
          "internalType": "address",
          "name": "agent",
          "type": "address"
        },
        {
          "internalType": "string",
          "name": "vehicleRegistrationCode",
          "type": "string"
        }
      ],
      "name": "createVehicleRequest",
      "outputs": [],
      "stateMutability": "nonpayable",
      "type": "function"
    },
    {
      "inputs": [
        {
          "internalType": "string",
          "name": "driverLicenseCode",
          "type": "string"
        }
      ],
      "name": "defineDriverLicenseCode",
      "outputs": [],
      "stateMutability": "nonpayable",
      "type": "function"
    },
    {
      "inputs": [
        {
          "internalType": "address",
          "name": "user",
          "type": "address"
        }
      ],
      "name": "driverLicenseCodeOf",
      "outputs": [
        {
          "internalType": "string",
          "name": "",
          "type": "string"
        }
      ],
      "stateMutability": "view",
      "type": "function"
    },
    {
      "inputs": [
        {
          "internalType": "uint256",
          "name": "tokenId",
          "type": "uint256"
        },
        {
          "internalType": "address",
          "name": "fromAddress",
          "type": "address"
        }
      ],
      "name": "getAccessByTokenId",
      "outputs": [
        {
          "components": [
            {
              "internalType": "uint256",
              "name": "tokenId",
              "type": "uint256"
            },
            {
              "internalType": "uint256",
              "name": "expirationDate",
              "type": "uint256"
            },
            {
              "internalType": "uint256",
              "name": "updatedAt",
              "type": "uint256"
            },
            {
              "internalType": "uint256",
              "name": "createdAt",
              "type": "uint256"
            }
          ],
          "internalType": "struct IBaseContract.Access",
          "name": "",
          "type": "tuple"
        }
      ],
      "stateMutability": "view",
      "type": "function"
    },
    {
      "inputs": [
        {
          "internalType": "uint256",
          "name": "tokenId",
          "type": "uint256"
        }
      ],
      "name": "getApproved",
      "outputs": [
        {
          "internalType": "address",
          "name": "",
          "type": "address"
        }
      ],
      "stateMutability": "view",
      "type": "function"
    },
    {
      "inputs": [],
      "name": "getDriverLicenseCode",
      "outputs": [
        {
          "internalType": "string",
          "name": "driverLicenseCode",
          "type": "string"
        }
      ],
      "stateMutability": "view",
      "type": "function"
    },
    {
      "inputs": [],
      "name": "getTokenIdsByOwner",
      "outputs": [
        {
          "internalType": "uint256[]",
          "name": "",
          "type": "uint256[]"
        }
      ],
      "stateMutability": "view",
      "type": "function"
    },
    {
      "inputs": [
        {
          "internalType": "uint256",
          "name": "requestId",
          "type": "uint256"
        }
      ],
      "name": "getUserVehicleRequestById",
      "outputs": [
        {
          "components": [
            {
              "internalType": "address",
              "name": "requester",
              "type": "address"
            },
            {
              "internalType": "address",
              "name": "agent",
              "type": "address"
            },
            {
              "internalType": "string",
              "name": "vehicleRegistrationCode",
              "type": "string"
            },
            {
              "components": [
                {
                  "internalType": "string",
                  "name": "carBrand",
                  "type": "string"
                },
                {
                  "internalType": "string",
                  "name": "carModel",
                  "type": "string"
                },
                {
                  "internalType": "uint256",
                  "name": "manufacturingDate",
                  "type": "uint256"
                },
                {
                  "internalType": "uint256[]",
                  "name": "vehicleOwnershipRecordIds",
                  "type": "uint256[]"
                }
              ],
              "internalType": "struct IBaseContract.VehicleRequestData",
              "name": "vehicleData",
              "type": "tuple"
            },
            {
              "internalType": "enum IBaseContract.Status",
              "name": "status",
              "type": "uint8"
            },
            {
              "internalType": "uint256",
              "name": "createdAt",
              "type": "uint256"
            },
            {
              "internalType": "uint256",
              "name": "updatedAt",
              "type": "uint256"
            }
          ],
          "internalType": "struct IBaseContract.VehicleRequest",
          "name": "",
          "type": "tuple"
        }
      ],
      "stateMutability": "view",
      "type": "function"
    },
    {
      "inputs": [
        {
          "internalType": "uint256",
          "name": "accidentId",
          "type": "uint256"
        }
      ],
      "name": "getVehicleAccidentRecordById",
      "outputs": [
        {
          "components": [
            {
              "internalType": "address",
              "name": "vehicleOwner",
              "type": "address"
            },
            {
              "internalType": "address",
              "name": "insurer",
              "type": "address"
            },
            {
              "internalType": "uint256",
              "name": "tokenId",
              "type": "uint256"
            },
            {
              "internalType": "uint256",
              "name": "insuranceId",
              "type": "uint256"
            },
            {
              "internalType": "string",
              "name": "description",
              "type": "string"
            },
            {
              "internalType": "uint256",
              "name": "accidentDate",
              "type": "uint256"
            },
            {
              "internalType": "uint256[]",
              "name": "vehicleServicesIds",
              "type": "uint256[]"
            },
            {
              "internalType": "uint256",
              "name": "createdAt",
              "type": "uint256"
            },
            {
              "internalType": "uint256",
              "name": "updatedAt",
              "type": "uint256"
            }
          ],
          "internalType": "struct IBaseContract.VehicleAccidentRecord",
          "name": "",
          "type": "tuple"
        }
      ],
      "stateMutability": "view",
      "type": "function"
    },
    {
      "inputs": [
        {
          "internalType": "uint256",
          "name": "tokenId",
          "type": "uint256"
        }
      ],
      "name": "getVehicleAccidentRecordIdsByTokenId",
      "outputs": [
        {
          "internalType": "uint256[]",
          "name": "",
          "type": "uint256[]"
        }
      ],
      "stateMutability": "view",
      "type": "function"
    },
    {
      "inputs": [
        {
          "internalType": "uint256",
          "name": "insuranceId",
          "type": "uint256"
        }
      ],
      "name": "getVehicleInsuranceContractById",
      "outputs": [
        {
          "components": [
            {
              "internalType": "address",
              "name": "requester",
              "type": "address"
            },
            {
              "internalType": "address",
              "name": "insurer",
              "type": "address"
            },
            {
              "internalType": "uint256",
              "name": "tokenId",
              "type": "uint256"
            },
            {
              "internalType": "string",
              "name": "contractUrl",
              "type": "string"
            },
            {
              "internalType": "uint256",
              "name": "insuranceStartDate",
              "type": "uint256"
            },
            {
              "internalType": "uint256",
              "name": "insuranceEndDate",
              "type": "uint256"
            },
            {
              "internalType": "uint256[]",
              "name": "vehicleServicesIds",
              "type": "uint256[]"
            },
            {
              "internalType": "uint256",
              "name": "createdAt",
              "type": "uint256"
            },
            {
              "internalType": "uint256",
              "name": "updatedAt",
              "type": "uint256"
            }
          ],
          "internalType": "struct IBaseContract.VehicleInsuranceContract",
          "name": "",
          "type": "tuple"
        }
      ],
      "stateMutability": "view",
      "type": "function"
    },
    {
      "inputs": [],
      "name": "getVehicleInsuranceContractIdsByInsurer",
      "outputs": [
        {
          "internalType": "uint256[]",
          "name": "",
          "type": "uint256[]"
        }
      ],
      "stateMutability": "view",
      "type": "function"
    },
    {
      "inputs": [
        {
          "internalType": "uint256",
          "name": "tokenId",
          "type": "uint256"
        }
      ],
      "name": "getVehicleInsuranceContractIdsByInsurerAndTokenId",
      "outputs": [
        {
          "internalType": "uint256[]",
          "name": "",
          "type": "uint256[]"
        }
      ],
      "stateMutability": "view",
      "type": "function"
    },
    {
      "inputs": [
        {
          "internalType": "uint256",
          "name": "tokenId",
          "type": "uint256"
        }
      ],
      "name": "getVehicleInsuranceContractIdsByTokenId",
      "outputs": [
        {
          "internalType": "uint256[]",
          "name": "",
          "type": "uint256[]"
        }
      ],
      "stateMutability": "view",
      "type": "function"
    },
    {
      "inputs": [
        {
          "internalType": "uint256",
          "name": "proposalId",
          "type": "uint256"
        }
      ],
      "name": "getVehicleInsuranceProposalById",
      "outputs": [
        {
          "components": [
            {
              "internalType": "address",
              "name": "requester",
              "type": "address"
            },
            {
              "internalType": "address payable",
              "name": "insurer",
              "type": "address"
            },
            {
              "internalType": "uint256",
              "name": "tokenId",
              "type": "uint256"
            },
            {
              "internalType": "uint256",
              "name": "insuranceStartDate",
              "type": "uint256"
            },
            {
              "internalType": "uint256",
              "name": "insuranceEndDate",
              "type": "uint256"
            },
            {
              "internalType": "uint256",
              "name": "price",
              "type": "uint256"
            },
            {
              "internalType": "string",
              "name": "contractUrl",
              "type": "string"
            },
            {
              "internalType": "enum IBaseContract.Status",
              "name": "status",
              "type": "uint8"
            },
            {
              "internalType": "uint256",
              "name": "createdAt",
              "type": "uint256"
            },
            {
              "internalType": "uint256",
              "name": "updatedAt",
              "type": "uint256"
            }
          ],
          "internalType": "struct IBaseContract.VehicleInsuranceProposal",
          "name": "",
          "type": "tuple"
        }
      ],
      "stateMutability": "view",
      "type": "function"
    },
    {
      "inputs": [],
      "name": "getVehicleInsuranceProposalIdsByInsurer",
      "outputs": [
        {
          "internalType": "uint256[]",
          "name": "",
          "type": "uint256[]"
        }
      ],
      "stateMutability": "view",
      "type": "function"
    },
    {
      "inputs": [
        {
          "internalType": "uint256",
          "name": "tokenId",
          "type": "uint256"
        }
      ],
      "name": "getVehicleInsuranceProposalIdsByTokenId",
      "outputs": [
        {
          "internalType": "uint256[]",
          "name": "",
          "type": "uint256[]"
        }
      ],
      "stateMutability": "view",
      "type": "function"
    },
    {
      "inputs": [
        {
          "internalType": "uint256",
          "name": "requestId",
          "type": "uint256"
        }
      ],
      "name": "getVehicleInsuranceRequestById",
      "outputs": [
        {
          "components": [
            {
              "internalType": "address",
              "name": "requester",
              "type": "address"
            },
            {
              "internalType": "address",
              "name": "insurer",
              "type": "address"
            },
            {
              "internalType": "uint256",
              "name": "tokenId",
              "type": "uint256"
            },
            {
              "internalType": "enum IBaseContract.Status",
              "name": "status",
              "type": "uint8"
            },
            {
              "internalType": "uint256",
              "name": "createdAt",
              "type": "uint256"
            },
            {
              "internalType": "uint256",
              "name": "updatedAt",
              "type": "uint256"
            }
          ],
          "internalType": "struct IBaseContract.VehicleInsuranceRequest",
          "name": "",
          "type": "tuple"
        }
      ],
      "stateMutability": "view",
      "type": "function"
    },
    {
      "inputs": [],
      "name": "getVehicleInsuranceRequestIdsByInsurer",
      "outputs": [
        {
          "internalType": "uint256[]",
          "name": "",
          "type": "uint256[]"
        }
      ],
      "stateMutability": "view",
      "type": "function"
    },
    {
      "inputs": [
        {
          "internalType": "uint256",
          "name": "tokenId",
          "type": "uint256"
        }
      ],
      "name": "getVehicleInsuranceRequestIdsByTokenId",
      "outputs": [
        {
          "internalType": "uint256[]",
          "name": "",
          "type": "uint256[]"
        }
      ],
      "stateMutability": "view",
      "type": "function"
    },
    {
      "inputs": [
        {
          "internalType": "uint256",
          "name": "tokenId",
          "type": "uint256"
        }
      ],
      "name": "getVehicleNFTMetadataByTokenId",
      "outputs": [
        {
          "components": [
            {
              "internalType": "string",
              "name": "vehicleRegistrationCode",
              "type": "string"
            },
            {
              "internalType": "string",
              "name": "carBrand",
              "type": "string"
            },
            {
              "internalType": "string",
              "name": "carModel",
              "type": "string"
            },
            {
              "internalType": "uint256",
              "name": "manufacturingDate",
              "type": "uint256"
            },
            {
              "internalType": "uint256[]",
              "name": "vehicleOwnershipRecordIds",
              "type": "uint256[]"
            }
          ],
          "internalType": "struct INFT.MetadataVehicleNFT",
          "name": "",
          "type": "tuple"
        }
      ],
      "stateMutability": "view",
      "type": "function"
    },
    {
      "inputs": [
        {
          "internalType": "uint256",
          "name": "tokenId",
          "type": "uint256"
        },
        {
          "internalType": "uint256",
          "name": "ownershipId",
          "type": "uint256"
        }
      ],
      "name": "getVehicleOwnershipRecordById",
      "outputs": [
        {
          "components": [
            {
              "internalType": "string",
              "name": "driverLicenseCode",
              "type": "string"
            },
            {
              "internalType": "string",
              "name": "federalUnit",
              "type": "string"
            },
            {
              "internalType": "string",
              "name": "county",
              "type": "string"
            },
            {
              "internalType": "string",
              "name": "vehiclePlate",
              "type": "string"
            },
            {
              "internalType": "string",
              "name": "year",
              "type": "string"
            },
            {
              "internalType": "uint256",
              "name": "startDate",
              "type": "uint256"
            },
            {
              "internalType": "uint256",
              "name": "endDate",
              "type": "uint256"
            }
          ],
          "internalType": "struct IBaseContract.VehicleOwnershipRecord",
          "name": "",
          "type": "tuple"
        }
      ],
      "stateMutability": "view",
      "type": "function"
    },
    {
      "inputs": [
        {
          "internalType": "uint256",
          "name": "requestId",
          "type": "uint256"
        }
      ],
      "name": "getVehicleRequestById",
      "outputs": [
        {
          "components": [
            {
              "internalType": "address",
              "name": "requester",
              "type": "address"
            },
            {
              "internalType": "address",
              "name": "agent",
              "type": "address"
            },
            {
              "internalType": "string",
              "name": "vehicleRegistrationCode",
              "type": "string"
            },
            {
              "components": [
                {
                  "internalType": "string",
                  "name": "carBrand",
                  "type": "string"
                },
                {
                  "internalType": "string",
                  "name": "carModel",
                  "type": "string"
                },
                {
                  "internalType": "uint256",
                  "name": "manufacturingDate",
                  "type": "uint256"
                },
                {
                  "internalType": "uint256[]",
                  "name": "vehicleOwnershipRecordIds",
                  "type": "uint256[]"
                }
              ],
              "internalType": "struct IBaseContract.VehicleRequestData",
              "name": "vehicleData",
              "type": "tuple"
            },
            {
              "internalType": "enum IBaseContract.Status",
              "name": "status",
              "type": "uint8"
            },
            {
              "internalType": "uint256",
              "name": "createdAt",
              "type": "uint256"
            },
            {
              "internalType": "uint256",
              "name": "updatedAt",
              "type": "uint256"
            }
          ],
          "internalType": "struct IBaseContract.VehicleRequest",
          "name": "",
          "type": "tuple"
        }
      ],
      "stateMutability": "view",
      "type": "function"
    },
    {
      "inputs": [
        {
          "internalType": "uint256",
          "name": "serviceId",
          "type": "uint256"
        }
      ],
      "name": "getVehicleServiceRecordById",
      "outputs": [
        {
          "components": [
            {
              "internalType": "address",
              "name": "requester",
              "type": "address"
            },
            {
              "internalType": "uint256",
              "name": "tokenId",
              "type": "uint256"
            },
            {
              "internalType": "string",
              "name": "title",
              "type": "string"
            },
            {
              "internalType": "string",
              "name": "description",
              "type": "string"
            },
            {
              "internalType": "uint256",
              "name": "price",
              "type": "uint256"
            },
            {
              "internalType": "uint256",
              "name": "date",
              "type": "uint256"
            },
            {
              "internalType": "uint256",
              "name": "createdAt",
              "type": "uint256"
            }
          ],
          "internalType": "struct IBaseContract.VehicleServiceRecord",
          "name": "",
          "type": "tuple"
        }
      ],
      "stateMutability": "view",
      "type": "function"
    },
    {
      "inputs": [
        {
          "internalType": "uint256",
          "name": "tokenId",
          "type": "uint256"
        }
      ],
      "name": "getVehicleServiceRecordIdsByTokenId",
      "outputs": [
        {
          "internalType": "uint256[]",
          "name": "",
          "type": "uint256[]"
        }
      ],
      "stateMutability": "view",
      "type": "function"
    },
    {
      "inputs": [
        {
          "internalType": "uint256",
          "name": "tokenId",
          "type": "uint256"
        },
        {
          "internalType": "address",
          "name": "toAddress",
          "type": "address"
        },
        {
          "internalType": "uint256",
          "name": "expirationDate",
          "type": "uint256"
        }
      ],
      "name": "giveVehicleAccessByTokenId",
      "outputs": [],
      "stateMutability": "nonpayable",
      "type": "function"
    },
    {
      "inputs": [
        {
          "internalType": "uint256",
          "name": "tokenId",
          "type": "uint256"
        },
        {
          "internalType": "uint256",
          "name": "insuranceId",
          "type": "uint256"
        },
        {
          "internalType": "uint256",
          "name": "accidentId",
          "type": "uint256"
        },
        {
          "internalType": "string",
          "name": "title",
          "type": "string"
        },
        {
          "internalType": "string",
          "name": "description",
          "type": "string"
        },
        {
          "internalType": "uint256",
          "name": "price",
          "type": "uint256"
        },
        {
          "internalType": "uint256",
          "name": "date",
          "type": "uint256"
        }
      ],
      "name": "insurerAddVehicleServiceRecord",
      "outputs": [],
      "stateMutability": "nonpayable",
      "type": "function"
    },
    {
      "inputs": [
        {
          "internalType": "address",
          "name": "insurerAddress",
          "type": "address"
        }
      ],
      "name": "insurerDeactivation",
      "outputs": [],
      "stateMutability": "nonpayable",
      "type": "function"
    },
    {
      "inputs": [
        {
          "internalType": "address",
          "name": "insurerAddress",
          "type": "address"
        }
      ],
      "name": "insurerRegistration",
      "outputs": [],
      "stateMutability": "nonpayable",
      "type": "function"
    },
    {
      "inputs": [
        {
          "internalType": "address",
          "name": "owner",
          "type": "address"
        },
        {
          "internalType": "address",
          "name": "operator",
          "type": "address"
        }
      ],
      "name": "isApprovedForAll",
      "outputs": [
        {
          "internalType": "bool",
          "name": "",
          "type": "bool"
        }
      ],
      "stateMutability": "view",
      "type": "function"
    },
    {
      "inputs": [
        {
          "internalType": "uint256",
          "name": "tokenId",
          "type": "uint256"
        }
      ],
      "name": "listAccessByTokenId",
      "outputs": [
        {
          "internalType": "address[]",
          "name": "",
          "type": "address[]"
        }
      ],
      "stateMutability": "view",
      "type": "function"
    },
    {
      "inputs": [],
      "name": "listAgents",
      "outputs": [
        {
          "internalType": "address[]",
          "name": "",
          "type": "address[]"
        }
      ],
      "stateMutability": "view",
      "type": "function"
    },
    {
      "inputs": [],
      "name": "listApprovalsIds",
      "outputs": [
        {
          "internalType": "uint256[]",
          "name": "",
          "type": "uint256[]"
        }
      ],
      "stateMutability": "view",
      "type": "function"
    },
    {
      "inputs": [],
      "name": "listInsurers",
      "outputs": [
        {
          "internalType": "address[]",
          "name": "",
          "type": "address[]"
        }
      ],
      "stateMutability": "view",
      "type": "function"
    },
    {
      "inputs": [],
      "name": "listTokenIdsWithAccess",
      "outputs": [
        {
          "internalType": "uint256[]",
          "name": "",
          "type": "uint256[]"
        }
      ],
      "stateMutability": "view",
      "type": "function"
    },
    {
      "inputs": [],
      "name": "listUserVehicleRequestsIds",
      "outputs": [
        {
          "internalType": "uint256[]",
          "name": "",
          "type": "uint256[]"
        }
      ],
      "stateMutability": "view",
      "type": "function"
    },
    {
      "inputs": [],
      "name": "listVehicleRequestsIds",
      "outputs": [
        {
          "internalType": "uint256[]",
          "name": "",
          "type": "uint256[]"
        }
      ],
      "stateMutability": "view",
      "type": "function"
    },
    {
      "inputs": [],
      "name": "name",
      "outputs": [
        {
          "internalType": "string",
          "name": "",
          "type": "string"
        }
      ],
      "stateMutability": "view",
      "type": "function"
    },
    {
      "inputs": [],
      "name": "owner",
      "outputs": [
        {
          "internalType": "address",
          "name": "",
          "type": "address"
        }
      ],
      "stateMutability": "view",
      "type": "function"
    },
    {
      "inputs": [
        {
          "internalType": "uint256",
          "name": "tokenId",
          "type": "uint256"
        }
      ],
      "name": "ownerOf",
      "outputs": [
        {
          "internalType": "address",
          "name": "",
          "type": "address"
        }
      ],
      "stateMutability": "view",
      "type": "function"
    },
    {
      "inputs": [
        {
          "internalType": "uint256",
          "name": "tokenId",
          "type": "uint256"
        },
        {
          "internalType": "uint256",
          "name": "insuranceId",
          "type": "uint256"
        },
        {
          "internalType": "string",
          "name": "description",
          "type": "string"
        },
        {
          "internalType": "uint256",
          "name": "accidentDate",
          "type": "uint256"
        }
      ],
      "name": "registerVehicleAccidentRecord",
      "outputs": [],
      "stateMutability": "nonpayable",
      "type": "function"
    },
    {
      "inputs": [],
      "name": "renounceOwnership",
      "outputs": [],
      "stateMutability": "nonpayable",
      "type": "function"
    },
    {
      "inputs": [
        {
          "internalType": "uint256",
          "name": "tokenId",
          "type": "uint256"
        },
        {
          "internalType": "address",
          "name": "toAddress",
          "type": "address"
        }
      ],
      "name": "revokeVehicleAccessByTokenId",
      "outputs": [],
      "stateMutability": "nonpayable",
      "type": "function"
    },
    {
      "inputs": [
        {
          "internalType": "address",
          "name": "from",
          "type": "address"
        },
        {
          "internalType": "address",
          "name": "to",
          "type": "address"
        },
        {
          "internalType": "uint256",
          "name": "tokenId",
          "type": "uint256"
        }
      ],
      "name": "safeTransferFrom",
      "outputs": [],
      "stateMutability": "nonpayable",
      "type": "function"
    },
    {
      "inputs": [
        {
          "internalType": "address",
          "name": "from",
          "type": "address"
        },
        {
          "internalType": "address",
          "name": "to",
          "type": "address"
        },
        {
          "internalType": "uint256",
          "name": "tokenId",
          "type": "uint256"
        },
        {
          "internalType": "bytes",
          "name": "data",
          "type": "bytes"
        }
      ],
      "name": "safeTransferFrom",
      "outputs": [],
      "stateMutability": "nonpayable",
      "type": "function"
    },
    {
      "inputs": [
        {
          "internalType": "address",
          "name": "operator",
          "type": "address"
        },
        {
          "internalType": "bool",
          "name": "approved",
          "type": "bool"
        }
      ],
      "name": "setApprovalForAll",
      "outputs": [],
      "stateMutability": "nonpayable",
      "type": "function"
    },
    {
      "inputs": [
        {
          "internalType": "bytes4",
          "name": "interfaceId",
          "type": "bytes4"
        }
      ],
      "name": "supportsInterface",
      "outputs": [
        {
          "internalType": "bool",
          "name": "",
          "type": "bool"
        }
      ],
      "stateMutability": "view",
      "type": "function"
    },
    {
      "inputs": [],
      "name": "symbol",
      "outputs": [
        {
          "internalType": "string",
          "name": "",
          "type": "string"
        }
      ],
      "stateMutability": "view",
      "type": "function"
    },
    {
      "inputs": [
        {
          "internalType": "uint256",
          "name": "tokenId",
          "type": "uint256"
        }
      ],
      "name": "tokenURI",
      "outputs": [
        {
          "internalType": "string",
          "name": "",
          "type": "string"
        }
      ],
      "stateMutability": "view",
      "type": "function"
    },
    {
      "inputs": [
        {
          "internalType": "address",
          "name": "from",
          "type": "address"
        },
        {
          "internalType": "address",
          "name": "to",
          "type": "address"
        },
        {
          "internalType": "uint256",
          "name": "tokenId",
          "type": "uint256"
        }
      ],
      "name": "transferFrom",
      "outputs": [],
      "stateMutability": "nonpayable",
      "type": "function"
    },
    {
      "inputs": [
        {
          "internalType": "address",
          "name": "newOwner",
          "type": "address"
        }
      ],
      "name": "transferOwnership",
      "outputs": [],
      "stateMutability": "nonpayable",
      "type": "function"
    },
    {
      "inputs": [
        {
          "internalType": "string",
          "name": "driverLicenseCode",
          "type": "string"
        }
      ],
      "name": "userRegistration",
      "outputs": [],
      "stateMutability": "nonpayable",
      "type": "function"
    }
  ],
  "bytecode": "0x6080604052346200002657620000146200002b565b6040516155496200053e823961554990f35b600080fd5b6200003562000037565b565b620000356200003562000035620000356200003562000035620000356200003562000035620000356200003562000035620000356200003562000035620000356200003562000035620000356200003562000035620000356200003562000174565b634e487b7160e01b600052604160045260246000fd5b90601f01601f191681019081106001600160401b03821117620000d157604052565b62000099565b9062000035620000e660405190565b9283620000af565b6001600160401b038111620000d157602090601f01601f19160190565b90620001216200011b83620000ee565b620000d7565b918252565b6200013260036200010b565b6213919560ea1b602082015290565b6200014b62000126565b90565b6200015a60046200010b565b631593919560e21b602082015290565b6200014b6200014e565b620001936200018262000141565b6200018c6200016a565b906200019f565b6200003560216200050d565b620000359182918291829182918291620001ba9190620003e0565b620000353362000470565b634e487b7160e01b600052602260045260246000fd5b9060016002830492168015620001fe575b6020831014620001f857565b620001c5565b91607f1691620001ec565b9160001960089290920291821b911b5b9181191691161790565b6200014b6200014b6200014b9290565b9190620002486200014b620002519362000223565b90835462000209565b9055565b620000359160009162000233565b8181106200026f575050565b806200027f600060019362000255565b0162000263565b9190601f81116200029657505050565b620002aa6200003593600052602060002090565b906020601f840181900483019310620002ce575b6020601f90910104019062000263565b9091508190620002be565b9060001960089091021c191690565b81620002f491620002d9565b906002021790565b9062000306815190565b906001600160401b038211620000d1576200032e82620003278554620001db565b8562000286565b602090601f831160011462000361576200025192916000918362000355575b5050620002e8565b0151905038806200034d565b601f198316916200037785600052602060002090565b9260005b818110620003bb575091600293918560019694106200039e575b50505002019055565b620003b0910151601f841690620002d9565b905538808062000395565b919360206001819287870151815501950192016200037b565b906200003591620002fc565b90620003f26200003592601a620003d4565b601b620003d4565b6200014b905b6001600160a01b031690565b6200014b9054620003fa565b906001600160a01b039062000219565b6200014b9062000400906001600160a01b031682565b6200014b9062000428565b6200014b906200043e565b90620004686200014b620002519262000449565b825462000418565b6200047c60206200040c565b906200048a81602062000454565b620004c1620004ba7f8be0079c531659141344cd1fd0a4f28419497f9722a3daafe3b4186f6b6457e09362000449565b9162000449565b91620004cc60405190565b600090a3565b6200014b9081565b6200014b9054620004d2565b906000199062000219565b90620005056200014b620002519262000223565b8254620004e6565b620000359062000536600062000524600162000223565b9201916200053283620004da565b0190565b90620004f156fe6080604052600436101561001257600080fd5b60003560e01c806301664486146103f257806301ffc9a7146103ed57806306fdde03146103e8578063081812fc146103e3578063095ea7b3146103de5780631114cd57146103d95780631499f40b146103d457806314a5189a146103cf57806315acca77146103ca5780631a971303146103c557806323b872dd146103c05780632b6c64be146103bb5780632e5d81fb146103b657806331a3e0c9146103b1578063333f0040146103ac5780633ba188cb146103a757806342842e0e146103a2578063492af1061461039d5780634c7525da1461039857806355855ddc14610393578063558df3d31461038e5780635bfe19b5146103895780636352211e1461038457806363d1b1b91461037f57806366a473fe1461037a57806368684d08146103755780636f04401d1461037057806370a082311461036b57806370e37a6414610366578063715018a61461036157806371f46bbb1461035c57806372ea011c1461035757806378301afd146103525780637ae3cae31461034d5780637d6acdf4146103485780637db3b2ff14610343578063845c9cbb1461033e5780638b523d0b146103395780638da5cb5b146103345780638f60d40b1461032f57806395d89b411461032a57806396678e9e146103255780639776f17e14610320578063993266221461031b5780639d51b26f14610316578063a130d9fc14610311578063a16c03be1461030c578063a22cb46514610307578063a563efb414610302578063b88d4fde146102fd578063baf0438f146102f8578063bc6f4be6146102f3578063c69b400a146102ee578063c6c1b356146102e9578063c87b56dd146102e4578063cf6713d0146102df578063d6cd4a02146102da578063d7d38508146102d5578063e125e202146102d0578063e985e9c5146102cb578063f2fde38b146102c65763f4f297a70361040057611854565b61183c565b611820565b6117df565b611752565b611737565b61171f565b611704565b6116e9565b6116c2565b6115f2565b6115d7565b6115bb565b611551565b611538565b6114e5565b6114ca565b6114a3565b61141c565b6113f4565b61139d565b611382565b611363565b6112bf565b6112a7565b61128c565b611271565b611258565b611230565b61117a565b61112e565b6110b0565b611098565b61107d565b611052565b61103a565b611013565b610f9f565b610f84565b610f69565b610f4e565b610f35565b610ef5565b610e63565b610e16565b610dfd565b610de2565b610dc6565b610d3a565b610b1d565b610a98565b6109d5565b610989565b61085d565b61082e565b610807565b61067c565b6105fc565b6105b2565b61055e565b6104b9565b61045c565b805b0361040057565b600080fd5b90503590610412826103f7565b565b6001600160a01b031690565b90565b6103f981610414565b9050359061041282610423565b919060408382031261040057610420906104538185610405565b9360200161042c565b346104005761047561046f366004610439565b9061509d565b604051005b0390f35b6001600160e01b03191690565b6103f98161047e565b905035906104128261048b565b906020828203126104005761042091610494565b9052565b346104005761047a6104d46104cf3660046104a1565b611a89565b6040515b91829182901515815260200190565b600091031261040057565b60005b8381106105055750506000910152565b81810151838201526020016104f5565b61053661053f6020936105499361052a815190565b80835293849260200190565b958691016104f2565b601f01601f191690565b0190565b602080825261042092910190610515565b346104005761056e3660046104e7565b61047a610579611d10565b6040519182918261054d565b906020828203126104005761042091610405565b6104b590610414565b6020810192916104129190610599565b346104005761047a6105cd6105c8366004610585565b611f35565b604051918291826105a2565b919060408382031261040057610420906105f3818561042c565b93602001610405565b346104005761047561060f3660046105d9565b90611ec5565b9061063561062e610624845190565b8084529260200190565b9260200190565b9060005b8181106106465750505090565b90919261066361065c6001928651815260200190565b9460200190565b929101610639565b602080825261042092910190610615565b346104005761068c3660046104e7565b61047a61069761411e565b6040519182918261066b565b906106b261062e610624845190565b9060005b8181106106c35750505090565b9091926106d961065c6001928651815260200190565b9291016106b6565b8051608080845261042093916060916107129161070091850190610515565b60208501518482036020860152610515565b9261072260408201516040850152565b01519060608184039101526106a3565b634e487b7160e01b600052602160045260246000fd5b6004111561075257565b610732565b9061041282610748565b61042090610757565b6104b590610761565b906104209060c0806107cd6107bb60e0850161079760008901516000880190610599565b6107a960208901516020880190610599565b60408801518682036040880152610515565b606087015185820360608701526106e1565b946107e06080820151608086019061076a565b6107ef60a082015160a0860152565b0151910152565b602080825261042092910190610773565b346104005761047a61082261081d366004610585565b6140df565b604051918291826107f6565b346104005761083e3660046104e7565b61047a6106976140c7565b90602082820312610400576104209161042c565b346104005761047a610579610873366004610849565b613e9d565b634e487b7160e01b600052604160045260246000fd5b90601f01601f191681019081106001600160401b038211176108af57604052565b610878565b906104126108c160405190565b928361088e565b6001600160401b0381116108af57602090601f01601f19160190565b90826000939282370152565b90929192610905610900826108c8565b6108b4565b9381855260208501908284011161040057610412926108e4565b9080601f8301121561040057816020610420933591016108f0565b6080818303126104005761094e8282610405565b9261095c8360208401610405565b926040830135906001600160401b038211610400576109808161042093860161091f565b93606001610405565b346104005761047561099c36600461093a565b9291909161381a565b9091606082840312610400576104206109be848461042c565b936109cc816020860161042c565b93604001610405565b34610400576104756109e83660046109a5565b91611fee565b906104209061010080610a77610a566101208501610a1460008901516000880190610599565b610a2660208901516020880190610599565b610a3560408901516040880152565b610a4460608901516060880152565b60808801518682036080880152610515565b610a6560a088015160a0870152565b60c087015185820360c08701526106a3565b946107ef60e082015160e0860152565b6020808252610420929101906109ee565b346104005761047a610ab3610aae366004610585565b614c04565b60405191829182610a87565b919060a08382031261040057610ad58184610405565b92610ae38260208301610405565b92604091610af384848301610405565b93610b018160608401610405565b936001806080850135921b03811161040057610420920161091f565b3461040057610475610b30366004610abf565b9392909261356b565b6001600160401b0381116108af5760208091020190565b91909160e08184031261040057610b6760e06108b4565b9281356001600160401b0381116104005781610b8491840161091f565b845260208201356001600160401b0381116104005781610ba591840161091f565b602085015260408201356001600160401b0381116104005781610bc991840161091f565b604085015260608201356001600160401b0381116104005781610bed91840161091f565b60608501526080820135906001600160401b03821161040057610c1581610c3693850161091f565b608086015260a0610c2882828601610405565b9086015260c0809301610405565b90830152565b929190610c4b61090082610b39565b93818552602080860192028101918383116104005781905b838210610c71575050505050565b81356001600160401b03811161040057602091610c918784938701610b50565b815201910190610c63565b9080601f830112156104005781602061042093359101610c3c565b91909160a08184031261040057610cce8382610405565b9260208201356001600160401b0381116104005781610cee91840161091f565b9260408301356001600160401b0381116104005782610d0e91850161091f565b92610d1c8360608301610405565b9260808201356001600160401b038111610400576104209201610c9c565b3461040057610475610d4d366004610cb7565b9392909261319d565b919060a08382031261040057610d6c8184610405565b9260208101356001600160401b0381116104005782610d8c91830161091f565b9260408201356001600160401b03811161040057610daf8461042092850161091f565b93610dbd8160608601610405565b93608001610405565b3461040057610475610dd9366004610d56565b93929092615057565b3461040057610df23660046104e7565b61047a610697614401565b3461040057610475610e103660046109a5565b9161200b565b3461040057610475610e29366004610849565b61348e565b91909160408184031261040057610e45838261042c565b9260208201356001600160401b03811161040057610420920161091f565b3461040057610475610e76366004610e2e565b906140a2565b906104209061010080610a77610ed56101208501610ea260008901516000880190610599565b610eb460208901516020880190610599565b610ec360408901516040880152565b60608801518682036060880152610515565b610a5660808801516080870152565b602080825261042092910190610e7c565b346104005761047a610f10610f0b366004610585565b614ca9565b60405191829182610ee4565b9091606082840312610400576104206109be8484610405565b3461040057610475610f48366004610f1c565b91614145565b346104005761047a610697610f64366004610585565b614b30565b346104005761047a6105cd610f7f366004610585565b611beb565b346104005761047a610697610f9a366004610585565b614c49565b346104005761047a610697610fb5366004610585565b613542565b9061054981602093610599565b90610fd661062e610624845190565b9060005b818110610fe75750505090565b909192610ffa61065c6001928651610fba565b929101610fda565b602080825261042092910190610fc7565b34610400576110233660046104e7565b61047a61102e613497565b60405191829182611002565b346104005761047561104d366004610849565b612a13565b346104005761047a61106d611068366004610849565b611b68565b6040519182918290815260200190565b346104005761108d3660046104e7565b61047a610697615017565b34610400576110a83660046104e7565b6104756118bb565b34610400576104756110c3366004610849565b6133a4565b906104209060c08061110d6110fb60e085016110ec60008901516000880190610599565b6107a960208901516020880152565b60608701518582036060870152610515565b946107e060808201516080860152565b6020808252610420929101906110c8565b346104005761047a611149611144366004610585565b614ae6565b6040519182918261111d565b906020828203126104005781356001600160401b03811161040057610420920161091f565b346104005761047561118d366004611155565b613d83565b919060408382031261040057610420906105f38185610405565b906104209060c08061120f6111fd610ec36111eb6111d960e0880160008b015189820360008b0152610515565b60208a015188820360208a0152610515565b60408901518782036040890152610515565b60808701518582036080870152610515565b946107ef60a082015160a0860152565b6020808252610420929101906111ac565b346104005761047a61124c611246366004611192565b906149f4565b6040519182918261121f565b346104005761047561126b366004610439565b9061429d565b34610400576112813660046104e7565b61047a610697612b3f565b346104005761129c3660046104e7565b61047a6106976134ed565b34610400576104756112ba366004610849565b6128e0565b34610400576112cf3660046104e7565b61047a6105cd611879565b9160e083830312610400576112ef8284610405565b926112fd8360208301610405565b9260409161130d82848301610405565b936060820135600180861b038111610400578361132b91840161091f565b936001806080850135921b0381116104005761134c8461042092850161091f565b9361135a8160a08601610405565b9360c001610405565b34610400576104756113763660046112da565b959490949391936139be565b34610400576113923660046104e7565b61047a610579611d1a565b346104005761047a61102e6113b3366004610585565b6143da565b80518252610412919060609081906113d560208201516020860152565b6107ef60408201516040860152565b60808101929161041291906113b8565b346104005761047a61141061140a366004610439565b9061444d565b604051918291826113e4565b346104005761142c3660046104e7565b61047a610579613e76565b9060a0806104129361145160008201516000860190610599565b61146360208201516020860190610599565b61147260408201516040860152565b6114846060820151606086019061076a565b6107ef60808201516080860152565b60c0810192916104129190611437565b346104005761047a6114be6114b9366004610585565b6145d0565b60405191829182611493565b346104005761047a6106976114e0366004610585565b614657565b346104005761047a6106976114fb366004610585565b6144f3565b8015156103f9565b9050359061041282611500565b9190604083820312610400576104209061152f818561042c565b93602001611508565b346104005761047561154b366004611515565b90611f5a565b346104005761047a610697611567366004610585565b614a24565b9060808282031261040057611581818361042c565b9261158f826020850161042c565b9260409261159f81858401610405565b936001806060850135921b03811161040057610420920161091f565b34610400576104756115ce36600461156c565b9291909161201b565b34610400576115e73660046104e7565b61047a610697613512565b3461040057610475611605366004611155565b613e41565b90610420906101208061168d610140840161162d60008801516000870190610599565b61163f60208801516020870190610599565b61164e60408801516040870152565b61165d60608801516060870152565b61166c60808801516080870152565b61167b60a088015160a0870152565b60c087015185820360c0870152610515565b946116a060e082015160e086019061076a565b6107ef610100820151610100860152565b60208082526104209291019061160a565b346104005761047a6116dd6116d8366004610585565b614788565b604051918291826116b1565b34610400576116f93660046104e7565b61047a6106976134bc565b346104005761047a61057961171a366004610585565b611d8a565b3461040057610475611732366004610585565b614d5a565b34610400576117473660046104e7565b61047a61102e612a9e565b610475611760366004610585565b6152ca565b6104209160806117ae61179c61178a60a0850160008701518682036000880152610515565b60208601518582036020870152610515565b60408501518482036040860152610515565b926117be60608201516060850152565b01519060808184039101526106a3565b602080825261042092910190611765565b346104005761047a6117fa6117f5366004610585565b6148c8565b604051918291826117ce565b91906040838203126104005761042090610453818561042c565b346104005761047a6104d4611836366004611806565b90611f65565b346104005761047561184f366004610849565b6119cf565b346104005761047a61082261186a366004610585565b612d48565b6104209054610414565b610420602061186f565b61188b611917565b6104126118a9565b6104146104206104209290565b61042090611893565b6104126118b660006118a0565b611a2e565b610412611883565b156118ca57565b60405162461bcd60e51b815280611913600482016020808252818101527f4f776e61626c653a2063616c6c6572206973206e6f7420746865206f776e6572604082015260600190565b0390fd5b610412611922611879565b61193961193333610414565b610414565b91610414565b146118c3565b6104129061194b611917565b6119ab565b1561195757565b60405162461bcd60e51b815260206004820152602660248201527f4f776e61626c653a206e6577206f776e657220697320746865207a65726f206160448201526564647265737360d01b6064820152608490fd5b610412906118b66119bf61192e60006118a0565b6119c883610414565b1415611950565b6104129061193f565b906001600160a01b03905b9181191691161790565b61042090610414906001600160a01b031682565b610420906119ed565b61042090611a01565b90611a23610420611a2a92611a0a565b82546119d8565b9055565b611a38602061186f565b90611a44816020611a13565b611a77611a717f8be0079c531659141344cd1fd0a4f28419497f9722a3daafe3b4186f6b6457e093611a0a565b91611a0a565b91611a8160405190565b80805b0390a3565b611a996380ac58cd60e01b61047e565b611aa28261047e565b14908115611abf575b8115611ab5575090565b610420915061271a565b9050611ad1635b5e139f60e01b61047e565b611ada8261047e565b1490611aab565b15611ae857565b60405162461bcd60e51b815260206004820152602960248201527f4552433732313a2061646472657373207a65726f206973206e6f7420612076616044820152683634b21037bbb732b960b91b6064820152608490fd5b90611b4990611a0a565b600052602052604060002090565b6104209081565b6104209054611b57565b611b9f61042091611b77600090565b50611b98611b8861192e60006118a0565b611b9183610414565b1415611ae1565b601d611b3f565b611b5e565b15611bab57565b60405162461bcd60e51b8152602060048201526018602482015277115490cdcc8c4e881a5b9d985b1a59081d1bdad95b88125160421b6044820152606490fd5b611bf89060005b506120bb565b610420611c0861192e60006118a0565b611c1183610414565b1415611ba4565b634e487b7160e01b600052602260045260246000fd5b9060016002830492168015611c4e575b6020831014611c4957565b611c18565b91607f1691611c3e565b80546000939291611c75611c6b83611c2e565b8085529360200190565b9160018116908115611cc75750600114611c8e57505050565b611ca19192939450600052602060002090565b916000925b818410611cb35750500190565b805484840152602090930192600101611ca6565b92949550505060ff1916825215156020020190565b9061042091611c58565b90610412611d0092611cf760405190565b93848092611cdc565b038361088e565b61042090611ce6565b610420601a611d07565b610420601b611d07565b6104206104206104209290565b90611d3e610900836108c8565b918252565b6104206000611d31565b610420611d43565b610549611d6d92602092611d67815190565b94859290565b938491016104f2565b611d84906104209392611d55565b90611d55565b611d938161247a565b611d9b611df5565b8051611dae611daa6000611d24565b9190565b1115611deb57610420611ddf91611dc761042094612685565b90611dd160405190565b938492602084019283611d76565b9081038252038261088e565b5050610420611d4d565b610420611d4d565b15611e0457565b60405162461bcd60e51b815260206004820152602160248201527f4552433732313a20617070726f76616c20746f2063757272656e74206f776e656044820152603960f91b6064820152608490fd5b15611e5a57565b60405162461bcd60e51b815260206004820152603d60248201527f4552433732313a20617070726f76652063616c6c6572206973206e6f7420746f60448201527f6b656e206f776e6572206f7220617070726f76656420666f7220616c6c0000006064820152608490fd5b9061041291611f15611ed683611beb565b611ef2611ee282610414565b611eeb85610414565b1415611dfd565b33611efc82610414565b611f0582610414565b14918215611f1a575b5050611e53565b612354565b611f249250611f65565b3880611f0e565b90611b4990611d24565b611f5561042091611f44600090565b50611f4e8161247a565b601e611f2b565b61186f565b610412919033612406565b61042091611f80611f8592611f78600090565b50601f611b3f565b611b3f565b5460ff1690565b15611f9357565b60405162461bcd60e51b815260206004820152602d60248201527f4552433732313a2063616c6c6572206973206e6f7420746f6b656e206f776e6560448201526c1c881bdc88185c1c1c9bdd9959609a1b6064820152608490fd5b61041292919061200661200184336120d2565b611f8c565b612244565b909161041292612019611d4d565b925b6104129392919061202f61200184336120d2565b61209c565b1561203b57565b6040515b62461bcd60e51b815260206004820152603260248201527f4552433732313a207472616e7366657220746f206e6f6e20455243373231526560448201527131b2b4bb32b91034b6b83632b6b2b73a32b960711b6064820152608490fd5b9161041293916120b6936120b1838383612244565b612529565b612034565b611f55610420916120ca600090565b50601c611f2b565b6120db82611beb565b916120e583610414565b6120ee83610414565b1492831561211f575b50821561210357505090565b61211b91925061211561193391611f35565b92610414565b1490565b61212c9193508290611f65565b91386120f7565b1561213a57565b60405162461bcd60e51b815260206004820152602560248201527f4552433732313a207472616e736665722066726f6d20696e636f72726563742060448201526437bbb732b960d91b6064820152608490fd5b1561219457565b60405162461bcd60e51b8152602060048201526024808201527f4552433732313a207472616e7366657220746f20746865207a65726f206164646044820152637265737360e01b6064820152608490fd5b916001600160a01b0360089290920291821b911b6119e3565b919061220f610420611a2a93611a0a565b9083546121e5565b610412916000916121fe565b90600019906119e3565b9061223d610420611a2a92611d24565b8254612223565b919061226461225283611beb565b61225e61193386610414565b14612133565b6122b0600061228861227861192e836118a0565b61228185610414565b141561218d565b6122a061229485611beb565b61225e61193388610414565b6122ab84601e611f2b565b612217565b6122f46122bd6001611d24565b6122e46122ea84601d611f806122d38a83611b3f565b6122e4876122e083611b5e565b0390565b9061222d565b9161054983611b5e565b6123088161230384601c611f2b565b611a13565b61234461233e6123387fddf252ad1be2c89b69c2b068fc378daa952ba7f163c4a11628f55a4df523b3ef95611a0a565b92611a0a565b92611d24565b9261234e60405190565b600090a4565b906123648261230383601e611f2b565b61236d81611beb565b9161234461233e6123387f8c5be1e5ebec7d5bd14f71427d1e84f3dd0314c0f7b2291e5b200ac8c7c3b92595611a0a565b156123a557565b60405162461bcd60e51b815260206004820152601960248201527822a9219b99189d1030b8383937bb32903a379031b0b63632b960391b6044820152606490fd5b9060ff906119e3565b906123ff610420611a2a92151590565b82546123e6565b61242261241283610414565b61241b83610414565b141561239e565b61243a8361243584611f8085601f611b3f565b6123ef565b611a8461247061246a7f17307eab39ab6107e8899845ad3d59bd9653f200f220920489ca2b5937696c3193611a0a565b93611a0a565b936104d860405190565b6124866104129161248b565b611ba4565b612496906000611bf2565b6124a661193361192e60006118a0565b141590565b905051906104128261048b565b9060208282031261040057610420916124ab565b90926124fd906124f661042096946124ec60808601976000870190610599565b6020850190610599565b6040830152565b6060818403910152610515565b3d15612524576125193d611d31565b903d6000602084013e565b606090565b91909392612535600090565b9461253f81612626565b1561261c5790612586600061255e61255960209695611a0a565b611a0a565b9261259163150b7a029161256f3390565b9661257960405190565b998a988997889660e01b90565b8652600486016124cc565b03925af1600091816125ec575b506125d057506125ac61250a565b80516125bb611daa6000611d24565b036125c85760405161203f565b805190602001fd5b90915061211b6125e6630a85bd0160e11b61047e565b9161047e565b61260e91925060203d8111612615575b612606818361088e565b8101906124b8565b903861259e565b503d6125fc565b5060019450505050565b3b612634611daa6000611d24565b1190565b369037565b9061041261265361264d84611d31565b936108c8565b601f190160208401612638565b634e487b7160e01b600052601260045260246000fd5b8115612680570490565b612660565b61268e8161272d565b9061269e60019261054984611d24565b91806126a98461263d565b80946126b3600090565b5060200101905b6126c5575b50505090565b6126f99060001901926f181899199a1a9b1b9c1cb0b131b232b360811b600a82061a84536126f3600a611d24565b90612676565b9081612708611daa6000611d24565b14612715579091816126ba565b6126bf565b61211b6125e66301ffc9a760e01b61047e565b6127376000611d24565b9072184f03e93ff9f4daa797ed6e38ed64bf6a1f0160401b61275881611d24565b8210156128a9575b506904ee2d6d415b85acef8160201b61277881611d24565b821015612887575b50662386f26fc1000061279281611d24565b821015612865575b506305f5e1006127a981611d24565b821015612843575b506127106127be81611d24565b821015612821575b5060646127d281611d24565b8210156127ff575b506127e8611daa600a611d24565b10156127f15790565b610420906105496001611d24565b61281a916126f361280f92611d24565b916105496002611d24565b90386127da565b61283c916126f361283192611d24565b916105496004611d24565b90386127c6565b61285e916126f361285392611d24565b916105496008611d24565b90386127b1565b612880916126f361287592611d24565b916105496010611d24565b903861279a565b6128a2916126f361289792611d24565b916105496020611d24565b9038612780565b6128c4916126f36128b992611d24565b916105496040611d24565b9038612760565b610412906128d7611917565b61041290612957565b610412906128cb565b1561040057565b634e487b7160e01b600052603260045260246000fd5b805482101561292957612920600191600052602060002090565b91020190600090565b6128f0565b80549190600160401b8310156108af578261295191600161041295018155612906565b906121fe565b6104129061297a61296782613226565b61297360015b91151590565b14156128e9565b6129a761299f600561299a84612995612991845490565b9390565b61292e565b611d24565b916008611b3f565b61222d565b610412906129b8611917565b610412906129a7600891612a0d6129d2611b9f8386611b3f565b6129eb6000916129e4611daa84611d24565b12156128e9565b612a076129fe61299a611b9f8689611b3f565b60055b906132fa565b19611d24565b92611b3f565b610412906129ac565b90612a37612a2b610624845490565b92600052602060002090565b9060005b818110612a485750505090565b909192612a69612a62600192612a5d8761186f565b610fba565b9460010190565b929101612a3b565b9061042091612a1c565b90610412611d0092612a8c60405190565b93848092612a71565b61042090612a7b565b6104206005612a95565b61042090612ab4612b49565b612b2b565b90612ac8612a2b610624845490565b9060005b818110612ad95750505090565b909192612af6612a62600192612aee87611b5e565b815260200190565b929101612acc565b9061042091612ab9565b90610412611d0092612b1960405190565b93848092612afe565b61042090612b08565b50610420612b3a33600b611b3f565b612b22565b6104206060612aa8565b610412612b5533613226565b6128e9565b61042060e06108b4565b61042060806108b4565b612b76612b64565b90606082526020808080850160605b81520160008152016060905250565b610420612b6e565b612ba4612b5a565b90600082526020808080808080880160008152016060815201612bc5612b94565b81520160005b81520160008152016000905250565b610420612b9c565b9061042091612bef612b49565b9061042091612bfd82612d59565b612d32565b805482101561292957612920600a91600052602060002090565b906104b590610414565b90610412612c7a6003612c37612b64565b94612c48612c4482611ce6565b8752565b612c5e612c5760018301611ce6565b6020880152565b612c74612c6d60028301611b5e565b6040880152565b01612b08565b6060840152565b906104b590610757565b90610412612d226009612c9c612b5a565b94612caf612ca98261186f565b87612c1c565b612cc7612cbe6001830161186f565b60208801612c1c565b612cd6612c6d60028301611ce6565b612cec612ce560038301612c26565b6060880152565b612d06612cfd600783015460ff1690565b60808801612c81565b612d1c612d1560088301611b5e565b60a0880152565b01611b5e565b60c0840152565b61042090612c8b565b61042091612d4291506000612c02565b50612d29565b61042090612d54612bda565b612be2565b612d736001612d6c610412936000612c02565b500161186f565b612d7f61193333610414565b146128e9565b9061041294939291612d95612b49565b9061041294939291612da6816131de565b9061041294939291612db781612d59565b613074565b634e487b7160e01b600052600060045260246000fd5b9160001960089290920291821b911b6119e3565b9190612df7610420611a2a93611d24565b908354612dd2565b61041291600091612de6565b818110612e16575050565b80612e246000600193612dff565b01612e0b565b9190601f8111612e3957505050565b612e4b61041293600052602060002090565b906020601f840181900483019310612e6d575b6020601f909101040190612e0b565b9091508190612e5e565b9060001960089091021c191690565b81612e9091612e77565b906002021790565b90612ea1815190565b906001600160401b0382116108af57612ec482612ebe8554611c2e565b85612e2a565b602090601f8311600114612ef257611a2a929160009183612ee7575b5050612e86565b015190503880612ee0565b601f19831691612f0785600052602060002090565b9260005b818110612f4657509160029391856001969410612f2c575b50505002019055565b612f3c910151601f841690612e77565b9055388080612f23565b91936020600181928787015181550195019201612f0b565b9061041291612e98565b634e487b7160e01b600052601160045260246000fd5b6000198114612f8d5760010190565b612f68565b90612f9b825190565b811015612929576020809102010190565b906122e460c0600661041294612fd060008201612fca600088015190565b90612f5e565b612fe260018201612fca602088015190565b612ff460028201612fca604088015190565b61300660038201612fca606088015190565b61301860048201612fca608088015190565b61302a600582016122e460a088015190565b0192015190565b9061041291612fac565b80549190600160401b8310156108af578261305e91600161041295018155612906565b90612de6565b906123ff610420611a2a92610761565b9092939491429161308d6130858490565b875b106128e9565b6130ce60009660026130a66130a2858b612c02565b5090565b946130c860038701916130bf600384019b8d8501612f5e565b60018301612f5e565b0161222d565b6130d786611d24565b6130e2610420895190565b811015613160578061311b89613087611daa61042060c061310f8761311560a061310f61315b9c8a612f92565b51015190565b96612f92565b613156601561313261312c826131aa565b916131bf565b61315061313f848d612f92565b5161314b836016611f2b565b613031565b8861303b565b612f7e565b6130d7565b50600993965061318f9192945061318a61042061041297613184600d91870161186f565b90611b3f565b61303b565b6130c8600160078301613064565b9061041294939291612d85565b6000610420916131b8600090565b5001611b5e565b610412906122e460006131d26001611d24565b92019161054983611b5e565b61041290612d7f61320861320260076131f960009586612c02565b50015460ff1690565b92610757565b91610757565b610420916008021c610414565b90610420915461320e565b6008613235611b9f8383611b3f565b600090613244611daa83611d24565b128015613282575b61327c575061193361211561327661211b9361327061299a611b9f88600594611b3f565b90612906565b9061321b565b91505090565b50600554613292611daa83611d24565b111561324c565b91906132a4565b9290565b8203918211612f8d57565b91908201809211612f8d57565b634e487b7160e01b600052603160045260246000fd5b805480156132f55760001901906132f26132ec8383612906565b90612217565b55565b6132bc565b61330e613308610420845490565b82613087565b815461332861042060019261332284611d24565b90613299565b821015613363579061315661335461327661334e61334861335e96611d24565b856132af565b86612906565b6129518386612906565b61330e565b5050610412906132d2565b6104129061337a611917565b6104129061338781613226565b613391600161296d565b146133ad5761339f81612957565b6133ad565b6104129061336e565b610412906133bd612967826133dc565b6129a76133d4600661299a84612995612991845490565b916009611b3f565b60096133eb611b9f8383611b3f565b6000906133fa611daa83611d24565b128015613426575b61327c575061193361211561327661211b9361327061299a611b9f88600694611b3f565b50600654613436611daa83611d24565b1115613402565b61041290613449611917565b61041290613463613459826133dc565b612d7f600161296d565b6129a760099161348361347c61299a611b9f8487611b3f565b6006612a01565b612a0d600019611d24565b6104129061343d565b6104206006612a95565b610420906134ad6134c6565b50610420612b3a33600e611b3f565b61042060606134a1565b610412612b55336133dc565b610420906134de6134c6565b50610420612b3a33600f611b3f565b61042060606134d2565b610420906135036134c6565b50610420612b3a336010611b3f565b61042060606134f7565b90610420916135296134c6565b5061042090612b3a9061353d336019611b3f565b611f2b565b61042090606061351c565b906104129493929161355e816137e0565b90610412949392916136aa565b906104129493929161354d565b805482101561292957612920600691600052602060002090565b6104206101406108b4565b6104209051610414565b6104209051610757565b61041291906122e490610120906009906135d4816135ce8761359d565b90611a13565b6135e7600182016135ce6020880161359d565b6135f9600282016122e4604088015190565b61360b600382016122e4606088015190565b61361d600482016122e4608088015190565b61362f600582016122e460a088015190565b61364160068201612fca60c088015190565b61365a6007820161365460e088016135a7565b90613064565b61302a600882016122e461010088015190565b919061367c57610412916135b1565b612dbc565b80549190600160401b8310156108af57826136a491600161041295018155612c02565b9061366d565b909391906136b9906001613578565b509260038401926136cb845460ff1690565b906000916136d883610757565b906136e290610757565b146136ec906128e9565b6136f78488106128e9565b61370286830161186f565b92339461370e86611a0a565b9861371b60028a01611b5e565b429a613725613592565b9761373290888a01612c1c565b61373f9060208901612c1c565b60408701526060860152608085015260a084015260c08301526137659060e08301612c81565b61377185610100830152565b61377d85610120830152565b600291613788835490565b8281936137928690565b9061379c91613681565b604001516137ab906012611f2b565b906137b59161303b565b6137c090600f611b3f565b906137ca9161303b565b6137d391613064565b600501906104129161222d565b612d7361041291612d6c60019182613578565b90610412939291613803826138f8565b61041293929161381282611beb565b903392613cd3565b906104129392916137f3565b805482101561292957612920600991600052602060002090565b6104206101206108b4565b906104126138e7600861385c613840565b94613869612ca98261186f565b613878612cbe6001830161186f565b613887612c6d60028301611b5e565b613896612ce560038301611ce6565b6138ac6138a560048301611b5e565b6080880152565b6138bb612d1560058301611b5e565b6138d16138ca60068301612b08565b60c0880152565b612d1c6138e060078301611b5e565b60e0880152565b610100840152565b6104209061384b565b61390f613909610412926003613826565b506138ef565b61391e612d736020830161359d565b608081015142908110159182613936575b50506128e9565b61394a9192506132a060a0611daa92015190565b1015388061392f565b90610412969594939291613966826138f8565b9261399e6104129760089788976139b4946139966130a261398e6130a26130c89b6027613826565b986003613826565b983390613a83565b6139ab816006850161303b565b6006850161303b565b429485910161222d565b90610412969594939291613953565b805482101561292957612920600791600052602060002090565b61041291906122e49060c090600690613a03816135ce8761359d565b613a15600182016122e4602088015190565b613a2760028201612fca604088015190565b613a3960038201612fca606088015190565b613018600482016122e4608088015190565b919061367c57610412916139e7565b80549190600160401b8310156108af5782613a7d916001610412950181556139cd565b90613a4b565b9390949192613a90600090565b504293613a9e8585106128e9565b613aa6612b5a565b96613ab19088612c1c565b613abc866020890152565b60408701526060860152608085015260a084015260c0830152602390613ae1826131aa565b92613aec84936131bf565b613af7906026613a5a565b613b0290602b611f2b565b906104209161303b565b90611d3e61090083610b39565b90610412612653613b2984613b0c565b93610b39565b818110613b3a575050565b80613b486000600193612dff565b01613b2f565b9091828110613b5c57505050565b6104129290613b6a90612a2b565b9081019101613b2f565b90600160401b81116108af5781613b8c610412935490565b90828155613b4e565b8151916001600160401b0383116108af57613bbf612a2b600192613bb98686613b74565b60200190565b92049160005b838110613bd25750505050565b6001906020613be2610420865190565b9401938184015501613bc5565b9061041291613b95565b61041291906122e49061010090600890613c16816135ce8761359d565b613c29600182016135ce6020880161359d565b613c3b600282016122e4604088015190565b613c4d600382016122e4606088015190565b613c5f60048201612fca608088015190565b613c71600582016122e460a088015190565b613c8960068201613c8360c088015190565b90613bef565b61302a600782016122e460e088015190565b919061367c5761041291613bf9565b80549190600160401b8310156108af5782613ccd91600161041295018155613826565b90613c9b565b92949293429391613ce58584106128e9565b600096613cf188611d24565b613cfa90613b19565b94613d03613840565b98890190613d1091612c1c565b613d1d9060208901612c1c565b613d28866040890152565b6060870152608086015260a085015260c0840152613d478160e0850152565b610100830152602491613d59836131aa565b92613d63906131bf565b613d6e906027613caa565b613d7990602c611f2b565b906104129161303b565b61041290613dc033613d9761296782613dc5565b613db9613dae600461299a84612995612991845490565b6129a7836007611b3f565b600a611b3f565b612f5e565b6007613dd4611b9f8383611b3f565b600090613de3611daa83611d24565b128015613e0f575b61327c575061193361211561327661211b9361327061299a611b9f88600494611b3f565b50600454613e1f611daa83611d24565b1115613deb565b61041290613e32613e4a565b61041290613dc033600a611b3f565b61041290613e26565b610412612b5533613dc5565b61042090613e62613e4a565b50610420613e7133600a611b3f565b611d07565b6104206060613e56565b9061042091613e8d611917565b61042091613e719150600a611b3f565b610420906060613e80565b9061041291613eb5613e4a565b613fbc565b90613c836060600361041294613ed860008201612fca600088015190565b613eea60018201612fca602088015190565b61302a600282016122e4604088015190565b9061041291613eba565b61041291906122e49060c090600990613f22816135ce8761359d565b613f35600182016135ce6020880161359d565b613f4760028201612fca604088015190565b613f5f60038201613f59606088015190565b90613efc565b613f7260078201613654608088016135a7565b61302a600882016122e460a088015190565b919061367c5761041291613f06565b80549190600160401b8310156108af5782613fb691600161041295018155612c02565b90613f84565b61318a61042061406761409b6104129561318a61042061408f97613fe2612b5582613226565b614094600094614086613ff3606090565b9161403d613fff612b64565b9361401161400b611d4d565b8b870152565b61402361401c611d4d565b6020870152565b61403661402f8b611d24565b6040870152565b6060850152565b33998a93614036429361405a614051612b5a565b978d8901612c1c565b61402f8960208901612c1c565b6140748860808501612c81565b61407f8160a0850152565b60c0830152565b85545b9a8b9690565b613f93565b600b611b3f565b600c611b3f565b9061041291613ea8565b610420906140b8613e4a565b50610420612b3a33600c611b3f565b61042060606140ac565b9061042091612bfd826140f0565b610420906140eb612bda565b6140d1565b612d7361041291612d6c60009182612c02565b6104209061410f613e4a565b50610420612b3a33600d611b3f565b6104206060614103565b90610412929161413781615028565b91612b559161041293614150565b906104129291614128565b91906141666001612d1c8561353d856018611b3f565b614173611daa6000611d24565b1161418157610420926141bf565b61042092614243565b61041291906122e4906060906003906141a38185875190565b613eea600182016122e4602088015190565b906104129161418a565b91429081811061423a576142359361421c61042092614208612995956141f66141e6612b64565b936141ef878652565b6020850152565b614201816040850152565b6060830152565b6142178361353d886018611b3f565b6141b5565b61422e8161318a610420876017611b3f565b6014611f2b565b600190565b50505050600090565b429182841061423a5761425e9161353d610420926018611b3f565b91600183019261427061042085611b5e565b821061423a576130c86002926142359561222d565b906104129161429381615028565b90610412916142a7565b9061041291614285565b610412916130c86018926142da6142c76001612d1c8461353d888a611b3f565b6142d4611daa6000611d24565b116128e9565b6142e3836133dc565b614302575b61353d42936142fc60019561332287611d24565b95611b3f565b614316612b55614312858461431b565b1590565b6142e8565b612b3a9061353d6143369361432e600090565b506019611b3f565b60009061434282611d24565b61434d610420835190565b8110156143bd57614373613909600361436d6143698587612f92565b5190565b90613826565b6080810151429081101591826143a0575b50506143985761439390612f7e565b614342565b505050600190565b6143b49192506132a060a0611daa92015190565b10153880614384565b505090565b90610420916143d082615028565b50610420906143e5565b6104209060606143c2565b6143fc610420916143f4606090565b506014611f2b565b612a95565b61042080612b3a336017611b3f565b614418612b64565b9060008252602080808085016000612bcb565b610420614410565b90610420929161444282615028565b5061042091906144a4565b906104209161445a61442b565b614433565b90610412612c7a6003614470612b64565b9461447d612c4482611b5e565b61448c612c5760018301611b5e565b612d1c612c6d60028301611b5e565b6104209061445f565b6144d09061353d610420936144b761442b565b506018611f806142c76001612d1c8761353d8787611b3f565b61449b565b90610420916144e382615028565b61042091612b3a91506011611f2b565b6104209060606144d5565b61042060c06108b4565b6145106144fe565b906000825260208080808080870160008152016000612bc5565b610420614508565b9061042091614540826145e1565b6145ba565b906104126145aa60056145566144fe565b94614563612ca98261186f565b614572612cbe6001830161186f565b614581612c6d60028301611b5e565b61459b614592600383015460ff1690565b60608801612c81565b612d1c6138a560048301611b5e565b60a0840152565b61042090614545565b610420916145ca91506001613578565b506145b1565b610420906145dc61452a565b614532565b6104129060016145f9610f7f60026131b88585613578565b90339161460861193384610414565b14928315614619575b5050506128e9565b61463092935081612d6c6121159261193394613578565b14388080614611565b906104209161464782615028565b61042091612b3a91506012611f2b565b610420906060614639565b61466a613592565b906000825260208080808080808080808b01600081520160008152016000815201600081520160005b8152016060612bc5565b610420614662565b90610420916146b382614799565b614772565b9061041261476160096146c9613592565b946146d6612ca98261186f565b6146e5612cbe6001830161186f565b6146f4612c6d60028301611b5e565b614703612ce560038301611b5e565b6147126138a560048301611b5e565b614721612d1560058301611b5e565b6147306138ca60068301611ce6565b61474a614741600783015460ff1690565b60e08801612c81565b612d1c61475960088301611b5e565b610100880152565b610120840152565b610420906146b8565b6104209161478291506002612c02565b50614769565b6104209061479461469d565b6146a5565b610412906002906147b1610f7f836131b88482612c02565b9033916147c061193384610414565b149283156147d0575050506128e9565b6146309293506001612d6c611a719361211593612c02565b61042060a06108b4565b6147fa6147e8565b9060608252602080808080860160608152016060612b85565b6104206147f2565b9061042091614829826148d9565b6148a3565b805482101561292957612920600591600052602060002090565b9061041261489360046148596147e8565b94614866612c4482611ce6565b614875612c5760018301611ce6565b614884612c6d60028301611ce6565b612c74612ce560038301611b5e565b6080840152565b61042090614848565b610420916148c291506148bc611b9f602592602a611f2b565b9061482e565b5061489a565b610420906148d4614813565b61481b565b612b55610412915b6148ea81611beb565b9033916148f961193384610414565b1491821561490657505090565b61491c925060019161353d612d1c926018611b3f565b42111590565b61492a612b5a565b9060608252602080808080808088016060815201606081520160605b8152016060612bcb565b610420614922565b906104209291614967826148d9565b6149de565b90610412612d22600661497d612b5a565b9461498a612c4482611ce6565b614999612c5760018301611ce6565b6149a8612c6d60028301611ce6565b6149b7612ce560038301611ce6565b6149c66138a560048301611ce6565b612d1c612d1560058301611b5e565b6104209061496c565b50610420916149ef91506016611f2b565b6149d5565b9061042091614a01614950565b614958565b9061042091614a14826148d9565b61042091612b3a9150602b611f2b565b610420906060614a06565b614a37612b5a565b90600082526020808080808080880160008152016060614693565b610420614a2f565b9061042091614a6882614af7565b614ad0565b90610412612d226006614a7e612b5a565b94614a8b612ca98261186f565b614a9a612c5760018301611b5e565b614aa9612c6d60028301611ce6565b614ab8612ce560038301611ce6565b6149c66138a560048301611b5e565b61042090614a6d565b61042091614ae0915060266139cd565b50614ac7565b61042090614af2614a52565b614a5a565b612b55614b0d60016131b86104129460266139cd565b6148e1565b9061042091614b20826148d9565b61042091612b3a9150602c611f2b565b610420906060614b12565b614b43613840565b9060008252602080808080808080808a0160008152016000815201600081520160605b8152016000614946565b610420614b3b565b9061042091614b8682614c15565b614bee565b906104126138e76008614b9c613840565b94614ba9612ca98261186f565b614bb8612cbe6001830161186f565b614bc7612c6d60028301611b5e565b614bd6612ce560038301611b5e565b6138ac6138a560048301611ce6565b61042090614b8b565b61042091614bfe91506027613826565b50614be5565b61042090614c10614b70565b614b78565b612b55614b0d60026131b8610412946027613826565b9061042091614c3982615028565b61042091612b3a91506013611f2b565b610420906060614c2b565b614c5c613840565b9060008252602080808080808080808a016000815201600081520160608152016000614b66565b610420614c54565b9061042091614c9982614cba565b6104209161390991506003613826565b61042090614cb5614c83565b614c8b565b61041290600390614cd3610f7f60026131b88486613826565b903391614ce261193384610414565b14928315614cf2575050506128e9565b6146309293506001612d6c6119339361211593613826565b61041290614d17816140f0565b610412906007614d53600092614d41614d34846131f98488612c02565b612d7f6132086001610757565b614d4b8133614d63565b600293612c02565b5001613064565b61041290614d0a565b6104129190614da7602192614d80614d7a856131aa565b946131bf565b614da18461318a61042033614d9a81612303866028611f2b565b6029611b3f565b83614f65565b61041291614db3611d4d565b6120b69161041293614dc58282614e6a565b6120b160006118a0565b15614dd657565b60405162461bcd60e51b815280611913600482016020808252818101527f4552433732313a206d696e7420746f20746865207a65726f2061646472657373604082015260600190565b15614e2657565b60405162461bcd60e51b815260206004820152601c60248201527b115490cdcc8c4e881d1bdad95b88185b1c9958591e481b5a5b9d195960221b6044820152606490fd5b90614e7560006118a0565b91614e92614e8284610414565b614e8b83610414565b1415614dcf565b614ea6614ea16143128461248b565b614e1f565b614eb5614ea16143128461248b565b6122f4614ec26001611d24565b6122e46122ea84601d611b3f565b61042090612c26565b90613c836080600461041294614ef760008201612fca600088015190565b614f0960018201612fca602088015190565b614f1b60028201612fca604088015190565b61302a600382016122e4606088015190565b919061367c5761041291614ed9565b80549190600160401b8310156108af5782614f5f9160016104129501815561482e565b90614f2d565b9061501061041292614ff16000614fea6002614f97614f906003614f898a87612c02565b5001614ed0565b9784612c02565b500195614fe383820151614fdc602084015191614fd56060614fba604088015190565b96015197614fcf614fc96147e8565b9d611d07565b908d0152565b60208b0152565b6040890152565b6060870152565b6080850152565b6129a7602291615009615003846131aa565b936131bf565b602a611f2b565b6025614f3c565b610420610420612b3a336029611b3f565b612d7361041291611beb565b906104129493929161504581615028565b90615054949392913390613a83565b50565b9061041294939291615034565b906104129161507281615028565b90610412916150976150904261508a624f1a00611d24565b906132af565b8383614150565b50615145565b9061041291615064565b61041291906122e49060a0906005906150c3816135ce8761359d565b6150d6600182016135ce6020880161359d565b6150e8600282016122e4604088015190565b6150fb60038201613654606088016135a7565b61302a600482016122e4608088015190565b919061367c57610412916150a7565b80549190600160401b8310156108af578261513f91600161041295018155613578565b9061510d565b61318a610420610412936151cd6151c194615162612b55846133dc565b61318a6104206000926151b333946151a142916151896151806144fe565b98828a01612c1c565b6151968a60208a01612c1c565b6145928560408a0152565b6151ac816080880152565b60a0860152565b6151c6600194614089865490565b61511c565b6011611f2b565b600e611b3f565b610412906151e1816154fd565b615232565b156151ed57565b60405162461bcd60e51b815260206004820152601f60248201527f4661696c656420746f2073656e6420457468657220746f20696e7375726572006044820152606490fd5b6150549060029061528c6000803461525b61525561042060056131b8898b612c02565b82612d7f565b61526d6125596001612d6c888a612c02565b9061527760405190565b90818003925af161528661250a565b506151e6565b61529581615371565b6152c461233860046131b86152ae866131b88782612c02565b946152be6001612d6c838a612c02565b96612c02565b90614150565b610412906151d4565b61041291906122e490610100906008906152f0816135ce8761359d565b615303600182016135ce6020880161359d565b615315600282016122e4604088015190565b61532760038201612fca606088015190565b613c5f600482016122e4608088015190565b919061367c57610412916152d3565b80549190600160401b8310156108af578261536b91600161041295018155613826565b90615339565b60029061537e9082612c02565b5060078101805460ff169260009361539585610757565b9061539f90610757565b146153a9906128e9565b6153b284611d24565b6153bb90613b19565b6153c684860161186f565b94600185016153d48161186f565b92848701936153e285611b5e565b600689016153f260038b01611b5e565b916153ff60048c01611b5e565b93429c61540a613840565b9889019061541791612c1c565b61542090611a0a565b61542d9060208901612c1c565b604087015261543b90611d07565b6060860152608085015260a084015260c083015261545a8760e0840152565b61546687610100840152565b6003805493849384929061547991615348565b601361548482611b5e565b61548d91611f2b565b9060106154998561186f565b6154a291611b3f565b936019906154af9061186f565b6154b891611b3f565b906154c290611b5e565b6154cb91611f2b565b946154d59161303b565b6154de9161303b565b6154e79161303b565b6154f091613064565b600901906104129161222d565b612d73610f7f610412926131b860029182612c0256fea264697066735822122071d4494b5e45118135309dc1754ae603b91a4e67b87423960fc0ddc3da8b1c9364736f6c63430008130033",
  "linkReferences": {},
  "deployedLinkReferences": {}
}