{
  "_format": "hh-sol-artifact-1",
  "contractName": "VehicleFactory",
  "sourceName": "contracts/vehicleFactory/VehicleFactory.sol",
  "abi": [
    {
      "anonymous": false,
      "inputs": [
        {
          "indexed": true,
          "internalType": "address",
          "name": "owner",
          "type": "address"
        },
        {
          "indexed": true,
          "internalType": "address",
          "name": "approved",
          "type": "address"
        },
        {
          "indexed": true,
          "internalType": "uint256",
          "name": "tokenId",
          "type": "uint256"
        }
      ],
      "name": "Approval",
      "type": "event"
    },
    {
      "anonymous": false,
      "inputs": [
        {
          "indexed": true,
          "internalType": "address",
          "name": "owner",
          "type": "address"
        },
        {
          "indexed": true,
          "internalType": "address",
          "name": "operator",
          "type": "address"
        },
        {
          "indexed": false,
          "internalType": "bool",
          "name": "approved",
          "type": "bool"
        }
      ],
      "name": "ApprovalForAll",
      "type": "event"
    },
    {
      "anonymous": false,
      "inputs": [
        {
          "indexed": true,
          "internalType": "address",
          "name": "previousOwner",
          "type": "address"
        },
        {
          "indexed": true,
          "internalType": "address",
          "name": "newOwner",
          "type": "address"
        }
      ],
      "name": "OwnershipTransferred",
      "type": "event"
    },
    {
      "anonymous": false,
      "inputs": [
        {
          "indexed": true,
          "internalType": "address",
          "name": "from",
          "type": "address"
        },
        {
          "indexed": true,
          "internalType": "address",
          "name": "to",
          "type": "address"
        },
        {
          "indexed": true,
          "internalType": "uint256",
          "name": "tokenId",
          "type": "uint256"
        }
      ],
      "name": "Transfer",
      "type": "event"
    },
    {
      "inputs": [
        {
          "internalType": "address",
          "name": "to",
          "type": "address"
        },
        {
          "internalType": "uint256",
          "name": "tokenId",
          "type": "uint256"
        }
      ],
      "name": "approve",
      "outputs": [],
      "stateMutability": "nonpayable",
      "type": "function"
    },
    {
      "inputs": [
        {
          "internalType": "address",
          "name": "owner",
          "type": "address"
        }
      ],
      "name": "balanceOf",
      "outputs": [
        {
          "internalType": "uint256",
          "name": "",
          "type": "uint256"
        }
      ],
      "stateMutability": "view",
      "type": "function"
    },
    {
      "inputs": [
        {
          "internalType": "uint256",
          "name": "requestId",
          "type": "uint256"
        }
      ],
      "name": "createVehicle",
      "outputs": [],
      "stateMutability": "nonpayable",
      "type": "function"
    },
    {
      "inputs": [
        {
          "internalType": "address",
          "name": "agent",
          "type": "address"
        },
        {
          "internalType": "string",
          "name": "vehicleRegistrationCode",
          "type": "string"
        }
      ],
      "name": "createVehicleRequest",
      "outputs": [],
      "stateMutability": "nonpayable",
      "type": "function"
    },
    {
      "inputs": [
        {
          "internalType": "string",
          "name": "driverLicenseCode",
          "type": "string"
        }
      ],
      "name": "defineDriverLicenseCode",
      "outputs": [],
      "stateMutability": "nonpayable",
      "type": "function"
    },
    {
      "inputs": [
        {
          "internalType": "address",
          "name": "user",
          "type": "address"
        }
      ],
      "name": "driverLicenseCodeOf",
      "outputs": [
        {
          "internalType": "string",
          "name": "",
          "type": "string"
        }
      ],
      "stateMutability": "view",
      "type": "function"
    },
    {
      "inputs": [
        {
          "internalType": "uint256",
          "name": "tokenId",
          "type": "uint256"
        }
      ],
      "name": "getApproved",
      "outputs": [
        {
          "internalType": "address",
          "name": "",
          "type": "address"
        }
      ],
      "stateMutability": "view",
      "type": "function"
    },
    {
      "inputs": [],
      "name": "getDriverLicenseCode",
      "outputs": [
        {
          "internalType": "string",
          "name": "driverLicenseCode",
          "type": "string"
        }
      ],
      "stateMutability": "view",
      "type": "function"
    },
    {
      "inputs": [],
      "name": "getTokenIdsByOwner",
      "outputs": [
        {
          "internalType": "uint256[]",
          "name": "",
          "type": "uint256[]"
        }
      ],
      "stateMutability": "view",
      "type": "function"
    },
    {
      "inputs": [
        {
          "internalType": "uint256",
          "name": "requestId",
          "type": "uint256"
        }
      ],
      "name": "getUserVehicleRequestById",
      "outputs": [
        {
          "components": [
            {
              "internalType": "address",
              "name": "requester",
              "type": "address"
            },
            {
              "internalType": "address",
              "name": "agent",
              "type": "address"
            },
            {
              "internalType": "string",
              "name": "vehicleRegistrationCode",
              "type": "string"
            },
            {
              "components": [
                {
                  "internalType": "string",
                  "name": "carBrand",
                  "type": "string"
                },
                {
                  "internalType": "string",
                  "name": "carModel",
                  "type": "string"
                },
                {
                  "internalType": "uint256",
                  "name": "manufacturingDate",
                  "type": "uint256"
                },
                {
                  "internalType": "uint256[]",
                  "name": "vehicleOwnershipRecordIds",
                  "type": "uint256[]"
                }
              ],
              "internalType": "struct IBaseContract.VehicleRequestData",
              "name": "vehicleData",
              "type": "tuple"
            },
            {
              "internalType": "enum IBaseContract.Status",
              "name": "status",
              "type": "uint8"
            },
            {
              "internalType": "uint256",
              "name": "createdAt",
              "type": "uint256"
            },
            {
              "internalType": "uint256",
              "name": "updatedAt",
              "type": "uint256"
            }
          ],
          "internalType": "struct IBaseContract.VehicleRequest",
          "name": "",
          "type": "tuple"
        }
      ],
      "stateMutability": "view",
      "type": "function"
    },
    {
      "inputs": [
        {
          "internalType": "address",
          "name": "owner",
          "type": "address"
        },
        {
          "internalType": "address",
          "name": "operator",
          "type": "address"
        }
      ],
      "name": "isApprovedForAll",
      "outputs": [
        {
          "internalType": "bool",
          "name": "",
          "type": "bool"
        }
      ],
      "stateMutability": "view",
      "type": "function"
    },
    {
      "inputs": [],
      "name": "listApprovalsIds",
      "outputs": [
        {
          "internalType": "uint256[]",
          "name": "",
          "type": "uint256[]"
        }
      ],
      "stateMutability": "view",
      "type": "function"
    },
    {
      "inputs": [],
      "name": "listUserVehicleRequestsIds",
      "outputs": [
        {
          "internalType": "uint256[]",
          "name": "",
          "type": "uint256[]"
        }
      ],
      "stateMutability": "view",
      "type": "function"
    },
    {
      "inputs": [],
      "name": "name",
      "outputs": [
        {
          "internalType": "string",
          "name": "",
          "type": "string"
        }
      ],
      "stateMutability": "view",
      "type": "function"
    },
    {
      "inputs": [],
      "name": "owner",
      "outputs": [
        {
          "internalType": "address",
          "name": "",
          "type": "address"
        }
      ],
      "stateMutability": "view",
      "type": "function"
    },
    {
      "inputs": [
        {
          "internalType": "uint256",
          "name": "tokenId",
          "type": "uint256"
        }
      ],
      "name": "ownerOf",
      "outputs": [
        {
          "internalType": "address",
          "name": "",
          "type": "address"
        }
      ],
      "stateMutability": "view",
      "type": "function"
    },
    {
      "inputs": [],
      "name": "renounceOwnership",
      "outputs": [],
      "stateMutability": "nonpayable",
      "type": "function"
    },
    {
      "inputs": [
        {
          "internalType": "address",
          "name": "from",
          "type": "address"
        },
        {
          "internalType": "address",
          "name": "to",
          "type": "address"
        },
        {
          "internalType": "uint256",
          "name": "tokenId",
          "type": "uint256"
        }
      ],
      "name": "safeTransferFrom",
      "outputs": [],
      "stateMutability": "nonpayable",
      "type": "function"
    },
    {
      "inputs": [
        {
          "internalType": "address",
          "name": "from",
          "type": "address"
        },
        {
          "internalType": "address",
          "name": "to",
          "type": "address"
        },
        {
          "internalType": "uint256",
          "name": "tokenId",
          "type": "uint256"
        },
        {
          "internalType": "bytes",
          "name": "data",
          "type": "bytes"
        }
      ],
      "name": "safeTransferFrom",
      "outputs": [],
      "stateMutability": "nonpayable",
      "type": "function"
    },
    {
      "inputs": [
        {
          "internalType": "address",
          "name": "operator",
          "type": "address"
        },
        {
          "internalType": "bool",
          "name": "approved",
          "type": "bool"
        }
      ],
      "name": "setApprovalForAll",
      "outputs": [],
      "stateMutability": "nonpayable",
      "type": "function"
    },
    {
      "inputs": [
        {
          "internalType": "bytes4",
          "name": "interfaceId",
          "type": "bytes4"
        }
      ],
      "name": "supportsInterface",
      "outputs": [
        {
          "internalType": "bool",
          "name": "",
          "type": "bool"
        }
      ],
      "stateMutability": "view",
      "type": "function"
    },
    {
      "inputs": [],
      "name": "symbol",
      "outputs": [
        {
          "internalType": "string",
          "name": "",
          "type": "string"
        }
      ],
      "stateMutability": "view",
      "type": "function"
    },
    {
      "inputs": [
        {
          "internalType": "uint256",
          "name": "tokenId",
          "type": "uint256"
        }
      ],
      "name": "tokenURI",
      "outputs": [
        {
          "internalType": "string",
          "name": "",
          "type": "string"
        }
      ],
      "stateMutability": "view",
      "type": "function"
    },
    {
      "inputs": [
        {
          "internalType": "address",
          "name": "from",
          "type": "address"
        },
        {
          "internalType": "address",
          "name": "to",
          "type": "address"
        },
        {
          "internalType": "uint256",
          "name": "tokenId",
          "type": "uint256"
        }
      ],
      "name": "transferFrom",
      "outputs": [],
      "stateMutability": "nonpayable",
      "type": "function"
    },
    {
      "inputs": [
        {
          "internalType": "address",
          "name": "newOwner",
          "type": "address"
        }
      ],
      "name": "transferOwnership",
      "outputs": [],
      "stateMutability": "nonpayable",
      "type": "function"
    },
    {
      "inputs": [
        {
          "internalType": "string",
          "name": "driverLicenseCode",
          "type": "string"
        }
      ],
      "name": "userRegistration",
      "outputs": [],
      "stateMutability": "nonpayable",
      "type": "function"
    }
  ],
  "bytecode": "0x6080604052346200002657620000146200002b565b6040516128076200050e823961280790f35b600080fd5b6200003562000037565b565b620000356200003562000035620000356200003562000035620000356200003562000035620000356200003562000144565b634e487b7160e01b600052604160045260246000fd5b90601f01601f191681019081106001600160401b03821117620000a157604052565b62000069565b9062000035620000b660405190565b92836200007f565b6001600160401b038111620000a157602090601f01601f19160190565b90620000f1620000eb83620000be565b620000a7565b918252565b620001026003620000db565b6213919560ea1b602082015290565b6200011b620000f6565b90565b6200012a6004620000db565b631593919560e21b602082015290565b6200011b6200011e565b620001636200015262000111565b6200015c6200013a565b906200016f565b62000035601f620004dd565b6200003591829182918291829182916200018a9190620003b0565b620000353362000440565b634e487b7160e01b600052602260045260246000fd5b9060016002830492168015620001ce575b6020831014620001c857565b62000195565b91607f1691620001bc565b9160001960089290920291821b911b5b9181191691161790565b6200011b6200011b6200011b9290565b9190620002186200011b6200022193620001f3565b908354620001d9565b9055565b620000359160009162000203565b8181106200023f575050565b806200024f600060019362000225565b0162000233565b9190601f81116200026657505050565b6200027a6200003593600052602060002090565b906020601f8401819004830193106200029e575b6020601f90910104019062000233565b90915081906200028e565b9060001960089091021c191690565b81620002c491620002a9565b906002021790565b90620002d6815190565b906001600160401b038211620000a157620002fe82620002f78554620001ab565b8562000256565b602090601f831160011462000331576200022192916000918362000325575b5050620002b8565b0151905038806200031d565b601f198316916200034785600052602060002090565b9260005b8181106200038b575091600293918560019694106200036e575b50505002019055565b62000380910151601f841690620002a9565b905538808062000365565b919360206001819287870151815501950192016200034b565b906200003591620002cc565b90620003c262000035926018620003a4565b6019620003a4565b6200011b905b6001600160a01b031690565b6200011b9054620003ca565b906001600160a01b0390620001e9565b6200011b90620003d0906001600160a01b031682565b6200011b90620003f8565b6200011b906200040e565b90620004386200011b620002219262000419565b8254620003e8565b6200044c601e620003dc565b906200045a81601e62000424565b620004916200048a7f8be0079c531659141344cd1fd0a4f28419497f9722a3daafe3b4186f6b6457e09362000419565b9162000419565b916200049c60405190565b600090a3565b6200011b9081565b6200011b9054620004a2565b9060001990620001e9565b90620004d56200011b6200022192620001f3565b8254620004b6565b6200003590620005066000620004f46001620001f3565b9201916200050283620004aa565b0190565b90620004c156fe6080604052600436101561001257600080fd5b60003560e01c806301ffc9a7146101b257806306fdde03146101ad578063081812fc146101a8578063095ea7b3146101a35780631114cd571461019e5780631499f40b1461019957806314a5189a1461019457806315acca771461018f57806323b872dd1461018a57806342842e0e146101855780634c7525da146101805780636352211e1461017b57806370a082311461017657806370e37a6414610171578063715018a61461016c57806378301afd146101675780638da5cb5b1461016257806395d89b411461015d5780639932662214610158578063a22cb46514610153578063b88d4fde1461014e578063bc6f4be614610149578063c87b56dd14610144578063cf6713d01461013f578063e985e9c51461013a5763f2fde38b036101d4576109bf565b6109a3565b610968565b61094d565b610935565b610919565b6108b1565b61085e565b610843565b610828565b610810565b6107d3565b6107b8565b61078d565b610772565b610759565b610649565b610630565b6105e5565b6105b6565b61058f565b610404565b61037f565b61031f565b6102ac565b610203565b6001600160e01b03191690565b6101cd816101b7565b036101d457565b600080fd5b905035906101e6826101c4565b565b906020828203126101d4576101fc916101d9565b90565b9052565b346101d45761023161021e6102193660046101e8565b610bf1565b6040515b91829182901515815260200190565b0390f35b60009103126101d457565b60005b8381106102535750506000910152565b8181015183820152602001610243565b61028461028d60209361029793610278815190565b80835293849260200190565b95869101610240565b601f01601f191690565b0190565b60208082526101fc92910190610263565b346101d4576102bc366004610235565b6102316102c7610e78565b6040519182918261029b565b806101cd565b905035906101e6826102d3565b906020828203126101d4576101fc916102d9565b6001600160a01b031690565b6101ff906102fa565b6020810192916101e69190610306565b346101d45761023161033a6103353660046102e6565b61109d565b6040519182918261030f565b6101cd816102fa565b905035906101e682610346565b91906040838203126101d4576101fc90610376818561034f565b936020016102d9565b346101d45761039861039236600461035c565b9061102d565b604051005b906103bd6103b66103ac845190565b8084529260200190565b9260200190565b9060005b8181106103ce5750505090565b9091926103eb6103e46001928651815260200190565b9460200190565b9291016103c1565b60208082526101fc9291019061039d565b346101d457610414366004610235565b61023161041f61243e565b604051918291826103f3565b9061043a6103b66103ac845190565b9060005b81811061044b5750505090565b9091926104616103e46001928651815260200190565b92910161043e565b805160808084526101fc939160609161049a9161048891850190610263565b60208501518482036020860152610263565b926104aa60408201516040850152565b015190606081840391015261042b565b634e487b7160e01b600052602160045260246000fd5b600411156104da57565b6104ba565b906101e6826104d0565b6101fc906104df565b6101ff906104e9565b906101fc9060c08061055561054360e0850161051f60008901516000880190610306565b61053160208901516020880190610306565b60408801518682036040880152610263565b60608701518582036060870152610469565b94610568608082015160808601906104f2565b61057760a082015160a0860152565b0151910152565b60208082526101fc929101906104fb565b346101d4576102316105aa6105a53660046102e6565b6123e6565b6040519182918261057e565b346101d4576105c6366004610235565b61023161041f612242565b906020828203126101d4576101fc9161034f565b346101d4576102316102c76105fb3660046105d1565b611dab565b90916060828403126101d4576101fc610619848461034f565b93610627816020860161034f565b936040016102d9565b346101d457610398610643366004610600565b91611156565b346101d45761039861065c366004610600565b91611173565b634e487b7160e01b600052604160045260246000fd5b90601f01601f191681019081106001600160401b0382111761069957604052565b610662565b906101e66106ab60405190565b9283610678565b6001600160401b03811161069957602090601f01601f19160190565b90826000939282370152565b909291926106ef6106ea826106b2565b61069e565b938185526020850190828401116101d4576101e6926106ce565b9080601f830112156101d4578160206101fc933591016106da565b9190916040818403126101d45761073b838261034f565b9260208201356001600160401b0381116101d4576101fc9201610709565b346101d45761039861076c366004610724565b90612139565b346101d45761023161033a6107883660046102e6565b610d53565b346101d4576102316107a86107a33660046105d1565b610cd0565b6040519182918290815260200190565b346101d4576107c8366004610235565b61023161041f6127c0565b346101d4576107e3366004610235565b610398610a23565b906020828203126101d45781356001600160401b0381116101d4576101fc9201610709565b346101d4576103986108233660046107eb565b611c44565b346101d457610838366004610235565b61023161033a6109e1565b346101d457610853366004610235565b6102316102c7610e82565b346101d45761086e366004610235565b6102316102c7611d84565b8015156101cd565b905035906101e682610879565b91906040838203126101d4576101fc906108a8818561034f565b93602001610881565b346101d4576103986108c436600461088e565b906110c2565b906080828203126101d4576108df818361034f565b926108ed826020850161034f565b926040926108fd818584016102d9565b936001806060850135921b0381116101d4576101fc9201610709565b346101d45761039861092c3660046108ca565b92919091611183565b346101d4576103986109483660046107eb565b611d4a565b346101d4576102316102c76109633660046102e6565b610ef2565b346101d45761039861097b3660046102e6565b6124a7565b91906040838203126101d4576101fc9061099a818561034f565b9360200161034f565b346101d45761023161021e6109b9366004610980565b906110cd565b346101d4576103986109d23660046105d1565b610b37565b6101fc90546102fa565b6101fc601e6109d7565b6109f3610a7f565b6101e6610a11565b6102fa6101fc6101fc9290565b6101fc906109fb565b6101e6610a1e6000610a08565b610b96565b6101e66109eb565b15610a3257565b60405162461bcd60e51b815280610a7b600482016020808252818101527f4f776e61626c653a2063616c6c6572206973206e6f7420746865206f776e6572604082015260600190565b0390fd5b6101e6610a8a6109e1565b610aa1610a9b336102fa565b6102fa565b916102fa565b14610a2b565b6101e690610ab3610a7f565b610b13565b15610abf57565b60405162461bcd60e51b815260206004820152602660248201527f4f776e61626c653a206e6577206f776e657220697320746865207a65726f206160448201526564647265737360d01b6064820152608490fd5b6101e690610a1e610b27610a966000610a08565b610b30836102fa565b1415610ab8565b6101e690610aa7565b906001600160a01b03905b9181191691161790565b6101fc906102fa906001600160a01b031682565b6101fc90610b55565b6101fc90610b69565b90610b8b6101fc610b9292610b72565b8254610b40565b9055565b610ba0601e6109d7565b90610bac81601e610b7b565b610bdf610bd97f8be0079c531659141344cd1fd0a4f28419497f9722a3daafe3b4186f6b6457e093610b72565b91610b72565b91610be960405190565b80805b0390a3565b610c016380ac58cd60e01b6101b7565b610c0a826101b7565b14908115610c27575b8115610c1d575090565b6101fc9150611879565b9050610c39635b5e139f60e01b6101b7565b610c42826101b7565b1490610c13565b15610c5057565b60405162461bcd60e51b815260206004820152602960248201527f4552433732313a2061646472657373207a65726f206973206e6f7420612076616044820152683634b21037bbb732b960b91b6064820152608490fd5b90610cb190610b72565b600052602052604060002090565b6101fc9081565b6101fc9054610cbf565b610d076101fc91610cdf600090565b50610d00610cf0610a966000610a08565b610cf9836102fa565b1415610c49565b601b610ca7565b610cc6565b15610d1357565b60405162461bcd60e51b8152602060048201526018602482015277115490cdcc8c4e881a5b9d985b1a59081d1bdad95b88125160421b6044820152606490fd5b610d609060005b50611223565b6101fc610d70610a966000610a08565b610d79836102fa565b1415610d0c565b634e487b7160e01b600052602260045260246000fd5b9060016002830492168015610db6575b6020831014610db157565b610d80565b91607f1691610da6565b80546000939291610ddd610dd383610d96565b8085529360200190565b9160018116908115610e2f5750600114610df657505050565b610e099192939450600052602060002090565b916000925b818410610e1b5750500190565b805484840152602090930192600101610e0e565b92949550505060ff1916825215156020020190565b906101fc91610dc0565b906101e6610e6892610e5f60405190565b93848092610e44565b0383610678565b6101fc90610e4e565b6101fc6018610e6f565b6101fc6019610e6f565b6101fc6101fc6101fc9290565b90610ea66106ea836106b2565b918252565b6101fc6000610e99565b6101fc610eab565b610297610ed592602092610ecf815190565b94859290565b93849101610240565b610eec906101fc9392610ebd565b90610ebd565b610efb816115e2565b610f03610f5d565b8051610f16610f126000610e8c565b9190565b1115610f53576101fc610f4791610f2f6101fc946117ed565b90610f3960405190565b938492602084019283610ede565b90810382520382610678565b50506101fc610eb5565b6101fc610eb5565b15610f6c57565b60405162461bcd60e51b815260206004820152602160248201527f4552433732313a20617070726f76616c20746f2063757272656e74206f776e656044820152603960f91b6064820152608490fd5b15610fc257565b60405162461bcd60e51b815260206004820152603d60248201527f4552433732313a20617070726f76652063616c6c6572206973206e6f7420746f60448201527f6b656e206f776e6572206f7220617070726f76656420666f7220616c6c0000006064820152608490fd5b906101e69161107d61103e83610d53565b61105a61104a826102fa565b611053856102fa565b1415610f65565b33611064826102fa565b61106d826102fa565b14918215611082575b5050610fbb565b6114bc565b61108c92506110cd565b3880611076565b90610cb190610e8c565b6110bd6101fc916110ac600090565b506110b6816115e2565b601c611093565b6109d7565b6101e691903361156e565b6101fc916110e86110ed926110e0600090565b50601d610ca7565b610ca7565b5460ff1690565b156110fb57565b60405162461bcd60e51b815260206004820152602d60248201527f4552433732313a2063616c6c6572206973206e6f7420746f6b656e206f776e6560448201526c1c881bdc88185c1c1c9bdd9959609a1b6064820152608490fd5b6101e692919061116e611169843361123a565b6110f4565b6113ac565b90916101e692611181610eb5565b925b6101e693929190611197611169843361123a565b611204565b156111a357565b6040515b62461bcd60e51b815260206004820152603260248201527f4552433732313a207472616e7366657220746f206e6f6e20455243373231526560448201527131b2b4bb32b91034b6b83632b6b2b73a32b960711b6064820152608490fd5b916101e6939161121e936112198383836113ac565b611691565b61119c565b6110bd6101fc91611232600090565b50601a611093565b61124382610d53565b9161124d836102fa565b611256836102fa565b14928315611287575b50821561126b57505090565b61128391925061127d610a9b9161109d565b926102fa565b1490565b61129491935082906110cd565b913861125f565b156112a257565b60405162461bcd60e51b815260206004820152602560248201527f4552433732313a207472616e736665722066726f6d20696e636f72726563742060448201526437bbb732b960d91b6064820152608490fd5b156112fc57565b60405162461bcd60e51b8152602060048201526024808201527f4552433732313a207472616e7366657220746f20746865207a65726f206164646044820152637265737360e01b6064820152608490fd5b916001600160a01b0360089290920291821b911b610b4b565b91906113776101fc610b9293610b72565b90835461134d565b6101e691600091611366565b9060001990610b4b565b906113a56101fc610b9292610e8c565b825461138b565b91906113cc6113ba83610d53565b6113c6610a9b866102fa565b1461129b565b61141860006113f06113e0610a9683610a08565b6113e9856102fa565b14156112f5565b6114086113fc85610d53565b6113c6610a9b886102fa565b61141384601c611093565b61137f565b61145c6114256001610e8c565b61144c61145284601b6110e861143b8a83610ca7565b61144c8761144883610cc6565b0390565b90611395565b9161029783610cc6565b6114708161146b84601a611093565b610b7b565b6114ac6114a66114a07fddf252ad1be2c89b69c2b068fc378daa952ba7f163c4a11628f55a4df523b3ef95610b72565b92610b72565b92610e8c565b926114b660405190565b600090a4565b906114cc8261146b83601c611093565b6114d581610d53565b916114ac6114a66114a07f8c5be1e5ebec7d5bd14f71427d1e84f3dd0314c0f7b2291e5b200ac8c7c3b92595610b72565b1561150d57565b60405162461bcd60e51b815260206004820152601960248201527822a9219b99189d1030b8383937bb32903a379031b0b63632b960391b6044820152606490fd5b9060ff90610b4b565b906115676101fc610b9292151590565b825461154e565b61158a61157a836102fa565b611583836102fa565b1415611506565b6115a28361159d846110e885601d610ca7565b611557565b610bec6115d86115d27f17307eab39ab6107e8899845ad3d59bd9653f200f220920489ca2b5937696c3193610b72565b93610b72565b9361022260405190565b6115ee6101e6916115f3565b610d0c565b6115fe906000610d5a565b61160e610a9b610a966000610a08565b141590565b905051906101e6826101c4565b906020828203126101d4576101fc91611613565b90926116659061165e6101fc969461165460808601976000870190610306565b6020850190610306565b6040830152565b6060818403910152610263565b3d1561168c576116813d610e99565b903d6000602084013e565b606090565b9190939261169d600090565b946116a78161178e565b1561178457906116ee60006116c66116c160209695610b72565b610b72565b926116f963150b7a02916116d73390565b966116e160405190565b998a988997889660e01b90565b865260048601611634565b03925af160009181611754575b506117385750611714611672565b8051611723610f126000610e8c565b03611730576040516111a7565b805190602001fd5b90915061128361174e630a85bd0160e11b6101b7565b916101b7565b61177691925060203d811161177d575b61176e8183610678565b810190611620565b9038611706565b503d611764565b5060019450505050565b3b61179c610f126000610e8c565b1190565b369037565b906101e66117bb6117b584610e99565b936106b2565b601f1901602084016117a0565b634e487b7160e01b600052601260045260246000fd5b81156117e8570490565b6117c8565b6117f68161188c565b9061180660019261029784610e8c565b9180611811846117a5565b936020018401905b611824575b50505090565b6118589060001901926f181899199a1a9b1b9c1cb0b131b232b360811b600a82061a8453611852600a610e8c565b906117de565b9081611867610f126000610e8c565b1461187457909181611819565b61181e565b61128361174e6301ffc9a760e01b6101b7565b6118966000610e8c565b9072184f03e93ff9f4daa797ed6e38ed64bf6a1f0160401b6118b781610e8c565b821015611a08575b506904ee2d6d415b85acef8160201b6118d781610e8c565b8210156119e6575b50662386f26fc100006118f181610e8c565b8210156119c4575b506305f5e10061190881610e8c565b8210156119a2575b5061271061191d81610e8c565b821015611980575b50606461193181610e8c565b82101561195e575b50611947610f12600a610e8c565b10156119505790565b6101fc906102976001610e8c565b6119799161185261196e92610e8c565b916102976002610e8c565b9038611939565b61199b9161185261199092610e8c565b916102976004610e8c565b9038611925565b6119bd916118526119b292610e8c565b916102976008610e8c565b9038611910565b6119df916118526119d492610e8c565b916102976010610e8c565b90386118f9565b611a01916118526119f692610e8c565b916102976020610e8c565b90386118df565b611a2391611852611a1892610e8c565b916102976040610e8c565b90386118bf565b156101d457565b634e487b7160e01b600052603260045260246000fd5b8054821015611a6a57611a61600191600052602060002090565b91020190600090565b611a31565b80549190600160401b8310156106995782611a929160016101e695018155611a47565b90611366565b634e487b7160e01b600052600060045260246000fd5b9160001960089290920291821b911b610b4b565b9190611ad36101fc610b9293610e8c565b908354611aae565b6101e691600091611ac2565b818110611af2575050565b80611b006000600193611adb565b01611ae7565b9190601f8111611b1557505050565b611b276101e693600052602060002090565b906020601f840181900483019310611b49575b6020601f909101040190611ae7565b9091508190611b3a565b9060001960089091021c191690565b81611b6c91611b53565b906002021790565b90611b7d815190565b906001600160401b03821161069957611ba082611b9a8554610d96565b85611b06565b602090601f8311600114611bce57610b92929160009183611bc3575b5050611b62565b015190503880611bbc565b601f19831691611be385600052602060002090565b9260005b818110611c2257509160029391856001969410611c08575b50505002019055565b611c18910151601f841690611b53565b9055388080611bff565b91936020600181928787015181550195019201611be7565b906101e691611b74565b6101e690611c9f33611c63611c5882611cbc565b151560011415611a2a565b611c98611c886004611c8384611c7e611c7a845490565b9390565b611a6f565b610e8c565b611c93836007610ca7565b611395565b600a610ca7565b611c3a565b6101fc916008021c6102fa565b906101fc9154611ca4565b6007611ccb610d078383610ca7565b600090611cda610f1283610e8c565b128015611d18575b611d125750610a9b61127d611d0c61128393611d06611c83610d0788600494610ca7565b90611a47565b90611cb1565b91505090565b50600454611d28610f1283610e8c565b1115611ce2565b6101e690611d3b611d53565b6101e690611c9f33600a610ca7565b6101e690611d2f565b6101e6611d5f33611cbc565b611a2a565b6101fc90611d70611d53565b506101fc611d7f33600a610ca7565b610e6f565b6101fc6060611d64565b906101fc91611d9b610a7f565b6101fc91611d7f9150600a610ca7565b6101fc906060611d8e565b906101e691611dc3611d53565b61204f565b6101fc608061069e565b6101fc60e061069e565b906101ff906102fa565b906101ff906104df565b8054821015611a6a57611a61600a91600052602060002090565b6101fc90516102fa565b818110611e1f575050565b80611e2d6000600193611adb565b01611e14565b9091828110611e4157505050565b6101e69290611e57905b92600052602060002090565b9081019101611e14565b90600160401b81116106995781611e796101e6935490565b90828155611e33565b8151916001600160401b03831161069957611eac611e4b600192611ea68686611e61565b60200190565b92049160005b838110611ebf5750505050565b6001906020611ecf6101fc865190565b9401938184015501611eb2565b906101e691611e82565b90611f35606060036101e694611f0a60008201611f04600088015190565b90611c3a565b611f1c60018201611f04602088015190565b611f2e6002820161144c604088015190565b0192015190565b90611edc565b906101e691611ee6565b6101fc90516104df565b906115676101fc610b92926104e9565b6101e6919061144c9060c090600990611f8181611f7b87611e0a565b90610b7b565b611f9460018201611f7b60208801611e0a565b611fa660028201611f04604088015190565b611fbe60038201611fb8606088015190565b90611f3b565b611fd760078201611fd160808801611f45565b90611f4f565b611f2e6008820161144c60a088015190565b9190611ff8576101e691611f5f565b611a98565b80549190600160401b83101561069957826120209160016101e695018155611df0565b90611fe9565b80549190600160401b83101561069957826120499160016101e695018155611a47565b90611ac2565b61212d6101fc6120fa6121326101e69561212d6101fc61212197612075611d5f82612143565b612126600094612119612086606090565b916120d0612092611dc8565b936120a461209e610eb5565b8b870152565b6120b66120af610eb5565b6020870152565b6120c96120c28b610e8c565b6040870152565b6060850152565b33998a936120c942936120ed6120e4611dd2565b978d8901611ddc565b6120c28960208901611ddc565b6121078860808501611de6565b6121128160a0850152565b60c0830152565b85549a8b9690565b611ffd565b600b610ca7565b612026565b600c610ca7565b906101e691611db6565b6008612152610d078383610ca7565b600090612161610f1283610e8c565b12801561218d575b611d125750610a9b61127d611d0c61128393611d06611c83610d0788600594610ca7565b5060055461219d610f1283610e8c565b1115612169565b6101fc906121b0611d53565b61222e565b906121c4611e4b6103ac845490565b9060005b8181106121d55750505090565b9091926121f96121f26001926121ea87610cc6565b815260200190565b9460010190565b9291016121c8565b906101fc916121b5565b906101e6610e689261221c60405190565b93848092612201565b6101fc9061220b565b506101fc61223d33600c610ca7565b612225565b6101fc60606121a4565b612254611dc8565b606080825260208201819052600060408301528082015290565b6101fc61224c565b61227e611dd2565b9060008252602080808080808088016000815201606081520161229f61226e565b815201600081520160008152016000905250565b6101fc612276565b906101fc916122c9826123f7565b6123d0565b906101e661232260036122df611dc8565b946122f06122ec82610e4e565b8752565b6123066122ff60018301610e4e565b6020880152565b61231c61231560028301610cc6565b6040880152565b0161220b565b6060840152565b906101e66123c0600961233a611dd2565b9461234d612347826109d7565b87611ddc565b61236561235c600183016109d7565b60208801611ddc565b61237461231560028301610e4e565b61238a612383600383016122ce565b6060880152565b6123a461239b600783015460ff1690565b60808801611de6565b6123ba6123b360088301610cc6565b60a0880152565b01610cc6565b60c0840152565b6101fc90612329565b6101fc916123e091506000611df0565b506123c7565b6101fc906123f26122b3565b6122bb565b6124116101e69161240a60009182611df0565b50016109d7565b61241d610a9b336102fa565b14611a2a565b6101fc9061242f611d53565b506101fc61223d33600d610ca7565b6101fc6060612423565b6101e690612455816123f7565b6101e69060076124a060009261248e61247b846124728488611df0565b50015460ff1690565b61241d61248860016104df565b916104df565b61249881336124b0565b600293611df0565b5001611f4f565b6101e690612448565b6101e691906124f4601f926124cd6124c785612621565b94612636565b6124ee8461212d6101fc336124e78161146b866026611093565b6027610ca7565b8361270e565b6101e691612500610eb5565b61121e916101e69361251282826125b7565b6112196000610a08565b1561252357565b60405162461bcd60e51b815280610a7b600482016020808252818101527f4552433732313a206d696e7420746f20746865207a65726f2061646472657373604082015260600190565b1561257357565b60405162461bcd60e51b815260206004820152601c60248201527b115490cdcc8c4e881d1bdad95b88185b1c9958591e481b5a5b9d195960221b6044820152606490fd5b906125c26000610a08565b916125df6125cf846102fa565b6125d8836102fa565b141561251c565b6125f76125f26125ee846115f3565b1590565b61256c565b6126066125f26125ee846115f3565b61145c6126136001610e8c565b61144c61145284601b610ca7565b60006101fc9161262f600090565b5001610cc6565b6101e69061144c60006126496001610e8c565b92019161029783610cc6565b6101fc906122ce565b6101fc60a061069e565b8054821015611a6a57611a61600591600052602060002090565b90611f35608060046101e6946126a060008201611f04600088015190565b6126b260018201611f04602088015190565b6126c460028201611f04604088015190565b611f2e6003820161144c606088015190565b9190611ff8576101e691612682565b80549190600160401b83101561069957826127089160016101e695018155612668565b906126d6565b906127b96101e69261279a6000612793600261274061273960036127328a87611df0565b5001612655565b9784611df0565b50019561278c8382015161278560208401519161277e6060612763604088015190565b9601519761277861277261265e565b9d610e6f565b908d0152565b60208b0152565b6040890152565b6060870152565b6080850152565b611c936020916127b26127ac84612621565b93612636565b6028611093565b60236126e5565b6101fc6101fc61223d336027610ca756fea2646970667358221220c52d7aa3a51666bc8acb24ea57227ad1b0f651fc8bb16da3d242c54feaed8b5f64736f6c63430008130033",
  "linkReferences": {},
  "deployedLinkReferences": {}
}