{
  "_format": "hh-sol-artifact-1",
  "contractName": "BaseFactoryContract",
  "sourceName": "contracts/baseFactory/BaseFactoryContract.sol",
  "abi": [
    {
      "anonymous": false,
      "inputs": [
        {
          "indexed": true,
          "internalType": "address",
          "name": "owner",
          "type": "address"
        },
        {
          "indexed": true,
          "internalType": "address",
          "name": "approved",
          "type": "address"
        },
        {
          "indexed": true,
          "internalType": "uint256",
          "name": "tokenId",
          "type": "uint256"
        }
      ],
      "name": "Approval",
      "type": "event"
    },
    {
      "anonymous": false,
      "inputs": [
        {
          "indexed": true,
          "internalType": "address",
          "name": "owner",
          "type": "address"
        },
        {
          "indexed": true,
          "internalType": "address",
          "name": "operator",
          "type": "address"
        },
        {
          "indexed": false,
          "internalType": "bool",
          "name": "approved",
          "type": "bool"
        }
      ],
      "name": "ApprovalForAll",
      "type": "event"
    },
    {
      "anonymous": false,
      "inputs": [
        {
          "indexed": true,
          "internalType": "address",
          "name": "previousOwner",
          "type": "address"
        },
        {
          "indexed": true,
          "internalType": "address",
          "name": "newOwner",
          "type": "address"
        }
      ],
      "name": "OwnershipTransferred",
      "type": "event"
    },
    {
      "anonymous": false,
      "inputs": [
        {
          "indexed": true,
          "internalType": "address",
          "name": "from",
          "type": "address"
        },
        {
          "indexed": true,
          "internalType": "address",
          "name": "to",
          "type": "address"
        },
        {
          "indexed": true,
          "internalType": "uint256",
          "name": "tokenId",
          "type": "uint256"
        }
      ],
      "name": "Transfer",
      "type": "event"
    },
    {
      "inputs": [
        {
          "internalType": "address",
          "name": "to",
          "type": "address"
        },
        {
          "internalType": "uint256",
          "name": "tokenId",
          "type": "uint256"
        }
      ],
      "name": "approve",
      "outputs": [],
      "stateMutability": "nonpayable",
      "type": "function"
    },
    {
      "inputs": [
        {
          "internalType": "address",
          "name": "owner",
          "type": "address"
        }
      ],
      "name": "balanceOf",
      "outputs": [
        {
          "internalType": "uint256",
          "name": "",
          "type": "uint256"
        }
      ],
      "stateMutability": "view",
      "type": "function"
    },
    {
      "inputs": [
        {
          "internalType": "uint256",
          "name": "tokenId",
          "type": "uint256"
        }
      ],
      "name": "getApproved",
      "outputs": [
        {
          "internalType": "address",
          "name": "",
          "type": "address"
        }
      ],
      "stateMutability": "view",
      "type": "function"
    },
    {
      "inputs": [
        {
          "internalType": "address",
          "name": "owner",
          "type": "address"
        },
        {
          "internalType": "address",
          "name": "operator",
          "type": "address"
        }
      ],
      "name": "isApprovedForAll",
      "outputs": [
        {
          "internalType": "bool",
          "name": "",
          "type": "bool"
        }
      ],
      "stateMutability": "view",
      "type": "function"
    },
    {
      "inputs": [],
      "name": "name",
      "outputs": [
        {
          "internalType": "string",
          "name": "",
          "type": "string"
        }
      ],
      "stateMutability": "view",
      "type": "function"
    },
    {
      "inputs": [],
      "name": "owner",
      "outputs": [
        {
          "internalType": "address",
          "name": "",
          "type": "address"
        }
      ],
      "stateMutability": "view",
      "type": "function"
    },
    {
      "inputs": [
        {
          "internalType": "uint256",
          "name": "tokenId",
          "type": "uint256"
        }
      ],
      "name": "ownerOf",
      "outputs": [
        {
          "internalType": "address",
          "name": "",
          "type": "address"
        }
      ],
      "stateMutability": "view",
      "type": "function"
    },
    {
      "inputs": [],
      "name": "renounceOwnership",
      "outputs": [],
      "stateMutability": "nonpayable",
      "type": "function"
    },
    {
      "inputs": [
        {
          "internalType": "address",
          "name": "from",
          "type": "address"
        },
        {
          "internalType": "address",
          "name": "to",
          "type": "address"
        },
        {
          "internalType": "uint256",
          "name": "tokenId",
          "type": "uint256"
        }
      ],
      "name": "safeTransferFrom",
      "outputs": [],
      "stateMutability": "nonpayable",
      "type": "function"
    },
    {
      "inputs": [
        {
          "internalType": "address",
          "name": "from",
          "type": "address"
        },
        {
          "internalType": "address",
          "name": "to",
          "type": "address"
        },
        {
          "internalType": "uint256",
          "name": "tokenId",
          "type": "uint256"
        },
        {
          "internalType": "bytes",
          "name": "data",
          "type": "bytes"
        }
      ],
      "name": "safeTransferFrom",
      "outputs": [],
      "stateMutability": "nonpayable",
      "type": "function"
    },
    {
      "inputs": [
        {
          "internalType": "address",
          "name": "operator",
          "type": "address"
        },
        {
          "internalType": "bool",
          "name": "approved",
          "type": "bool"
        }
      ],
      "name": "setApprovalForAll",
      "outputs": [],
      "stateMutability": "nonpayable",
      "type": "function"
    },
    {
      "inputs": [
        {
          "internalType": "bytes4",
          "name": "interfaceId",
          "type": "bytes4"
        }
      ],
      "name": "supportsInterface",
      "outputs": [
        {
          "internalType": "bool",
          "name": "",
          "type": "bool"
        }
      ],
      "stateMutability": "view",
      "type": "function"
    },
    {
      "inputs": [],
      "name": "symbol",
      "outputs": [
        {
          "internalType": "string",
          "name": "",
          "type": "string"
        }
      ],
      "stateMutability": "view",
      "type": "function"
    },
    {
      "inputs": [
        {
          "internalType": "uint256",
          "name": "tokenId",
          "type": "uint256"
        }
      ],
      "name": "tokenURI",
      "outputs": [
        {
          "internalType": "string",
          "name": "",
          "type": "string"
        }
      ],
      "stateMutability": "view",
      "type": "function"
    },
    {
      "inputs": [
        {
          "internalType": "address",
          "name": "from",
          "type": "address"
        },
        {
          "internalType": "address",
          "name": "to",
          "type": "address"
        },
        {
          "internalType": "uint256",
          "name": "tokenId",
          "type": "uint256"
        }
      ],
      "name": "transferFrom",
      "outputs": [],
      "stateMutability": "nonpayable",
      "type": "function"
    },
    {
      "inputs": [
        {
          "internalType": "address",
          "name": "newOwner",
          "type": "address"
        }
      ],
      "name": "transferOwnership",
      "outputs": [],
      "stateMutability": "nonpayable",
      "type": "function"
    }
  ],
  "bytecode": "0x6080604052346200002657620000146200002b565b604051611680620004f6823961168090f35b600080fd5b6200003562000037565b565b62000035620000356200003562000035620000356200012c565b634e487b7160e01b600052604160045260246000fd5b90601f01601f191681019081106001600160401b038211176200008957604052565b62000051565b90620000356200009e60405190565b928362000067565b6001600160401b0381116200008957602090601f01601f19160190565b90620000d9620000d383620000a6565b6200008f565b918252565b620000ea6003620000c3565b6213919560ea1b602082015290565b62000103620000de565b90565b620001126004620000c3565b631593919560e21b602082015290565b6200010362000106565b6200014b6200013a620000f9565b6200014462000122565b9062000157565b62000035601f620004c5565b62000035918291829182918291829162000172919062000398565b620000353362000428565b634e487b7160e01b600052602260045260246000fd5b9060016002830492168015620001b6575b6020831014620001b057565b6200017d565b91607f1691620001a4565b9160001960089290920291821b911b5b9181191691161790565b6200010362000103620001039290565b919062000200620001036200020993620001db565b908354620001c1565b9055565b6200003591600091620001eb565b81811062000227575050565b806200023760006001936200020d565b016200021b565b9190601f81116200024e57505050565b620002626200003593600052602060002090565b906020601f84018190048301931062000286575b6020601f9091010401906200021b565b909150819062000276565b9060001960089091021c191690565b81620002ac9162000291565b906002021790565b90620002be815190565b906001600160401b0382116200008957620002e682620002df855462000193565b856200023e565b602090601f83116001146200031957620002099291600091836200030d575b5050620002a0565b01519050388062000305565b601f198316916200032f85600052602060002090565b9260005b818110620003735750916002939185600196941062000356575b50505002019055565b62000368910151601f84169062000291565b90553880806200034d565b9193602060018192878701518155019501920162000333565b906200003591620002b4565b90620003aa620000359260186200038c565b60196200038c565b62000103905b6001600160a01b031690565b620001039054620003b2565b906001600160a01b0390620001d1565b6200010390620003b8906001600160a01b031682565b6200010390620003e0565b6200010390620003f6565b906200042062000103620002099262000401565b8254620003d0565b62000434601e620003c4565b906200044281601e6200040c565b62000479620004727f8be0079c531659141344cd1fd0a4f28419497f9722a3daafe3b4186f6b6457e09362000401565b9162000401565b916200048460405190565b600090a3565b620001039081565b6200010390546200048a565b9060001990620001d1565b90620004bd620001036200020992620001db565b82546200049e565b6200003590620004ee6000620004dc6001620001db565b920191620004ea8362000492565b0190565b90620004a956fe6080604052600436101561001257600080fd5b60003560e01c806301ffc9a71461011257806306fdde031461010d578063081812fc14610108578063095ea7b31461010357806323b872dd146100fe57806342842e0e146100f95780636352211e146100f457806370a08231146100ef578063715018a6146100ea5780638da5cb5b146100e557806395d89b41146100e0578063a22cb465146100db578063b88d4fde146100d6578063c87b56dd146100d1578063e985e9c5146100cc5763f2fde38b03610134576105df565b6105c3565b610585565b610569565b61043f565b6103ec565b6103d1565b6103b9565b61038e565b61035f565b610346565b61032d565b6102df565b61027f565b61020c565b610163565b6001600160e01b03191690565b61012d81610117565b0361013457565b600080fd5b9050359061014682610124565b565b906020828203126101345761015c91610139565b90565b9052565b346101345761019161017e610179366004610148565b610811565b6040515b91829182901515815260200190565b0390f35b600091031261013457565b60005b8381106101b35750506000910152565b81810151838201526020016101a3565b6101e46101ed6020936101f7936101d8815190565b80835293849260200190565b958691016101a0565b601f01601f191690565b0190565b602080825261015c929101906101c3565b346101345761021c366004610195565b610191610227610a98565b604051918291826101fb565b8061012d565b9050359061014682610233565b906020828203126101345761015c91610239565b6001600160a01b031690565b61015f9061025a565b6020810192916101469190610266565b346101345761019161029a610295366004610246565b610cbd565b6040519182918261026f565b61012d8161025a565b90503590610146826102a6565b91906040838203126101345761015c906102d681856102af565b93602001610239565b34610134576102f86102f23660046102bc565b90610c4d565b604051005b90916060828403126101345761015c61031684846102af565b9361032481602086016102af565b93604001610239565b34610134576102f86103403660046102fd565b91610d76565b34610134576102f86103593660046102fd565b91610d93565b346101345761019161029a610375366004610246565b610973565b906020828203126101345761015c916102af565b34610134576101916103a96103a436600461037a565b6108f0565b6040519182918290815260200190565b34610134576103c9366004610195565b6102f8610643565b34610134576103e1366004610195565b61019161029a610601565b34610134576103fc366004610195565b610191610227610aa2565b80151561012d565b9050359061014682610407565b91906040838203126101345761015c9061043681856102af565b9360200161040f565b34610134576102f861045236600461041c565b90610ce2565b634e487b7160e01b600052604160045260246000fd5b90601f01601f191681019081106001600160401b0382111761048f57604052565b610458565b906101466104a160405190565b928361046e565b6001600160401b03811161048f57602090601f01601f19160190565b90826000939282370152565b909291926104e56104e0826104a8565b610494565b9381855260208501908284011161013457610146926104c4565b9080601f830112156101345781602061015c933591016104d0565b906080828203126101345761052f81836102af565b9261053d82602085016102af565b9260409261054d81858401610239565b936001806060850135921b0381116101345761015c92016104ff565b34610134576102f861057c36600461051a565b92919091610da3565b346101345761019161022761059b366004610246565b610b12565b91906040838203126101345761015c906105ba81856102af565b936020016102af565b346101345761019161017e6105d93660046105a0565b90610ced565b34610134576102f86105f236600461037a565b610757565b61015c905461025a565b61015c601e6105f7565b61061361069f565b610146610631565b61025a61015c61015c9290565b61015c9061061b565b61014661063e6000610628565b6107b6565b61014661060b565b1561065257565b60405162461bcd60e51b81528061069b600482016020808252818101527f4f776e61626c653a2063616c6c6572206973206e6f7420746865206f776e6572604082015260600190565b0390fd5b6101466106aa610601565b6106c16106bb3361025a565b61025a565b9161025a565b1461064b565b610146906106d361069f565b610733565b156106df57565b60405162461bcd60e51b815260206004820152602660248201527f4f776e61626c653a206e6577206f776e657220697320746865207a65726f206160448201526564647265737360d01b6064820152608490fd5b6101469061063e6107476106b66000610628565b6107508361025a565b14156106d8565b610146906106c7565b906001600160a01b03905b9181191691161790565b61015c9061025a906001600160a01b031682565b61015c90610775565b61015c90610789565b906107ab61015c6107b292610792565b8254610760565b9055565b6107c0601e6105f7565b906107cc81601e61079b565b6107ff6107f97f8be0079c531659141344cd1fd0a4f28419497f9722a3daafe3b4186f6b6457e093610792565b91610792565b9161080960405190565b80805b0390a3565b6108216380ac58cd60e01b610117565b61082a82610117565b14908115610847575b811561083d575090565b61015c9150611499565b9050610859635b5e139f60e01b610117565b61086282610117565b1490610833565b1561087057565b60405162461bcd60e51b815260206004820152602960248201527f4552433732313a2061646472657373207a65726f206973206e6f7420612076616044820152683634b21037bbb732b960b91b6064820152608490fd5b906108d190610792565b600052602052604060002090565b61015c9081565b61015c90546108df565b61092761015c916108ff600090565b506109206109106106b66000610628565b6109198361025a565b1415610869565b601b6108c7565b6108e6565b1561093357565b60405162461bcd60e51b8152602060048201526018602482015277115490cdcc8c4e881a5b9d985b1a59081d1bdad95b88125160421b6044820152606490fd5b6109809060005b50610e43565b61015c6109906106b66000610628565b6109998361025a565b141561092c565b634e487b7160e01b600052602260045260246000fd5b90600160028304921680156109d6575b60208310146109d157565b6109a0565b91607f16916109c6565b805460009392916109fd6109f3836109b6565b8085529360200190565b9160018116908115610a4f5750600114610a1657505050565b610a299192939450600052602060002090565b916000925b818410610a3b5750500190565b805484840152602090930192600101610a2e565b92949550505060ff1916825215156020020190565b9061015c916109e0565b90610146610a8892610a7f60405190565b93848092610a64565b038361046e565b61015c90610a6e565b61015c6018610a8f565b61015c6019610a8f565b61015c61015c61015c9290565b90610ac66104e0836104a8565b918252565b61015c6000610ab9565b61015c610acb565b6101f7610af592602092610aef815190565b94859290565b938491016101a0565b610b0c9061015c9392610add565b90610add565b610b1b81611202565b610b23610b7d565b8051610b36610b326000610aac565b9190565b1115610b735761015c610b6791610b4f61015c9461140d565b90610b5960405190565b938492602084019283610afe565b9081038252038261046e565b505061015c610ad5565b61015c610ad5565b15610b8c57565b60405162461bcd60e51b815260206004820152602160248201527f4552433732313a20617070726f76616c20746f2063757272656e74206f776e656044820152603960f91b6064820152608490fd5b15610be257565b60405162461bcd60e51b815260206004820152603d60248201527f4552433732313a20617070726f76652063616c6c6572206973206e6f7420746f60448201527f6b656e206f776e6572206f7220617070726f76656420666f7220616c6c0000006064820152608490fd5b9061014691610c9d610c5e83610973565b610c7a610c6a8261025a565b610c738561025a565b1415610b85565b33610c848261025a565b610c8d8261025a565b14918215610ca2575b5050610bdb565b6110dc565b610cac9250610ced565b3880610c96565b906108d190610aac565b610cdd61015c91610ccc600090565b50610cd681611202565b601c610cb3565b6105f7565b61014691903361118e565b61015c91610d08610d0d92610d00600090565b50601d6108c7565b6108c7565b5460ff1690565b15610d1b57565b60405162461bcd60e51b815260206004820152602d60248201527f4552433732313a2063616c6c6572206973206e6f7420746f6b656e206f776e6560448201526c1c881bdc88185c1c1c9bdd9959609a1b6064820152608490fd5b610146929190610d8e610d898433610e5a565b610d14565b610fcc565b909161014692610da1610ad5565b925b61014693929190610db7610d898433610e5a565b610e24565b15610dc357565b6040515b62461bcd60e51b815260206004820152603260248201527f4552433732313a207472616e7366657220746f206e6f6e20455243373231526560448201527131b2b4bb32b91034b6b83632b6b2b73a32b960711b6064820152608490fd5b916101469391610e3e93610e39838383610fcc565b6112b1565b610dbc565b610cdd61015c91610e52600090565b50601a610cb3565b610e6382610973565b91610e6d8361025a565b610e768361025a565b14928315610ea7575b508215610e8b57505090565b610ea3919250610e9d6106bb91610cbd565b9261025a565b1490565b610eb49193508290610ced565b9138610e7f565b15610ec257565b60405162461bcd60e51b815260206004820152602560248201527f4552433732313a207472616e736665722066726f6d20696e636f72726563742060448201526437bbb732b960d91b6064820152608490fd5b15610f1c57565b60405162461bcd60e51b8152602060048201526024808201527f4552433732313a207472616e7366657220746f20746865207a65726f206164646044820152637265737360e01b6064820152608490fd5b916001600160a01b0360089290920291821b911b61076b565b9190610f9761015c6107b293610792565b908354610f6d565b61014691600091610f86565b906000199061076b565b90610fc561015c6107b292610aac565b8254610fab565b9190610fec610fda83610973565b610fe66106bb8661025a565b14610ebb565b61103860006110106110006106b683610628565b6110098561025a565b1415610f15565b61102861101c85610973565b610fe66106bb8861025a565b61103384601c610cb3565b610f9f565b61107c6110456001610aac565b61106c61107284601b610d0861105b8a836108c7565b61106c87611068836108e6565b0390565b90610fb5565b916101f7836108e6565b6110908161108b84601a610cb3565b61079b565b6110cc6110c66110c07fddf252ad1be2c89b69c2b068fc378daa952ba7f163c4a11628f55a4df523b3ef95610792565b92610792565b92610aac565b926110d660405190565b600090a4565b906110ec8261108b83601c610cb3565b6110f581610973565b916110cc6110c66110c07f8c5be1e5ebec7d5bd14f71427d1e84f3dd0314c0f7b2291e5b200ac8c7c3b92595610792565b1561112d57565b60405162461bcd60e51b815260206004820152601960248201527822a9219b99189d1030b8383937bb32903a379031b0b63632b960391b6044820152606490fd5b9060ff9061076b565b9061118761015c6107b292151590565b825461116e565b6111aa61119a8361025a565b6111a38361025a565b1415611126565b6111c2836111bd84610d0885601d6108c7565b611177565b61080c6111f86111f27f17307eab39ab6107e8899845ad3d59bd9653f200f220920489ca2b5937696c3193610792565b93610792565b9361018260405190565b61120e61014691611213565b61092c565b61121e90600061097a565b61122e6106bb6106b66000610628565b141590565b9050519061014682610124565b906020828203126101345761015c91611233565b90926112859061127e61015c969461127460808601976000870190610266565b6020850190610266565b6040830152565b60608184039101526101c3565b3d156112ac576112a13d610ab9565b903d6000602084013e565b606090565b919093926112bd600090565b946112c7816113ae565b156113a4579061130e60006112e66112e160209695610792565b610792565b9261131963150b7a02916112f73390565b9661130160405190565b998a988997889660e01b90565b865260048601611254565b03925af160009181611374575b506113585750611334611292565b8051611343610b326000610aac565b0361135057604051610dc7565b805190602001fd5b909150610ea361136e630a85bd0160e11b610117565b91610117565b61139691925060203d811161139d575b61138e818361046e565b810190611240565b9038611326565b503d611384565b5060019450505050565b3b6113bc610b326000610aac565b1190565b369037565b906101466113db6113d584610ab9565b936104a8565b601f1901602084016113c0565b634e487b7160e01b600052601260045260246000fd5b8115611408570490565b6113e8565b611416816114ac565b906114266001926101f784610aac565b9180611431846113c5565b936020018401905b611444575b50505090565b6114789060001901926f181899199a1a9b1b9c1cb0b131b232b360811b600a82061a8453611472600a610aac565b906113fe565b9081611487610b326000610aac565b1461149457909181611439565b61143e565b610ea361136e6301ffc9a760e01b610117565b6114b66000610aac565b9072184f03e93ff9f4daa797ed6e38ed64bf6a1f0160401b6114d781610aac565b821015611628575b506904ee2d6d415b85acef8160201b6114f781610aac565b821015611606575b50662386f26fc1000061151181610aac565b8210156115e4575b506305f5e10061152881610aac565b8210156115c2575b5061271061153d81610aac565b8210156115a0575b50606461155181610aac565b82101561157e575b50611567610b32600a610aac565b10156115705790565b61015c906101f76001610aac565b6115999161147261158e92610aac565b916101f76002610aac565b9038611559565b6115bb916114726115b092610aac565b916101f76004610aac565b9038611545565b6115dd916114726115d292610aac565b916101f76008610aac565b9038611530565b6115ff916114726115f492610aac565b916101f76010610aac565b9038611519565b6116219161147261161692610aac565b916101f76020610aac565b90386114ff565b6116439161147261163892610aac565b916101f76040610aac565b90386114df56fea2646970667358221220f95ee84a62d430c9a2e05cefe7d99a60fbfc1c5350f9009f9de50a9765b55dba64736f6c63430008130033",
  "linkReferences": {},
  "deployedLinkReferences": {}
}